{
  "contracts/PublicSale.sol": {
    "PublicSale": {
      "abi": [
        {
          "inputs": [
            {
              "internalType": "address",
              "name": "governor_",
              "type": "address"
            },
            {
              "internalType": "address",
              "name": "currency_",
              "type": "address"
            },
            {
              "internalType": "address",
              "name": "underlying_",
              "type": "address"
            },
            {
              "internalType": "uint256",
              "name": "price_",
              "type": "uint256"
            },
            {
              "internalType": "uint256",
              "name": "timeOffer_",
              "type": "uint256"
            },
            {
              "internalType": "uint256",
              "name": "timeClaim_",
              "type": "uint256"
            },
            {
              "internalType": "address payable",
              "name": "recipient_",
              "type": "address"
            },
            {
              "internalType": "address payable",
              "name": "feeOwner_",
              "type": "address"
            },
            {
              "internalType": "uint256",
              "name": "feeRatio_",
              "type": "uint256"
            },
            {
              "internalType": "uint256",
              "name": "minUsdtTotalOffered_",
              "type": "uint256"
            },
            {
              "internalType": "uint256",
              "name": "maxUsdtTotalOffered_",
              "type": "uint256"
            }
          ],
          "stateMutability": "nonpayable",
          "type": "constructor"
        },
        {
          "anonymous": false,
          "inputs": [
            {
              "indexed": true,
              "internalType": "address",
              "name": "acct",
              "type": "address"
            },
            {
              "indexed": false,
              "internalType": "uint256",
              "name": "amount",
              "type": "uint256"
            },
            {
              "indexed": false,
              "internalType": "uint256",
              "name": "volume",
              "type": "uint256"
            },
            {
              "indexed": false,
              "internalType": "uint256",
              "name": "rate",
              "type": "uint256"
            }
          ],
          "name": "Claim",
          "type": "event"
        },
        {
          "anonymous": false,
          "inputs": [
            {
              "indexed": true,
              "internalType": "address",
              "name": "previousGovernor",
              "type": "address"
            },
            {
              "indexed": true,
              "internalType": "address",
              "name": "newGovernor",
              "type": "address"
            }
          ],
          "name": "GovernorshipTransferred",
          "type": "event"
        },
        {
          "anonymous": false,
          "inputs": [
            {
              "indexed": true,
              "internalType": "address",
              "name": "acct",
              "type": "address"
            },
            {
              "indexed": false,
              "internalType": "uint256",
              "name": "amount",
              "type": "uint256"
            },
            {
              "indexed": false,
              "internalType": "uint256",
              "name": "totalCurrency",
              "type": "uint256"
            }
          ],
          "name": "Offer",
          "type": "event"
        },
        {
          "anonymous": false,
          "inputs": [
            {
              "indexed": true,
              "internalType": "address",
              "name": "addr",
              "type": "address"
            },
            {
              "indexed": false,
              "internalType": "uint256",
              "name": "volumeUsdt",
              "type": "uint256"
            },
            {
              "indexed": false,
              "internalType": "uint256",
              "name": "total",
              "type": "uint256"
            }
          ],
          "name": "Revert",
          "type": "event"
        },
        {
          "anonymous": false,
          "inputs": [
            {
              "indexed": true,
              "internalType": "address",
              "name": "addr",
              "type": "address"
            },
            {
              "indexed": false,
              "internalType": "uint256",
              "name": "balance",
              "type": "uint256"
            },
            {
              "indexed": false,
              "internalType": "uint256",
              "name": "recipientBalance",
              "type": "uint256"
            }
          ],
          "name": "WithdrawCurrency",
          "type": "event"
        },
        {
          "anonymous": false,
          "inputs": [
            {
              "indexed": false,
              "internalType": "address",
              "name": "to",
              "type": "address"
            },
            {
              "indexed": false,
              "internalType": "uint256",
              "name": "amount",
              "type": "uint256"
            },
            {
              "indexed": false,
              "internalType": "uint256",
              "name": "volume",
              "type": "uint256"
            }
          ],
          "name": "Withdrawn",
          "type": "event"
        },
        {
          "stateMutability": "nonpayable",
          "type": "fallback"
        },
        {
          "inputs": [],
          "name": "claim",
          "outputs": [],
          "stateMutability": "nonpayable",
          "type": "function"
        },
        {
          "inputs": [
            {
              "internalType": "address",
              "name": "acct",
              "type": "address"
            }
          ],
          "name": "claimable",
          "outputs": [
            {
              "internalType": "bool",
              "name": "completed_",
              "type": "bool"
            },
            {
              "internalType": "uint256",
              "name": "amount",
              "type": "uint256"
            },
            {
              "internalType": "uint256",
              "name": "volume",
              "type": "uint256"
            },
            {
              "internalType": "uint256",
              "name": "rate",
              "type": "uint256"
            }
          ],
          "stateMutability": "view",
          "type": "function"
        },
        {
          "inputs": [],
          "name": "completed",
          "outputs": [
            {
              "internalType": "bool",
              "name": "",
              "type": "bool"
            }
          ],
          "stateMutability": "view",
          "type": "function"
        },
        {
          "inputs": [],
          "name": "contractType",
          "outputs": [
            {
              "internalType": "uint256",
              "name": "",
              "type": "uint256"
            }
          ],
          "stateMutability": "view",
          "type": "function"
        },
        {
          "inputs": [],
          "name": "currency",
          "outputs": [
            {
              "internalType": "address",
              "name": "",
              "type": "address"
            }
          ],
          "stateMutability": "view",
          "type": "function"
        },
        {
          "inputs": [],
          "name": "feeOwner",
          "outputs": [
            {
              "internalType": "address payable",
              "name": "",
              "type": "address"
            }
          ],
          "stateMutability": "view",
          "type": "function"
        },
        {
          "inputs": [],
          "name": "feeRatio",
          "outputs": [
            {
              "internalType": "uint256",
              "name": "",
              "type": "uint256"
            }
          ],
          "stateMutability": "view",
          "type": "function"
        },
        {
          "inputs": [],
          "name": "governor",
          "outputs": [
            {
              "internalType": "address",
              "name": "",
              "type": "address"
            }
          ],
          "stateMutability": "view",
          "type": "function"
        },
        {
          "inputs": [],
          "name": "maxUsdtTotalOffered",
          "outputs": [
            {
              "internalType": "uint256",
              "name": "",
              "type": "uint256"
            }
          ],
          "stateMutability": "view",
          "type": "function"
        },
        {
          "inputs": [],
          "name": "minUsdtTotalOffered",
          "outputs": [
            {
              "internalType": "uint256",
              "name": "",
              "type": "uint256"
            }
          ],
          "stateMutability": "view",
          "type": "function"
        },
        {
          "inputs": [
            {
              "internalType": "uint256",
              "name": "amount",
              "type": "uint256"
            }
          ],
          "name": "offer",
          "outputs": [],
          "stateMutability": "nonpayable",
          "type": "function"
        },
        {
          "inputs": [],
          "name": "price",
          "outputs": [
            {
              "internalType": "uint256",
              "name": "",
              "type": "uint256"
            }
          ],
          "stateMutability": "view",
          "type": "function"
        },
        {
          "inputs": [
            {
              "internalType": "address",
              "name": "",
              "type": "address"
            }
          ],
          "name": "purchasedCurrencyOf",
          "outputs": [
            {
              "internalType": "uint256",
              "name": "",
              "type": "uint256"
            }
          ],
          "stateMutability": "view",
          "type": "function"
        },
        {
          "inputs": [],
          "name": "recipient",
          "outputs": [
            {
              "internalType": "address payable",
              "name": "",
              "type": "address"
            }
          ],
          "stateMutability": "view",
          "type": "function"
        },
        {
          "inputs": [],
          "name": "renounceGovernorship",
          "outputs": [],
          "stateMutability": "nonpayable",
          "type": "function"
        },
        {
          "inputs": [
            {
              "internalType": "address",
              "name": "_token",
              "type": "address"
            },
            {
              "internalType": "address",
              "name": "_dst",
              "type": "address"
            }
          ],
          "name": "rescueTokens",
          "outputs": [],
          "stateMutability": "nonpayable",
          "type": "function"
        },
        {
          "inputs": [
            {
              "internalType": "address payable",
              "name": "feeOwner_",
              "type": "address"
            }
          ],
          "name": "setFeeOwner",
          "outputs": [],
          "stateMutability": "nonpayable",
          "type": "function"
        },
        {
          "inputs": [
            {
              "internalType": "uint256",
              "name": "feeRatio_",
              "type": "uint256"
            }
          ],
          "name": "setFeeRatio",
          "outputs": [],
          "stateMutability": "nonpayable",
          "type": "function"
        },
        {
          "inputs": [
            {
              "internalType": "uint256",
              "name": "maxUsdtTotalOffered_",
              "type": "uint256"
            }
          ],
          "name": "setMaxUsdtTotalOffered",
          "outputs": [],
          "stateMutability": "nonpayable",
          "type": "function"
        },
        {
          "inputs": [
            {
              "internalType": "uint256",
              "name": "minUsdtTotalOffered_",
              "type": "uint256"
            }
          ],
          "name": "setMinUsdtTotalOffered",
          "outputs": [],
          "stateMutability": "nonpayable",
          "type": "function"
        },
        {
          "inputs": [
            {
              "internalType": "address payable",
              "name": "recipient_",
              "type": "address"
            }
          ],
          "name": "setRecipient",
          "outputs": [],
          "stateMutability": "nonpayable",
          "type": "function"
        },
        {
          "inputs": [
            {
              "internalType": "uint256",
              "name": "timeClaim_",
              "type": "uint256"
            }
          ],
          "name": "setTimeClaim",
          "outputs": [],
          "stateMutability": "nonpayable",
          "type": "function"
        },
        {
          "inputs": [
            {
              "internalType": "uint256",
              "name": "timeOffer_",
              "type": "uint256"
            }
          ],
          "name": "setTimeOffer",
          "outputs": [],
          "stateMutability": "nonpayable",
          "type": "function"
        },
        {
          "inputs": [],
          "name": "settleRate",
          "outputs": [
            {
              "internalType": "uint256",
              "name": "",
              "type": "uint256"
            }
          ],
          "stateMutability": "view",
          "type": "function"
        },
        {
          "inputs": [
            {
              "internalType": "address",
              "name": "",
              "type": "address"
            }
          ],
          "name": "settledCurrencyOf",
          "outputs": [
            {
              "internalType": "uint256",
              "name": "",
              "type": "uint256"
            }
          ],
          "stateMutability": "view",
          "type": "function"
        },
        {
          "inputs": [
            {
              "internalType": "address",
              "name": "",
              "type": "address"
            }
          ],
          "name": "settledUnderlyingOf",
          "outputs": [
            {
              "internalType": "uint256",
              "name": "",
              "type": "uint256"
            }
          ],
          "stateMutability": "view",
          "type": "function"
        },
        {
          "inputs": [],
          "name": "timeClaim",
          "outputs": [
            {
              "internalType": "uint256",
              "name": "",
              "type": "uint256"
            }
          ],
          "stateMutability": "view",
          "type": "function"
        },
        {
          "inputs": [],
          "name": "timeOffer",
          "outputs": [
            {
              "internalType": "uint256",
              "name": "",
              "type": "uint256"
            }
          ],
          "stateMutability": "view",
          "type": "function"
        },
        {
          "inputs": [],
          "name": "totalClaimable",
          "outputs": [
            {
              "internalType": "bool",
              "name": "completed_",
              "type": "bool"
            },
            {
              "internalType": "uint256",
              "name": "amount",
              "type": "uint256"
            },
            {
              "internalType": "uint256",
              "name": "volume",
              "type": "uint256"
            },
            {
              "internalType": "uint256",
              "name": "rate",
              "type": "uint256"
            }
          ],
          "stateMutability": "view",
          "type": "function"
        },
        {
          "inputs": [],
          "name": "totalPurchasedCurrency",
          "outputs": [
            {
              "internalType": "uint256",
              "name": "",
              "type": "uint256"
            }
          ],
          "stateMutability": "view",
          "type": "function"
        },
        {
          "inputs": [],
          "name": "totalSettledUnderlying",
          "outputs": [
            {
              "internalType": "uint256",
              "name": "",
              "type": "uint256"
            }
          ],
          "stateMutability": "view",
          "type": "function"
        },
        {
          "inputs": [
            {
              "internalType": "address",
              "name": "newGovernor",
              "type": "address"
            }
          ],
          "name": "transferGovernorship",
          "outputs": [],
          "stateMutability": "nonpayable",
          "type": "function"
        },
        {
          "inputs": [],
          "name": "underlying",
          "outputs": [
            {
              "internalType": "address",
              "name": "",
              "type": "address"
            }
          ],
          "stateMutability": "view",
          "type": "function"
        },
        {
          "inputs": [
            {
              "internalType": "address payable",
              "name": "to",
              "type": "address"
            },
            {
              "internalType": "uint256",
              "name": "amount",
              "type": "uint256"
            },
            {
              "internalType": "uint256",
              "name": "volume",
              "type": "uint256"
            }
          ],
          "name": "withdraw",
          "outputs": [],
          "stateMutability": "nonpayable",
          "type": "function"
        },
        {
          "inputs": [],
          "name": "withdrawCurrencyToken",
          "outputs": [],
          "stateMutability": "nonpayable",
          "type": "function"
        },
        {
          "inputs": [
            {
              "internalType": "address payable",
              "name": "_dst",
              "type": "address"
            }
          ],
          "name": "withdrawEth",
          "outputs": [],
          "stateMutability": "nonpayable",
          "type": "function"
        },
        {
          "inputs": [],
          "name": "withdrawEth",
          "outputs": [],
          "stateMutability": "nonpayable",
          "type": "function"
        },
        {
          "inputs": [
            {
              "internalType": "address",
              "name": "_dst",
              "type": "address"
            }
          ],
          "name": "withdrawToken",
          "outputs": [],
          "stateMutability": "nonpayable",
          "type": "function"
        },
        {
          "inputs": [],
          "name": "withdrawToken",
          "outputs": [],
          "stateMutability": "nonpayable",
          "type": "function"
        },
        {
          "inputs": [],
          "name": "withdrawable",
          "outputs": [
            {
              "internalType": "uint256",
              "name": "amt",
              "type": "uint256"
            },
            {
              "internalType": "uint256",
              "name": "vol",
              "type": "uint256"
            }
          ],
          "stateMutability": "view",
          "type": "function"
        }
      ],
      "evm": {
        "bytecode": {
          "linkReferences": {},
          "object": "60806040523480156200001157600080fd5b50604051620025e4380380620025e483398181016040526101608110156200003857600080fd5b508051602082015160408301516060840151608085015160a086015160c087015160e08801516101008901516101208a0151610140909a01519899979896979596949593949293919290919081811015620000ce576040805162461bcd60e51b815260206004820152601160248201527036b0bc1039b437bab6321033ba1036b4b760791b604482015290519081900360640190fd5b620000e28b6001600160e01b03620001c016565b600180546001600160a01b03808d166001600160a01b03199283161790925560028054928c169290911691909117905560038890556004879055600b8690558686101562000177576040805162461bcd60e51b815260206004820152601f60248201527f74696d65436c61696d5f2073686f756c64203e3d2074696d654f666665725f00604482015290519081900360640190fd5b600f80546001600160a01b03199081166001600160a01b0397881617909155600e939093556010805490931693909416929092179055601155601255506200022f945050505050565b6001600160a01b038116620001d457600080fd5b600080546040516001600160a01b03808516939216917fc7c0c772add429241571afb3805861fb3cfa2af374534088b76cdb4325a87e9a91a3600080546001600160a01b0319166001600160a01b0392909216919091179055565b6123a5806200023f6000396000f3fe608060405234801561001057600080fd5b50600436106102c85760003560e01c806378c8e65f1161017b578063b5c5f672116100d8578063ca628c781161008c578063e5a6b10f11610071578063e5a6b10f1461061e578063ef14517814610626578063f27cf0631461064c576102c8565b8063ca628c781461060e578063cb2ef6f714610616576102c8565b8063b81d51d6116100bd578063b81d51d6146105d8578063b9818be1146105fe578063c59504cc14610606576102c8565b8063b5c5f67214610580578063b6aa515b146105b2576102c8565b80639d9a7fe91161012f578063a035b1fe11610114578063a035b1fe1461054a578063a0ef91df14610552578063b3a60f961461055a576102c8565b80639d9a7fe9146105265780639da6129814610542576102c8565b806384ca93a71161016057806384ca93a7146104db57806389476069146104e35780638d52fcef14610509576102c8565b806378c8e65f146104cb57806381c0c263146104d3576102c8565b806341744dd41161022957806350188301116101dd57806366d003ac116101c257806366d003ac1461049e5780636f307dc3146104a6578063761610fc146104ae576102c8565b8063501883011461044f5780635431c94e14610470576102c8565b80634b104eff1161020e5780634b104eff1461040c5780634b34f931146104325780634e71d92d146102c8576102c8565b806341744dd4146103fc5780634838ed1914610404576102c8565b8063356130bc1161028057806336cb07631161026557806336cb0763146103805780633bbed4a014610388578063402914f5146103ae576102c8565b8063356130bc1461035b578063368e9d6a14610363576102c8565b806319f4ff2f116102b157806319f4ff2f1461031057806325e160631461032d57806326d7d2c314610353576102c8565b80630c340a24146102d257806316d95c1e146102f6575b6102d0610669565b005b6102da610af8565b604080516001600160a01b039092168252519081900360200190f35b6102fe610b07565b60408051918252519081900360200190f35b6102d06004803603602081101561032657600080fd5b5035610b0d565b6102d06004803603602081101561034357600080fd5b50356001600160a01b0316610b29565b6102d0610b79565b6102fe610d00565b6102d06004803603602081101561037957600080fd5b5035610d06565b6102fe610d22565b6102d06004803603602081101561039e57600080fd5b50356001600160a01b0316610d28565b6103d4600480360360208110156103c457600080fd5b50356001600160a01b0316610d79565b6040805194151585526020850193909352838301919091526060830152519081900360800190f35b6102fe61103b565b6103d4611041565b6102d06004803603602081101561042257600080fd5b50356001600160a01b031661105f565b6102d06004803603602081101561044857600080fd5b50356110b0565b610457611123565b6040805192835260208301919091528051918290030190f35b6102d06004803603604081101561048657600080fd5b506001600160a01b0381358116916020013516611354565b6102da61141b565b6102da61142a565b6102d0600480360360208110156104c457600080fd5b5035611439565b6102fe611927565b6102d061192d565b6102fe6119a6565b6102d0600480360360208110156104f957600080fd5b50356001600160a01b03166119ac565b6102d06004803603602081101561051f57600080fd5b50356119dc565b61052e6119f8565b604080519115158252519081900360200190f35b6102fe611a01565b6102fe611a07565b6102d0611a0d565b6102fe6004803603602081101561057057600080fd5b50356001600160a01b0316611a50565b6102d06004803603606081101561059657600080fd5b506001600160a01b038135169060208101359060400135611a62565b6102d0600480360360208110156105c857600080fd5b50356001600160a01b0316611bce565b6102fe600480360360208110156105ee57600080fd5b50356001600160a01b0316611bee565b6102da611c00565b6102fe611c0f565b6102d0611c15565b6102fe611c42565b6102da611c47565b6102fe6004803603602081101561063c57600080fd5b50356001600160a01b0316611c56565b6102d06004803603602081101561066257600080fd5b5035611c68565b600b544210156106c0576040805162461bcd60e51b815260206004820152601760248201527f4974206973206e6f742074696d65436c61696d20796574000000000000000000604482015290519081900360640190fd5b6011546005541015610889573360009081526006602052604090205461072d576040805162461bcd60e51b815260206004820152601e60248201527f7075726368617365642043757272656e63792073686f756c6420677420300000604482015290519081900360640190fd5b600554600154604080517f70a0823100000000000000000000000000000000000000000000000000000000815230600482015290516001600160a01b03909216916370a0823191602480820192602092909190829003018186803b15801561079457600080fd5b505afa1580156107a8573d6000803e3d6000fd5b505050506040513d60208110156107be57600080fd5b505110156107fd5760405162461bcd60e51b81526004018080602001828103825260298152602001806122f56029913960400191505060405180910390fd5b3360009081526006602052604081208054919055600554610824908263ffffffff611cdb16565b600555600154610844906001600160a01b0316338363ffffffff611d2616565b600554604080518381526020810192909252805133927f0308c23d95247f0643fa21764a468f2ca3b9ef1ec7377d2370ba3e7c0ac9dcd292908290030190a250610af6565b3360009081526009602052604090205415806108b25750336000908152600d6020526040902054155b610903576040805162461bcd60e51b815260206004820152600f60248201527f736574746c656420616c72656164790000000000000000000000000000000000604482015290519081900360640190fd5b60008060008061091233610d79565b93509350935093508361095057600780547fffffffffffffffffffffffffffffffffffffffffffffffffffffffffffffff00166001179055600a8190555b336000908152600d6020526040902054610970908463ffffffff611da616565b336000908152600d6020526040902055600c54610993908463ffffffff611da616565b600c556001546001600160a01b03166109d957604051339084156108fc029085906000818181858888f193505050501580156109d3573d6000803e3d6000fd5b506109f6565b6001546109f6906001600160a01b0316338563ffffffff611d2616565b6000831180610a075750600b544210155b610a425760405162461bcd60e51b81526004018080602001828103825260288152602001806123486028913960400191505060405180910390fd5b600b544210610aae5733600090815260096020526040902054610a6b908363ffffffff611da616565b33600090815260096020526040902055600854610a8e908363ffffffff611da616565b600855600254610aae906001600160a01b0316338463ffffffff611d2616565b6040805184815260208101849052808201839052905133917f45c072aa05b9853b5a993de7a28bc332ee01404a628cec1a23ce0f659f842ef1919081900360600190a2505050505b565b6000546001600160a01b031681565b60115481565b6000546001600160a01b03163314610b2457600080fd5b600e55565b6000546001600160a01b03163314610b4057600080fd5b6040516001600160a01b038216904780156108fc02916000818181858888f19350505050158015610b75573d6000803e3d6000fd5b5050565b6000546001600160a01b03163314610b9057600080fd5b600154604080517f70a0823100000000000000000000000000000000000000000000000000000000815230600482015290516000926001600160a01b0316916370a08231916024808301926020929190829003018186803b158015610bf457600080fd5b505afa158015610c08573d6000803e3d6000fd5b505050506040513d6020811015610c1e57600080fd5b5051600e54909150600090610c5490670de0b6b3a764000090610c4890859063ffffffff611e0016565b9063ffffffff611e5916565b90506000610c68838363ffffffff611cdb16565b600f54600154919250610c8e916001600160a01b0390811691168363ffffffff611d2616565b601054600154610cb1916001600160a01b0391821691168463ffffffff611d2616565b600f54604080518581526020810184905281516001600160a01b03909316927ff0fa8383bc9412382eb19bc4c20cb3a68b6a8c505d5deb5fcd132e260250f983929181900390910190a2505050565b600b5481565b6000546001600160a01b03163314610d1d57600080fd5b600b55565b60085481565b6000546001600160a01b03163314610d3f57600080fd5b600f80547fffffffffffffffffffffffff0000000000000000000000000000000000000000166001600160a01b0392909216919091179055565b60075460ff16600080808315610d925750600a54610f36565b6001546000906001600160a01b031615610e3b57600154604080517f70a0823100000000000000000000000000000000000000000000000000000000815230600482015290516001600160a01b03909216916370a0823191602480820192602092909190829003018186803b158015610e0a57600080fd5b505afa158015610e1e573d6000803e3d6000fd5b505050506040513d6020811015610e3457600080fd5b5051610e3d565b475b600254604080517f70a0823100000000000000000000000000000000000000000000000000000000815230600482015290519293506000926001600160a01b03909216916370a0823191602480820192602092909190829003018186803b158015610ea757600080fd5b505afa158015610ebb573d6000803e3d6000fd5b505050506040513d6020811015610ed157600080fd5b50519050610eed82670de0b6b3a764000063ffffffff611e0016565b600354610f0190839063ffffffff611e0016565b1015610f2757610f2082610c4860035484611e0090919063ffffffff16565b9250610f33565b670de0b6b3a764000092505b50505b60006001600160a01b03861615610f65576001600160a01b038616600090815260066020526040902054610f69565b6005545b90506000610f89670de0b6b3a7640000610c48848663ffffffff611e0016565b9050610fdb6001600160a01b03881615610fbb576001600160a01b0388166000908152600d6020526040902054610fbf565b600c545b610fcf848463ffffffff611cdb16565b9063ffffffff611cdb16565b94506110306001600160a01b0388161561100d576001600160a01b038816600090815260096020526040902054611011565b6008545b600354610fcf90610c4885670de0b6b3a764000063ffffffff611e0016565b935050509193509193565b600e5481565b6000806000806110516000610d79565b935093509350935090919293565b6000546001600160a01b0316331461107657600080fd5b601080547fffffffffffffffffffffffff0000000000000000000000000000000000000000166001600160a01b0392909216919091179055565b6000546001600160a01b031633146110c757600080fd5b60115481101561111e576040805162461bcd60e51b815260206004820152601160248201527f6d61782073686f756c64206774206d696e000000000000000000000000000000604482015290519081900360640190fd5b601255565b600754600090819060ff1661113d57506000905080611350565b6001546001600160a01b0316156111e357600154604080517f70a0823100000000000000000000000000000000000000000000000000000000815230600482015290516001600160a01b03909216916370a0823191602480820192602092909190829003018186803b1580156111b257600080fd5b505afa1580156111c6573d6000803e3d6000fd5b505050506040513d60208110156111dc57600080fd5b50516111e5565b475b915061128a611225670de0b6b3a7640000610c48611216600a54670de0b6b3a7640000611cdb90919063ffffffff16565b6005549063ffffffff611e0016565b610fcf61127d670de0b6b3a7640000610c48611254600a54670de0b6b3a7640000611cdb90919063ffffffff16565b611271600a54610c48600354600854611e0090919063ffffffff16565b9063ffffffff611e0016565b859063ffffffff611da616565b915061134d6112ac600354610c48600a54600554611e0090919063ffffffff16565b600854600254604080517f70a082310000000000000000000000000000000000000000000000000000000081523060048201529051610fcf93926001600160a01b0316916370a08231916024808301926020929190829003018186803b15801561131557600080fd5b505afa158015611329573d6000803e3d6000fd5b505050506040513d602081101561133f57600080fd5b50519063ffffffff611da616565b90505b9091565b6000546001600160a01b0316331461136b57600080fd5b604080517f70a0823100000000000000000000000000000000000000000000000000000000815230600482015290516000916001600160a01b038516916370a0823191602480820192602092909190829003018186803b1580156113ce57600080fd5b505afa1580156113e2573d6000803e3d6000fd5b505050506040513d60208110156113f857600080fd5b505190506114166001600160a01b038416838363ffffffff611d2616565b505050565b600f546001600160a01b031681565b6002546001600160a01b031681565b6001546001600160a01b0316611496576040805162461bcd60e51b815260206004820152601e60248201527f73686f756c642063616c6c206f66666572457468282920696e73746561640000604482015290519081900360640190fd5b6004544210156114ed576040805162461bcd60e51b815260206004820152601160248201527f69742773206e6f742074696d6520796574000000000000000000000000000000604482015290519081900360640190fd5b60008111611542576040805162461bcd60e51b815260206004820152601260248201527f616d6f756e742073686f756c6420677420300000000000000000000000000000604482015290519081900360640190fd5b600b544210611598576040805162461bcd60e51b815260206004820152600760248201527f6578706972656400000000000000000000000000000000000000000000000000604482015290519081900360640190fd5b600081116115ed576040805162461bcd60e51b815260206004820152600860248201527f6e6f2071756f7461000000000000000000000000000000000000000000000000604482015290519081900360640190fd5b600154604080517fdd62ed3e000000000000000000000000000000000000000000000000000000008152336004820152306024820152905183926001600160a01b03169163dd62ed3e916044808301926020929190829003018186803b15801561165657600080fd5b505afa15801561166a573d6000803e3d6000fd5b505050506040513d602081101561168057600080fd5b505110156116d5576040805162461bcd60e51b815260206004820152601460248201527f616c6c6f77616e6365206e6f7420656e6f756768000000000000000000000000604482015290519081900360640190fd5b600154604080517f70a08231000000000000000000000000000000000000000000000000000000008152336004820152905183926001600160a01b0316916370a08231916024808301926020929190829003018186803b15801561173857600080fd5b505afa15801561174c573d6000803e3d6000fd5b505050506040513d602081101561176257600080fd5b505110156117b7576040805162461bcd60e51b815260206004820152601260248201527f62616c616e6365206e6f7420656e6f7567680000000000000000000000000000604482015290519081900360640190fd5b3360009081526006602052604090205415611819576040805162461bcd60e51b815260206004820152600f60248201527f6f66666572656420616c72656164790000000000000000000000000000000000604482015290519081900360640190fd5b60125460055461182f908363ffffffff611da616565b1115611882576040805162461bcd60e51b815260206004820152601e60248201527f73686f756c64206773206d617855736474546f74616c4f666665726564730000604482015290519081900360640190fd5b6001546118a0906001600160a01b031633308463ffffffff611e9b16565b336000908152600660205260409020546118c0908263ffffffff611da616565b336000908152600660205260409020556005546118e3908263ffffffff611da616565b6005819055604080518381526020810192909252805133927f4a68fde121386ffcfc9555407bfb38625033a0d0d3726b00f56b4ab304b5544792908290030190a250565b60045481565b6000546001600160a01b0316331461194457600080fd5b600080546040516001600160a01b03909116907fc7c0c772add429241571afb3805861fb3cfa2af374534088b76cdb4325a87e9a908390a3600080547fffffffffffffffffffffffff0000000000000000000000000000000000000000169055565b60055481565b6000546001600160a01b031633146119c357600080fd5b6002546119d9906001600160a01b031682611354565b50565b6000546001600160a01b031633146119f357600080fd5b600455565b60075460ff1681565b60125481565b60035481565b6000546001600160a01b03163314611a2457600080fd5b60405133904780156108fc02916000818181858888f193505050501580156119d9573d6000803e3d6000fd5b60066020526000908152604090205481565b6000546001600160a01b03163314611a7957600080fd5b60075460ff16611ad0576040805162461bcd60e51b815260206004820152600b60248201527f756e636f6d706c65746564000000000000000000000000000000000000000000604482015290519081900360640190fd5b600080611adb611123565b91509150611ae98483611f29565b9350611af58382611f29565b6001549093506001600160a01b0316611b44576040516001600160a01b0386169085156108fc029086906000818181858888f19350505050158015611b3e573d6000803e3d6000fd5b50611b61565b600154611b61906001600160a01b0316868663ffffffff611d2616565b600254611b7e906001600160a01b0316868563ffffffff611d2616565b604080516001600160a01b03871681526020810186905280820185905290517f92ccf450a286a957af52509bc1c9939d1a6a481783e142e41e2499f0bb66ebc69181900360600190a15050505050565b6000546001600160a01b03163314611be557600080fd5b6119d981611f3f565b60096020526000908152604090205481565b6010546001600160a01b031681565b600a5481565b6000546001600160a01b03163314611c2c57600080fd5b600254610af6906001600160a01b031633611354565b600281565b6001546001600160a01b031681565b600d6020526000908152604090205481565b6000546001600160a01b03163314611c7f57600080fd5b806012541015611cd6576040805162461bcd60e51b815260206004820152601160248201527f6d61782073686f756c64206774206d696e000000000000000000000000000000604482015290519081900360640190fd5b601155565b6000611d1d83836040518060400160405280601e81526020017f536166654d6174683a207375627472616374696f6e206f766572666c6f770000815250611fc5565b90505b92915050565b604080516001600160a01b038416602482015260448082018490528251808303909101815260649091019091526020810180517bffffffffffffffffffffffffffffffffffffffffffffffffffffffff167fa9059cbb0000000000000000000000000000000000000000000000000000000017905261141690849061205c565b600082820183811015611d1d576040805162461bcd60e51b815260206004820152601b60248201527f536166654d6174683a206164646974696f6e206f766572666c6f770000000000604482015290519081900360640190fd5b600082611e0f57506000611d20565b82820282848281611e1c57fe5b0414611d1d5760405162461bcd60e51b81526004018080602001828103825260218152602001806122d46021913960400191505060405180910390fd5b6000611d1d83836040518060400160405280601a81526020017f536166654d6174683a206469766973696f6e206279207a65726f000000000000815250612232565b604080516001600160a01b0380861660248301528416604482015260648082018490528251808303909101815260849091019091526020810180517bffffffffffffffffffffffffffffffffffffffffffffffffffffffff167f23b872dd00000000000000000000000000000000000000000000000000000000179052611f2390859061205c565b50505050565b6000818310611f385781611d1d565b5090919050565b6001600160a01b038116611f5257600080fd5b600080546040516001600160a01b03808516939216917fc7c0c772add429241571afb3805861fb3cfa2af374534088b76cdb4325a87e9a91a3600080547fffffffffffffffffffffffff0000000000000000000000000000000000000000166001600160a01b0392909216919091179055565b600081848411156120545760405162461bcd60e51b81526004018080602001828103825283818151815260200191508051906020019080838360005b83811015612019578181015183820152602001612001565b50505050905090810190601f1680156120465780820380516001836020036101000a031916815260200191505b509250505060405180910390fd5b505050900390565b61206e826001600160a01b0316612297565b6120bf576040805162461bcd60e51b815260206004820152601f60248201527f5361666545524332303a2063616c6c20746f206e6f6e2d636f6e747261637400604482015290519081900360640190fd5b60006060836001600160a01b0316836040518082805190602001908083835b6020831061211b57805182527fffffffffffffffffffffffffffffffffffffffffffffffffffffffffffffffe090920191602091820191016120de565b6001836020036101000a0380198251168184511680821785525050505050509050019150506000604051808303816000865af19150503d806000811461217d576040519150601f19603f3d011682016040523d82523d6000602084013e612182565b606091505b5091509150816121d9576040805162461bcd60e51b815260206004820181905260248201527f5361666545524332303a206c6f772d6c6576656c2063616c6c206661696c6564604482015290519081900360640190fd5b805115611f23578080602001905160208110156121f557600080fd5b5051611f235760405162461bcd60e51b815260040180806020018281038252602a81526020018061231e602a913960400191505060405180910390fd5b600081836122815760405162461bcd60e51b8152602060048201818152835160248401528351909283926044909101919085019080838360008315612019578181015183820152602001612001565b50600083858161228d57fe5b0495945050505050565b6000813f7fc5d2460186f7233c927e7db2dcc703c0e500b653ca82273b7bfad8045d85a4708181148015906122cb57508115155b94935050505056fe536166654d6174683a206d756c7469706c69636174696f6e206f766572666c6f772050757263686173652055736474206e756d6265722073686f756c642067742062616c616e616365215361666545524332303a204552433230206f7065726174696f6e20646964206e6f7420737563636565644974206973206e6f742074696d65436c61696d20746f20736574746c6520756e6465726c79696e67a264697066735822122034e90df46310924b7b75cdf7e4a4b9fb9622f910480f61c7e425fc2fb680fa0664736f6c63430006020033",
          "opcodes": "PUSH1 0x80 PUSH1 0x40 MSTORE CALLVALUE DUP1 ISZERO PUSH3 0x11 JUMPI PUSH1 0x0 DUP1 REVERT JUMPDEST POP PUSH1 0x40 MLOAD PUSH3 0x25E4 CODESIZE SUB DUP1 PUSH3 0x25E4 DUP4 CODECOPY DUP2 DUP2 ADD PUSH1 0x40 MSTORE PUSH2 0x160 DUP2 LT ISZERO PUSH3 0x38 JUMPI PUSH1 0x0 DUP1 REVERT JUMPDEST POP DUP1 MLOAD PUSH1 0x20 DUP3 ADD MLOAD PUSH1 0x40 DUP4 ADD MLOAD PUSH1 0x60 DUP5 ADD MLOAD PUSH1 0x80 DUP6 ADD MLOAD PUSH1 0xA0 DUP7 ADD MLOAD PUSH1 0xC0 DUP8 ADD MLOAD PUSH1 0xE0 DUP9 ADD MLOAD PUSH2 0x100 DUP10 ADD MLOAD PUSH2 0x120 DUP11 ADD MLOAD PUSH2 0x140 SWAP1 SWAP11 ADD MLOAD SWAP9 SWAP10 SWAP8 SWAP9 SWAP7 SWAP8 SWAP6 SWAP7 SWAP5 SWAP6 SWAP4 SWAP5 SWAP3 SWAP4 SWAP2 SWAP3 SWAP1 SWAP2 SWAP1 DUP2 DUP2 LT ISZERO PUSH3 0xCE JUMPI PUSH1 0x40 DUP1 MLOAD PUSH3 0x461BCD PUSH1 0xE5 SHL DUP2 MSTORE PUSH1 0x20 PUSH1 0x4 DUP3 ADD MSTORE PUSH1 0x11 PUSH1 0x24 DUP3 ADD MSTORE PUSH17 0x36B0BC1039B437BAB6321033BA1036B4B7 PUSH1 0x79 SHL PUSH1 0x44 DUP3 ADD MSTORE SWAP1 MLOAD SWAP1 DUP2 SWAP1 SUB PUSH1 0x64 ADD SWAP1 REVERT JUMPDEST PUSH3 0xE2 DUP12 PUSH1 0x1 PUSH1 0x1 PUSH1 0xE0 SHL SUB PUSH3 0x1C0 AND JUMP JUMPDEST PUSH1 0x1 DUP1 SLOAD PUSH1 0x1 PUSH1 0x1 PUSH1 0xA0 SHL SUB DUP1 DUP14 AND PUSH1 0x1 PUSH1 0x1 PUSH1 0xA0 SHL SUB NOT SWAP3 DUP4 AND OR SWAP1 SWAP3 SSTORE PUSH1 0x2 DUP1 SLOAD SWAP3 DUP13 AND SWAP3 SWAP1 SWAP2 AND SWAP2 SWAP1 SWAP2 OR SWAP1 SSTORE PUSH1 0x3 DUP9 SWAP1 SSTORE PUSH1 0x4 DUP8 SWAP1 SSTORE PUSH1 0xB DUP7 SWAP1 SSTORE DUP7 DUP7 LT ISZERO PUSH3 0x177 JUMPI PUSH1 0x40 DUP1 MLOAD PUSH3 0x461BCD PUSH1 0xE5 SHL DUP2 MSTORE PUSH1 0x20 PUSH1 0x4 DUP3 ADD MSTORE PUSH1 0x1F PUSH1 0x24 DUP3 ADD MSTORE PUSH32 0x74696D65436C61696D5F2073686F756C64203E3D2074696D654F666665725F00 PUSH1 0x44 DUP3 ADD MSTORE SWAP1 MLOAD SWAP1 DUP2 SWAP1 SUB PUSH1 0x64 ADD SWAP1 REVERT JUMPDEST PUSH1 0xF DUP1 SLOAD PUSH1 0x1 PUSH1 0x1 PUSH1 0xA0 SHL SUB NOT SWAP1 DUP2 AND PUSH1 0x1 PUSH1 0x1 PUSH1 0xA0 SHL SUB SWAP8 DUP9 AND OR SWAP1 SWAP2 SSTORE PUSH1 0xE SWAP4 SWAP1 SWAP4 SSTORE PUSH1 0x10 DUP1 SLOAD SWAP1 SWAP4 AND SWAP4 SWAP1 SWAP5 AND SWAP3 SWAP1 SWAP3 OR SWAP1 SSTORE PUSH1 0x11 SSTORE PUSH1 0x12 SSTORE POP PUSH3 0x22F SWAP5 POP POP POP POP POP JUMP JUMPDEST PUSH1 0x1 PUSH1 0x1 PUSH1 0xA0 SHL SUB DUP2 AND PUSH3 0x1D4 JUMPI PUSH1 0x0 DUP1 REVERT JUMPDEST PUSH1 0x0 DUP1 SLOAD PUSH1 0x40 MLOAD PUSH1 0x1 PUSH1 0x1 PUSH1 0xA0 SHL SUB DUP1 DUP6 AND SWAP4 SWAP3 AND SWAP2 PUSH32 0xC7C0C772ADD429241571AFB3805861FB3CFA2AF374534088B76CDB4325A87E9A SWAP2 LOG3 PUSH1 0x0 DUP1 SLOAD PUSH1 0x1 PUSH1 0x1 PUSH1 0xA0 SHL SUB NOT AND PUSH1 0x1 PUSH1 0x1 PUSH1 0xA0 SHL SUB SWAP3 SWAP1 SWAP3 AND SWAP2 SWAP1 SWAP2 OR SWAP1 SSTORE JUMP JUMPDEST PUSH2 0x23A5 DUP1 PUSH3 0x23F PUSH1 0x0 CODECOPY PUSH1 0x0 RETURN INVALID PUSH1 0x80 PUSH1 0x40 MSTORE CALLVALUE DUP1 ISZERO PUSH2 0x10 JUMPI PUSH1 0x0 DUP1 REVERT JUMPDEST POP PUSH1 0x4 CALLDATASIZE LT PUSH2 0x2C8 JUMPI PUSH1 0x0 CALLDATALOAD PUSH1 0xE0 SHR DUP1 PUSH4 0x78C8E65F GT PUSH2 0x17B JUMPI DUP1 PUSH4 0xB5C5F672 GT PUSH2 0xD8 JUMPI DUP1 PUSH4 0xCA628C78 GT PUSH2 0x8C JUMPI DUP1 PUSH4 0xE5A6B10F GT PUSH2 0x71 JUMPI DUP1 PUSH4 0xE5A6B10F EQ PUSH2 0x61E JUMPI DUP1 PUSH4 0xEF145178 EQ PUSH2 0x626 JUMPI DUP1 PUSH4 0xF27CF063 EQ PUSH2 0x64C JUMPI PUSH2 0x2C8 JUMP JUMPDEST DUP1 PUSH4 0xCA628C78 EQ PUSH2 0x60E JUMPI DUP1 PUSH4 0xCB2EF6F7 EQ PUSH2 0x616 JUMPI PUSH2 0x2C8 JUMP JUMPDEST DUP1 PUSH4 0xB81D51D6 GT PUSH2 0xBD JUMPI DUP1 PUSH4 0xB81D51D6 EQ PUSH2 0x5D8 JUMPI DUP1 PUSH4 0xB9818BE1 EQ PUSH2 0x5FE JUMPI DUP1 PUSH4 0xC59504CC EQ PUSH2 0x606 JUMPI PUSH2 0x2C8 JUMP JUMPDEST DUP1 PUSH4 0xB5C5F672 EQ PUSH2 0x580 JUMPI DUP1 PUSH4 0xB6AA515B EQ PUSH2 0x5B2 JUMPI PUSH2 0x2C8 JUMP JUMPDEST DUP1 PUSH4 0x9D9A7FE9 GT PUSH2 0x12F JUMPI DUP1 PUSH4 0xA035B1FE GT PUSH2 0x114 JUMPI DUP1 PUSH4 0xA035B1FE EQ PUSH2 0x54A JUMPI DUP1 PUSH4 0xA0EF91DF EQ PUSH2 0x552 JUMPI DUP1 PUSH4 0xB3A60F96 EQ PUSH2 0x55A JUMPI PUSH2 0x2C8 JUMP JUMPDEST DUP1 PUSH4 0x9D9A7FE9 EQ PUSH2 0x526 JUMPI DUP1 PUSH4 0x9DA61298 EQ PUSH2 0x542 JUMPI PUSH2 0x2C8 JUMP JUMPDEST DUP1 PUSH4 0x84CA93A7 GT PUSH2 0x160 JUMPI DUP1 PUSH4 0x84CA93A7 EQ PUSH2 0x4DB JUMPI DUP1 PUSH4 0x89476069 EQ PUSH2 0x4E3 JUMPI DUP1 PUSH4 0x8D52FCEF EQ PUSH2 0x509 JUMPI PUSH2 0x2C8 JUMP JUMPDEST DUP1 PUSH4 0x78C8E65F EQ PUSH2 0x4CB JUMPI DUP1 PUSH4 0x81C0C263 EQ PUSH2 0x4D3 JUMPI PUSH2 0x2C8 JUMP JUMPDEST DUP1 PUSH4 0x41744DD4 GT PUSH2 0x229 JUMPI DUP1 PUSH4 0x50188301 GT PUSH2 0x1DD JUMPI DUP1 PUSH4 0x66D003AC GT PUSH2 0x1C2 JUMPI DUP1 PUSH4 0x66D003AC EQ PUSH2 0x49E JUMPI DUP1 PUSH4 0x6F307DC3 EQ PUSH2 0x4A6 JUMPI DUP1 PUSH4 0x761610FC EQ PUSH2 0x4AE JUMPI PUSH2 0x2C8 JUMP JUMPDEST DUP1 PUSH4 0x50188301 EQ PUSH2 0x44F JUMPI DUP1 PUSH4 0x5431C94E EQ PUSH2 0x470 JUMPI PUSH2 0x2C8 JUMP JUMPDEST DUP1 PUSH4 0x4B104EFF GT PUSH2 0x20E JUMPI DUP1 PUSH4 0x4B104EFF EQ PUSH2 0x40C JUMPI DUP1 PUSH4 0x4B34F931 EQ PUSH2 0x432 JUMPI DUP1 PUSH4 0x4E71D92D EQ PUSH2 0x2C8 JUMPI PUSH2 0x2C8 JUMP JUMPDEST DUP1 PUSH4 0x41744DD4 EQ PUSH2 0x3FC JUMPI DUP1 PUSH4 0x4838ED19 EQ PUSH2 0x404 JUMPI PUSH2 0x2C8 JUMP JUMPDEST DUP1 PUSH4 0x356130BC GT PUSH2 0x280 JUMPI DUP1 PUSH4 0x36CB0763 GT PUSH2 0x265 JUMPI DUP1 PUSH4 0x36CB0763 EQ PUSH2 0x380 JUMPI DUP1 PUSH4 0x3BBED4A0 EQ PUSH2 0x388 JUMPI DUP1 PUSH4 0x402914F5 EQ PUSH2 0x3AE JUMPI PUSH2 0x2C8 JUMP JUMPDEST DUP1 PUSH4 0x356130BC EQ PUSH2 0x35B JUMPI DUP1 PUSH4 0x368E9D6A EQ PUSH2 0x363 JUMPI PUSH2 0x2C8 JUMP JUMPDEST DUP1 PUSH4 0x19F4FF2F GT PUSH2 0x2B1 JUMPI DUP1 PUSH4 0x19F4FF2F EQ PUSH2 0x310 JUMPI DUP1 PUSH4 0x25E16063 EQ PUSH2 0x32D JUMPI DUP1 PUSH4 0x26D7D2C3 EQ PUSH2 0x353 JUMPI PUSH2 0x2C8 JUMP JUMPDEST DUP1 PUSH4 0xC340A24 EQ PUSH2 0x2D2 JUMPI DUP1 PUSH4 0x16D95C1E EQ PUSH2 0x2F6 JUMPI JUMPDEST PUSH2 0x2D0 PUSH2 0x669 JUMP JUMPDEST STOP JUMPDEST PUSH2 0x2DA PUSH2 0xAF8 JUMP JUMPDEST PUSH1 0x40 DUP1 MLOAD PUSH1 0x1 PUSH1 0x1 PUSH1 0xA0 SHL SUB SWAP1 SWAP3 AND DUP3 MSTORE MLOAD SWAP1 DUP2 SWAP1 SUB PUSH1 0x20 ADD SWAP1 RETURN JUMPDEST PUSH2 0x2FE PUSH2 0xB07 JUMP JUMPDEST PUSH1 0x40 DUP1 MLOAD SWAP2 DUP3 MSTORE MLOAD SWAP1 DUP2 SWAP1 SUB PUSH1 0x20 ADD SWAP1 RETURN JUMPDEST PUSH2 0x2D0 PUSH1 0x4 DUP1 CALLDATASIZE SUB PUSH1 0x20 DUP2 LT ISZERO PUSH2 0x326 JUMPI PUSH1 0x0 DUP1 REVERT JUMPDEST POP CALLDATALOAD PUSH2 0xB0D JUMP JUMPDEST PUSH2 0x2D0 PUSH1 0x4 DUP1 CALLDATASIZE SUB PUSH1 0x20 DUP2 LT ISZERO PUSH2 0x343 JUMPI PUSH1 0x0 DUP1 REVERT JUMPDEST POP CALLDATALOAD PUSH1 0x1 PUSH1 0x1 PUSH1 0xA0 SHL SUB AND PUSH2 0xB29 JUMP JUMPDEST PUSH2 0x2D0 PUSH2 0xB79 JUMP JUMPDEST PUSH2 0x2FE PUSH2 0xD00 JUMP JUMPDEST PUSH2 0x2D0 PUSH1 0x4 DUP1 CALLDATASIZE SUB PUSH1 0x20 DUP2 LT ISZERO PUSH2 0x379 JUMPI PUSH1 0x0 DUP1 REVERT JUMPDEST POP CALLDATALOAD PUSH2 0xD06 JUMP JUMPDEST PUSH2 0x2FE PUSH2 0xD22 JUMP JUMPDEST PUSH2 0x2D0 PUSH1 0x4 DUP1 CALLDATASIZE SUB PUSH1 0x20 DUP2 LT ISZERO PUSH2 0x39E JUMPI PUSH1 0x0 DUP1 REVERT JUMPDEST POP CALLDATALOAD PUSH1 0x1 PUSH1 0x1 PUSH1 0xA0 SHL SUB AND PUSH2 0xD28 JUMP JUMPDEST PUSH2 0x3D4 PUSH1 0x4 DUP1 CALLDATASIZE SUB PUSH1 0x20 DUP2 LT ISZERO PUSH2 0x3C4 JUMPI PUSH1 0x0 DUP1 REVERT JUMPDEST POP CALLDATALOAD PUSH1 0x1 PUSH1 0x1 PUSH1 0xA0 SHL SUB AND PUSH2 0xD79 JUMP JUMPDEST PUSH1 0x40 DUP1 MLOAD SWAP5 ISZERO ISZERO DUP6 MSTORE PUSH1 0x20 DUP6 ADD SWAP4 SWAP1 SWAP4 MSTORE DUP4 DUP4 ADD SWAP2 SWAP1 SWAP2 MSTORE PUSH1 0x60 DUP4 ADD MSTORE MLOAD SWAP1 DUP2 SWAP1 SUB PUSH1 0x80 ADD SWAP1 RETURN JUMPDEST PUSH2 0x2FE PUSH2 0x103B JUMP JUMPDEST PUSH2 0x3D4 PUSH2 0x1041 JUMP JUMPDEST PUSH2 0x2D0 PUSH1 0x4 DUP1 CALLDATASIZE SUB PUSH1 0x20 DUP2 LT ISZERO PUSH2 0x422 JUMPI PUSH1 0x0 DUP1 REVERT JUMPDEST POP CALLDATALOAD PUSH1 0x1 PUSH1 0x1 PUSH1 0xA0 SHL SUB AND PUSH2 0x105F JUMP JUMPDEST PUSH2 0x2D0 PUSH1 0x4 DUP1 CALLDATASIZE SUB PUSH1 0x20 DUP2 LT ISZERO PUSH2 0x448 JUMPI PUSH1 0x0 DUP1 REVERT JUMPDEST POP CALLDATALOAD PUSH2 0x10B0 JUMP JUMPDEST PUSH2 0x457 PUSH2 0x1123 JUMP JUMPDEST PUSH1 0x40 DUP1 MLOAD SWAP3 DUP4 MSTORE PUSH1 0x20 DUP4 ADD SWAP2 SWAP1 SWAP2 MSTORE DUP1 MLOAD SWAP2 DUP3 SWAP1 SUB ADD SWAP1 RETURN JUMPDEST PUSH2 0x2D0 PUSH1 0x4 DUP1 CALLDATASIZE SUB PUSH1 0x40 DUP2 LT ISZERO PUSH2 0x486 JUMPI PUSH1 0x0 DUP1 REVERT JUMPDEST POP PUSH1 0x1 PUSH1 0x1 PUSH1 0xA0 SHL SUB DUP2 CALLDATALOAD DUP2 AND SWAP2 PUSH1 0x20 ADD CALLDATALOAD AND PUSH2 0x1354 JUMP JUMPDEST PUSH2 0x2DA PUSH2 0x141B JUMP JUMPDEST PUSH2 0x2DA PUSH2 0x142A JUMP JUMPDEST PUSH2 0x2D0 PUSH1 0x4 DUP1 CALLDATASIZE SUB PUSH1 0x20 DUP2 LT ISZERO PUSH2 0x4C4 JUMPI PUSH1 0x0 DUP1 REVERT JUMPDEST POP CALLDATALOAD PUSH2 0x1439 JUMP JUMPDEST PUSH2 0x2FE PUSH2 0x1927 JUMP JUMPDEST PUSH2 0x2D0 PUSH2 0x192D JUMP JUMPDEST PUSH2 0x2FE PUSH2 0x19A6 JUMP JUMPDEST PUSH2 0x2D0 PUSH1 0x4 DUP1 CALLDATASIZE SUB PUSH1 0x20 DUP2 LT ISZERO PUSH2 0x4F9 JUMPI PUSH1 0x0 DUP1 REVERT JUMPDEST POP CALLDATALOAD PUSH1 0x1 PUSH1 0x1 PUSH1 0xA0 SHL SUB AND PUSH2 0x19AC JUMP JUMPDEST PUSH2 0x2D0 PUSH1 0x4 DUP1 CALLDATASIZE SUB PUSH1 0x20 DUP2 LT ISZERO PUSH2 0x51F JUMPI PUSH1 0x0 DUP1 REVERT JUMPDEST POP CALLDATALOAD PUSH2 0x19DC JUMP JUMPDEST PUSH2 0x52E PUSH2 0x19F8 JUMP JUMPDEST PUSH1 0x40 DUP1 MLOAD SWAP2 ISZERO ISZERO DUP3 MSTORE MLOAD SWAP1 DUP2 SWAP1 SUB PUSH1 0x20 ADD SWAP1 RETURN JUMPDEST PUSH2 0x2FE PUSH2 0x1A01 JUMP JUMPDEST PUSH2 0x2FE PUSH2 0x1A07 JUMP JUMPDEST PUSH2 0x2D0 PUSH2 0x1A0D JUMP JUMPDEST PUSH2 0x2FE PUSH1 0x4 DUP1 CALLDATASIZE SUB PUSH1 0x20 DUP2 LT ISZERO PUSH2 0x570 JUMPI PUSH1 0x0 DUP1 REVERT JUMPDEST POP CALLDATALOAD PUSH1 0x1 PUSH1 0x1 PUSH1 0xA0 SHL SUB AND PUSH2 0x1A50 JUMP JUMPDEST PUSH2 0x2D0 PUSH1 0x4 DUP1 CALLDATASIZE SUB PUSH1 0x60 DUP2 LT ISZERO PUSH2 0x596 JUMPI PUSH1 0x0 DUP1 REVERT JUMPDEST POP PUSH1 0x1 PUSH1 0x1 PUSH1 0xA0 SHL SUB DUP2 CALLDATALOAD AND SWAP1 PUSH1 0x20 DUP2 ADD CALLDATALOAD SWAP1 PUSH1 0x40 ADD CALLDATALOAD PUSH2 0x1A62 JUMP JUMPDEST PUSH2 0x2D0 PUSH1 0x4 DUP1 CALLDATASIZE SUB PUSH1 0x20 DUP2 LT ISZERO PUSH2 0x5C8 JUMPI PUSH1 0x0 DUP1 REVERT JUMPDEST POP CALLDATALOAD PUSH1 0x1 PUSH1 0x1 PUSH1 0xA0 SHL SUB AND PUSH2 0x1BCE JUMP JUMPDEST PUSH2 0x2FE PUSH1 0x4 DUP1 CALLDATASIZE SUB PUSH1 0x20 DUP2 LT ISZERO PUSH2 0x5EE JUMPI PUSH1 0x0 DUP1 REVERT JUMPDEST POP CALLDATALOAD PUSH1 0x1 PUSH1 0x1 PUSH1 0xA0 SHL SUB AND PUSH2 0x1BEE JUMP JUMPDEST PUSH2 0x2DA PUSH2 0x1C00 JUMP JUMPDEST PUSH2 0x2FE PUSH2 0x1C0F JUMP JUMPDEST PUSH2 0x2D0 PUSH2 0x1C15 JUMP JUMPDEST PUSH2 0x2FE PUSH2 0x1C42 JUMP JUMPDEST PUSH2 0x2DA PUSH2 0x1C47 JUMP JUMPDEST PUSH2 0x2FE PUSH1 0x4 DUP1 CALLDATASIZE SUB PUSH1 0x20 DUP2 LT ISZERO PUSH2 0x63C JUMPI PUSH1 0x0 DUP1 REVERT JUMPDEST POP CALLDATALOAD PUSH1 0x1 PUSH1 0x1 PUSH1 0xA0 SHL SUB AND PUSH2 0x1C56 JUMP JUMPDEST PUSH2 0x2D0 PUSH1 0x4 DUP1 CALLDATASIZE SUB PUSH1 0x20 DUP2 LT ISZERO PUSH2 0x662 JUMPI PUSH1 0x0 DUP1 REVERT JUMPDEST POP CALLDATALOAD PUSH2 0x1C68 JUMP JUMPDEST PUSH1 0xB SLOAD TIMESTAMP LT ISZERO PUSH2 0x6C0 JUMPI PUSH1 0x40 DUP1 MLOAD PUSH3 0x461BCD PUSH1 0xE5 SHL DUP2 MSTORE PUSH1 0x20 PUSH1 0x4 DUP3 ADD MSTORE PUSH1 0x17 PUSH1 0x24 DUP3 ADD MSTORE PUSH32 0x4974206973206E6F742074696D65436C61696D20796574000000000000000000 PUSH1 0x44 DUP3 ADD MSTORE SWAP1 MLOAD SWAP1 DUP2 SWAP1 SUB PUSH1 0x64 ADD SWAP1 REVERT JUMPDEST PUSH1 0x11 SLOAD PUSH1 0x5 SLOAD LT ISZERO PUSH2 0x889 JUMPI CALLER PUSH1 0x0 SWAP1 DUP2 MSTORE PUSH1 0x6 PUSH1 0x20 MSTORE PUSH1 0x40 SWAP1 KECCAK256 SLOAD PUSH2 0x72D JUMPI PUSH1 0x40 DUP1 MLOAD PUSH3 0x461BCD PUSH1 0xE5 SHL DUP2 MSTORE PUSH1 0x20 PUSH1 0x4 DUP3 ADD MSTORE PUSH1 0x1E PUSH1 0x24 DUP3 ADD MSTORE PUSH32 0x7075726368617365642043757272656E63792073686F756C6420677420300000 PUSH1 0x44 DUP3 ADD MSTORE SWAP1 MLOAD SWAP1 DUP2 SWAP1 SUB PUSH1 0x64 ADD SWAP1 REVERT JUMPDEST PUSH1 0x5 SLOAD PUSH1 0x1 SLOAD PUSH1 0x40 DUP1 MLOAD PUSH32 0x70A0823100000000000000000000000000000000000000000000000000000000 DUP2 MSTORE ADDRESS PUSH1 0x4 DUP3 ADD MSTORE SWAP1 MLOAD PUSH1 0x1 PUSH1 0x1 PUSH1 0xA0 SHL SUB SWAP1 SWAP3 AND SWAP2 PUSH4 0x70A08231 SWAP2 PUSH1 0x24 DUP1 DUP3 ADD SWAP3 PUSH1 0x20 SWAP3 SWAP1 SWAP2 SWAP1 DUP3 SWAP1 SUB ADD DUP2 DUP7 DUP1 EXTCODESIZE ISZERO DUP1 ISZERO PUSH2 0x794 JUMPI PUSH1 0x0 DUP1 REVERT JUMPDEST POP GAS STATICCALL ISZERO DUP1 ISZERO PUSH2 0x7A8 JUMPI RETURNDATASIZE PUSH1 0x0 DUP1 RETURNDATACOPY RETURNDATASIZE PUSH1 0x0 REVERT JUMPDEST POP POP POP POP PUSH1 0x40 MLOAD RETURNDATASIZE PUSH1 0x20 DUP2 LT ISZERO PUSH2 0x7BE JUMPI PUSH1 0x0 DUP1 REVERT JUMPDEST POP MLOAD LT ISZERO PUSH2 0x7FD JUMPI PUSH1 0x40 MLOAD PUSH3 0x461BCD PUSH1 0xE5 SHL DUP2 MSTORE PUSH1 0x4 ADD DUP1 DUP1 PUSH1 0x20 ADD DUP3 DUP2 SUB DUP3 MSTORE PUSH1 0x29 DUP2 MSTORE PUSH1 0x20 ADD DUP1 PUSH2 0x22F5 PUSH1 0x29 SWAP2 CODECOPY PUSH1 0x40 ADD SWAP2 POP POP PUSH1 0x40 MLOAD DUP1 SWAP2 SUB SWAP1 REVERT JUMPDEST CALLER PUSH1 0x0 SWAP1 DUP2 MSTORE PUSH1 0x6 PUSH1 0x20 MSTORE PUSH1 0x40 DUP2 KECCAK256 DUP1 SLOAD SWAP2 SWAP1 SSTORE PUSH1 0x5 SLOAD PUSH2 0x824 SWAP1 DUP3 PUSH4 0xFFFFFFFF PUSH2 0x1CDB AND JUMP JUMPDEST PUSH1 0x5 SSTORE PUSH1 0x1 SLOAD PUSH2 0x844 SWAP1 PUSH1 0x1 PUSH1 0x1 PUSH1 0xA0 SHL SUB AND CALLER DUP4 PUSH4 0xFFFFFFFF PUSH2 0x1D26 AND JUMP JUMPDEST PUSH1 0x5 SLOAD PUSH1 0x40 DUP1 MLOAD DUP4 DUP2 MSTORE PUSH1 0x20 DUP2 ADD SWAP3 SWAP1 SWAP3 MSTORE DUP1 MLOAD CALLER SWAP3 PUSH32 0x308C23D95247F0643FA21764A468F2CA3B9EF1EC7377D2370BA3E7C0AC9DCD2 SWAP3 SWAP1 DUP3 SWAP1 SUB ADD SWAP1 LOG2 POP PUSH2 0xAF6 JUMP JUMPDEST CALLER PUSH1 0x0 SWAP1 DUP2 MSTORE PUSH1 0x9 PUSH1 0x20 MSTORE PUSH1 0x40 SWAP1 KECCAK256 SLOAD ISZERO DUP1 PUSH2 0x8B2 JUMPI POP CALLER PUSH1 0x0 SWAP1 DUP2 MSTORE PUSH1 0xD PUSH1 0x20 MSTORE PUSH1 0x40 SWAP1 KECCAK256 SLOAD ISZERO JUMPDEST PUSH2 0x903 JUMPI PUSH1 0x40 DUP1 MLOAD PUSH3 0x461BCD PUSH1 0xE5 SHL DUP2 MSTORE PUSH1 0x20 PUSH1 0x4 DUP3 ADD MSTORE PUSH1 0xF PUSH1 0x24 DUP3 ADD MSTORE PUSH32 0x736574746C656420616C72656164790000000000000000000000000000000000 PUSH1 0x44 DUP3 ADD MSTORE SWAP1 MLOAD SWAP1 DUP2 SWAP1 SUB PUSH1 0x64 ADD SWAP1 REVERT JUMPDEST PUSH1 0x0 DUP1 PUSH1 0x0 DUP1 PUSH2 0x912 CALLER PUSH2 0xD79 JUMP JUMPDEST SWAP4 POP SWAP4 POP SWAP4 POP SWAP4 POP DUP4 PUSH2 0x950 JUMPI PUSH1 0x7 DUP1 SLOAD PUSH32 0xFFFFFFFFFFFFFFFFFFFFFFFFFFFFFFFFFFFFFFFFFFFFFFFFFFFFFFFFFFFFFF00 AND PUSH1 0x1 OR SWAP1 SSTORE PUSH1 0xA DUP2 SWAP1 SSTORE JUMPDEST CALLER PUSH1 0x0 SWAP1 DUP2 MSTORE PUSH1 0xD PUSH1 0x20 MSTORE PUSH1 0x40 SWAP1 KECCAK256 SLOAD PUSH2 0x970 SWAP1 DUP5 PUSH4 0xFFFFFFFF PUSH2 0x1DA6 AND JUMP JUMPDEST CALLER PUSH1 0x0 SWAP1 DUP2 MSTORE PUSH1 0xD PUSH1 0x20 MSTORE PUSH1 0x40 SWAP1 KECCAK256 SSTORE PUSH1 0xC SLOAD PUSH2 0x993 SWAP1 DUP5 PUSH4 0xFFFFFFFF PUSH2 0x1DA6 AND JUMP JUMPDEST PUSH1 0xC SSTORE PUSH1 0x1 SLOAD PUSH1 0x1 PUSH1 0x1 PUSH1 0xA0 SHL SUB AND PUSH2 0x9D9 JUMPI PUSH1 0x40 MLOAD CALLER SWAP1 DUP5 ISZERO PUSH2 0x8FC MUL SWAP1 DUP6 SWAP1 PUSH1 0x0 DUP2 DUP2 DUP2 DUP6 DUP9 DUP9 CALL SWAP4 POP POP POP POP ISZERO DUP1 ISZERO PUSH2 0x9D3 JUMPI RETURNDATASIZE PUSH1 0x0 DUP1 RETURNDATACOPY RETURNDATASIZE PUSH1 0x0 REVERT JUMPDEST POP PUSH2 0x9F6 JUMP JUMPDEST PUSH1 0x1 SLOAD PUSH2 0x9F6 SWAP1 PUSH1 0x1 PUSH1 0x1 PUSH1 0xA0 SHL SUB AND CALLER DUP6 PUSH4 0xFFFFFFFF PUSH2 0x1D26 AND JUMP JUMPDEST PUSH1 0x0 DUP4 GT DUP1 PUSH2 0xA07 JUMPI POP PUSH1 0xB SLOAD TIMESTAMP LT ISZERO JUMPDEST PUSH2 0xA42 JUMPI PUSH1 0x40 MLOAD PUSH3 0x461BCD PUSH1 0xE5 SHL DUP2 MSTORE PUSH1 0x4 ADD DUP1 DUP1 PUSH1 0x20 ADD DUP3 DUP2 SUB DUP3 MSTORE PUSH1 0x28 DUP2 MSTORE PUSH1 0x20 ADD DUP1 PUSH2 0x2348 PUSH1 0x28 SWAP2 CODECOPY PUSH1 0x40 ADD SWAP2 POP POP PUSH1 0x40 MLOAD DUP1 SWAP2 SUB SWAP1 REVERT JUMPDEST PUSH1 0xB SLOAD TIMESTAMP LT PUSH2 0xAAE JUMPI CALLER PUSH1 0x0 SWAP1 DUP2 MSTORE PUSH1 0x9 PUSH1 0x20 MSTORE PUSH1 0x40 SWAP1 KECCAK256 SLOAD PUSH2 0xA6B SWAP1 DUP4 PUSH4 0xFFFFFFFF PUSH2 0x1DA6 AND JUMP JUMPDEST CALLER PUSH1 0x0 SWAP1 DUP2 MSTORE PUSH1 0x9 PUSH1 0x20 MSTORE PUSH1 0x40 SWAP1 KECCAK256 SSTORE PUSH1 0x8 SLOAD PUSH2 0xA8E SWAP1 DUP4 PUSH4 0xFFFFFFFF PUSH2 0x1DA6 AND JUMP JUMPDEST PUSH1 0x8 SSTORE PUSH1 0x2 SLOAD PUSH2 0xAAE SWAP1 PUSH1 0x1 PUSH1 0x1 PUSH1 0xA0 SHL SUB AND CALLER DUP5 PUSH4 0xFFFFFFFF PUSH2 0x1D26 AND JUMP JUMPDEST PUSH1 0x40 DUP1 MLOAD DUP5 DUP2 MSTORE PUSH1 0x20 DUP2 ADD DUP5 SWAP1 MSTORE DUP1 DUP3 ADD DUP4 SWAP1 MSTORE SWAP1 MLOAD CALLER SWAP2 PUSH32 0x45C072AA05B9853B5A993DE7A28BC332EE01404A628CEC1A23CE0F659F842EF1 SWAP2 SWAP1 DUP2 SWAP1 SUB PUSH1 0x60 ADD SWAP1 LOG2 POP POP POP POP JUMPDEST JUMP JUMPDEST PUSH1 0x0 SLOAD PUSH1 0x1 PUSH1 0x1 PUSH1 0xA0 SHL SUB AND DUP2 JUMP JUMPDEST PUSH1 0x11 SLOAD DUP2 JUMP JUMPDEST PUSH1 0x0 SLOAD PUSH1 0x1 PUSH1 0x1 PUSH1 0xA0 SHL SUB AND CALLER EQ PUSH2 0xB24 JUMPI PUSH1 0x0 DUP1 REVERT JUMPDEST PUSH1 0xE SSTORE JUMP JUMPDEST PUSH1 0x0 SLOAD PUSH1 0x1 PUSH1 0x1 PUSH1 0xA0 SHL SUB AND CALLER EQ PUSH2 0xB40 JUMPI PUSH1 0x0 DUP1 REVERT JUMPDEST PUSH1 0x40 MLOAD PUSH1 0x1 PUSH1 0x1 PUSH1 0xA0 SHL SUB DUP3 AND SWAP1 SELFBALANCE DUP1 ISZERO PUSH2 0x8FC MUL SWAP2 PUSH1 0x0 DUP2 DUP2 DUP2 DUP6 DUP9 DUP9 CALL SWAP4 POP POP POP POP ISZERO DUP1 ISZERO PUSH2 0xB75 JUMPI RETURNDATASIZE PUSH1 0x0 DUP1 RETURNDATACOPY RETURNDATASIZE PUSH1 0x0 REVERT JUMPDEST POP POP JUMP JUMPDEST PUSH1 0x0 SLOAD PUSH1 0x1 PUSH1 0x1 PUSH1 0xA0 SHL SUB AND CALLER EQ PUSH2 0xB90 JUMPI PUSH1 0x0 DUP1 REVERT JUMPDEST PUSH1 0x1 SLOAD PUSH1 0x40 DUP1 MLOAD PUSH32 0x70A0823100000000000000000000000000000000000000000000000000000000 DUP2 MSTORE ADDRESS PUSH1 0x4 DUP3 ADD MSTORE SWAP1 MLOAD PUSH1 0x0 SWAP3 PUSH1 0x1 PUSH1 0x1 PUSH1 0xA0 SHL SUB AND SWAP2 PUSH4 0x70A08231 SWAP2 PUSH1 0x24 DUP1 DUP4 ADD SWAP3 PUSH1 0x20 SWAP3 SWAP2 SWAP1 DUP3 SWAP1 SUB ADD DUP2 DUP7 DUP1 EXTCODESIZE ISZERO DUP1 ISZERO PUSH2 0xBF4 JUMPI PUSH1 0x0 DUP1 REVERT JUMPDEST POP GAS STATICCALL ISZERO DUP1 ISZERO PUSH2 0xC08 JUMPI RETURNDATASIZE PUSH1 0x0 DUP1 RETURNDATACOPY RETURNDATASIZE PUSH1 0x0 REVERT JUMPDEST POP POP POP POP PUSH1 0x40 MLOAD RETURNDATASIZE PUSH1 0x20 DUP2 LT ISZERO PUSH2 0xC1E JUMPI PUSH1 0x0 DUP1 REVERT JUMPDEST POP MLOAD PUSH1 0xE SLOAD SWAP1 SWAP2 POP PUSH1 0x0 SWAP1 PUSH2 0xC54 SWAP1 PUSH8 0xDE0B6B3A7640000 SWAP1 PUSH2 0xC48 SWAP1 DUP6 SWAP1 PUSH4 0xFFFFFFFF PUSH2 0x1E00 AND JUMP JUMPDEST SWAP1 PUSH4 0xFFFFFFFF PUSH2 0x1E59 AND JUMP JUMPDEST SWAP1 POP PUSH1 0x0 PUSH2 0xC68 DUP4 DUP4 PUSH4 0xFFFFFFFF PUSH2 0x1CDB AND JUMP JUMPDEST PUSH1 0xF SLOAD PUSH1 0x1 SLOAD SWAP2 SWAP3 POP PUSH2 0xC8E SWAP2 PUSH1 0x1 PUSH1 0x1 PUSH1 0xA0 SHL SUB SWAP1 DUP2 AND SWAP2 AND DUP4 PUSH4 0xFFFFFFFF PUSH2 0x1D26 AND JUMP JUMPDEST PUSH1 0x10 SLOAD PUSH1 0x1 SLOAD PUSH2 0xCB1 SWAP2 PUSH1 0x1 PUSH1 0x1 PUSH1 0xA0 SHL SUB SWAP2 DUP3 AND SWAP2 AND DUP5 PUSH4 0xFFFFFFFF PUSH2 0x1D26 AND JUMP JUMPDEST PUSH1 0xF SLOAD PUSH1 0x40 DUP1 MLOAD DUP6 DUP2 MSTORE PUSH1 0x20 DUP2 ADD DUP5 SWAP1 MSTORE DUP2 MLOAD PUSH1 0x1 PUSH1 0x1 PUSH1 0xA0 SHL SUB SWAP1 SWAP4 AND SWAP3 PUSH32 0xF0FA8383BC9412382EB19BC4C20CB3A68B6A8C505D5DEB5FCD132E260250F983 SWAP3 SWAP2 DUP2 SWAP1 SUB SWAP1 SWAP2 ADD SWAP1 LOG2 POP POP POP JUMP JUMPDEST PUSH1 0xB SLOAD DUP2 JUMP JUMPDEST PUSH1 0x0 SLOAD PUSH1 0x1 PUSH1 0x1 PUSH1 0xA0 SHL SUB AND CALLER EQ PUSH2 0xD1D JUMPI PUSH1 0x0 DUP1 REVERT JUMPDEST PUSH1 0xB SSTORE JUMP JUMPDEST PUSH1 0x8 SLOAD DUP2 JUMP JUMPDEST PUSH1 0x0 SLOAD PUSH1 0x1 PUSH1 0x1 PUSH1 0xA0 SHL SUB AND CALLER EQ PUSH2 0xD3F JUMPI PUSH1 0x0 DUP1 REVERT JUMPDEST PUSH1 0xF DUP1 SLOAD PUSH32 0xFFFFFFFFFFFFFFFFFFFFFFFF0000000000000000000000000000000000000000 AND PUSH1 0x1 PUSH1 0x1 PUSH1 0xA0 SHL SUB SWAP3 SWAP1 SWAP3 AND SWAP2 SWAP1 SWAP2 OR SWAP1 SSTORE JUMP JUMPDEST PUSH1 0x7 SLOAD PUSH1 0xFF AND PUSH1 0x0 DUP1 DUP1 DUP4 ISZERO PUSH2 0xD92 JUMPI POP PUSH1 0xA SLOAD PUSH2 0xF36 JUMP JUMPDEST PUSH1 0x1 SLOAD PUSH1 0x0 SWAP1 PUSH1 0x1 PUSH1 0x1 PUSH1 0xA0 SHL SUB AND ISZERO PUSH2 0xE3B JUMPI PUSH1 0x1 SLOAD PUSH1 0x40 DUP1 MLOAD PUSH32 0x70A0823100000000000000000000000000000000000000000000000000000000 DUP2 MSTORE ADDRESS PUSH1 0x4 DUP3 ADD MSTORE SWAP1 MLOAD PUSH1 0x1 PUSH1 0x1 PUSH1 0xA0 SHL SUB SWAP1 SWAP3 AND SWAP2 PUSH4 0x70A08231 SWAP2 PUSH1 0x24 DUP1 DUP3 ADD SWAP3 PUSH1 0x20 SWAP3 SWAP1 SWAP2 SWAP1 DUP3 SWAP1 SUB ADD DUP2 DUP7 DUP1 EXTCODESIZE ISZERO DUP1 ISZERO PUSH2 0xE0A JUMPI PUSH1 0x0 DUP1 REVERT JUMPDEST POP GAS STATICCALL ISZERO DUP1 ISZERO PUSH2 0xE1E JUMPI RETURNDATASIZE PUSH1 0x0 DUP1 RETURNDATACOPY RETURNDATASIZE PUSH1 0x0 REVERT JUMPDEST POP POP POP POP PUSH1 0x40 MLOAD RETURNDATASIZE PUSH1 0x20 DUP2 LT ISZERO PUSH2 0xE34 JUMPI PUSH1 0x0 DUP1 REVERT JUMPDEST POP MLOAD PUSH2 0xE3D JUMP JUMPDEST SELFBALANCE JUMPDEST PUSH1 0x2 SLOAD PUSH1 0x40 DUP1 MLOAD PUSH32 0x70A0823100000000000000000000000000000000000000000000000000000000 DUP2 MSTORE ADDRESS PUSH1 0x4 DUP3 ADD MSTORE SWAP1 MLOAD SWAP3 SWAP4 POP PUSH1 0x0 SWAP3 PUSH1 0x1 PUSH1 0x1 PUSH1 0xA0 SHL SUB SWAP1 SWAP3 AND SWAP2 PUSH4 0x70A08231 SWAP2 PUSH1 0x24 DUP1 DUP3 ADD SWAP3 PUSH1 0x20 SWAP3 SWAP1 SWAP2 SWAP1 DUP3 SWAP1 SUB ADD DUP2 DUP7 DUP1 EXTCODESIZE ISZERO DUP1 ISZERO PUSH2 0xEA7 JUMPI PUSH1 0x0 DUP1 REVERT JUMPDEST POP GAS STATICCALL ISZERO DUP1 ISZERO PUSH2 0xEBB JUMPI RETURNDATASIZE PUSH1 0x0 DUP1 RETURNDATACOPY RETURNDATASIZE PUSH1 0x0 REVERT JUMPDEST POP POP POP POP PUSH1 0x40 MLOAD RETURNDATASIZE PUSH1 0x20 DUP2 LT ISZERO PUSH2 0xED1 JUMPI PUSH1 0x0 DUP1 REVERT JUMPDEST POP MLOAD SWAP1 POP PUSH2 0xEED DUP3 PUSH8 0xDE0B6B3A7640000 PUSH4 0xFFFFFFFF PUSH2 0x1E00 AND JUMP JUMPDEST PUSH1 0x3 SLOAD PUSH2 0xF01 SWAP1 DUP4 SWAP1 PUSH4 0xFFFFFFFF PUSH2 0x1E00 AND JUMP JUMPDEST LT ISZERO PUSH2 0xF27 JUMPI PUSH2 0xF20 DUP3 PUSH2 0xC48 PUSH1 0x3 SLOAD DUP5 PUSH2 0x1E00 SWAP1 SWAP2 SWAP1 PUSH4 0xFFFFFFFF AND JUMP JUMPDEST SWAP3 POP PUSH2 0xF33 JUMP JUMPDEST PUSH8 0xDE0B6B3A7640000 SWAP3 POP JUMPDEST POP POP JUMPDEST PUSH1 0x0 PUSH1 0x1 PUSH1 0x1 PUSH1 0xA0 SHL SUB DUP7 AND ISZERO PUSH2 0xF65 JUMPI PUSH1 0x1 PUSH1 0x1 PUSH1 0xA0 SHL SUB DUP7 AND PUSH1 0x0 SWAP1 DUP2 MSTORE PUSH1 0x6 PUSH1 0x20 MSTORE PUSH1 0x40 SWAP1 KECCAK256 SLOAD PUSH2 0xF69 JUMP JUMPDEST PUSH1 0x5 SLOAD JUMPDEST SWAP1 POP PUSH1 0x0 PUSH2 0xF89 PUSH8 0xDE0B6B3A7640000 PUSH2 0xC48 DUP5 DUP7 PUSH4 0xFFFFFFFF PUSH2 0x1E00 AND JUMP JUMPDEST SWAP1 POP PUSH2 0xFDB PUSH1 0x1 PUSH1 0x1 PUSH1 0xA0 SHL SUB DUP9 AND ISZERO PUSH2 0xFBB JUMPI PUSH1 0x1 PUSH1 0x1 PUSH1 0xA0 SHL SUB DUP9 AND PUSH1 0x0 SWAP1 DUP2 MSTORE PUSH1 0xD PUSH1 0x20 MSTORE PUSH1 0x40 SWAP1 KECCAK256 SLOAD PUSH2 0xFBF JUMP JUMPDEST PUSH1 0xC SLOAD JUMPDEST PUSH2 0xFCF DUP5 DUP5 PUSH4 0xFFFFFFFF PUSH2 0x1CDB AND JUMP JUMPDEST SWAP1 PUSH4 0xFFFFFFFF PUSH2 0x1CDB AND JUMP JUMPDEST SWAP5 POP PUSH2 0x1030 PUSH1 0x1 PUSH1 0x1 PUSH1 0xA0 SHL SUB DUP9 AND ISZERO PUSH2 0x100D JUMPI PUSH1 0x1 PUSH1 0x1 PUSH1 0xA0 SHL SUB DUP9 AND PUSH1 0x0 SWAP1 DUP2 MSTORE PUSH1 0x9 PUSH1 0x20 MSTORE PUSH1 0x40 SWAP1 KECCAK256 SLOAD PUSH2 0x1011 JUMP JUMPDEST PUSH1 0x8 SLOAD JUMPDEST PUSH1 0x3 SLOAD PUSH2 0xFCF SWAP1 PUSH2 0xC48 DUP6 PUSH8 0xDE0B6B3A7640000 PUSH4 0xFFFFFFFF PUSH2 0x1E00 AND JUMP JUMPDEST SWAP4 POP POP POP SWAP2 SWAP4 POP SWAP2 SWAP4 JUMP JUMPDEST PUSH1 0xE SLOAD DUP2 JUMP JUMPDEST PUSH1 0x0 DUP1 PUSH1 0x0 DUP1 PUSH2 0x1051 PUSH1 0x0 PUSH2 0xD79 JUMP JUMPDEST SWAP4 POP SWAP4 POP SWAP4 POP SWAP4 POP SWAP1 SWAP2 SWAP3 SWAP4 JUMP JUMPDEST PUSH1 0x0 SLOAD PUSH1 0x1 PUSH1 0x1 PUSH1 0xA0 SHL SUB AND CALLER EQ PUSH2 0x1076 JUMPI PUSH1 0x0 DUP1 REVERT JUMPDEST PUSH1 0x10 DUP1 SLOAD PUSH32 0xFFFFFFFFFFFFFFFFFFFFFFFF0000000000000000000000000000000000000000 AND PUSH1 0x1 PUSH1 0x1 PUSH1 0xA0 SHL SUB SWAP3 SWAP1 SWAP3 AND SWAP2 SWAP1 SWAP2 OR SWAP1 SSTORE JUMP JUMPDEST PUSH1 0x0 SLOAD PUSH1 0x1 PUSH1 0x1 PUSH1 0xA0 SHL SUB AND CALLER EQ PUSH2 0x10C7 JUMPI PUSH1 0x0 DUP1 REVERT JUMPDEST PUSH1 0x11 SLOAD DUP2 LT ISZERO PUSH2 0x111E JUMPI PUSH1 0x40 DUP1 MLOAD PUSH3 0x461BCD PUSH1 0xE5 SHL DUP2 MSTORE PUSH1 0x20 PUSH1 0x4 DUP3 ADD MSTORE PUSH1 0x11 PUSH1 0x24 DUP3 ADD MSTORE PUSH32 0x6D61782073686F756C64206774206D696E000000000000000000000000000000 PUSH1 0x44 DUP3 ADD MSTORE SWAP1 MLOAD SWAP1 DUP2 SWAP1 SUB PUSH1 0x64 ADD SWAP1 REVERT JUMPDEST PUSH1 0x12 SSTORE JUMP JUMPDEST PUSH1 0x7 SLOAD PUSH1 0x0 SWAP1 DUP2 SWAP1 PUSH1 0xFF AND PUSH2 0x113D JUMPI POP PUSH1 0x0 SWAP1 POP DUP1 PUSH2 0x1350 JUMP JUMPDEST PUSH1 0x1 SLOAD PUSH1 0x1 PUSH1 0x1 PUSH1 0xA0 SHL SUB AND ISZERO PUSH2 0x11E3 JUMPI PUSH1 0x1 SLOAD PUSH1 0x40 DUP1 MLOAD PUSH32 0x70A0823100000000000000000000000000000000000000000000000000000000 DUP2 MSTORE ADDRESS PUSH1 0x4 DUP3 ADD MSTORE SWAP1 MLOAD PUSH1 0x1 PUSH1 0x1 PUSH1 0xA0 SHL SUB SWAP1 SWAP3 AND SWAP2 PUSH4 0x70A08231 SWAP2 PUSH1 0x24 DUP1 DUP3 ADD SWAP3 PUSH1 0x20 SWAP3 SWAP1 SWAP2 SWAP1 DUP3 SWAP1 SUB ADD DUP2 DUP7 DUP1 EXTCODESIZE ISZERO DUP1 ISZERO PUSH2 0x11B2 JUMPI PUSH1 0x0 DUP1 REVERT JUMPDEST POP GAS STATICCALL ISZERO DUP1 ISZERO PUSH2 0x11C6 JUMPI RETURNDATASIZE PUSH1 0x0 DUP1 RETURNDATACOPY RETURNDATASIZE PUSH1 0x0 REVERT JUMPDEST POP POP POP POP PUSH1 0x40 MLOAD RETURNDATASIZE PUSH1 0x20 DUP2 LT ISZERO PUSH2 0x11DC JUMPI PUSH1 0x0 DUP1 REVERT JUMPDEST POP MLOAD PUSH2 0x11E5 JUMP JUMPDEST SELFBALANCE JUMPDEST SWAP2 POP PUSH2 0x128A PUSH2 0x1225 PUSH8 0xDE0B6B3A7640000 PUSH2 0xC48 PUSH2 0x1216 PUSH1 0xA SLOAD PUSH8 0xDE0B6B3A7640000 PUSH2 0x1CDB SWAP1 SWAP2 SWAP1 PUSH4 0xFFFFFFFF AND JUMP JUMPDEST PUSH1 0x5 SLOAD SWAP1 PUSH4 0xFFFFFFFF PUSH2 0x1E00 AND JUMP JUMPDEST PUSH2 0xFCF PUSH2 0x127D PUSH8 0xDE0B6B3A7640000 PUSH2 0xC48 PUSH2 0x1254 PUSH1 0xA SLOAD PUSH8 0xDE0B6B3A7640000 PUSH2 0x1CDB SWAP1 SWAP2 SWAP1 PUSH4 0xFFFFFFFF AND JUMP JUMPDEST PUSH2 0x1271 PUSH1 0xA SLOAD PUSH2 0xC48 PUSH1 0x3 SLOAD PUSH1 0x8 SLOAD PUSH2 0x1E00 SWAP1 SWAP2 SWAP1 PUSH4 0xFFFFFFFF AND JUMP JUMPDEST SWAP1 PUSH4 0xFFFFFFFF PUSH2 0x1E00 AND JUMP JUMPDEST DUP6 SWAP1 PUSH4 0xFFFFFFFF PUSH2 0x1DA6 AND JUMP JUMPDEST SWAP2 POP PUSH2 0x134D PUSH2 0x12AC PUSH1 0x3 SLOAD PUSH2 0xC48 PUSH1 0xA SLOAD PUSH1 0x5 SLOAD PUSH2 0x1E00 SWAP1 SWAP2 SWAP1 PUSH4 0xFFFFFFFF AND JUMP JUMPDEST PUSH1 0x8 SLOAD PUSH1 0x2 SLOAD PUSH1 0x40 DUP1 MLOAD PUSH32 0x70A0823100000000000000000000000000000000000000000000000000000000 DUP2 MSTORE ADDRESS PUSH1 0x4 DUP3 ADD MSTORE SWAP1 MLOAD PUSH2 0xFCF SWAP4 SWAP3 PUSH1 0x1 PUSH1 0x1 PUSH1 0xA0 SHL SUB AND SWAP2 PUSH4 0x70A08231 SWAP2 PUSH1 0x24 DUP1 DUP4 ADD SWAP3 PUSH1 0x20 SWAP3 SWAP2 SWAP1 DUP3 SWAP1 SUB ADD DUP2 DUP7 DUP1 EXTCODESIZE ISZERO DUP1 ISZERO PUSH2 0x1315 JUMPI PUSH1 0x0 DUP1 REVERT JUMPDEST POP GAS STATICCALL ISZERO DUP1 ISZERO PUSH2 0x1329 JUMPI RETURNDATASIZE PUSH1 0x0 DUP1 RETURNDATACOPY RETURNDATASIZE PUSH1 0x0 REVERT JUMPDEST POP POP POP POP PUSH1 0x40 MLOAD RETURNDATASIZE PUSH1 0x20 DUP2 LT ISZERO PUSH2 0x133F JUMPI PUSH1 0x0 DUP1 REVERT JUMPDEST POP MLOAD SWAP1 PUSH4 0xFFFFFFFF PUSH2 0x1DA6 AND JUMP JUMPDEST SWAP1 POP JUMPDEST SWAP1 SWAP2 JUMP JUMPDEST PUSH1 0x0 SLOAD PUSH1 0x1 PUSH1 0x1 PUSH1 0xA0 SHL SUB AND CALLER EQ PUSH2 0x136B JUMPI PUSH1 0x0 DUP1 REVERT JUMPDEST PUSH1 0x40 DUP1 MLOAD PUSH32 0x70A0823100000000000000000000000000000000000000000000000000000000 DUP2 MSTORE ADDRESS PUSH1 0x4 DUP3 ADD MSTORE SWAP1 MLOAD PUSH1 0x0 SWAP2 PUSH1 0x1 PUSH1 0x1 PUSH1 0xA0 SHL SUB DUP6 AND SWAP2 PUSH4 0x70A08231 SWAP2 PUSH1 0x24 DUP1 DUP3 ADD SWAP3 PUSH1 0x20 SWAP3 SWAP1 SWAP2 SWAP1 DUP3 SWAP1 SUB ADD DUP2 DUP7 DUP1 EXTCODESIZE ISZERO DUP1 ISZERO PUSH2 0x13CE JUMPI PUSH1 0x0 DUP1 REVERT JUMPDEST POP GAS STATICCALL ISZERO DUP1 ISZERO PUSH2 0x13E2 JUMPI RETURNDATASIZE PUSH1 0x0 DUP1 RETURNDATACOPY RETURNDATASIZE PUSH1 0x0 REVERT JUMPDEST POP POP POP POP PUSH1 0x40 MLOAD RETURNDATASIZE PUSH1 0x20 DUP2 LT ISZERO PUSH2 0x13F8 JUMPI PUSH1 0x0 DUP1 REVERT JUMPDEST POP MLOAD SWAP1 POP PUSH2 0x1416 PUSH1 0x1 PUSH1 0x1 PUSH1 0xA0 SHL SUB DUP5 AND DUP4 DUP4 PUSH4 0xFFFFFFFF PUSH2 0x1D26 AND JUMP JUMPDEST POP POP POP JUMP JUMPDEST PUSH1 0xF SLOAD PUSH1 0x1 PUSH1 0x1 PUSH1 0xA0 SHL SUB AND DUP2 JUMP JUMPDEST PUSH1 0x2 SLOAD PUSH1 0x1 PUSH1 0x1 PUSH1 0xA0 SHL SUB AND DUP2 JUMP JUMPDEST PUSH1 0x1 SLOAD PUSH1 0x1 PUSH1 0x1 PUSH1 0xA0 SHL SUB AND PUSH2 0x1496 JUMPI PUSH1 0x40 DUP1 MLOAD PUSH3 0x461BCD PUSH1 0xE5 SHL DUP2 MSTORE PUSH1 0x20 PUSH1 0x4 DUP3 ADD MSTORE PUSH1 0x1E PUSH1 0x24 DUP3 ADD MSTORE PUSH32 0x73686F756C642063616C6C206F66666572457468282920696E73746561640000 PUSH1 0x44 DUP3 ADD MSTORE SWAP1 MLOAD SWAP1 DUP2 SWAP1 SUB PUSH1 0x64 ADD SWAP1 REVERT JUMPDEST PUSH1 0x4 SLOAD TIMESTAMP LT ISZERO PUSH2 0x14ED JUMPI PUSH1 0x40 DUP1 MLOAD PUSH3 0x461BCD PUSH1 0xE5 SHL DUP2 MSTORE PUSH1 0x20 PUSH1 0x4 DUP3 ADD MSTORE PUSH1 0x11 PUSH1 0x24 DUP3 ADD MSTORE PUSH32 0x69742773206E6F742074696D6520796574000000000000000000000000000000 PUSH1 0x44 DUP3 ADD MSTORE SWAP1 MLOAD SWAP1 DUP2 SWAP1 SUB PUSH1 0x64 ADD SWAP1 REVERT JUMPDEST PUSH1 0x0 DUP2 GT PUSH2 0x1542 JUMPI PUSH1 0x40 DUP1 MLOAD PUSH3 0x461BCD PUSH1 0xE5 SHL DUP2 MSTORE PUSH1 0x20 PUSH1 0x4 DUP3 ADD MSTORE PUSH1 0x12 PUSH1 0x24 DUP3 ADD MSTORE PUSH32 0x616D6F756E742073686F756C6420677420300000000000000000000000000000 PUSH1 0x44 DUP3 ADD MSTORE SWAP1 MLOAD SWAP1 DUP2 SWAP1 SUB PUSH1 0x64 ADD SWAP1 REVERT JUMPDEST PUSH1 0xB SLOAD TIMESTAMP LT PUSH2 0x1598 JUMPI PUSH1 0x40 DUP1 MLOAD PUSH3 0x461BCD PUSH1 0xE5 SHL DUP2 MSTORE PUSH1 0x20 PUSH1 0x4 DUP3 ADD MSTORE PUSH1 0x7 PUSH1 0x24 DUP3 ADD MSTORE PUSH32 0x6578706972656400000000000000000000000000000000000000000000000000 PUSH1 0x44 DUP3 ADD MSTORE SWAP1 MLOAD SWAP1 DUP2 SWAP1 SUB PUSH1 0x64 ADD SWAP1 REVERT JUMPDEST PUSH1 0x0 DUP2 GT PUSH2 0x15ED JUMPI PUSH1 0x40 DUP1 MLOAD PUSH3 0x461BCD PUSH1 0xE5 SHL DUP2 MSTORE PUSH1 0x20 PUSH1 0x4 DUP3 ADD MSTORE PUSH1 0x8 PUSH1 0x24 DUP3 ADD MSTORE PUSH32 0x6E6F2071756F7461000000000000000000000000000000000000000000000000 PUSH1 0x44 DUP3 ADD MSTORE SWAP1 MLOAD SWAP1 DUP2 SWAP1 SUB PUSH1 0x64 ADD SWAP1 REVERT JUMPDEST PUSH1 0x1 SLOAD PUSH1 0x40 DUP1 MLOAD PUSH32 0xDD62ED3E00000000000000000000000000000000000000000000000000000000 DUP2 MSTORE CALLER PUSH1 0x4 DUP3 ADD MSTORE ADDRESS PUSH1 0x24 DUP3 ADD MSTORE SWAP1 MLOAD DUP4 SWAP3 PUSH1 0x1 PUSH1 0x1 PUSH1 0xA0 SHL SUB AND SWAP2 PUSH4 0xDD62ED3E SWAP2 PUSH1 0x44 DUP1 DUP4 ADD SWAP3 PUSH1 0x20 SWAP3 SWAP2 SWAP1 DUP3 SWAP1 SUB ADD DUP2 DUP7 DUP1 EXTCODESIZE ISZERO DUP1 ISZERO PUSH2 0x1656 JUMPI PUSH1 0x0 DUP1 REVERT JUMPDEST POP GAS STATICCALL ISZERO DUP1 ISZERO PUSH2 0x166A JUMPI RETURNDATASIZE PUSH1 0x0 DUP1 RETURNDATACOPY RETURNDATASIZE PUSH1 0x0 REVERT JUMPDEST POP POP POP POP PUSH1 0x40 MLOAD RETURNDATASIZE PUSH1 0x20 DUP2 LT ISZERO PUSH2 0x1680 JUMPI PUSH1 0x0 DUP1 REVERT JUMPDEST POP MLOAD LT ISZERO PUSH2 0x16D5 JUMPI PUSH1 0x40 DUP1 MLOAD PUSH3 0x461BCD PUSH1 0xE5 SHL DUP2 MSTORE PUSH1 0x20 PUSH1 0x4 DUP3 ADD MSTORE PUSH1 0x14 PUSH1 0x24 DUP3 ADD MSTORE PUSH32 0x616C6C6F77616E6365206E6F7420656E6F756768000000000000000000000000 PUSH1 0x44 DUP3 ADD MSTORE SWAP1 MLOAD SWAP1 DUP2 SWAP1 SUB PUSH1 0x64 ADD SWAP1 REVERT JUMPDEST PUSH1 0x1 SLOAD PUSH1 0x40 DUP1 MLOAD PUSH32 0x70A0823100000000000000000000000000000000000000000000000000000000 DUP2 MSTORE CALLER PUSH1 0x4 DUP3 ADD MSTORE SWAP1 MLOAD DUP4 SWAP3 PUSH1 0x1 PUSH1 0x1 PUSH1 0xA0 SHL SUB AND SWAP2 PUSH4 0x70A08231 SWAP2 PUSH1 0x24 DUP1 DUP4 ADD SWAP3 PUSH1 0x20 SWAP3 SWAP2 SWAP1 DUP3 SWAP1 SUB ADD DUP2 DUP7 DUP1 EXTCODESIZE ISZERO DUP1 ISZERO PUSH2 0x1738 JUMPI PUSH1 0x0 DUP1 REVERT JUMPDEST POP GAS STATICCALL ISZERO DUP1 ISZERO PUSH2 0x174C JUMPI RETURNDATASIZE PUSH1 0x0 DUP1 RETURNDATACOPY RETURNDATASIZE PUSH1 0x0 REVERT JUMPDEST POP POP POP POP PUSH1 0x40 MLOAD RETURNDATASIZE PUSH1 0x20 DUP2 LT ISZERO PUSH2 0x1762 JUMPI PUSH1 0x0 DUP1 REVERT JUMPDEST POP MLOAD LT ISZERO PUSH2 0x17B7 JUMPI PUSH1 0x40 DUP1 MLOAD PUSH3 0x461BCD PUSH1 0xE5 SHL DUP2 MSTORE PUSH1 0x20 PUSH1 0x4 DUP3 ADD MSTORE PUSH1 0x12 PUSH1 0x24 DUP3 ADD MSTORE PUSH32 0x62616C616E6365206E6F7420656E6F7567680000000000000000000000000000 PUSH1 0x44 DUP3 ADD MSTORE SWAP1 MLOAD SWAP1 DUP2 SWAP1 SUB PUSH1 0x64 ADD SWAP1 REVERT JUMPDEST CALLER PUSH1 0x0 SWAP1 DUP2 MSTORE PUSH1 0x6 PUSH1 0x20 MSTORE PUSH1 0x40 SWAP1 KECCAK256 SLOAD ISZERO PUSH2 0x1819 JUMPI PUSH1 0x40 DUP1 MLOAD PUSH3 0x461BCD PUSH1 0xE5 SHL DUP2 MSTORE PUSH1 0x20 PUSH1 0x4 DUP3 ADD MSTORE PUSH1 0xF PUSH1 0x24 DUP3 ADD MSTORE PUSH32 0x6F66666572656420616C72656164790000000000000000000000000000000000 PUSH1 0x44 DUP3 ADD MSTORE SWAP1 MLOAD SWAP1 DUP2 SWAP1 SUB PUSH1 0x64 ADD SWAP1 REVERT JUMPDEST PUSH1 0x12 SLOAD PUSH1 0x5 SLOAD PUSH2 0x182F SWAP1 DUP4 PUSH4 0xFFFFFFFF PUSH2 0x1DA6 AND JUMP JUMPDEST GT ISZERO PUSH2 0x1882 JUMPI PUSH1 0x40 DUP1 MLOAD PUSH3 0x461BCD PUSH1 0xE5 SHL DUP2 MSTORE PUSH1 0x20 PUSH1 0x4 DUP3 ADD MSTORE PUSH1 0x1E PUSH1 0x24 DUP3 ADD MSTORE PUSH32 0x73686F756C64206773206D617855736474546F74616C4F666665726564730000 PUSH1 0x44 DUP3 ADD MSTORE SWAP1 MLOAD SWAP1 DUP2 SWAP1 SUB PUSH1 0x64 ADD SWAP1 REVERT JUMPDEST PUSH1 0x1 SLOAD PUSH2 0x18A0 SWAP1 PUSH1 0x1 PUSH1 0x1 PUSH1 0xA0 SHL SUB AND CALLER ADDRESS DUP5 PUSH4 0xFFFFFFFF PUSH2 0x1E9B AND JUMP JUMPDEST CALLER PUSH1 0x0 SWAP1 DUP2 MSTORE PUSH1 0x6 PUSH1 0x20 MSTORE PUSH1 0x40 SWAP1 KECCAK256 SLOAD PUSH2 0x18C0 SWAP1 DUP3 PUSH4 0xFFFFFFFF PUSH2 0x1DA6 AND JUMP JUMPDEST CALLER PUSH1 0x0 SWAP1 DUP2 MSTORE PUSH1 0x6 PUSH1 0x20 MSTORE PUSH1 0x40 SWAP1 KECCAK256 SSTORE PUSH1 0x5 SLOAD PUSH2 0x18E3 SWAP1 DUP3 PUSH4 0xFFFFFFFF PUSH2 0x1DA6 AND JUMP JUMPDEST PUSH1 0x5 DUP2 SWAP1 SSTORE PUSH1 0x40 DUP1 MLOAD DUP4 DUP2 MSTORE PUSH1 0x20 DUP2 ADD SWAP3 SWAP1 SWAP3 MSTORE DUP1 MLOAD CALLER SWAP3 PUSH32 0x4A68FDE121386FFCFC9555407BFB38625033A0D0D3726B00F56B4AB304B55447 SWAP3 SWAP1 DUP3 SWAP1 SUB ADD SWAP1 LOG2 POP JUMP JUMPDEST PUSH1 0x4 SLOAD DUP2 JUMP JUMPDEST PUSH1 0x0 SLOAD PUSH1 0x1 PUSH1 0x1 PUSH1 0xA0 SHL SUB AND CALLER EQ PUSH2 0x1944 JUMPI PUSH1 0x0 DUP1 REVERT JUMPDEST PUSH1 0x0 DUP1 SLOAD PUSH1 0x40 MLOAD PUSH1 0x1 PUSH1 0x1 PUSH1 0xA0 SHL SUB SWAP1 SWAP2 AND SWAP1 PUSH32 0xC7C0C772ADD429241571AFB3805861FB3CFA2AF374534088B76CDB4325A87E9A SWAP1 DUP4 SWAP1 LOG3 PUSH1 0x0 DUP1 SLOAD PUSH32 0xFFFFFFFFFFFFFFFFFFFFFFFF0000000000000000000000000000000000000000 AND SWAP1 SSTORE JUMP JUMPDEST PUSH1 0x5 SLOAD DUP2 JUMP JUMPDEST PUSH1 0x0 SLOAD PUSH1 0x1 PUSH1 0x1 PUSH1 0xA0 SHL SUB AND CALLER EQ PUSH2 0x19C3 JUMPI PUSH1 0x0 DUP1 REVERT JUMPDEST PUSH1 0x2 SLOAD PUSH2 0x19D9 SWAP1 PUSH1 0x1 PUSH1 0x1 PUSH1 0xA0 SHL SUB AND DUP3 PUSH2 0x1354 JUMP JUMPDEST POP JUMP JUMPDEST PUSH1 0x0 SLOAD PUSH1 0x1 PUSH1 0x1 PUSH1 0xA0 SHL SUB AND CALLER EQ PUSH2 0x19F3 JUMPI PUSH1 0x0 DUP1 REVERT JUMPDEST PUSH1 0x4 SSTORE JUMP JUMPDEST PUSH1 0x7 SLOAD PUSH1 0xFF AND DUP2 JUMP JUMPDEST PUSH1 0x12 SLOAD DUP2 JUMP JUMPDEST PUSH1 0x3 SLOAD DUP2 JUMP JUMPDEST PUSH1 0x0 SLOAD PUSH1 0x1 PUSH1 0x1 PUSH1 0xA0 SHL SUB AND CALLER EQ PUSH2 0x1A24 JUMPI PUSH1 0x0 DUP1 REVERT JUMPDEST PUSH1 0x40 MLOAD CALLER SWAP1 SELFBALANCE DUP1 ISZERO PUSH2 0x8FC MUL SWAP2 PUSH1 0x0 DUP2 DUP2 DUP2 DUP6 DUP9 DUP9 CALL SWAP4 POP POP POP POP ISZERO DUP1 ISZERO PUSH2 0x19D9 JUMPI RETURNDATASIZE PUSH1 0x0 DUP1 RETURNDATACOPY RETURNDATASIZE PUSH1 0x0 REVERT JUMPDEST PUSH1 0x6 PUSH1 0x20 MSTORE PUSH1 0x0 SWAP1 DUP2 MSTORE PUSH1 0x40 SWAP1 KECCAK256 SLOAD DUP2 JUMP JUMPDEST PUSH1 0x0 SLOAD PUSH1 0x1 PUSH1 0x1 PUSH1 0xA0 SHL SUB AND CALLER EQ PUSH2 0x1A79 JUMPI PUSH1 0x0 DUP1 REVERT JUMPDEST PUSH1 0x7 SLOAD PUSH1 0xFF AND PUSH2 0x1AD0 JUMPI PUSH1 0x40 DUP1 MLOAD PUSH3 0x461BCD PUSH1 0xE5 SHL DUP2 MSTORE PUSH1 0x20 PUSH1 0x4 DUP3 ADD MSTORE PUSH1 0xB PUSH1 0x24 DUP3 ADD MSTORE PUSH32 0x756E636F6D706C65746564000000000000000000000000000000000000000000 PUSH1 0x44 DUP3 ADD MSTORE SWAP1 MLOAD SWAP1 DUP2 SWAP1 SUB PUSH1 0x64 ADD SWAP1 REVERT JUMPDEST PUSH1 0x0 DUP1 PUSH2 0x1ADB PUSH2 0x1123 JUMP JUMPDEST SWAP2 POP SWAP2 POP PUSH2 0x1AE9 DUP5 DUP4 PUSH2 0x1F29 JUMP JUMPDEST SWAP4 POP PUSH2 0x1AF5 DUP4 DUP3 PUSH2 0x1F29 JUMP JUMPDEST PUSH1 0x1 SLOAD SWAP1 SWAP4 POP PUSH1 0x1 PUSH1 0x1 PUSH1 0xA0 SHL SUB AND PUSH2 0x1B44 JUMPI PUSH1 0x40 MLOAD PUSH1 0x1 PUSH1 0x1 PUSH1 0xA0 SHL SUB DUP7 AND SWAP1 DUP6 ISZERO PUSH2 0x8FC MUL SWAP1 DUP7 SWAP1 PUSH1 0x0 DUP2 DUP2 DUP2 DUP6 DUP9 DUP9 CALL SWAP4 POP POP POP POP ISZERO DUP1 ISZERO PUSH2 0x1B3E JUMPI RETURNDATASIZE PUSH1 0x0 DUP1 RETURNDATACOPY RETURNDATASIZE PUSH1 0x0 REVERT JUMPDEST POP PUSH2 0x1B61 JUMP JUMPDEST PUSH1 0x1 SLOAD PUSH2 0x1B61 SWAP1 PUSH1 0x1 PUSH1 0x1 PUSH1 0xA0 SHL SUB AND DUP7 DUP7 PUSH4 0xFFFFFFFF PUSH2 0x1D26 AND JUMP JUMPDEST PUSH1 0x2 SLOAD PUSH2 0x1B7E SWAP1 PUSH1 0x1 PUSH1 0x1 PUSH1 0xA0 SHL SUB AND DUP7 DUP6 PUSH4 0xFFFFFFFF PUSH2 0x1D26 AND JUMP JUMPDEST PUSH1 0x40 DUP1 MLOAD PUSH1 0x1 PUSH1 0x1 PUSH1 0xA0 SHL SUB DUP8 AND DUP2 MSTORE PUSH1 0x20 DUP2 ADD DUP7 SWAP1 MSTORE DUP1 DUP3 ADD DUP6 SWAP1 MSTORE SWAP1 MLOAD PUSH32 0x92CCF450A286A957AF52509BC1C9939D1A6A481783E142E41E2499F0BB66EBC6 SWAP2 DUP2 SWAP1 SUB PUSH1 0x60 ADD SWAP1 LOG1 POP POP POP POP POP JUMP JUMPDEST PUSH1 0x0 SLOAD PUSH1 0x1 PUSH1 0x1 PUSH1 0xA0 SHL SUB AND CALLER EQ PUSH2 0x1BE5 JUMPI PUSH1 0x0 DUP1 REVERT JUMPDEST PUSH2 0x19D9 DUP2 PUSH2 0x1F3F JUMP JUMPDEST PUSH1 0x9 PUSH1 0x20 MSTORE PUSH1 0x0 SWAP1 DUP2 MSTORE PUSH1 0x40 SWAP1 KECCAK256 SLOAD DUP2 JUMP JUMPDEST PUSH1 0x10 SLOAD PUSH1 0x1 PUSH1 0x1 PUSH1 0xA0 SHL SUB AND DUP2 JUMP JUMPDEST PUSH1 0xA SLOAD DUP2 JUMP JUMPDEST PUSH1 0x0 SLOAD PUSH1 0x1 PUSH1 0x1 PUSH1 0xA0 SHL SUB AND CALLER EQ PUSH2 0x1C2C JUMPI PUSH1 0x0 DUP1 REVERT JUMPDEST PUSH1 0x2 SLOAD PUSH2 0xAF6 SWAP1 PUSH1 0x1 PUSH1 0x1 PUSH1 0xA0 SHL SUB AND CALLER PUSH2 0x1354 JUMP JUMPDEST PUSH1 0x2 DUP2 JUMP JUMPDEST PUSH1 0x1 SLOAD PUSH1 0x1 PUSH1 0x1 PUSH1 0xA0 SHL SUB AND DUP2 JUMP JUMPDEST PUSH1 0xD PUSH1 0x20 MSTORE PUSH1 0x0 SWAP1 DUP2 MSTORE PUSH1 0x40 SWAP1 KECCAK256 SLOAD DUP2 JUMP JUMPDEST PUSH1 0x0 SLOAD PUSH1 0x1 PUSH1 0x1 PUSH1 0xA0 SHL SUB AND CALLER EQ PUSH2 0x1C7F JUMPI PUSH1 0x0 DUP1 REVERT JUMPDEST DUP1 PUSH1 0x12 SLOAD LT ISZERO PUSH2 0x1CD6 JUMPI PUSH1 0x40 DUP1 MLOAD PUSH3 0x461BCD PUSH1 0xE5 SHL DUP2 MSTORE PUSH1 0x20 PUSH1 0x4 DUP3 ADD MSTORE PUSH1 0x11 PUSH1 0x24 DUP3 ADD MSTORE PUSH32 0x6D61782073686F756C64206774206D696E000000000000000000000000000000 PUSH1 0x44 DUP3 ADD MSTORE SWAP1 MLOAD SWAP1 DUP2 SWAP1 SUB PUSH1 0x64 ADD SWAP1 REVERT JUMPDEST PUSH1 0x11 SSTORE JUMP JUMPDEST PUSH1 0x0 PUSH2 0x1D1D DUP4 DUP4 PUSH1 0x40 MLOAD DUP1 PUSH1 0x40 ADD PUSH1 0x40 MSTORE DUP1 PUSH1 0x1E DUP2 MSTORE PUSH1 0x20 ADD PUSH32 0x536166654D6174683A207375627472616374696F6E206F766572666C6F770000 DUP2 MSTORE POP PUSH2 0x1FC5 JUMP JUMPDEST SWAP1 POP JUMPDEST SWAP3 SWAP2 POP POP JUMP JUMPDEST PUSH1 0x40 DUP1 MLOAD PUSH1 0x1 PUSH1 0x1 PUSH1 0xA0 SHL SUB DUP5 AND PUSH1 0x24 DUP3 ADD MSTORE PUSH1 0x44 DUP1 DUP3 ADD DUP5 SWAP1 MSTORE DUP3 MLOAD DUP1 DUP4 SUB SWAP1 SWAP2 ADD DUP2 MSTORE PUSH1 0x64 SWAP1 SWAP2 ADD SWAP1 SWAP2 MSTORE PUSH1 0x20 DUP2 ADD DUP1 MLOAD PUSH28 0xFFFFFFFFFFFFFFFFFFFFFFFFFFFFFFFFFFFFFFFFFFFFFFFFFFFFFFFF AND PUSH32 0xA9059CBB00000000000000000000000000000000000000000000000000000000 OR SWAP1 MSTORE PUSH2 0x1416 SWAP1 DUP5 SWAP1 PUSH2 0x205C JUMP JUMPDEST PUSH1 0x0 DUP3 DUP3 ADD DUP4 DUP2 LT ISZERO PUSH2 0x1D1D JUMPI PUSH1 0x40 DUP1 MLOAD PUSH3 0x461BCD PUSH1 0xE5 SHL DUP2 MSTORE PUSH1 0x20 PUSH1 0x4 DUP3 ADD MSTORE PUSH1 0x1B PUSH1 0x24 DUP3 ADD MSTORE PUSH32 0x536166654D6174683A206164646974696F6E206F766572666C6F770000000000 PUSH1 0x44 DUP3 ADD MSTORE SWAP1 MLOAD SWAP1 DUP2 SWAP1 SUB PUSH1 0x64 ADD SWAP1 REVERT JUMPDEST PUSH1 0x0 DUP3 PUSH2 0x1E0F JUMPI POP PUSH1 0x0 PUSH2 0x1D20 JUMP JUMPDEST DUP3 DUP3 MUL DUP3 DUP5 DUP3 DUP2 PUSH2 0x1E1C JUMPI INVALID JUMPDEST DIV EQ PUSH2 0x1D1D JUMPI PUSH1 0x40 MLOAD PUSH3 0x461BCD PUSH1 0xE5 SHL DUP2 MSTORE PUSH1 0x4 ADD DUP1 DUP1 PUSH1 0x20 ADD DUP3 DUP2 SUB DUP3 MSTORE PUSH1 0x21 DUP2 MSTORE PUSH1 0x20 ADD DUP1 PUSH2 0x22D4 PUSH1 0x21 SWAP2 CODECOPY PUSH1 0x40 ADD SWAP2 POP POP PUSH1 0x40 MLOAD DUP1 SWAP2 SUB SWAP1 REVERT JUMPDEST PUSH1 0x0 PUSH2 0x1D1D DUP4 DUP4 PUSH1 0x40 MLOAD DUP1 PUSH1 0x40 ADD PUSH1 0x40 MSTORE DUP1 PUSH1 0x1A DUP2 MSTORE PUSH1 0x20 ADD PUSH32 0x536166654D6174683A206469766973696F6E206279207A65726F000000000000 DUP2 MSTORE POP PUSH2 0x2232 JUMP JUMPDEST PUSH1 0x40 DUP1 MLOAD PUSH1 0x1 PUSH1 0x1 PUSH1 0xA0 SHL SUB DUP1 DUP7 AND PUSH1 0x24 DUP4 ADD MSTORE DUP5 AND PUSH1 0x44 DUP3 ADD MSTORE PUSH1 0x64 DUP1 DUP3 ADD DUP5 SWAP1 MSTORE DUP3 MLOAD DUP1 DUP4 SUB SWAP1 SWAP2 ADD DUP2 MSTORE PUSH1 0x84 SWAP1 SWAP2 ADD SWAP1 SWAP2 MSTORE PUSH1 0x20 DUP2 ADD DUP1 MLOAD PUSH28 0xFFFFFFFFFFFFFFFFFFFFFFFFFFFFFFFFFFFFFFFFFFFFFFFFFFFFFFFF AND PUSH32 0x23B872DD00000000000000000000000000000000000000000000000000000000 OR SWAP1 MSTORE PUSH2 0x1F23 SWAP1 DUP6 SWAP1 PUSH2 0x205C JUMP JUMPDEST POP POP POP POP JUMP JUMPDEST PUSH1 0x0 DUP2 DUP4 LT PUSH2 0x1F38 JUMPI DUP2 PUSH2 0x1D1D JUMP JUMPDEST POP SWAP1 SWAP2 SWAP1 POP JUMP JUMPDEST PUSH1 0x1 PUSH1 0x1 PUSH1 0xA0 SHL SUB DUP2 AND PUSH2 0x1F52 JUMPI PUSH1 0x0 DUP1 REVERT JUMPDEST PUSH1 0x0 DUP1 SLOAD PUSH1 0x40 MLOAD PUSH1 0x1 PUSH1 0x1 PUSH1 0xA0 SHL SUB DUP1 DUP6 AND SWAP4 SWAP3 AND SWAP2 PUSH32 0xC7C0C772ADD429241571AFB3805861FB3CFA2AF374534088B76CDB4325A87E9A SWAP2 LOG3 PUSH1 0x0 DUP1 SLOAD PUSH32 0xFFFFFFFFFFFFFFFFFFFFFFFF0000000000000000000000000000000000000000 AND PUSH1 0x1 PUSH1 0x1 PUSH1 0xA0 SHL SUB SWAP3 SWAP1 SWAP3 AND SWAP2 SWAP1 SWAP2 OR SWAP1 SSTORE JUMP JUMPDEST PUSH1 0x0 DUP2 DUP5 DUP5 GT ISZERO PUSH2 0x2054 JUMPI PUSH1 0x40 MLOAD PUSH3 0x461BCD PUSH1 0xE5 SHL DUP2 MSTORE PUSH1 0x4 ADD DUP1 DUP1 PUSH1 0x20 ADD DUP3 DUP2 SUB DUP3 MSTORE DUP4 DUP2 DUP2 MLOAD DUP2 MSTORE PUSH1 0x20 ADD SWAP2 POP DUP1 MLOAD SWAP1 PUSH1 0x20 ADD SWAP1 DUP1 DUP4 DUP4 PUSH1 0x0 JUMPDEST DUP4 DUP2 LT ISZERO PUSH2 0x2019 JUMPI DUP2 DUP2 ADD MLOAD DUP4 DUP3 ADD MSTORE PUSH1 0x20 ADD PUSH2 0x2001 JUMP JUMPDEST POP POP POP POP SWAP1 POP SWAP1 DUP2 ADD SWAP1 PUSH1 0x1F AND DUP1 ISZERO PUSH2 0x2046 JUMPI DUP1 DUP3 SUB DUP1 MLOAD PUSH1 0x1 DUP4 PUSH1 0x20 SUB PUSH2 0x100 EXP SUB NOT AND DUP2 MSTORE PUSH1 0x20 ADD SWAP2 POP JUMPDEST POP SWAP3 POP POP POP PUSH1 0x40 MLOAD DUP1 SWAP2 SUB SWAP1 REVERT JUMPDEST POP POP POP SWAP1 SUB SWAP1 JUMP JUMPDEST PUSH2 0x206E DUP3 PUSH1 0x1 PUSH1 0x1 PUSH1 0xA0 SHL SUB AND PUSH2 0x2297 JUMP JUMPDEST PUSH2 0x20BF JUMPI PUSH1 0x40 DUP1 MLOAD PUSH3 0x461BCD PUSH1 0xE5 SHL DUP2 MSTORE PUSH1 0x20 PUSH1 0x4 DUP3 ADD MSTORE PUSH1 0x1F PUSH1 0x24 DUP3 ADD MSTORE PUSH32 0x5361666545524332303A2063616C6C20746F206E6F6E2D636F6E747261637400 PUSH1 0x44 DUP3 ADD MSTORE SWAP1 MLOAD SWAP1 DUP2 SWAP1 SUB PUSH1 0x64 ADD SWAP1 REVERT JUMPDEST PUSH1 0x0 PUSH1 0x60 DUP4 PUSH1 0x1 PUSH1 0x1 PUSH1 0xA0 SHL SUB AND DUP4 PUSH1 0x40 MLOAD DUP1 DUP3 DUP1 MLOAD SWAP1 PUSH1 0x20 ADD SWAP1 DUP1 DUP4 DUP4 JUMPDEST PUSH1 0x20 DUP4 LT PUSH2 0x211B JUMPI DUP1 MLOAD DUP3 MSTORE PUSH32 0xFFFFFFFFFFFFFFFFFFFFFFFFFFFFFFFFFFFFFFFFFFFFFFFFFFFFFFFFFFFFFFE0 SWAP1 SWAP3 ADD SWAP2 PUSH1 0x20 SWAP2 DUP3 ADD SWAP2 ADD PUSH2 0x20DE JUMP JUMPDEST PUSH1 0x1 DUP4 PUSH1 0x20 SUB PUSH2 0x100 EXP SUB DUP1 NOT DUP3 MLOAD AND DUP2 DUP5 MLOAD AND DUP1 DUP3 OR DUP6 MSTORE POP POP POP POP POP POP SWAP1 POP ADD SWAP2 POP POP PUSH1 0x0 PUSH1 0x40 MLOAD DUP1 DUP4 SUB DUP2 PUSH1 0x0 DUP7 GAS CALL SWAP2 POP POP RETURNDATASIZE DUP1 PUSH1 0x0 DUP2 EQ PUSH2 0x217D JUMPI PUSH1 0x40 MLOAD SWAP2 POP PUSH1 0x1F NOT PUSH1 0x3F RETURNDATASIZE ADD AND DUP3 ADD PUSH1 0x40 MSTORE RETURNDATASIZE DUP3 MSTORE RETURNDATASIZE PUSH1 0x0 PUSH1 0x20 DUP5 ADD RETURNDATACOPY PUSH2 0x2182 JUMP JUMPDEST PUSH1 0x60 SWAP2 POP JUMPDEST POP SWAP2 POP SWAP2 POP DUP2 PUSH2 0x21D9 JUMPI PUSH1 0x40 DUP1 MLOAD PUSH3 0x461BCD PUSH1 0xE5 SHL DUP2 MSTORE PUSH1 0x20 PUSH1 0x4 DUP3 ADD DUP2 SWAP1 MSTORE PUSH1 0x24 DUP3 ADD MSTORE PUSH32 0x5361666545524332303A206C6F772D6C6576656C2063616C6C206661696C6564 PUSH1 0x44 DUP3 ADD MSTORE SWAP1 MLOAD SWAP1 DUP2 SWAP1 SUB PUSH1 0x64 ADD SWAP1 REVERT JUMPDEST DUP1 MLOAD ISZERO PUSH2 0x1F23 JUMPI DUP1 DUP1 PUSH1 0x20 ADD SWAP1 MLOAD PUSH1 0x20 DUP2 LT ISZERO PUSH2 0x21F5 JUMPI PUSH1 0x0 DUP1 REVERT JUMPDEST POP MLOAD PUSH2 0x1F23 JUMPI PUSH1 0x40 MLOAD PUSH3 0x461BCD PUSH1 0xE5 SHL DUP2 MSTORE PUSH1 0x4 ADD DUP1 DUP1 PUSH1 0x20 ADD DUP3 DUP2 SUB DUP3 MSTORE PUSH1 0x2A DUP2 MSTORE PUSH1 0x20 ADD DUP1 PUSH2 0x231E PUSH1 0x2A SWAP2 CODECOPY PUSH1 0x40 ADD SWAP2 POP POP PUSH1 0x40 MLOAD DUP1 SWAP2 SUB SWAP1 REVERT JUMPDEST PUSH1 0x0 DUP2 DUP4 PUSH2 0x2281 JUMPI PUSH1 0x40 MLOAD PUSH3 0x461BCD PUSH1 0xE5 SHL DUP2 MSTORE PUSH1 0x20 PUSH1 0x4 DUP3 ADD DUP2 DUP2 MSTORE DUP4 MLOAD PUSH1 0x24 DUP5 ADD MSTORE DUP4 MLOAD SWAP1 SWAP3 DUP4 SWAP3 PUSH1 0x44 SWAP1 SWAP2 ADD SWAP2 SWAP1 DUP6 ADD SWAP1 DUP1 DUP4 DUP4 PUSH1 0x0 DUP4 ISZERO PUSH2 0x2019 JUMPI DUP2 DUP2 ADD MLOAD DUP4 DUP3 ADD MSTORE PUSH1 0x20 ADD PUSH2 0x2001 JUMP JUMPDEST POP PUSH1 0x0 DUP4 DUP6 DUP2 PUSH2 0x228D JUMPI INVALID JUMPDEST DIV SWAP6 SWAP5 POP POP POP POP POP JUMP JUMPDEST PUSH1 0x0 DUP2 EXTCODEHASH PUSH32 0xC5D2460186F7233C927E7DB2DCC703C0E500B653CA82273B7BFAD8045D85A470 DUP2 DUP2 EQ DUP1 ISZERO SWAP1 PUSH2 0x22CB JUMPI POP DUP2 ISZERO ISZERO JUMPDEST SWAP5 SWAP4 POP POP POP POP JUMP INVALID MSTORE8 PUSH2 0x6665 0x4D PUSH2 0x7468 GASPRICE KECCAK256 PUSH14 0x756C7469706C69636174696F6E20 PUSH16 0x766572666C6F77205075726368617365 KECCAK256 SSTORE PUSH20 0x6474206E756D6265722073686F756C6420677420 PUSH3 0x616C61 PUSH15 0x616365215361666545524332303A20 GASLIMIT MSTORE NUMBER ORIGIN ADDRESS KECCAK256 PUSH16 0x7065726174696F6E20646964206E6F74 KECCAK256 PUSH20 0x7563636565644974206973206E6F742074696D65 NUMBER PUSH13 0x61696D20746F20736574746C65 KECCAK256 PUSH22 0x6E6465726C79696E67A264697066735822122034E90D DELEGATECALL PUSH4 0x10924B7B PUSH22 0xCDF7E4A4B9FB9622F910480F61C7E425FC2FB680FA06 PUSH5 0x736F6C6343 STOP MOD MUL STOP CALLER "
        },
        "methodIdentifiers": {
          "claim()": "4e71d92d",
          "claimable(address)": "402914f5",
          "completed()": "9d9a7fe9",
          "contractType()": "cb2ef6f7",
          "currency()": "e5a6b10f",
          "feeOwner()": "b9818be1",
          "feeRatio()": "41744dd4",
          "governor()": "0c340a24",
          "maxUsdtTotalOffered()": "9da61298",
          "minUsdtTotalOffered()": "16d95c1e",
          "offer(uint256)": "761610fc",
          "price()": "a035b1fe",
          "purchasedCurrencyOf(address)": "b3a60f96",
          "recipient()": "66d003ac",
          "renounceGovernorship()": "81c0c263",
          "rescueTokens(address,address)": "5431c94e",
          "setFeeOwner(address)": "4b104eff",
          "setFeeRatio(uint256)": "19f4ff2f",
          "setMaxUsdtTotalOffered(uint256)": "4b34f931",
          "setMinUsdtTotalOffered(uint256)": "f27cf063",
          "setRecipient(address)": "3bbed4a0",
          "setTimeClaim(uint256)": "368e9d6a",
          "setTimeOffer(uint256)": "8d52fcef",
          "settleRate()": "c59504cc",
          "settledCurrencyOf(address)": "ef145178",
          "settledUnderlyingOf(address)": "b81d51d6",
          "timeClaim()": "356130bc",
          "timeOffer()": "78c8e65f",
          "totalClaimable()": "4838ed19",
          "totalPurchasedCurrency()": "84ca93a7",
          "totalSettledUnderlying()": "36cb0763",
          "transferGovernorship(address)": "b6aa515b",
          "underlying()": "6f307dc3",
          "withdraw(address,uint256,uint256)": "b5c5f672",
          "withdrawCurrencyToken()": "26d7d2c3",
          "withdrawEth()": "a0ef91df",
          "withdrawEth(address)": "25e16063",
          "withdrawToken()": "ca628c78",
          "withdrawToken(address)": "89476069",
          "withdrawable()": "50188301"
        }
      }
    }
  }
}