{
  "_format": "hh-sol-artifact-1",
  "contractName": "Offering",
  "sourceName": "contracts/Offering.sol",
  "abi": [
    {
      "inputs": [
        {
          "internalType": "address",
          "name": "governor_",
          "type": "address"
        },
        {
          "internalType": "address",
          "name": "currency_",
          "type": "address"
        },
        {
          "internalType": "address",
          "name": "token_",
          "type": "address"
        },
        {
          "internalType": "uint256",
          "name": "price_",
          "type": "uint256"
        },
        {
          "internalType": "address payable",
          "name": "recipient_",
          "type": "address"
        },
        {
          "internalType": "address payable",
          "name": "feeOwner_",
          "type": "address"
        },
        {
          "internalType": "uint256",
          "name": "feeRatio_",
          "type": "uint256"
        },
        {
          "internalType": "uint256",
          "name": "timeOffer_",
          "type": "uint256"
        },
        {
          "internalType": "uint256",
          "name": "timeClaim_",
          "type": "uint256"
        },
        {
          "internalType": "uint256",
          "name": "minUsdtTotalOffered_",
          "type": "uint256"
        }
      ],
      "stateMutability": "nonpayable",
      "type": "constructor"
    },
    {
      "anonymous": false,
      "inputs": [
        {
          "indexed": true,
          "internalType": "address",
          "name": "addr",
          "type": "address"
        },
        {
          "indexed": false,
          "internalType": "uint256",
          "name": "volume",
          "type": "uint256"
        },
        {
          "indexed": false,
          "internalType": "uint256",
          "name": "total",
          "type": "uint256"
        }
      ],
      "name": "Claim",
      "type": "event"
    },
    {
      "anonymous": false,
      "inputs": [
        {
          "indexed": true,
          "internalType": "address",
          "name": "previousGovernor",
          "type": "address"
        },
        {
          "indexed": true,
          "internalType": "address",
          "name": "newGovernor",
          "type": "address"
        }
      ],
      "name": "GovernorshipTransferred",
      "type": "event"
    },
    {
      "anonymous": false,
      "inputs": [
        {
          "indexed": true,
          "internalType": "address",
          "name": "addr",
          "type": "address"
        },
        {
          "indexed": false,
          "internalType": "uint256",
          "name": "amount",
          "type": "uint256"
        },
        {
          "indexed": false,
          "internalType": "uint256",
          "name": "volume",
          "type": "uint256"
        },
        {
          "indexed": false,
          "internalType": "uint256",
          "name": "total",
          "type": "uint256"
        }
      ],
      "name": "Offer",
      "type": "event"
    },
    {
      "anonymous": false,
      "inputs": [
        {
          "indexed": true,
          "internalType": "address",
          "name": "addr",
          "type": "address"
        },
        {
          "indexed": false,
          "internalType": "uint256",
          "name": "amount",
          "type": "uint256"
        },
        {
          "indexed": false,
          "internalType": "uint256",
          "name": "total",
          "type": "uint256"
        }
      ],
      "name": "Quota",
      "type": "event"
    },
    {
      "anonymous": false,
      "inputs": [
        {
          "indexed": true,
          "internalType": "address",
          "name": "addr",
          "type": "address"
        },
        {
          "indexed": false,
          "internalType": "uint256",
          "name": "volume",
          "type": "uint256"
        },
        {
          "indexed": false,
          "internalType": "uint256",
          "name": "volumeUsdt",
          "type": "uint256"
        },
        {
          "indexed": false,
          "internalType": "uint256",
          "name": "total",
          "type": "uint256"
        }
      ],
      "name": "Revert",
      "type": "event"
    },
    {
      "anonymous": false,
      "inputs": [
        {
          "indexed": true,
          "internalType": "address",
          "name": "addr",
          "type": "address"
        },
        {
          "indexed": false,
          "internalType": "uint256",
          "name": "balance",
          "type": "uint256"
        },
        {
          "indexed": false,
          "internalType": "uint256",
          "name": "recipientBalance",
          "type": "uint256"
        }
      ],
      "name": "WithdrawCurrency",
      "type": "event"
    },
    {
      "stateMutability": "nonpayable",
      "type": "fallback"
    },
    {
      "inputs": [
        {
          "internalType": "address",
          "name": "governor_",
          "type": "address"
        }
      ],
      "name": "__Governable_init_unchained",
      "outputs": [],
      "stateMutability": "nonpayable",
      "type": "function"
    },
    {
      "inputs": [],
      "name": "claim",
      "outputs": [],
      "stateMutability": "nonpayable",
      "type": "function"
    },
    {
      "inputs": [
        {
          "internalType": "address",
          "name": "",
          "type": "address"
        }
      ],
      "name": "claimedOf",
      "outputs": [
        {
          "internalType": "uint256",
          "name": "",
          "type": "uint256"
        }
      ],
      "stateMutability": "view",
      "type": "function"
    },
    {
      "inputs": [],
      "name": "contractType",
      "outputs": [
        {
          "internalType": "uint256",
          "name": "",
          "type": "uint256"
        }
      ],
      "stateMutability": "view",
      "type": "function"
    },
    {
      "inputs": [],
      "name": "currency",
      "outputs": [
        {
          "internalType": "contract IERC20",
          "name": "",
          "type": "address"
        }
      ],
      "stateMutability": "view",
      "type": "function"
    },
    {
      "inputs": [],
      "name": "feeOwner",
      "outputs": [
        {
          "internalType": "address payable",
          "name": "",
          "type": "address"
        }
      ],
      "stateMutability": "view",
      "type": "function"
    },
    {
      "inputs": [],
      "name": "feeRatio",
      "outputs": [
        {
          "internalType": "uint256",
          "name": "",
          "type": "uint256"
        }
      ],
      "stateMutability": "view",
      "type": "function"
    },
    {
      "inputs": [],
      "name": "governor",
      "outputs": [
        {
          "internalType": "address",
          "name": "",
          "type": "address"
        }
      ],
      "stateMutability": "view",
      "type": "function"
    },
    {
      "inputs": [],
      "name": "minUsdtTotalOffered",
      "outputs": [
        {
          "internalType": "uint256",
          "name": "",
          "type": "uint256"
        }
      ],
      "stateMutability": "view",
      "type": "function"
    },
    {
      "inputs": [
        {
          "internalType": "uint256",
          "name": "amount",
          "type": "uint256"
        }
      ],
      "name": "offer",
      "outputs": [],
      "stateMutability": "nonpayable",
      "type": "function"
    },
    {
      "inputs": [
        {
          "internalType": "address",
          "name": "",
          "type": "address"
        }
      ],
      "name": "offeredOf",
      "outputs": [
        {
          "internalType": "uint256",
          "name": "",
          "type": "uint256"
        }
      ],
      "stateMutability": "view",
      "type": "function"
    },
    {
      "inputs": [
        {
          "internalType": "address",
          "name": "",
          "type": "address"
        }
      ],
      "name": "offeredUsdtOf",
      "outputs": [
        {
          "internalType": "uint256",
          "name": "",
          "type": "uint256"
        }
      ],
      "stateMutability": "view",
      "type": "function"
    },
    {
      "inputs": [],
      "name": "price",
      "outputs": [
        {
          "internalType": "uint256",
          "name": "",
          "type": "uint256"
        }
      ],
      "stateMutability": "view",
      "type": "function"
    },
    {
      "inputs": [
        {
          "internalType": "address",
          "name": "",
          "type": "address"
        }
      ],
      "name": "quotaUsdtOf",
      "outputs": [
        {
          "internalType": "uint256",
          "name": "",
          "type": "uint256"
        }
      ],
      "stateMutability": "view",
      "type": "function"
    },
    {
      "inputs": [],
      "name": "recipient",
      "outputs": [
        {
          "internalType": "address payable",
          "name": "",
          "type": "address"
        }
      ],
      "stateMutability": "view",
      "type": "function"
    },
    {
      "inputs": [],
      "name": "renounceGovernorship",
      "outputs": [],
      "stateMutability": "nonpayable",
      "type": "function"
    },
    {
      "inputs": [
        {
          "internalType": "address",
          "name": "_token",
          "type": "address"
        },
        {
          "internalType": "address",
          "name": "_dst",
          "type": "address"
        }
      ],
      "name": "rescueTokens",
      "outputs": [],
      "stateMutability": "nonpayable",
      "type": "function"
    },
    {
      "inputs": [
        {
          "internalType": "address payable",
          "name": "feeOwner_",
          "type": "address"
        }
      ],
      "name": "setFeeOwner",
      "outputs": [],
      "stateMutability": "nonpayable",
      "type": "function"
    },
    {
      "inputs": [
        {
          "internalType": "uint256",
          "name": "feeRatio_",
          "type": "uint256"
        }
      ],
      "name": "setFeeRatio",
      "outputs": [],
      "stateMutability": "nonpayable",
      "type": "function"
    },
    {
      "inputs": [
        {
          "internalType": "uint256",
          "name": "minUsdtTotalOffered_",
          "type": "uint256"
        }
      ],
      "name": "setMinUsdtTotalOffered",
      "outputs": [],
      "stateMutability": "nonpayable",
      "type": "function"
    },
    {
      "inputs": [
        {
          "internalType": "address",
          "name": "addr",
          "type": "address"
        },
        {
          "internalType": "uint256",
          "name": "amount",
          "type": "uint256"
        }
      ],
      "name": "setQuota",
      "outputs": [],
      "stateMutability": "nonpayable",
      "type": "function"
    },
    {
      "inputs": [
        {
          "internalType": "address[]",
          "name": "addrs",
          "type": "address[]"
        },
        {
          "internalType": "uint256[]",
          "name": "amounts",
          "type": "uint256[]"
        }
      ],
      "name": "setQuotas",
      "outputs": [],
      "stateMutability": "nonpayable",
      "type": "function"
    },
    {
      "inputs": [
        {
          "internalType": "address[]",
          "name": "addrs",
          "type": "address[]"
        },
        {
          "internalType": "uint256",
          "name": "amount",
          "type": "uint256"
        }
      ],
      "name": "setQuotas",
      "outputs": [],
      "stateMutability": "nonpayable",
      "type": "function"
    },
    {
      "inputs": [
        {
          "internalType": "address payable",
          "name": "recipient_",
          "type": "address"
        }
      ],
      "name": "setRecipient",
      "outputs": [],
      "stateMutability": "nonpayable",
      "type": "function"
    },
    {
      "inputs": [
        {
          "internalType": "uint256",
          "name": "timeClaim_",
          "type": "uint256"
        }
      ],
      "name": "setTimeClaim",
      "outputs": [],
      "stateMutability": "nonpayable",
      "type": "function"
    },
    {
      "inputs": [
        {
          "internalType": "uint256",
          "name": "timeOffer_",
          "type": "uint256"
        }
      ],
      "name": "setTimeOffer",
      "outputs": [],
      "stateMutability": "nonpayable",
      "type": "function"
    },
    {
      "inputs": [],
      "name": "timeClaim",
      "outputs": [
        {
          "internalType": "uint256",
          "name": "",
          "type": "uint256"
        }
      ],
      "stateMutability": "view",
      "type": "function"
    },
    {
      "inputs": [],
      "name": "timeOffer",
      "outputs": [
        {
          "internalType": "uint256",
          "name": "",
          "type": "uint256"
        }
      ],
      "stateMutability": "view",
      "type": "function"
    },
    {
      "inputs": [],
      "name": "token",
      "outputs": [
        {
          "internalType": "contract IERC20",
          "name": "",
          "type": "address"
        }
      ],
      "stateMutability": "view",
      "type": "function"
    },
    {
      "inputs": [],
      "name": "totalClaimed",
      "outputs": [
        {
          "internalType": "uint256",
          "name": "",
          "type": "uint256"
        }
      ],
      "stateMutability": "view",
      "type": "function"
    },
    {
      "inputs": [],
      "name": "totalOffered",
      "outputs": [
        {
          "internalType": "uint256",
          "name": "",
          "type": "uint256"
        }
      ],
      "stateMutability": "view",
      "type": "function"
    },
    {
      "inputs": [],
      "name": "totalUsdtQuota",
      "outputs": [
        {
          "internalType": "uint256",
          "name": "",
          "type": "uint256"
        }
      ],
      "stateMutability": "view",
      "type": "function"
    },
    {
      "inputs": [],
      "name": "totalUsdtTotalOffered",
      "outputs": [
        {
          "internalType": "uint256",
          "name": "",
          "type": "uint256"
        }
      ],
      "stateMutability": "view",
      "type": "function"
    },
    {
      "inputs": [
        {
          "internalType": "address",
          "name": "newGovernor",
          "type": "address"
        }
      ],
      "name": "transferGovernorship",
      "outputs": [],
      "stateMutability": "nonpayable",
      "type": "function"
    },
    {
      "inputs": [],
      "name": "withdrawCurrencyToken",
      "outputs": [],
      "stateMutability": "nonpayable",
      "type": "function"
    },
    {
      "inputs": [
        {
          "internalType": "address payable",
          "name": "_dst",
          "type": "address"
        }
      ],
      "name": "withdrawEth",
      "outputs": [],
      "stateMutability": "nonpayable",
      "type": "function"
    },
    {
      "inputs": [],
      "name": "withdrawEth",
      "outputs": [],
      "stateMutability": "nonpayable",
      "type": "function"
    },
    {
      "inputs": [
        {
          "internalType": "address",
          "name": "_dst",
          "type": "address"
        }
      ],
      "name": "withdrawToken",
      "outputs": [],
      "stateMutability": "nonpayable",
      "type": "function"
    },
    {
      "inputs": [],
      "name": "withdrawToken",
      "outputs": [],
      "stateMutability": "nonpayable",
      "type": "function"
    }
  ],
  "bytecode": "0x608060405234801561001057600080fd5b506040516200224438038062002244833981810160405261014081101561003657600080fd5b508051602082015160408301516060840151608085015160a086015160c087015160e08801516101008901516101209099015197989697959694959394929391929091828210156100ce576040805162461bcd60e51b815260206004820152601f60248201527f74696d65436c61696d5f2073686f756c64203e3d2074696d654f666665725f00604482015290519081900360640190fd5b60008711610117576040805162461bcd60e51b8152602060048201526011602482015270070726963652073686f756c64206774203607c1b604482015290519081900360640190fd5b6101298a6001600160e01b0361019516565b600180546001600160a01b03199081166001600160a01b039b8c1617909155600280548216998b169990991790985560039690965560058054881695891695909517909455600755600892909255600491909155600680549093169316929092179055600c55506101e4565b600080546001600160a01b0319166001600160a01b0383811691909117808355604051911691907fc7c0c772add429241571afb3805861fb3cfa2af374534088b76cdb4325a87e9a908290a350565b61205080620001f46000396000f3fe608060405234801561001057600080fd5b50600436106102ad5760003560e01c80638d52fcef1161017b578063d54ad2a1116100d8578063eef5436b1161008c578063f27cf06311610071578063f27cf063146106e9578063fc0c546a14610706578063fd4d80321461070e576102ad565b8063eef5436b146106d9578063f0809455146106e1576102ad565b8063e4df9f05116100bd578063e4df9f0514610685578063e5a6b10f146106ab578063e8b4aadb146106b3576102ad565b8063d54ad2a114610657578063df69e0161461065f576102ad565b8063baa3f7ee1161012f578063c773533811610114578063c7735338146105d7578063ca628c7814610647578063cb2ef6f71461064f576102ad565b8063baa3f7ee1461058b578063c1570322146105b1576102ad565b8063a0ef91df11610160578063a0ef91df14610555578063b6aa515b1461055d578063b9818be114610583576102ad565b80638d52fcef14610530578063a035b1fe1461054d576102ad565b80633bbed4a01161022957806366d003ac116101dd57806378c8e65f116101c257806378c8e65f146104fa57806381c0c26314610502578063894760691461050a576102ad565b806366d003ac146104d5578063761610fc146104dd576102ad565b80634b104eff1161020e5780634b104eff146104815780634e71d92d146102ad5780635431c94e146104a7576102ad565b80633bbed4a01461045357806341744dd414610479576102ad565b806319f4ff2f1161028057806326d7d2c31161026557806326d7d2c314610426578063356130bc1461042e578063368e9d6a14610436576102ad565b806319f4ff2f146103e357806325e1606314610400576102ad565b806303ce3355146102b75780630c340a24146102e357806316d95c1e146103075780631942999c14610321575b6102b5610716565b005b6102b5600480360360408110156102cd57600080fd5b506001600160a01b038135169060200135610b3a565b6102eb610bf0565b604080516001600160a01b039092168252519081900360200190f35b61030f610bff565b60408051918252519081900360200190f35b6102b56004803603604081101561033757600080fd5b81019060208101813564010000000081111561035257600080fd5b82018360208201111561036457600080fd5b8035906020019184602083028401116401000000008311171561038657600080fd5b9193909290916020810190356401000000008111156103a457600080fd5b8201836020820111156103b657600080fd5b803590602001918460208302840111640100000000831117156103d857600080fd5b509092509050610c05565b6102b5600480360360208110156103f957600080fd5b5035610c56565b6102b56004803603602081101561041657600080fd5b50356001600160a01b0316610c72565b6102b5610cc2565b61030f610e49565b6102b56004803603602081101561044c57600080fd5b5035610e4f565b6102b56004803603602081101561046957600080fd5b50356001600160a01b0316610e6b565b61030f610ebc565b6102b56004803603602081101561049757600080fd5b50356001600160a01b0316610ec2565b6102b5600480360360408110156104bd57600080fd5b506001600160a01b0381358116916020013516610f13565b6102eb610fda565b6102b5600480360360208110156104f357600080fd5b5035610fe9565b61030f6116d8565b6102b56116de565b6102b56004803603602081101561052057600080fd5b50356001600160a01b0316611757565b6102b56004803603602081101561054657600080fd5b5035611787565b61030f6117a3565b6102b56117a9565b6102b56004803603602081101561057357600080fd5b50356001600160a01b03166117ec565b6102eb61180c565b61030f600480360360208110156105a157600080fd5b50356001600160a01b031661181b565b61030f600480360360208110156105c757600080fd5b50356001600160a01b031661182d565b6102b5600480360360408110156105ed57600080fd5b81019060208101813564010000000081111561060857600080fd5b82018360208201111561061a57600080fd5b8035906020019184602083028401116401000000008311171561063c57600080fd5b91935091503561183f565b6102b561187d565b61030f6118aa565b61030f6118af565b6102b56004803603602081101561067557600080fd5b50356001600160a01b03166118b5565b61030f6004803603602081101561069b57600080fd5b50356001600160a01b031661191c565b6102eb61192e565b61030f600480360360208110156106c957600080fd5b50356001600160a01b031661193d565b61030f61194f565b61030f611955565b6102b5600480360360208110156106ff57600080fd5b503561195b565b6102eb611977565b61030f611986565b60085442101561076d576040805162461bcd60e51b815260206004820152601160248201527f69742773206e6f742074696d6520796574000000000000000000000000000000604482015290519081900360640190fd5b33600090815260116020526040902054156107cf576040805162461bcd60e51b815260206004820152600f60248201527f636c61696d656420616c72656164790000000000000000000000000000000000604482015290519081900360640190fd5b33600090815260106020526040902054610830576040805162461bcd60e51b815260206004820152601860248201527f6f66666572656420557364742073686f756c6420677420300000000000000000604482015290519081900360640190fd5b600d54600c54116109b357600b54600a546108509163ffffffff61198c16565b600254604080517f70a0823100000000000000000000000000000000000000000000000000000000815230600482015290516001600160a01b03909216916370a0823191602480820192602092909190829003018186803b1580156108b457600080fd5b505afa1580156108c8573d6000803e3d6000fd5b505050506040513d60208110156108de57600080fd5b5051101561091d5760405162461bcd60e51b8152600401808060200182810382526029815260200180611f7f6029913960400191505060405180910390fd5b336000908152600f60209081526040808320546011909252909120819055600b5461094e908263ffffffff6119d716565b600b5560025461096e906001600160a01b0316338363ffffffff611a3116565b600b54604080518381526020810192909252805133927f34fcbac0073d7c3d388e51312faf357774904998eeb8fca628b9e6f65ee1cbf792908290030190a250610b38565b600d54600154604080517f70a0823100000000000000000000000000000000000000000000000000000000815230600482015290516001600160a01b03909216916370a0823191602480820192602092909190829003018186803b158015610a1a57600080fd5b505afa158015610a2e573d6000803e3d6000fd5b505050506040513d6020811015610a4457600080fd5b50511015610a835760405162461bcd60e51b8152600401808060200182810382526028815260200180611fa86028913960400191505060405180910390fd5b3360009081526010602090815260408083208054600f90935290832080549184905592909255600a54909190610ab9908261198c565b600a55600d54610acf908363ffffffff61198c16565b600d55600154610aef906001600160a01b0316338463ffffffff611a3116565b600a546040805183815260208101859052808201929092525133917fa6a8fafa560fa0bfebe22fe134882b7fdd192e35c561a5aa62ec47d373fb2f23919081900360600190a250505b565b6000546001600160a01b03163314610b5157600080fd5b6001600160a01b0382166000908152600e6020526040902054600954610b8e9190610b82908463ffffffff6119d716565b9063ffffffff61198c16565b60099081556001600160a01b0383166000818152600e60209081526040918290208590559254815185815293840152805191927f0664880d26185ba05b5e4846543c1793cf0d7969835ebc5b5838f66a64a42ed0929081900390910190a25050565b6000546001600160a01b031681565b600c5481565b60005b83811015610c4f57610c47858583818110610c1f57fe5b905060200201356001600160a01b0316848484818110610c3b57fe5b90506020020135610b3a565b600101610c08565b5050505050565b6000546001600160a01b03163314610c6d57600080fd5b600455565b6000546001600160a01b03163314610c8957600080fd5b6040516001600160a01b038216904780156108fc02916000818181858888f19350505050158015610cbe573d6000803e3d6000fd5b5050565b6000546001600160a01b03163314610cd957600080fd5b600154604080517f70a0823100000000000000000000000000000000000000000000000000000000815230600482015290516000926001600160a01b0316916370a08231916024808301926020929190829003018186803b158015610d3d57600080fd5b505afa158015610d51573d6000803e3d6000fd5b505050506040513d6020811015610d6757600080fd5b5051600454909150600090610d9d90670de0b6b3a764000090610d9190859063ffffffff611ab116565b9063ffffffff611b0a16565b90506000610db1838363ffffffff61198c16565b600554600154919250610dd7916001600160a01b0390811691168363ffffffff611a3116565b600654600154610dfa916001600160a01b0391821691168463ffffffff611a3116565b600554604080518581526020810184905281516001600160a01b03909316927ff0fa8383bc9412382eb19bc4c20cb3a68b6a8c505d5deb5fcd132e260250f983929181900390910190a2505050565b60085481565b6000546001600160a01b03163314610e6657600080fd5b600855565b6000546001600160a01b03163314610e8257600080fd5b600580547fffffffffffffffffffffffff0000000000000000000000000000000000000000166001600160a01b0392909216919091179055565b60045481565b6000546001600160a01b03163314610ed957600080fd5b600680547fffffffffffffffffffffffff0000000000000000000000000000000000000000166001600160a01b0392909216919091179055565b6000546001600160a01b03163314610f2a57600080fd5b604080517f70a0823100000000000000000000000000000000000000000000000000000000815230600482015290516000916001600160a01b038516916370a0823191602480820192602092909190829003018186803b158015610f8d57600080fd5b505afa158015610fa1573d6000803e3d6000fd5b505050506040513d6020811015610fb757600080fd5b50519050610fd56001600160a01b038416838363ffffffff611a3116565b505050565b6005546001600160a01b031681565b6001546001600160a01b0316611046576040805162461bcd60e51b815260206004820152601e60248201527f73686f756c642063616c6c206f66666572457468282920696e73746561640000604482015290519081900360640190fd5b60075442101561109d576040805162461bcd60e51b815260206004820152601160248201527f69742773206e6f742074696d6520796574000000000000000000000000000000604482015290519081900360640190fd5b600081116110f2576040805162461bcd60e51b815260206004820152601260248201527f616d6f756e742073686f756c6420677420300000000000000000000000000000604482015290519081900360640190fd5b6008544210611148576040805162461bcd60e51b815260206004820152600760248201527f6578706972656400000000000000000000000000000000000000000000000000604482015290519081900360640190fd5b336000908152600e6020526040902054611163908290611b4c565b9050600081116111ba576040805162461bcd60e51b815260206004820152600860248201527f6e6f2071756f7461000000000000000000000000000000000000000000000000604482015290519081900360640190fd5b600154604080517fdd62ed3e000000000000000000000000000000000000000000000000000000008152336004820152306024820152905183926001600160a01b03169163dd62ed3e916044808301926020929190829003018186803b15801561122357600080fd5b505afa158015611237573d6000803e3d6000fd5b505050506040513d602081101561124d57600080fd5b505110156112a2576040805162461bcd60e51b815260206004820152601460248201527f616c6c6f77616e6365206e6f7420656e6f756768000000000000000000000000604482015290519081900360640190fd5b600154604080517f70a08231000000000000000000000000000000000000000000000000000000008152336004820152905183926001600160a01b0316916370a08231916024808301926020929190829003018186803b15801561130557600080fd5b505afa158015611319573d6000803e3d6000fd5b505050506040513d602081101561132f57600080fd5b50511015611384576040805162461bcd60e51b815260206004820152601260248201527f62616c616e6365206e6f7420656e6f7567680000000000000000000000000000604482015290519081900360640190fd5b336000908152600f6020526040902054156113e6576040805162461bcd60e51b815260206004820152600f60248201527f6f66666572656420616c72656164790000000000000000000000000000000000604482015290519081900360640190fd5b600154611404906001600160a01b031633308463ffffffff611b6216565b33600090815260106020908152604080832084905560015481517f313ce567000000000000000000000000000000000000000000000000000000008152915161156793670de0b6b3a764000093610d91936001600160a01b03169263313ce56792600480840193919291829003018186803b15801561148257600080fd5b505afa158015611496573d6000803e3d6000fd5b505050506040513d60208110156114ac57600080fd5b5051600254604080517f313ce5670000000000000000000000000000000000000000000000000000000081529051600a9390930a92610d91926001600160a01b03169163313ce567916004808301926020929190829003018186803b15801561151457600080fd5b505afa158015611528573d6000803e3d6000fd5b505050506040513d602081101561153e57600080fd5b5051600354600a9190910a9061155b90899063ffffffff611ab116565b9063ffffffff611ab116565b336000908152600f60205260409020819055600d5490915061158f908363ffffffff6119d716565b600d55600a546115a5908263ffffffff6119d716565b600a55600254604080517f70a0823100000000000000000000000000000000000000000000000000000000815230600482015290516001600160a01b03909216916370a0823191602480820192602092909190829003018186803b15801561160c57600080fd5b505afa158015611620573d6000803e3d6000fd5b505050506040513d602081101561163657600080fd5b5051600a54111561168e576040805162461bcd60e51b815260206004820152600d60248201527f51756f74612069732066756c6c00000000000000000000000000000000000000604482015290519081900360640190fd5b600a546040805184815260208101849052808201929092525133917f6651ad68b77f61e7600bc16c3c7108ec45225340ce47a77729663f01b5fcc0b1919081900360600190a25050565b60075481565b6000546001600160a01b031633146116f557600080fd5b600080546040516001600160a01b03909116907fc7c0c772add429241571afb3805861fb3cfa2af374534088b76cdb4325a87e9a908390a3600080547fffffffffffffffffffffffff0000000000000000000000000000000000000000169055565b6000546001600160a01b0316331461176e57600080fd5b600254611784906001600160a01b031682610f13565b50565b6000546001600160a01b0316331461179e57600080fd5b600755565b60035481565b6000546001600160a01b031633146117c057600080fd5b60405133904780156108fc02916000818181858888f19350505050158015611784573d6000803e3d6000fd5b6000546001600160a01b0316331461180357600080fd5b61178481611bea565b6006546001600160a01b031681565b60116020526000908152604090205481565b600f6020526000908152604090205481565b60005b828110156118775761186f84848381811061185957fe5b905060200201356001600160a01b031683610b3a565b600101611842565b50505050565b6000546001600160a01b0316331461189457600080fd5b600254610b38906001600160a01b031633610f13565b600181565b600b5481565b600080547fffffffffffffffffffffffff0000000000000000000000000000000000000000166001600160a01b0383811691909117808355604051911691907fc7c0c772add429241571afb3805861fb3cfa2af374534088b76cdb4325a87e9a908290a350565b600e6020526000908152604090205481565b6001546001600160a01b031681565b60106020526000908152604090205481565b60095481565b600a5481565b6000546001600160a01b0316331461197257600080fd5b600c55565b6002546001600160a01b031681565b600d5481565b60006119ce83836040518060400160405280601e81526020017f536166654d6174683a207375627472616374696f6e206f766572666c6f770000815250611c70565b90505b92915050565b6000828201838110156119ce576040805162461bcd60e51b815260206004820152601b60248201527f536166654d6174683a206164646974696f6e206f766572666c6f770000000000604482015290519081900360640190fd5b604080516001600160a01b038416602482015260448082018490528251808303909101815260649091019091526020810180517bffffffffffffffffffffffffffffffffffffffffffffffffffffffff167fa9059cbb00000000000000000000000000000000000000000000000000000000179052610fd5908490611d07565b600082611ac0575060006119d1565b82820282848281611acd57fe5b04146119ce5760405162461bcd60e51b8152600401808060200182810382526021815260200180611fd06021913960400191505060405180910390fd5b60006119ce83836040518060400160405280601a81526020017f536166654d6174683a206469766973696f6e206279207a65726f000000000000815250611edd565b6000818310611b5b57816119ce565b5090919050565b604080516001600160a01b0380861660248301528416604482015260648082018490528251808303909101815260849091019091526020810180517bffffffffffffffffffffffffffffffffffffffffffffffffffffffff167f23b872dd00000000000000000000000000000000000000000000000000000000179052611877908590611d07565b6001600160a01b038116611bfd57600080fd5b600080546040516001600160a01b03808516939216917fc7c0c772add429241571afb3805861fb3cfa2af374534088b76cdb4325a87e9a91a3600080547fffffffffffffffffffffffff0000000000000000000000000000000000000000166001600160a01b0392909216919091179055565b60008184841115611cff5760405162461bcd60e51b81526004018080602001828103825283818151815260200191508051906020019080838360005b83811015611cc4578181015183820152602001611cac565b50505050905090810190601f168015611cf15780820380516001836020036101000a031916815260200191505b509250505060405180910390fd5b505050900390565b611d19826001600160a01b0316611f42565b611d6a576040805162461bcd60e51b815260206004820152601f60248201527f5361666545524332303a2063616c6c20746f206e6f6e2d636f6e747261637400604482015290519081900360640190fd5b60006060836001600160a01b0316836040518082805190602001908083835b60208310611dc657805182527fffffffffffffffffffffffffffffffffffffffffffffffffffffffffffffffe09092019160209182019101611d89565b6001836020036101000a0380198251168184511680821785525050505050509050019150506000604051808303816000865af19150503d8060008114611e28576040519150601f19603f3d011682016040523d82523d6000602084013e611e2d565b606091505b509150915081611e84576040805162461bcd60e51b815260206004820181905260248201527f5361666545524332303a206c6f772d6c6576656c2063616c6c206661696c6564604482015290519081900360640190fd5b80511561187757808060200190516020811015611ea057600080fd5b50516118775760405162461bcd60e51b815260040180806020018281038252602a815260200180611ff1602a913960400191505060405180910390fd5b60008183611f2c5760405162461bcd60e51b8152602060048201818152835160248401528351909283926044909101919085019080838360008315611cc4578181015183820152602001611cac565b506000838581611f3857fe5b0495945050505050565b6000813f7fc5d2460186f7233c927e7db2dcc703c0e500b653ca82273b7bfad8045d85a470818114801590611f7657508115155b94935050505056fe206f66666572656420746f6b656e206e756d6265722073686f756c642067742062616c616e61636521206f6666657265642055736474206e756d6265722073686f756c642067742062616c616e61636521536166654d6174683a206d756c7469706c69636174696f6e206f766572666c6f775361666545524332303a204552433230206f7065726174696f6e20646964206e6f742073756363656564a264697066735822122026d9c31362417d66338f14a7f3cb83066b7e7dc24026cb467575ae08a14a534964736f6c63430006020033",
  "linkReferences": {},
  "deployedLinkReferences": {}
}