{
  "_format": "hh-sol-artifact-1",
  "contractName": "Offering",
  "sourceName": "contracts/Offering.sol",
  "abi": [
    {
      "inputs": [
        {
          "internalType": "address",
          "name": "governor_",
          "type": "address"
        },
        {
          "internalType": "address",
          "name": "currency_",
          "type": "address"
        },
        {
          "internalType": "address",
          "name": "token_",
          "type": "address"
        },
        {
          "internalType": "uint256",
          "name": "ratio_",
          "type": "uint256"
        },
        {
          "internalType": "address payable",
          "name": "recipient_",
          "type": "address"
        },
        {
          "internalType": "address payable",
          "name": "feeOwner_",
          "type": "address"
        },
        {
          "internalType": "uint256",
          "name": "feeRatio_",
          "type": "uint256"
        },
        {
          "internalType": "uint256",
          "name": "timeOffer_",
          "type": "uint256"
        },
        {
          "internalType": "uint256",
          "name": "timeClaim_",
          "type": "uint256"
        },
        {
          "internalType": "uint256",
          "name": "minUsdtTotalOffered_",
          "type": "uint256"
        }
      ],
      "stateMutability": "nonpayable",
      "type": "constructor"
    },
    {
      "anonymous": false,
      "inputs": [
        {
          "indexed": true,
          "internalType": "address",
          "name": "addr",
          "type": "address"
        },
        {
          "indexed": false,
          "internalType": "uint256",
          "name": "volume",
          "type": "uint256"
        },
        {
          "indexed": false,
          "internalType": "uint256",
          "name": "total",
          "type": "uint256"
        }
      ],
      "name": "Claim",
      "type": "event"
    },
    {
      "anonymous": false,
      "inputs": [
        {
          "indexed": true,
          "internalType": "address",
          "name": "previousGovernor",
          "type": "address"
        },
        {
          "indexed": true,
          "internalType": "address",
          "name": "newGovernor",
          "type": "address"
        }
      ],
      "name": "GovernorshipTransferred",
      "type": "event"
    },
    {
      "anonymous": false,
      "inputs": [
        {
          "indexed": true,
          "internalType": "address",
          "name": "addr",
          "type": "address"
        },
        {
          "indexed": false,
          "internalType": "uint256",
          "name": "amount",
          "type": "uint256"
        },
        {
          "indexed": false,
          "internalType": "uint256",
          "name": "volume",
          "type": "uint256"
        },
        {
          "indexed": false,
          "internalType": "uint256",
          "name": "total",
          "type": "uint256"
        }
      ],
      "name": "Offer",
      "type": "event"
    },
    {
      "anonymous": false,
      "inputs": [
        {
          "indexed": true,
          "internalType": "address",
          "name": "addr",
          "type": "address"
        },
        {
          "indexed": false,
          "internalType": "uint256",
          "name": "amount",
          "type": "uint256"
        },
        {
          "indexed": false,
          "internalType": "uint256",
          "name": "total",
          "type": "uint256"
        }
      ],
      "name": "Quota",
      "type": "event"
    },
    {
      "anonymous": false,
      "inputs": [
        {
          "indexed": true,
          "internalType": "address",
          "name": "addr",
          "type": "address"
        },
        {
          "indexed": false,
          "internalType": "uint256",
          "name": "volume",
          "type": "uint256"
        },
        {
          "indexed": false,
          "internalType": "uint256",
          "name": "volumeUsdt",
          "type": "uint256"
        },
        {
          "indexed": false,
          "internalType": "uint256",
          "name": "total",
          "type": "uint256"
        }
      ],
      "name": "Revert",
      "type": "event"
    },
    {
      "anonymous": false,
      "inputs": [
        {
          "indexed": true,
          "internalType": "address",
          "name": "addr",
          "type": "address"
        },
        {
          "indexed": false,
          "internalType": "uint256",
          "name": "balance",
          "type": "uint256"
        },
        {
          "indexed": false,
          "internalType": "uint256",
          "name": "recipientBalance",
          "type": "uint256"
        }
      ],
      "name": "WithdrawCurrency",
      "type": "event"
    },
    {
      "stateMutability": "nonpayable",
      "type": "fallback"
    },
    {
      "inputs": [
        {
          "internalType": "address",
          "name": "governor_",
          "type": "address"
        }
      ],
      "name": "__Governable_init_unchained",
      "outputs": [],
      "stateMutability": "nonpayable",
      "type": "function"
    },
    {
      "inputs": [],
      "name": "claim",
      "outputs": [],
      "stateMutability": "nonpayable",
      "type": "function"
    },
    {
      "inputs": [
        {
          "internalType": "address",
          "name": "",
          "type": "address"
        }
      ],
      "name": "claimedOf",
      "outputs": [
        {
          "internalType": "uint256",
          "name": "",
          "type": "uint256"
        }
      ],
      "stateMutability": "view",
      "type": "function"
    },
    {
      "inputs": [],
      "name": "contractType",
      "outputs": [
        {
          "internalType": "uint256",
          "name": "",
          "type": "uint256"
        }
      ],
      "stateMutability": "view",
      "type": "function"
    },
    {
      "inputs": [],
      "name": "currency",
      "outputs": [
        {
          "internalType": "contract IERC20",
          "name": "",
          "type": "address"
        }
      ],
      "stateMutability": "view",
      "type": "function"
    },
    {
      "inputs": [],
      "name": "feeOwner",
      "outputs": [
        {
          "internalType": "address payable",
          "name": "",
          "type": "address"
        }
      ],
      "stateMutability": "view",
      "type": "function"
    },
    {
      "inputs": [],
      "name": "feeRatio",
      "outputs": [
        {
          "internalType": "uint256",
          "name": "",
          "type": "uint256"
        }
      ],
      "stateMutability": "view",
      "type": "function"
    },
    {
      "inputs": [],
      "name": "governor",
      "outputs": [
        {
          "internalType": "address",
          "name": "",
          "type": "address"
        }
      ],
      "stateMutability": "view",
      "type": "function"
    },
    {
      "inputs": [],
      "name": "minUsdtTotalOffered",
      "outputs": [
        {
          "internalType": "uint256",
          "name": "",
          "type": "uint256"
        }
      ],
      "stateMutability": "view",
      "type": "function"
    },
    {
      "inputs": [
        {
          "internalType": "uint256",
          "name": "amount_",
          "type": "uint256"
        }
      ],
      "name": "offer",
      "outputs": [],
      "stateMutability": "nonpayable",
      "type": "function"
    },
    {
      "inputs": [
        {
          "internalType": "address",
          "name": "",
          "type": "address"
        }
      ],
      "name": "offeredOf",
      "outputs": [
        {
          "internalType": "uint256",
          "name": "",
          "type": "uint256"
        }
      ],
      "stateMutability": "view",
      "type": "function"
    },
    {
      "inputs": [
        {
          "internalType": "address",
          "name": "",
          "type": "address"
        }
      ],
      "name": "offeredUsdtOf",
      "outputs": [
        {
          "internalType": "uint256",
          "name": "",
          "type": "uint256"
        }
      ],
      "stateMutability": "view",
      "type": "function"
    },
    {
      "inputs": [
        {
          "internalType": "address",
          "name": "",
          "type": "address"
        }
      ],
      "name": "quotaUsdtOf",
      "outputs": [
        {
          "internalType": "uint256",
          "name": "",
          "type": "uint256"
        }
      ],
      "stateMutability": "view",
      "type": "function"
    },
    {
      "inputs": [],
      "name": "ratio",
      "outputs": [
        {
          "internalType": "uint256",
          "name": "",
          "type": "uint256"
        }
      ],
      "stateMutability": "view",
      "type": "function"
    },
    {
      "inputs": [],
      "name": "recipient",
      "outputs": [
        {
          "internalType": "address payable",
          "name": "",
          "type": "address"
        }
      ],
      "stateMutability": "view",
      "type": "function"
    },
    {
      "inputs": [],
      "name": "renounceGovernorship",
      "outputs": [],
      "stateMutability": "nonpayable",
      "type": "function"
    },
    {
      "inputs": [
        {
          "internalType": "address",
          "name": "_token",
          "type": "address"
        },
        {
          "internalType": "address",
          "name": "_dst",
          "type": "address"
        }
      ],
      "name": "rescueTokens",
      "outputs": [],
      "stateMutability": "nonpayable",
      "type": "function"
    },
    {
      "inputs": [
        {
          "internalType": "address payable",
          "name": "feeOwner_",
          "type": "address"
        }
      ],
      "name": "setFeeOwner",
      "outputs": [],
      "stateMutability": "nonpayable",
      "type": "function"
    },
    {
      "inputs": [
        {
          "internalType": "uint256",
          "name": "feeRatio_",
          "type": "uint256"
        }
      ],
      "name": "setFeeRatio",
      "outputs": [],
      "stateMutability": "nonpayable",
      "type": "function"
    },
    {
      "inputs": [
        {
          "internalType": "uint256",
          "name": "minUsdtTotalOffered_",
          "type": "uint256"
        }
      ],
      "name": "setMinUsdtTotalOffered",
      "outputs": [],
      "stateMutability": "nonpayable",
      "type": "function"
    },
    {
      "inputs": [
        {
          "internalType": "address",
          "name": "addr",
          "type": "address"
        },
        {
          "internalType": "uint256",
          "name": "amount_",
          "type": "uint256"
        }
      ],
      "name": "setQuota",
      "outputs": [],
      "stateMutability": "nonpayable",
      "type": "function"
    },
    {
      "inputs": [
        {
          "internalType": "address[]",
          "name": "addrs",
          "type": "address[]"
        },
        {
          "internalType": "uint256[]",
          "name": "amounts",
          "type": "uint256[]"
        }
      ],
      "name": "setQuotas",
      "outputs": [],
      "stateMutability": "nonpayable",
      "type": "function"
    },
    {
      "inputs": [
        {
          "internalType": "address[]",
          "name": "addrs",
          "type": "address[]"
        },
        {
          "internalType": "uint256",
          "name": "amount",
          "type": "uint256"
        }
      ],
      "name": "setQuotas",
      "outputs": [],
      "stateMutability": "nonpayable",
      "type": "function"
    },
    {
      "inputs": [
        {
          "internalType": "uint256",
          "name": "ratio_",
          "type": "uint256"
        }
      ],
      "name": "setRatio",
      "outputs": [],
      "stateMutability": "nonpayable",
      "type": "function"
    },
    {
      "inputs": [
        {
          "internalType": "address payable",
          "name": "recipient_",
          "type": "address"
        }
      ],
      "name": "setRecipient",
      "outputs": [],
      "stateMutability": "nonpayable",
      "type": "function"
    },
    {
      "inputs": [
        {
          "internalType": "uint256",
          "name": "timeClaim_",
          "type": "uint256"
        }
      ],
      "name": "setTimeClaim",
      "outputs": [],
      "stateMutability": "nonpayable",
      "type": "function"
    },
    {
      "inputs": [
        {
          "internalType": "uint256",
          "name": "timeOffer_",
          "type": "uint256"
        }
      ],
      "name": "setTimeOTffer",
      "outputs": [],
      "stateMutability": "nonpayable",
      "type": "function"
    },
    {
      "inputs": [],
      "name": "timeClaim",
      "outputs": [
        {
          "internalType": "uint256",
          "name": "",
          "type": "uint256"
        }
      ],
      "stateMutability": "view",
      "type": "function"
    },
    {
      "inputs": [],
      "name": "timeOffer",
      "outputs": [
        {
          "internalType": "uint256",
          "name": "",
          "type": "uint256"
        }
      ],
      "stateMutability": "view",
      "type": "function"
    },
    {
      "inputs": [],
      "name": "token",
      "outputs": [
        {
          "internalType": "contract IERC20",
          "name": "",
          "type": "address"
        }
      ],
      "stateMutability": "view",
      "type": "function"
    },
    {
      "inputs": [],
      "name": "totalClaimed",
      "outputs": [
        {
          "internalType": "uint256",
          "name": "",
          "type": "uint256"
        }
      ],
      "stateMutability": "view",
      "type": "function"
    },
    {
      "inputs": [],
      "name": "totalOffered",
      "outputs": [
        {
          "internalType": "uint256",
          "name": "",
          "type": "uint256"
        }
      ],
      "stateMutability": "view",
      "type": "function"
    },
    {
      "inputs": [],
      "name": "totalUsdtQuota",
      "outputs": [
        {
          "internalType": "uint256",
          "name": "",
          "type": "uint256"
        }
      ],
      "stateMutability": "view",
      "type": "function"
    },
    {
      "inputs": [],
      "name": "totalUsdtTotalOffered",
      "outputs": [
        {
          "internalType": "uint256",
          "name": "",
          "type": "uint256"
        }
      ],
      "stateMutability": "view",
      "type": "function"
    },
    {
      "inputs": [
        {
          "internalType": "address",
          "name": "newGovernor",
          "type": "address"
        }
      ],
      "name": "transferGovernorship",
      "outputs": [],
      "stateMutability": "nonpayable",
      "type": "function"
    },
    {
      "inputs": [],
      "name": "withdrawCurrencyToken",
      "outputs": [],
      "stateMutability": "nonpayable",
      "type": "function"
    },
    {
      "inputs": [
        {
          "internalType": "address payable",
          "name": "_dst",
          "type": "address"
        }
      ],
      "name": "withdrawEth",
      "outputs": [],
      "stateMutability": "nonpayable",
      "type": "function"
    },
    {
      "inputs": [],
      "name": "withdrawEth",
      "outputs": [],
      "stateMutability": "nonpayable",
      "type": "function"
    },
    {
      "inputs": [
        {
          "internalType": "address",
          "name": "_dst",
          "type": "address"
        }
      ],
      "name": "withdrawToken",
      "outputs": [],
      "stateMutability": "nonpayable",
      "type": "function"
    },
    {
      "inputs": [],
      "name": "withdrawToken",
      "outputs": [],
      "stateMutability": "nonpayable",
      "type": "function"
    },
    {
      "stateMutability": "payable",
      "type": "receive"
    }
  ],
  "bytecode": "0x608060405234801561001057600080fd5b50604051620024a2380380620024a2833981810160405261014081101561003657600080fd5b508051602082015160408301516060840151608085015160a086015160c087015160e08801516101008901516101209099015197989697959694959394929391929091866100bf576040805162461bcd60e51b81526020600482015260116024820152700726174696f2073686f756c64206774203607c1b604482015290519081900360640190fd5b6100d18a6001600160e01b0361013d16565b600180546001600160a01b03199081166001600160a01b039b8c1617909155600280548216998b169990991790985560039690965560058054881695891695909517909455600755600892909255600491909155600680549093169316929092179055600c555061018c565b600080546001600160a01b0319166001600160a01b0383811691909117808355604051911691907fc7c0c772add429241571afb3805861fb3cfa2af374534088b76cdb4325a87e9a908290a350565b612306806200019c6000396000f3fe6080604052600436106102bf5760003560e01c8063894760691161016e578063d54ad2a1116100cb578063eef5436b1161007f578063f27cf06311610064578063f27cf06314610906578063fc0c546a14610930578063fd4d803214610945576102ce565b8063eef5436b146108dc578063f0809455146108f1576102ce565b8063e4df9f05116100b0578063e4df9f0514610861578063e5a6b10f14610894578063e8b4aadb146108a9576102ce565b8063d54ad2a114610819578063df69e0161461082e576102ce565b8063baa3f7ee11610122578063c773533811610107578063c773533814610772578063ca628c78146107ef578063cb2ef6f714610804576102ce565b8063baa3f7ee1461070c578063c15703221461073f576102ce565b8063b2237ba311610153578063b2237ba31461069a578063b6aa515b146106c4578063b9818be1146106f7576102ce565b80638947606914610652578063a0ef91df14610685576102ce565b80633bbed4a01161021c57806366d003ac116101d0578063761610fc116101b5578063761610fc146105fe57806378c8e65f1461062857806381c0c2631461063d576102ce565b806366d003ac146105d457806371ca337d146105e9576102ce565b80634b104eff116102015780634b104eff146105665780634e71d92d146102ce5780635431c94e14610599576102ce565b80633bbed4a01461051e57806341744dd414610551576102ce565b806319f4ff2f1161027357806326d7d2c31161025857806326d7d2c3146104ca578063356130bc146104df578063368e9d6a146104f4576102ce565b806319f4ff2f1461046d57806325e1606314610497576102ce565b806313bef1da116102a457806313bef1da1461034d57806316d95c1e146103775780631942999c1461039e576102ce565b806303ce3355146102e35780630c340a241461031c576102ce565b366102ce576102cc61095a565b005b3480156102da57600080fd5b506102cc61095a565b3480156102ef57600080fd5b506102cc6004803603604081101561030657600080fd5b506001600160a01b038135169060200135610d7e565b34801561032857600080fd5b50610331610ec6565b604080516001600160a01b039092168252519081900360200190f35b34801561035957600080fd5b506102cc6004803603602081101561037057600080fd5b5035610ed5565b34801561038357600080fd5b5061038c610ef1565b60408051918252519081900360200190f35b3480156103aa57600080fd5b506102cc600480360360408110156103c157600080fd5b8101906020810181356401000000008111156103dc57600080fd5b8201836020820111156103ee57600080fd5b8035906020019184602083028401116401000000008311171561041057600080fd5b91939092909160208101903564010000000081111561042e57600080fd5b82018360208201111561044057600080fd5b8035906020019184602083028401116401000000008311171561046257600080fd5b509092509050610ef7565b34801561047957600080fd5b506102cc6004803603602081101561049057600080fd5b5035610f48565b3480156104a357600080fd5b506102cc600480360360208110156104ba57600080fd5b50356001600160a01b0316610f64565b3480156104d657600080fd5b506102cc610fb4565b3480156104eb57600080fd5b5061038c61113b565b34801561050057600080fd5b506102cc6004803603602081101561051757600080fd5b5035611141565b34801561052a57600080fd5b506102cc6004803603602081101561054157600080fd5b50356001600160a01b031661115d565b34801561055d57600080fd5b5061038c6111ae565b34801561057257600080fd5b506102cc6004803603602081101561058957600080fd5b50356001600160a01b03166111b4565b3480156105a557600080fd5b506102cc600480360360408110156105bc57600080fd5b506001600160a01b0381358116916020013516611205565b3480156105e057600080fd5b506103316112cc565b3480156105f557600080fd5b5061038c6112db565b34801561060a57600080fd5b506102cc6004803603602081101561062157600080fd5b50356112e1565b34801561063457600080fd5b5061038c611994565b34801561064957600080fd5b506102cc61199a565b34801561065e57600080fd5b506102cc6004803603602081101561067557600080fd5b50356001600160a01b0316611a13565b34801561069157600080fd5b506102cc611a43565b3480156106a657600080fd5b506102cc600480360360208110156106bd57600080fd5b5035611a86565b3480156106d057600080fd5b506102cc600480360360208110156106e757600080fd5b50356001600160a01b0316611aa2565b34801561070357600080fd5b50610331611ac2565b34801561071857600080fd5b5061038c6004803603602081101561072f57600080fd5b50356001600160a01b0316611ad1565b34801561074b57600080fd5b5061038c6004803603602081101561076257600080fd5b50356001600160a01b0316611ae3565b34801561077e57600080fd5b506102cc6004803603604081101561079557600080fd5b8101906020810181356401000000008111156107b057600080fd5b8201836020820111156107c257600080fd5b803590602001918460208302840111640100000000831117156107e457600080fd5b919350915035611af5565b3480156107fb57600080fd5b506102cc611b33565b34801561081057600080fd5b5061038c611b60565b34801561082557600080fd5b5061038c611b65565b34801561083a57600080fd5b506102cc6004803603602081101561085157600080fd5b50356001600160a01b0316611b6b565b34801561086d57600080fd5b5061038c6004803603602081101561088457600080fd5b50356001600160a01b0316611bd2565b3480156108a057600080fd5b50610331611be4565b3480156108b557600080fd5b5061038c600480360360208110156108cc57600080fd5b50356001600160a01b0316611bf3565b3480156108e857600080fd5b5061038c611c05565b3480156108fd57600080fd5b5061038c611c0b565b34801561091257600080fd5b506102cc6004803603602081101561092957600080fd5b5035611c11565b34801561093c57600080fd5b50610331611c2d565b34801561095157600080fd5b5061038c611c3c565b6008544210156109b1576040805162461bcd60e51b815260206004820152601160248201527f69742773206e6f742074696d6520796574000000000000000000000000000000604482015290519081900360640190fd5b3360009081526011602052604090205415610a13576040805162461bcd60e51b815260206004820152600f60248201527f636c61696d656420616c72656164790000000000000000000000000000000000604482015290519081900360640190fd5b33600090815260106020526040902054610a74576040805162461bcd60e51b815260206004820152601860248201527f6f66666572656420557364742073686f756c6420677420300000000000000000604482015290519081900360640190fd5b600d54600c5411610bf757600b54600a54610a949163ffffffff611c4216565b600254604080517f70a0823100000000000000000000000000000000000000000000000000000000815230600482015290516001600160a01b03909216916370a0823191602480820192602092909190829003018186803b158015610af857600080fd5b505afa158015610b0c573d6000803e3d6000fd5b505050506040513d6020811015610b2257600080fd5b50511015610b615760405162461bcd60e51b81526004018080602001828103825260298152602001806122356029913960400191505060405180910390fd5b336000908152600f60209081526040808320546011909252909120819055600b54610b92908263ffffffff611c8d16565b600b55600254610bb2906001600160a01b0316338363ffffffff611ce716565b600b54604080518381526020810192909252805133927f34fcbac0073d7c3d388e51312faf357774904998eeb8fca628b9e6f65ee1cbf792908290030190a250610d7c565b600d54600154604080517f70a0823100000000000000000000000000000000000000000000000000000000815230600482015290516001600160a01b03909216916370a0823191602480820192602092909190829003018186803b158015610c5e57600080fd5b505afa158015610c72573d6000803e3d6000fd5b505050506040513d6020811015610c8857600080fd5b50511015610cc75760405162461bcd60e51b815260040180806020018281038252602881526020018061225e6028913960400191505060405180910390fd5b3360009081526010602090815260408083208054600f90935290832080549184905592909255600a54909190610cfd9082611c42565b600a55600d54610d13908363ffffffff611c4216565b600d55600154610d33906001600160a01b0316338463ffffffff611ce716565b600a546040805183815260208101859052808201929092525133917fa6a8fafa560fa0bfebe22fe134882b7fdd192e35c561a5aa62ec47d373fb2f23919081900360600190a250505b565b6000546001600160a01b03163314610d9557600080fd5b6000610e24600160009054906101000a90046001600160a01b03166001600160a01b031663313ce5676040518163ffffffff1660e01b815260040160206040518083038186803b158015610de857600080fd5b505afa158015610dfc573d6000803e3d6000fd5b505050506040513d6020811015610e1257600080fd5b50518390600a0a63ffffffff611d6716565b6001600160a01b0384166000908152600e6020526040902054600954919250610e6391610e57908463ffffffff611c8d16565b9063ffffffff611c4216565b60099081556001600160a01b0384166000818152600e60209081526040918290208590559254815185815293840152805191927f0664880d26185ba05b5e4846543c1793cf0d7969835ebc5b5838f66a64a42ed0929081900390910190a2505050565b6000546001600160a01b031681565b6000546001600160a01b03163314610eec57600080fd5b600755565b600c5481565b60005b83811015610f4157610f39858583818110610f1157fe5b905060200201356001600160a01b0316848484818110610f2d57fe5b90506020020135610d7e565b600101610efa565b5050505050565b6000546001600160a01b03163314610f5f57600080fd5b600455565b6000546001600160a01b03163314610f7b57600080fd5b6040516001600160a01b038216904780156108fc02916000818181858888f19350505050158015610fb0573d6000803e3d6000fd5b5050565b6000546001600160a01b03163314610fcb57600080fd5b600154604080517f70a0823100000000000000000000000000000000000000000000000000000000815230600482015290516000926001600160a01b0316916370a08231916024808301926020929190829003018186803b15801561102f57600080fd5b505afa158015611043573d6000803e3d6000fd5b505050506040513d602081101561105957600080fd5b505160045490915060009061108f90670de0b6b3a76400009061108390859063ffffffff611d6716565b9063ffffffff611dc016565b905060006110a3838363ffffffff611c4216565b6005546001549192506110c9916001600160a01b0390811691168363ffffffff611ce716565b6006546001546110ec916001600160a01b0391821691168463ffffffff611ce716565b600554604080518581526020810184905281516001600160a01b03909316927ff0fa8383bc9412382eb19bc4c20cb3a68b6a8c505d5deb5fcd132e260250f983929181900390910190a2505050565b60085481565b6000546001600160a01b0316331461115857600080fd5b600855565b6000546001600160a01b0316331461117457600080fd5b600580547fffffffffffffffffffffffff0000000000000000000000000000000000000000166001600160a01b0392909216919091179055565b60045481565b6000546001600160a01b031633146111cb57600080fd5b600680547fffffffffffffffffffffffff0000000000000000000000000000000000000000166001600160a01b0392909216919091179055565b6000546001600160a01b0316331461121c57600080fd5b604080517f70a0823100000000000000000000000000000000000000000000000000000000815230600482015290516000916001600160a01b038516916370a0823191602480820192602092909190829003018186803b15801561127f57600080fd5b505afa158015611293573d6000803e3d6000fd5b505050506040513d60208110156112a957600080fd5b505190506112c76001600160a01b038416838363ffffffff611ce716565b505050565b6005546001600160a01b031681565b60035481565b6001546001600160a01b031661133e576040805162461bcd60e51b815260206004820152601e60248201527f73686f756c642063616c6c206f66666572457468282920696e73746561640000604482015290519081900360640190fd5b600754421015611395576040805162461bcd60e51b815260206004820152601160248201527f69742773206e6f742074696d6520796574000000000000000000000000000000604482015290519081900360640190fd5b600081116113ea576040805162461bcd60e51b815260206004820152601260248201527f616d6f756e742073686f756c6420677420300000000000000000000000000000604482015290519081900360640190fd5b600061143d600160009054906101000a90046001600160a01b03166001600160a01b031663313ce5676040518163ffffffff1660e01b815260040160206040518083038186803b158015610de857600080fd5b90506008544210611495576040805162461bcd60e51b815260206004820152600760248201527f6578706972656400000000000000000000000000000000000000000000000000604482015290519081900360640190fd5b336000908152600e60205260409020546114b0908290611e02565b905060008111611507576040805162461bcd60e51b815260206004820152600860248201527f6e6f2071756f7461000000000000000000000000000000000000000000000000604482015290519081900360640190fd5b600154604080517fdd62ed3e000000000000000000000000000000000000000000000000000000008152336004820152306024820152905183926001600160a01b03169163dd62ed3e916044808301926020929190829003018186803b15801561157057600080fd5b505afa158015611584573d6000803e3d6000fd5b505050506040513d602081101561159a57600080fd5b505110156115ef576040805162461bcd60e51b815260206004820152601460248201527f616c6c6f77616e6365206e6f7420656e6f756768000000000000000000000000604482015290519081900360640190fd5b600154604080517f70a08231000000000000000000000000000000000000000000000000000000008152336004820152905183926001600160a01b0316916370a08231916024808301926020929190829003018186803b15801561165257600080fd5b505afa158015611666573d6000803e3d6000fd5b505050506040513d602081101561167c57600080fd5b505110156116d1576040805162461bcd60e51b815260206004820152601260248201527f62616c616e6365206e6f7420656e6f7567680000000000000000000000000000604482015290519081900360640190fd5b336000908152600f602052604090205415611733576040805162461bcd60e51b815260206004820152600f60248201527f6f66666572656420616c72656164790000000000000000000000000000000000604482015290519081900360640190fd5b600154611751906001600160a01b031633308463ffffffff611e1816565b33600090815260106020908152604080832084905560025481517f313ce567000000000000000000000000000000000000000000000000000000008152915161182293670de0b6b3a764000093611083936001600160a01b03169263313ce56792600480840193919291829003018186803b1580156117cf57600080fd5b505afa1580156117e3573d6000803e3d6000fd5b505050506040513d60208110156117f957600080fd5b5051600354600a9190910a9061181690889063ffffffff611d6716565b9063ffffffff611d6716565b336000908152600f60205260409020819055600d5490915061184a908363ffffffff611c8d16565b600d55600a54611860908263ffffffff611c8d16565b600a55600254604080517f70a0823100000000000000000000000000000000000000000000000000000000815230600482015290516001600160a01b03909216916370a0823191602480820192602092909190829003018186803b1580156118c757600080fd5b505afa1580156118db573d6000803e3d6000fd5b505050506040513d60208110156118f157600080fd5b5051600a541115611949576040805162461bcd60e51b815260206004820152600d60248201527f51756f74612069732066756c6c00000000000000000000000000000000000000604482015290519081900360640190fd5b600a546040805184815260208101849052808201929092525133917f6651ad68b77f61e7600bc16c3c7108ec45225340ce47a77729663f01b5fcc0b1919081900360600190a2505050565b60075481565b6000546001600160a01b031633146119b157600080fd5b600080546040516001600160a01b03909116907fc7c0c772add429241571afb3805861fb3cfa2af374534088b76cdb4325a87e9a908390a3600080547fffffffffffffffffffffffff0000000000000000000000000000000000000000169055565b6000546001600160a01b03163314611a2a57600080fd5b600254611a40906001600160a01b031682611205565b50565b6000546001600160a01b03163314611a5a57600080fd5b60405133904780156108fc02916000818181858888f19350505050158015611a40573d6000803e3d6000fd5b6000546001600160a01b03163314611a9d57600080fd5b600355565b6000546001600160a01b03163314611ab957600080fd5b611a4081611ea0565b6006546001600160a01b031681565b60116020526000908152604090205481565b600f6020526000908152604090205481565b60005b82811015611b2d57611b25848483818110611b0f57fe5b905060200201356001600160a01b031683610d7e565b600101611af8565b50505050565b6000546001600160a01b03163314611b4a57600080fd5b600254610d7c906001600160a01b031633611205565b600181565b600b5481565b600080547fffffffffffffffffffffffff0000000000000000000000000000000000000000166001600160a01b0383811691909117808355604051911691907fc7c0c772add429241571afb3805861fb3cfa2af374534088b76cdb4325a87e9a908290a350565b600e6020526000908152604090205481565b6001546001600160a01b031681565b60106020526000908152604090205481565b60095481565b600a5481565b6000546001600160a01b03163314611c2857600080fd5b600c55565b6002546001600160a01b031681565b600d5481565b6000611c8483836040518060400160405280601e81526020017f536166654d6174683a207375627472616374696f6e206f766572666c6f770000815250611f26565b90505b92915050565b600082820183811015611c84576040805162461bcd60e51b815260206004820152601b60248201527f536166654d6174683a206164646974696f6e206f766572666c6f770000000000604482015290519081900360640190fd5b604080516001600160a01b038416602482015260448082018490528251808303909101815260649091019091526020810180517bffffffffffffffffffffffffffffffffffffffffffffffffffffffff167fa9059cbb000000000000000000000000000000000000000000000000000000001790526112c7908490611fbd565b600082611d7657506000611c87565b82820282848281611d8357fe5b0414611c845760405162461bcd60e51b81526004018080602001828103825260218152602001806122866021913960400191505060405180910390fd5b6000611c8483836040518060400160405280601a81526020017f536166654d6174683a206469766973696f6e206279207a65726f000000000000815250612193565b6000818310611e115781611c84565b5090919050565b604080516001600160a01b0380861660248301528416604482015260648082018490528251808303909101815260849091019091526020810180517bffffffffffffffffffffffffffffffffffffffffffffffffffffffff167f23b872dd00000000000000000000000000000000000000000000000000000000179052611b2d908590611fbd565b6001600160a01b038116611eb357600080fd5b600080546040516001600160a01b03808516939216917fc7c0c772add429241571afb3805861fb3cfa2af374534088b76cdb4325a87e9a91a3600080547fffffffffffffffffffffffff0000000000000000000000000000000000000000166001600160a01b0392909216919091179055565b60008184841115611fb55760405162461bcd60e51b81526004018080602001828103825283818151815260200191508051906020019080838360005b83811015611f7a578181015183820152602001611f62565b50505050905090810190601f168015611fa75780820380516001836020036101000a031916815260200191505b509250505060405180910390fd5b505050900390565b611fcf826001600160a01b03166121f8565b612020576040805162461bcd60e51b815260206004820152601f60248201527f5361666545524332303a2063616c6c20746f206e6f6e2d636f6e747261637400604482015290519081900360640190fd5b60006060836001600160a01b0316836040518082805190602001908083835b6020831061207c57805182527fffffffffffffffffffffffffffffffffffffffffffffffffffffffffffffffe0909201916020918201910161203f565b6001836020036101000a0380198251168184511680821785525050505050509050019150506000604051808303816000865af19150503d80600081146120de576040519150601f19603f3d011682016040523d82523d6000602084013e6120e3565b606091505b50915091508161213a576040805162461bcd60e51b815260206004820181905260248201527f5361666545524332303a206c6f772d6c6576656c2063616c6c206661696c6564604482015290519081900360640190fd5b805115611b2d5780806020019051602081101561215657600080fd5b5051611b2d5760405162461bcd60e51b815260040180806020018281038252602a8152602001806122a7602a913960400191505060405180910390fd5b600081836121e25760405162461bcd60e51b8152602060048201818152835160248401528351909283926044909101919085019080838360008315611f7a578181015183820152602001611f62565b5060008385816121ee57fe5b0495945050505050565b6000813f7fc5d2460186f7233c927e7db2dcc703c0e500b653ca82273b7bfad8045d85a47081811480159061222c57508115155b94935050505056fe206f66666572656420746f6b656e206e756d6265722073686f756c642067742062616c616e61636521206f6666657265642055736474206e756d6265722073686f756c642067742062616c616e61636521536166654d6174683a206d756c7469706c69636174696f6e206f766572666c6f775361666545524332303a204552433230206f7065726174696f6e20646964206e6f742073756363656564a2646970667358221220a492f087a780e352ef74242649f549ec548d37767399803ae9efb0e04c7ceee064736f6c63430006020033",
  "linkReferences": {},
  "deployedLinkReferences": {}
}