{
  "_format": "hh-sol-artifact-1",
  "contractName": "Offering",
  "sourceName": "contracts/Offering.sol",
  "abi": [
    {
      "inputs": [
        {
          "internalType": "address",
          "name": "governor_",
          "type": "address"
        },
        {
          "internalType": "address",
          "name": "currency_",
          "type": "address"
        },
        {
          "internalType": "address",
          "name": "token_",
          "type": "address"
        },
        {
          "internalType": "uint256",
          "name": "ratio_",
          "type": "uint256"
        },
        {
          "internalType": "address payable",
          "name": "recipient_",
          "type": "address"
        },
        {
          "internalType": "uint256",
          "name": "timeOffer_",
          "type": "uint256"
        },
        {
          "internalType": "uint256",
          "name": "timeClaim_",
          "type": "uint256"
        }
      ],
      "stateMutability": "nonpayable",
      "type": "constructor"
    },
    {
      "anonymous": false,
      "inputs": [
        {
          "indexed": true,
          "internalType": "address",
          "name": "addr",
          "type": "address"
        },
        {
          "indexed": false,
          "internalType": "uint256",
          "name": "volume",
          "type": "uint256"
        },
        {
          "indexed": false,
          "internalType": "uint256",
          "name": "total",
          "type": "uint256"
        }
      ],
      "name": "Claim",
      "type": "event"
    },
    {
      "anonymous": false,
      "inputs": [
        {
          "indexed": true,
          "internalType": "address",
          "name": "previousGovernor",
          "type": "address"
        },
        {
          "indexed": true,
          "internalType": "address",
          "name": "newGovernor",
          "type": "address"
        }
      ],
      "name": "GovernorshipTransferred",
      "type": "event"
    },
    {
      "anonymous": false,
      "inputs": [
        {
          "indexed": true,
          "internalType": "address",
          "name": "addr",
          "type": "address"
        },
        {
          "indexed": false,
          "internalType": "uint256",
          "name": "amount",
          "type": "uint256"
        },
        {
          "indexed": false,
          "internalType": "uint256",
          "name": "volume",
          "type": "uint256"
        },
        {
          "indexed": false,
          "internalType": "uint256",
          "name": "total",
          "type": "uint256"
        }
      ],
      "name": "Offer",
      "type": "event"
    },
    {
      "anonymous": false,
      "inputs": [
        {
          "indexed": true,
          "internalType": "address",
          "name": "addr",
          "type": "address"
        },
        {
          "indexed": false,
          "internalType": "uint256",
          "name": "amount",
          "type": "uint256"
        },
        {
          "indexed": false,
          "internalType": "uint256",
          "name": "total",
          "type": "uint256"
        }
      ],
      "name": "Quota",
      "type": "event"
    },
    {
      "stateMutability": "nonpayable",
      "type": "fallback"
    },
    {
      "inputs": [
        {
          "internalType": "address",
          "name": "governor_",
          "type": "address"
        }
      ],
      "name": "__Governable_init_unchained",
      "outputs": [],
      "stateMutability": "nonpayable",
      "type": "function"
    },
    {
      "inputs": [],
      "name": "claim",
      "outputs": [],
      "stateMutability": "nonpayable",
      "type": "function"
    },
    {
      "inputs": [
        {
          "internalType": "address",
          "name": "",
          "type": "address"
        }
      ],
      "name": "claimedOf",
      "outputs": [
        {
          "internalType": "uint256",
          "name": "",
          "type": "uint256"
        }
      ],
      "stateMutability": "view",
      "type": "function"
    },
    {
      "inputs": [],
      "name": "currency",
      "outputs": [
        {
          "internalType": "contract IERC20",
          "name": "",
          "type": "address"
        }
      ],
      "stateMutability": "view",
      "type": "function"
    },
    {
      "inputs": [],
      "name": "governor",
      "outputs": [
        {
          "internalType": "address",
          "name": "",
          "type": "address"
        }
      ],
      "stateMutability": "view",
      "type": "function"
    },
    {
      "inputs": [
        {
          "internalType": "uint256",
          "name": "amount_",
          "type": "uint256"
        }
      ],
      "name": "offer",
      "outputs": [],
      "stateMutability": "nonpayable",
      "type": "function"
    },
    {
      "inputs": [
        {
          "internalType": "address",
          "name": "",
          "type": "address"
        }
      ],
      "name": "offeredOf",
      "outputs": [
        {
          "internalType": "uint256",
          "name": "",
          "type": "uint256"
        }
      ],
      "stateMutability": "view",
      "type": "function"
    },
    {
      "inputs": [
        {
          "internalType": "address",
          "name": "",
          "type": "address"
        }
      ],
      "name": "quotaOf",
      "outputs": [
        {
          "internalType": "uint256",
          "name": "",
          "type": "uint256"
        }
      ],
      "stateMutability": "view",
      "type": "function"
    },
    {
      "inputs": [],
      "name": "ratio",
      "outputs": [
        {
          "internalType": "uint256",
          "name": "",
          "type": "uint256"
        }
      ],
      "stateMutability": "view",
      "type": "function"
    },
    {
      "inputs": [],
      "name": "recipient",
      "outputs": [
        {
          "internalType": "address payable",
          "name": "",
          "type": "address"
        }
      ],
      "stateMutability": "view",
      "type": "function"
    },
    {
      "inputs": [],
      "name": "renounceGovernorship",
      "outputs": [],
      "stateMutability": "nonpayable",
      "type": "function"
    },
    {
      "inputs": [
        {
          "internalType": "address",
          "name": "_token",
          "type": "address"
        },
        {
          "internalType": "address",
          "name": "_dst",
          "type": "address"
        }
      ],
      "name": "rescueTokens",
      "outputs": [],
      "stateMutability": "nonpayable",
      "type": "function"
    },
    {
      "inputs": [
        {
          "internalType": "address",
          "name": "addr",
          "type": "address"
        },
        {
          "internalType": "uint256",
          "name": "amount_",
          "type": "uint256"
        }
      ],
      "name": "setQuota",
      "outputs": [],
      "stateMutability": "nonpayable",
      "type": "function"
    },
    {
      "inputs": [
        {
          "internalType": "address[]",
          "name": "addrs",
          "type": "address[]"
        },
        {
          "internalType": "uint256[]",
          "name": "amounts",
          "type": "uint256[]"
        }
      ],
      "name": "setQuotas",
      "outputs": [],
      "stateMutability": "nonpayable",
      "type": "function"
    },
    {
      "inputs": [
        {
          "internalType": "address[]",
          "name": "addrs",
          "type": "address[]"
        },
        {
          "internalType": "uint256",
          "name": "amount",
          "type": "uint256"
        }
      ],
      "name": "setQuotas",
      "outputs": [],
      "stateMutability": "nonpayable",
      "type": "function"
    },
    {
      "inputs": [
        {
          "internalType": "uint256",
          "name": "ratio_",
          "type": "uint256"
        }
      ],
      "name": "setRatio",
      "outputs": [],
      "stateMutability": "nonpayable",
      "type": "function"
    },
    {
      "inputs": [
        {
          "internalType": "address payable",
          "name": "recipient_",
          "type": "address"
        }
      ],
      "name": "setRecipient",
      "outputs": [],
      "stateMutability": "nonpayable",
      "type": "function"
    },
    {
      "inputs": [
        {
          "internalType": "uint256",
          "name": "timeClaim_",
          "type": "uint256"
        }
      ],
      "name": "setTimeClaim",
      "outputs": [],
      "stateMutability": "nonpayable",
      "type": "function"
    },
    {
      "inputs": [
        {
          "internalType": "uint256",
          "name": "timeOffer_",
          "type": "uint256"
        }
      ],
      "name": "setTimeOTffer",
      "outputs": [],
      "stateMutability": "nonpayable",
      "type": "function"
    },
    {
      "inputs": [],
      "name": "timeClaim",
      "outputs": [
        {
          "internalType": "uint256",
          "name": "",
          "type": "uint256"
        }
      ],
      "stateMutability": "view",
      "type": "function"
    },
    {
      "inputs": [],
      "name": "timeOffer",
      "outputs": [
        {
          "internalType": "uint256",
          "name": "",
          "type": "uint256"
        }
      ],
      "stateMutability": "view",
      "type": "function"
    },
    {
      "inputs": [],
      "name": "token",
      "outputs": [
        {
          "internalType": "contract IERC20",
          "name": "",
          "type": "address"
        }
      ],
      "stateMutability": "view",
      "type": "function"
    },
    {
      "inputs": [],
      "name": "totalClaimed",
      "outputs": [
        {
          "internalType": "uint256",
          "name": "",
          "type": "uint256"
        }
      ],
      "stateMutability": "view",
      "type": "function"
    },
    {
      "inputs": [],
      "name": "totalOffered",
      "outputs": [
        {
          "internalType": "uint256",
          "name": "",
          "type": "uint256"
        }
      ],
      "stateMutability": "view",
      "type": "function"
    },
    {
      "inputs": [],
      "name": "totalQuota",
      "outputs": [
        {
          "internalType": "uint256",
          "name": "",
          "type": "uint256"
        }
      ],
      "stateMutability": "view",
      "type": "function"
    },
    {
      "inputs": [
        {
          "internalType": "address",
          "name": "newGovernor",
          "type": "address"
        }
      ],
      "name": "transferGovernorship",
      "outputs": [],
      "stateMutability": "nonpayable",
      "type": "function"
    },
    {
      "inputs": [
        {
          "internalType": "address payable",
          "name": "_dst",
          "type": "address"
        }
      ],
      "name": "withdrawEth",
      "outputs": [],
      "stateMutability": "nonpayable",
      "type": "function"
    },
    {
      "inputs": [],
      "name": "withdrawEth",
      "outputs": [],
      "stateMutability": "nonpayable",
      "type": "function"
    },
    {
      "inputs": [
        {
          "internalType": "address",
          "name": "_dst",
          "type": "address"
        }
      ],
      "name": "withdrawToken",
      "outputs": [],
      "stateMutability": "nonpayable",
      "type": "function"
    },
    {
      "inputs": [],
      "name": "withdrawToken",
      "outputs": [],
      "stateMutability": "nonpayable",
      "type": "function"
    },
    {
      "stateMutability": "payable",
      "type": "receive"
    }
  ],
  "bytecode": "0x608060405234801561001057600080fd5b50604051611d69380380611d69833981810160405260e081101561003357600080fd5b508051602082015160408301516060840151608085015160a086015160c0909601519495939492939192909190610072876001600160e01b036100c416565b600180546001600160a01b039788166001600160a01b03199182161790915560028054968816968216969096179095556003939093556004805492909516919093161790925560055560065550610113565b600080546001600160a01b0319166001600160a01b0383811691909117808355604051911691907fc7c0c772add429241571afb3805861fb3cfa2af374534088b76cdb4325a87e9a908290a350565b611c47806101226000396000f3fe6080604052600436106101d15760003560e01c806389476069116100f7578063c773533811610095578063e5a6b10f11610064578063e5a6b10f146106c2578063ef23b3a3146106d7578063f08094551461070a578063fc0c546a1461071f576101e0565b8063c7735338146105e8578063ca628c7814610665578063d54ad2a11461067a578063df69e0161461068f576101e0565b8063b2237ba3116100d1578063b2237ba314610525578063b6aa515b1461054f578063baa3f7ee14610582578063c1570322146105b5576101e0565b806389476069146104c85780638adaee58146104fb578063a0ef91df14610510576101e0565b80633bbed4a01161016f57806371ca337d1161013e57806371ca337d1461045f578063761610fc1461047457806378c8e65f1461049e57806381c0c263146104b3576101e0565b80633bbed4a0146103dc5780634e71d92d146101e05780635431c94e1461040f57806366d003ac1461044a576101e0565b80631942999c116101ab5780631942999c1461028957806325e1606314610358578063356130bc1461038b578063368e9d6a146103b2576101e0565b806303ce3355146101f55780630c340a241461022e57806313bef1da1461025f576101e0565b366101e0576101de610734565b005b3480156101ec57600080fd5b506101de610734565b34801561020157600080fd5b506101de6004803603604081101561021857600080fd5b506001600160a01b038135169060200135610978565b34801561023a57600080fd5b50610243610ac0565b604080516001600160a01b039092168252519081900360200190f35b34801561026b57600080fd5b506101de6004803603602081101561028257600080fd5b5035610acf565b34801561029557600080fd5b506101de600480360360408110156102ac57600080fd5b8101906020810181356401000000008111156102c757600080fd5b8201836020820111156102d957600080fd5b803590602001918460208302840111640100000000831117156102fb57600080fd5b91939092909160208101903564010000000081111561031957600080fd5b82018360208201111561032b57600080fd5b8035906020019184602083028401116401000000008311171561034d57600080fd5b509092509050610aeb565b34801561036457600080fd5b506101de6004803603602081101561037b57600080fd5b50356001600160a01b0316610b3c565b34801561039757600080fd5b506103a0610b8c565b60408051918252519081900360200190f35b3480156103be57600080fd5b506101de600480360360208110156103d557600080fd5b5035610b92565b3480156103e857600080fd5b506101de600480360360208110156103ff57600080fd5b50356001600160a01b0316610bae565b34801561041b57600080fd5b506101de6004803603604081101561043257600080fd5b506001600160a01b0381358116916020013516610bff565b34801561045657600080fd5b50610243610cc6565b34801561046b57600080fd5b506103a0610cd5565b34801561048057600080fd5b506101de6004803603602081101561049757600080fd5b5035610cdb565b3480156104aa57600080fd5b506103a061136c565b3480156104bf57600080fd5b506101de611372565b3480156104d457600080fd5b506101de600480360360208110156104eb57600080fd5b50356001600160a01b03166113eb565b34801561050757600080fd5b506103a061141b565b34801561051c57600080fd5b506101de611421565b34801561053157600080fd5b506101de6004803603602081101561054857600080fd5b5035611464565b34801561055b57600080fd5b506101de6004803603602081101561057257600080fd5b50356001600160a01b0316611480565b34801561058e57600080fd5b506103a0600480360360208110156105a557600080fd5b50356001600160a01b03166114a0565b3480156105c157600080fd5b506103a0600480360360208110156105d857600080fd5b50356001600160a01b03166114b2565b3480156105f457600080fd5b506101de6004803603604081101561060b57600080fd5b81019060208101813564010000000081111561062657600080fd5b82018360208201111561063857600080fd5b8035906020019184602083028401116401000000008311171561065a57600080fd5b9193509150356114c4565b34801561067157600080fd5b506101de611502565b34801561068657600080fd5b506103a0611531565b34801561069b57600080fd5b506101de600480360360208110156106b257600080fd5b50356001600160a01b0316611537565b3480156106ce57600080fd5b5061024361159e565b3480156106e357600080fd5b506103a0600480360360208110156106fa57600080fd5b50356001600160a01b03166115ad565b34801561071657600080fd5b506103a06115bf565b34801561072b57600080fd5b506102436115c5565b60065442101561078b576040805162461bcd60e51b815260206004820152601160248201527f69742773206e6f742074696d6520796574000000000000000000000000000000604482015290519081900360640190fd5b336000908152600c6020526040902054156107ed576040805162461bcd60e51b815260206004820152600f60248201527f636c61696d656420616c72656164790000000000000000000000000000000000604482015290519081900360640190fd5b6009546008546108029163ffffffff6115d416565b600254604080517f70a0823100000000000000000000000000000000000000000000000000000000815230600482015290516001600160a01b03909216916370a0823191602480820192602092909190829003018186803b15801561086657600080fd5b505afa15801561087a573d6000803e3d6000fd5b505050506040513d602081101561089057600080fd5b505110156108e5576040805162461bcd60e51b815260206004820152601f60248201527f206f666665726564206e756d20206e6565642067742062616c616e6163652100604482015290519081900360640190fd5b336000908152600b6020908152604080832054600c909252909120819055600954610916908263ffffffff61161f16565b600955600254610936906001600160a01b0316338363ffffffff61167916565b600954604080518381526020810192909252805133927f34fcbac0073d7c3d388e51312faf357774904998eeb8fca628b9e6f65ee1cbf792908290030190a250565b6000546001600160a01b0316331461098f57600080fd5b6000610a1e600160009054906101000a90046001600160a01b03166001600160a01b031663313ce5676040518163ffffffff1660e01b815260040160206040518083038186803b1580156109e257600080fd5b505afa1580156109f6573d6000803e3d6000fd5b505050506040513d6020811015610a0c57600080fd5b50518390600a0a63ffffffff6116f916565b6001600160a01b0384166000908152600a6020526040902054600754919250610a5d91610a51908463ffffffff61161f16565b9063ffffffff6115d416565b60079081556001600160a01b0384166000818152600a60209081526040918290208590559254815185815293840152805191927f0664880d26185ba05b5e4846543c1793cf0d7969835ebc5b5838f66a64a42ed0929081900390910190a2505050565b6000546001600160a01b031681565b6000546001600160a01b03163314610ae657600080fd5b600555565b60005b83811015610b3557610b2d858583818110610b0557fe5b905060200201356001600160a01b0316848484818110610b2157fe5b90506020020135610978565b600101610aee565b5050505050565b6000546001600160a01b03163314610b5357600080fd5b6040516001600160a01b038216904780156108fc02916000818181858888f19350505050158015610b88573d6000803e3d6000fd5b5050565b60065481565b6000546001600160a01b03163314610ba957600080fd5b600655565b6000546001600160a01b03163314610bc557600080fd5b600480547fffffffffffffffffffffffff0000000000000000000000000000000000000000166001600160a01b0392909216919091179055565b6000546001600160a01b03163314610c1657600080fd5b604080517f70a0823100000000000000000000000000000000000000000000000000000000815230600482015290516000916001600160a01b038516916370a0823191602480820192602092909190829003018186803b158015610c7957600080fd5b505afa158015610c8d573d6000803e3d6000fd5b505050506040513d6020811015610ca357600080fd5b50519050610cc16001600160a01b038416838363ffffffff61167916565b505050565b6004546001600160a01b031681565b60035481565b6001546001600160a01b0316610d38576040805162461bcd60e51b815260206004820152601e60248201527f73686f756c642063616c6c206f66666572457468282920696e73746561640000604482015290519081900360640190fd5b600554421015610d8f576040805162461bcd60e51b815260206004820152601160248201527f69742773206e6f742074696d6520796574000000000000000000000000000000604482015290519081900360640190fd5b60008111610de4576040805162461bcd60e51b815260206004820152601260248201527f616d6f756e742073686f756c6420677420300000000000000000000000000000604482015290519081900360640190fd5b6000610e37600160009054906101000a90046001600160a01b03166001600160a01b031663313ce5676040518163ffffffff1660e01b815260040160206040518083038186803b1580156109e257600080fd5b90506006544210610e8f576040805162461bcd60e51b815260206004820152600760248201527f6578706972656400000000000000000000000000000000000000000000000000604482015290519081900360640190fd5b336000908152600a6020526040902054610eaa908290611752565b905060008111610f01576040805162461bcd60e51b815260206004820152600860248201527f6e6f2071756f7461000000000000000000000000000000000000000000000000604482015290519081900360640190fd5b600154604080517fdd62ed3e000000000000000000000000000000000000000000000000000000008152336004820152306024820152905183926001600160a01b03169163dd62ed3e916044808301926020929190829003018186803b158015610f6a57600080fd5b505afa158015610f7e573d6000803e3d6000fd5b505050506040513d6020811015610f9457600080fd5b50511015610fe9576040805162461bcd60e51b815260206004820152601460248201527f616c6c6f77616e6365206e6f7420656e6f756768000000000000000000000000604482015290519081900360640190fd5b600154604080517f70a08231000000000000000000000000000000000000000000000000000000008152336004820152905183926001600160a01b0316916370a08231916024808301926020929190829003018186803b15801561104c57600080fd5b505afa158015611060573d6000803e3d6000fd5b505050506040513d602081101561107657600080fd5b505110156110cb576040805162461bcd60e51b815260206004820152601260248201527f62616c616e6365206e6f7420656e6f7567680000000000000000000000000000604482015290519081900360640190fd5b336000908152600b60205260409020541561112d576040805162461bcd60e51b815260206004820152600f60248201527f6f66666572656420616c72656164790000000000000000000000000000000000604482015290519081900360640190fd5b600454600154611152916001600160a01b03918216913391168463ffffffff61176816565b6000611210670de0b6b3a7640000611204600260009054906101000a90046001600160a01b03166001600160a01b031663313ce5676040518163ffffffff1660e01b815260040160206040518083038186803b1580156111b157600080fd5b505afa1580156111c5573d6000803e3d6000fd5b505050506040513d60208110156111db57600080fd5b5051600354600a9190910a906111f890889063ffffffff6116f916565b9063ffffffff6116f916565b9063ffffffff6117f016565b336000908152600b60205260409020819055600854909150611238908263ffffffff61161f16565b600855600254604080517f70a0823100000000000000000000000000000000000000000000000000000000815230600482015290516001600160a01b03909216916370a0823191602480820192602092909190829003018186803b15801561129f57600080fd5b505afa1580156112b3573d6000803e3d6000fd5b505050506040513d60208110156112c957600080fd5b50516008541115611321576040805162461bcd60e51b815260206004820152600d60248201527f51756f74612069732066756c6c00000000000000000000000000000000000000604482015290519081900360640190fd5b6008546040805184815260208101849052808201929092525133917f6651ad68b77f61e7600bc16c3c7108ec45225340ce47a77729663f01b5fcc0b1919081900360600190a2505050565b60055481565b6000546001600160a01b0316331461138957600080fd5b600080546040516001600160a01b03909116907fc7c0c772add429241571afb3805861fb3cfa2af374534088b76cdb4325a87e9a908390a3600080547fffffffffffffffffffffffff0000000000000000000000000000000000000000169055565b6000546001600160a01b0316331461140257600080fd5b600254611418906001600160a01b031682610bff565b50565b60075481565b6000546001600160a01b0316331461143857600080fd5b60405133904780156108fc02916000818181858888f19350505050158015611418573d6000803e3d6000fd5b6000546001600160a01b0316331461147b57600080fd5b600355565b6000546001600160a01b0316331461149757600080fd5b61141881611832565b600c6020526000908152604090205481565b600b6020526000908152604090205481565b60005b828110156114fc576114f48484838181106114de57fe5b905060200201356001600160a01b031683610978565b6001016114c7565b50505050565b6000546001600160a01b0316331461151957600080fd5b60025461152f906001600160a01b031633610bff565b565b60095481565b600080547fffffffffffffffffffffffff0000000000000000000000000000000000000000166001600160a01b0383811691909117808355604051911691907fc7c0c772add429241571afb3805861fb3cfa2af374534088b76cdb4325a87e9a908290a350565b6001546001600160a01b031681565b600a6020526000908152604090205481565b60085481565b6002546001600160a01b031681565b600061161683836040518060400160405280601e81526020017f536166654d6174683a207375627472616374696f6e206f766572666c6f7700008152506118b8565b90505b92915050565b600082820183811015611616576040805162461bcd60e51b815260206004820152601b60248201527f536166654d6174683a206164646974696f6e206f766572666c6f770000000000604482015290519081900360640190fd5b604080516001600160a01b038416602482015260448082018490528251808303909101815260649091019091526020810180517bffffffffffffffffffffffffffffffffffffffffffffffffffffffff167fa9059cbb00000000000000000000000000000000000000000000000000000000179052610cc190849061194f565b60008261170857506000611619565b8282028284828161171557fe5b04146116165760405162461bcd60e51b8152600401808060200182810382526021815260200180611bc76021913960400191505060405180910390fd5b60008183106117615781611616565b5090919050565b604080516001600160a01b0380861660248301528416604482015260648082018490528251808303909101815260849091019091526020810180517bffffffffffffffffffffffffffffffffffffffffffffffffffffffff167f23b872dd000000000000000000000000000000000000000000000000000000001790526114fc90859061194f565b600061161683836040518060400160405280601a81526020017f536166654d6174683a206469766973696f6e206279207a65726f000000000000815250611b25565b6001600160a01b03811661184557600080fd5b600080546040516001600160a01b03808516939216917fc7c0c772add429241571afb3805861fb3cfa2af374534088b76cdb4325a87e9a91a3600080547fffffffffffffffffffffffff0000000000000000000000000000000000000000166001600160a01b0392909216919091179055565b600081848411156119475760405162461bcd60e51b81526004018080602001828103825283818151815260200191508051906020019080838360005b8381101561190c5781810151838201526020016118f4565b50505050905090810190601f1680156119395780820380516001836020036101000a031916815260200191505b509250505060405180910390fd5b505050900390565b611961826001600160a01b0316611b8a565b6119b2576040805162461bcd60e51b815260206004820152601f60248201527f5361666545524332303a2063616c6c20746f206e6f6e2d636f6e747261637400604482015290519081900360640190fd5b60006060836001600160a01b0316836040518082805190602001908083835b60208310611a0e57805182527fffffffffffffffffffffffffffffffffffffffffffffffffffffffffffffffe090920191602091820191016119d1565b6001836020036101000a0380198251168184511680821785525050505050509050019150506000604051808303816000865af19150503d8060008114611a70576040519150601f19603f3d011682016040523d82523d6000602084013e611a75565b606091505b509150915081611acc576040805162461bcd60e51b815260206004820181905260248201527f5361666545524332303a206c6f772d6c6576656c2063616c6c206661696c6564604482015290519081900360640190fd5b8051156114fc57808060200190516020811015611ae857600080fd5b50516114fc5760405162461bcd60e51b815260040180806020018281038252602a815260200180611be8602a913960400191505060405180910390fd5b60008183611b745760405162461bcd60e51b815260206004820181815283516024840152835190928392604490910191908501908083836000831561190c5781810151838201526020016118f4565b506000838581611b8057fe5b0495945050505050565b6000813f7fc5d2460186f7233c927e7db2dcc703c0e500b653ca82273b7bfad8045d85a470818114801590611bbe57508115155b94935050505056fe536166654d6174683a206d756c7469706c69636174696f6e206f766572666c6f775361666545524332303a204552433230206f7065726174696f6e20646964206e6f742073756363656564a2646970667358221220b6521329d76c7e6dcba64205df349cc40575cfa5e79c2e0326b0c27ec45f692864736f6c63430006020033",
  "linkReferences": {},
  "deployedLinkReferences": {}
}