{
  "_format": "hh-sol-artifact-1",
  "contractName": "PublicSale",
  "sourceName": "contracts/PublicSale.sol",
  "abi": [
    {
      "inputs": [
        {
          "internalType": "address",
          "name": "governor_",
          "type": "address"
        },
        {
          "internalType": "address",
          "name": "currency_",
          "type": "address"
        },
        {
          "internalType": "address",
          "name": "underlying_",
          "type": "address"
        },
        {
          "internalType": "uint256",
          "name": "price_",
          "type": "uint256"
        },
        {
          "internalType": "uint256",
          "name": "timeOffer_",
          "type": "uint256"
        },
        {
          "internalType": "uint256",
          "name": "timeClaim_",
          "type": "uint256"
        },
        {
          "internalType": "address payable",
          "name": "recipient_",
          "type": "address"
        },
        {
          "internalType": "address payable",
          "name": "feeOwner_",
          "type": "address"
        },
        {
          "internalType": "uint256",
          "name": "feeRatio_",
          "type": "uint256"
        },
        {
          "internalType": "uint256",
          "name": "minUsdtTotalOffered_",
          "type": "uint256"
        },
        {
          "internalType": "uint256",
          "name": "maxUsdtTotalOffered_",
          "type": "uint256"
        },
        {
          "internalType": "uint256",
          "name": "minUsdtPersonOffered_",
          "type": "uint256"
        },
        {
          "internalType": "uint256",
          "name": "maxUsdtPersonOffered_",
          "type": "uint256"
        }
      ],
      "stateMutability": "nonpayable",
      "type": "constructor"
    },
    {
      "anonymous": false,
      "inputs": [
        {
          "indexed": true,
          "internalType": "address",
          "name": "acct",
          "type": "address"
        },
        {
          "indexed": false,
          "internalType": "uint256",
          "name": "amount",
          "type": "uint256"
        },
        {
          "indexed": false,
          "internalType": "uint256",
          "name": "volume",
          "type": "uint256"
        },
        {
          "indexed": false,
          "internalType": "uint256",
          "name": "rate",
          "type": "uint256"
        }
      ],
      "name": "Claim",
      "type": "event"
    },
    {
      "anonymous": false,
      "inputs": [
        {
          "indexed": true,
          "internalType": "address",
          "name": "previousGovernor",
          "type": "address"
        },
        {
          "indexed": true,
          "internalType": "address",
          "name": "newGovernor",
          "type": "address"
        }
      ],
      "name": "GovernorshipTransferred",
      "type": "event"
    },
    {
      "anonymous": false,
      "inputs": [
        {
          "indexed": true,
          "internalType": "address",
          "name": "acct",
          "type": "address"
        },
        {
          "indexed": false,
          "internalType": "uint256",
          "name": "amount",
          "type": "uint256"
        },
        {
          "indexed": false,
          "internalType": "uint256",
          "name": "totalCurrency",
          "type": "uint256"
        }
      ],
      "name": "Offer",
      "type": "event"
    },
    {
      "anonymous": false,
      "inputs": [
        {
          "indexed": true,
          "internalType": "address",
          "name": "addr",
          "type": "address"
        },
        {
          "indexed": false,
          "internalType": "uint256",
          "name": "volumeUsdt",
          "type": "uint256"
        },
        {
          "indexed": false,
          "internalType": "uint256",
          "name": "total",
          "type": "uint256"
        }
      ],
      "name": "Revert",
      "type": "event"
    },
    {
      "anonymous": false,
      "inputs": [
        {
          "indexed": true,
          "internalType": "address",
          "name": "addr",
          "type": "address"
        },
        {
          "indexed": false,
          "internalType": "uint256",
          "name": "balance",
          "type": "uint256"
        },
        {
          "indexed": false,
          "internalType": "uint256",
          "name": "recipientBalance",
          "type": "uint256"
        }
      ],
      "name": "WithdrawCurrency",
      "type": "event"
    },
    {
      "anonymous": false,
      "inputs": [
        {
          "indexed": false,
          "internalType": "address",
          "name": "to",
          "type": "address"
        },
        {
          "indexed": false,
          "internalType": "uint256",
          "name": "amount",
          "type": "uint256"
        },
        {
          "indexed": false,
          "internalType": "uint256",
          "name": "volume",
          "type": "uint256"
        }
      ],
      "name": "Withdrawn",
      "type": "event"
    },
    {
      "stateMutability": "nonpayable",
      "type": "fallback"
    },
    {
      "inputs": [],
      "name": "claim",
      "outputs": [],
      "stateMutability": "nonpayable",
      "type": "function"
    },
    {
      "inputs": [
        {
          "internalType": "address",
          "name": "acct",
          "type": "address"
        }
      ],
      "name": "claimable",
      "outputs": [
        {
          "internalType": "bool",
          "name": "completed_",
          "type": "bool"
        },
        {
          "internalType": "uint256",
          "name": "amount",
          "type": "uint256"
        },
        {
          "internalType": "uint256",
          "name": "volume",
          "type": "uint256"
        },
        {
          "internalType": "uint256",
          "name": "rate",
          "type": "uint256"
        }
      ],
      "stateMutability": "view",
      "type": "function"
    },
    {
      "inputs": [],
      "name": "completed",
      "outputs": [
        {
          "internalType": "bool",
          "name": "",
          "type": "bool"
        }
      ],
      "stateMutability": "view",
      "type": "function"
    },
    {
      "inputs": [],
      "name": "contractType",
      "outputs": [
        {
          "internalType": "uint256",
          "name": "",
          "type": "uint256"
        }
      ],
      "stateMutability": "view",
      "type": "function"
    },
    {
      "inputs": [],
      "name": "currency",
      "outputs": [
        {
          "internalType": "address",
          "name": "",
          "type": "address"
        }
      ],
      "stateMutability": "view",
      "type": "function"
    },
    {
      "inputs": [],
      "name": "feeOwner",
      "outputs": [
        {
          "internalType": "address payable",
          "name": "",
          "type": "address"
        }
      ],
      "stateMutability": "view",
      "type": "function"
    },
    {
      "inputs": [],
      "name": "feeRatio",
      "outputs": [
        {
          "internalType": "uint256",
          "name": "",
          "type": "uint256"
        }
      ],
      "stateMutability": "view",
      "type": "function"
    },
    {
      "inputs": [],
      "name": "governor",
      "outputs": [
        {
          "internalType": "address",
          "name": "",
          "type": "address"
        }
      ],
      "stateMutability": "view",
      "type": "function"
    },
    {
      "inputs": [],
      "name": "maxUsdtPersonOffered",
      "outputs": [
        {
          "internalType": "uint256",
          "name": "",
          "type": "uint256"
        }
      ],
      "stateMutability": "view",
      "type": "function"
    },
    {
      "inputs": [],
      "name": "maxUsdtTotalOffered",
      "outputs": [
        {
          "internalType": "uint256",
          "name": "",
          "type": "uint256"
        }
      ],
      "stateMutability": "view",
      "type": "function"
    },
    {
      "inputs": [],
      "name": "minUsdtPersonOffered",
      "outputs": [
        {
          "internalType": "uint256",
          "name": "",
          "type": "uint256"
        }
      ],
      "stateMutability": "view",
      "type": "function"
    },
    {
      "inputs": [],
      "name": "minUsdtTotalOffered",
      "outputs": [
        {
          "internalType": "uint256",
          "name": "",
          "type": "uint256"
        }
      ],
      "stateMutability": "view",
      "type": "function"
    },
    {
      "inputs": [
        {
          "internalType": "uint256",
          "name": "amount",
          "type": "uint256"
        }
      ],
      "name": "offer",
      "outputs": [],
      "stateMutability": "nonpayable",
      "type": "function"
    },
    {
      "inputs": [],
      "name": "price",
      "outputs": [
        {
          "internalType": "uint256",
          "name": "",
          "type": "uint256"
        }
      ],
      "stateMutability": "view",
      "type": "function"
    },
    {
      "inputs": [
        {
          "internalType": "address",
          "name": "",
          "type": "address"
        }
      ],
      "name": "purchasedCurrencyOf",
      "outputs": [
        {
          "internalType": "uint256",
          "name": "",
          "type": "uint256"
        }
      ],
      "stateMutability": "view",
      "type": "function"
    },
    {
      "inputs": [],
      "name": "recipient",
      "outputs": [
        {
          "internalType": "address payable",
          "name": "",
          "type": "address"
        }
      ],
      "stateMutability": "view",
      "type": "function"
    },
    {
      "inputs": [],
      "name": "renounceGovernorship",
      "outputs": [],
      "stateMutability": "nonpayable",
      "type": "function"
    },
    {
      "inputs": [
        {
          "internalType": "address",
          "name": "_token",
          "type": "address"
        },
        {
          "internalType": "address",
          "name": "_dst",
          "type": "address"
        }
      ],
      "name": "rescueTokens",
      "outputs": [],
      "stateMutability": "nonpayable",
      "type": "function"
    },
    {
      "inputs": [
        {
          "internalType": "address payable",
          "name": "feeOwner_",
          "type": "address"
        }
      ],
      "name": "setFeeOwner",
      "outputs": [],
      "stateMutability": "nonpayable",
      "type": "function"
    },
    {
      "inputs": [
        {
          "internalType": "uint256",
          "name": "feeRatio_",
          "type": "uint256"
        }
      ],
      "name": "setFeeRatio",
      "outputs": [],
      "stateMutability": "nonpayable",
      "type": "function"
    },
    {
      "inputs": [
        {
          "internalType": "uint256",
          "name": "maxUsdtTotalOffered_",
          "type": "uint256"
        }
      ],
      "name": "setMaxUsdtTotalOffered",
      "outputs": [],
      "stateMutability": "nonpayable",
      "type": "function"
    },
    {
      "inputs": [
        {
          "internalType": "uint256",
          "name": "minUsdtTotalOffered_",
          "type": "uint256"
        }
      ],
      "name": "setMinUsdtTotalOffered",
      "outputs": [],
      "stateMutability": "nonpayable",
      "type": "function"
    },
    {
      "inputs": [
        {
          "internalType": "address payable",
          "name": "recipient_",
          "type": "address"
        }
      ],
      "name": "setRecipient",
      "outputs": [],
      "stateMutability": "nonpayable",
      "type": "function"
    },
    {
      "inputs": [
        {
          "internalType": "uint256",
          "name": "timeClaim_",
          "type": "uint256"
        }
      ],
      "name": "setTimeClaim",
      "outputs": [],
      "stateMutability": "nonpayable",
      "type": "function"
    },
    {
      "inputs": [
        {
          "internalType": "uint256",
          "name": "timeOffer_",
          "type": "uint256"
        }
      ],
      "name": "setTimeOffer",
      "outputs": [],
      "stateMutability": "nonpayable",
      "type": "function"
    },
    {
      "inputs": [],
      "name": "settleRate",
      "outputs": [
        {
          "internalType": "uint256",
          "name": "",
          "type": "uint256"
        }
      ],
      "stateMutability": "view",
      "type": "function"
    },
    {
      "inputs": [
        {
          "internalType": "address",
          "name": "",
          "type": "address"
        }
      ],
      "name": "settledCurrencyOf",
      "outputs": [
        {
          "internalType": "uint256",
          "name": "",
          "type": "uint256"
        }
      ],
      "stateMutability": "view",
      "type": "function"
    },
    {
      "inputs": [
        {
          "internalType": "address",
          "name": "",
          "type": "address"
        }
      ],
      "name": "settledUnderlyingOf",
      "outputs": [
        {
          "internalType": "uint256",
          "name": "",
          "type": "uint256"
        }
      ],
      "stateMutability": "view",
      "type": "function"
    },
    {
      "inputs": [],
      "name": "timeClaim",
      "outputs": [
        {
          "internalType": "uint256",
          "name": "",
          "type": "uint256"
        }
      ],
      "stateMutability": "view",
      "type": "function"
    },
    {
      "inputs": [],
      "name": "timeOffer",
      "outputs": [
        {
          "internalType": "uint256",
          "name": "",
          "type": "uint256"
        }
      ],
      "stateMutability": "view",
      "type": "function"
    },
    {
      "inputs": [],
      "name": "totalClaimable",
      "outputs": [
        {
          "internalType": "bool",
          "name": "completed_",
          "type": "bool"
        },
        {
          "internalType": "uint256",
          "name": "amount",
          "type": "uint256"
        },
        {
          "internalType": "uint256",
          "name": "volume",
          "type": "uint256"
        },
        {
          "internalType": "uint256",
          "name": "rate",
          "type": "uint256"
        }
      ],
      "stateMutability": "view",
      "type": "function"
    },
    {
      "inputs": [],
      "name": "totalPurchasedCurrency",
      "outputs": [
        {
          "internalType": "uint256",
          "name": "",
          "type": "uint256"
        }
      ],
      "stateMutability": "view",
      "type": "function"
    },
    {
      "inputs": [],
      "name": "totalSettledUnderlying",
      "outputs": [
        {
          "internalType": "uint256",
          "name": "",
          "type": "uint256"
        }
      ],
      "stateMutability": "view",
      "type": "function"
    },
    {
      "inputs": [
        {
          "internalType": "address",
          "name": "newGovernor",
          "type": "address"
        }
      ],
      "name": "transferGovernorship",
      "outputs": [],
      "stateMutability": "nonpayable",
      "type": "function"
    },
    {
      "inputs": [],
      "name": "underlying",
      "outputs": [
        {
          "internalType": "address",
          "name": "",
          "type": "address"
        }
      ],
      "stateMutability": "view",
      "type": "function"
    },
    {
      "inputs": [
        {
          "internalType": "address payable",
          "name": "to",
          "type": "address"
        },
        {
          "internalType": "uint256",
          "name": "amount",
          "type": "uint256"
        },
        {
          "internalType": "uint256",
          "name": "volume",
          "type": "uint256"
        }
      ],
      "name": "withdraw",
      "outputs": [],
      "stateMutability": "nonpayable",
      "type": "function"
    },
    {
      "inputs": [],
      "name": "withdrawCurrencyToken",
      "outputs": [],
      "stateMutability": "nonpayable",
      "type": "function"
    },
    {
      "inputs": [
        {
          "internalType": "address payable",
          "name": "_dst",
          "type": "address"
        }
      ],
      "name": "withdrawEth",
      "outputs": [],
      "stateMutability": "nonpayable",
      "type": "function"
    },
    {
      "inputs": [],
      "name": "withdrawEth",
      "outputs": [],
      "stateMutability": "nonpayable",
      "type": "function"
    },
    {
      "inputs": [
        {
          "internalType": "address",
          "name": "_dst",
          "type": "address"
        }
      ],
      "name": "withdrawToken",
      "outputs": [],
      "stateMutability": "nonpayable",
      "type": "function"
    },
    {
      "inputs": [],
      "name": "withdrawToken",
      "outputs": [],
      "stateMutability": "nonpayable",
      "type": "function"
    },
    {
      "inputs": [],
      "name": "withdrawable",
      "outputs": [
        {
          "internalType": "uint256",
          "name": "amt",
          "type": "uint256"
        },
        {
          "internalType": "uint256",
          "name": "vol",
          "type": "uint256"
        }
      ],
      "stateMutability": "view",
      "type": "function"
    }
  ],
  "bytecode": "0x60806040523480156200001157600080fd5b50604051620026f9380380620026f983398181016040526101a08110156200003857600080fd5b508051602082015160408301516060840151608085015160a086015160c087015160e08801516101008901516101208a01516101408b01516101608c0151610180909c01519a9b999a9899979896979596949593949293919290919083831015620000de576040805162461bcd60e51b815260206004820152601160248201527036b0bc1039b437bab6321033ba1036b4b760791b604482015290519081900360640190fd5b620000f28d6001600160e01b036200022c16565b600180546001600160a01b03808f166001600160a01b03199283161790925560028054928e169290911691909117905560038a90556004899055600b8890558888101562000187576040805162461bcd60e51b815260206004820152601f60248201527f74696d65436c61696d5f2073686f756c64203e3d2074696d654f666665725f00604482015290519081900360640190fd5b600f80546001600160a01b03808a166001600160a01b031992831617909255600e8790556010805492891692909116919091179055601184905560128390558181101562000211576040805162461bcd60e51b81526020600482015260126024820152716d61782073686f756c64206774206d696e2160701b604482015290519081900360640190fd5b601391909155601455506200029b9950505050505050505050565b6001600160a01b0381166200024057600080fd5b600080546040516001600160a01b03808516939216917fc7c0c772add429241571afb3805861fb3cfa2af374534088b76cdb4325a87e9a91a3600080546001600160a01b0319166001600160a01b0392909216919091179055565b61244e80620002ab6000396000f3fe608060405234801561001057600080fd5b50600436106102de5760003560e01c806378c8e65f11610186578063b3a60f96116100e3578063c59504cc11610097578063e5a6b10f11610071578063e5a6b10f14610644578063ef1451781461064c578063f27cf06314610672576102de565b8063c59504cc1461062c578063ca628c7814610634578063cb2ef6f71461063c576102de565b8063b6aa515b116100c8578063b6aa515b146105d8578063b81d51d6146105fe578063b9818be114610624576102de565b8063b3a60f9614610580578063b5c5f672146105a6576102de565b80639d9a7fe91161013a578063a035b1fe1161011f578063a035b1fe14610568578063a0ef91df14610570578063a75a2a5414610578576102de565b80639d9a7fe9146105445780639da6129814610560576102de565b806384ca93a71161016b57806384ca93a7146104f957806389476069146105015780638d52fcef14610527576102de565b806378c8e65f146104e957806381c0c263146104f1576102de565b8063402914f51161023f5780634e71d92d116101f357806366d003ac116101cd57806366d003ac146104bc5780636f307dc3146104c4578063761610fc146104cc576102de565b80634e71d92d146102de578063501883011461046d5780635431c94e1461048e576102de565b80634838ed19116102245780634838ed19146104225780634b104eff1461042a5780634b34f93114610450576102de565b8063402914f5146103cc57806341744dd41461041a576102de565b806331fe2b3a11610296578063368e9d6a1161027b578063368e9d6a1461038157806336cb07631461039e5780633bbed4a0146103a6576102de565b806331fe2b3a14610371578063356130bc14610379576102de565b806319f4ff2f116102c757806319f4ff2f1461032657806325e160631461034357806326d7d2c314610369576102de565b80630c340a24146102e857806316d95c1e1461030c575b6102e661068f565b005b6102f0610b1e565b604080516001600160a01b039092168252519081900360200190f35b610314610b2d565b60408051918252519081900360200190f35b6102e66004803603602081101561033c57600080fd5b5035610b33565b6102e66004803603602081101561035957600080fd5b50356001600160a01b0316610b4f565b6102e6610b9f565b610314610d26565b610314610d2c565b6102e66004803603602081101561039757600080fd5b5035610d32565b610314610d4e565b6102e6600480360360208110156103bc57600080fd5b50356001600160a01b0316610d54565b6103f2600480360360208110156103e257600080fd5b50356001600160a01b0316610da5565b6040805194151585526020850193909352838301919091526060830152519081900360800190f35b610314611067565b6103f261106d565b6102e66004803603602081101561044057600080fd5b50356001600160a01b031661108b565b6102e66004803603602081101561046657600080fd5b50356110dc565b61047561114f565b6040805192835260208301919091528051918290030190f35b6102e6600480360360408110156104a457600080fd5b506001600160a01b0381358116916020013516611380565b6102f0611447565b6102f0611456565b6102e6600480360360208110156104e257600080fd5b5035611465565b610314611980565b6102e6611986565b6103146119ff565b6102e66004803603602081101561051757600080fd5b50356001600160a01b0316611a05565b6102e66004803603602081101561053d57600080fd5b5035611a35565b61054c611a51565b604080519115158252519081900360200190f35b610314611a5a565b610314611a60565b6102e6611a66565b610314611aa9565b6103146004803603602081101561059657600080fd5b50356001600160a01b0316611aaf565b6102e6600480360360608110156105bc57600080fd5b506001600160a01b038135169060208101359060400135611ac1565b6102e6600480360360208110156105ee57600080fd5b50356001600160a01b0316611c2d565b6103146004803603602081101561061457600080fd5b50356001600160a01b0316611c4d565b6102f0611c5f565b610314611c6e565b6102e6611c74565b610314611ca1565b6102f0611ca6565b6103146004803603602081101561066257600080fd5b50356001600160a01b0316611cb5565b6102e66004803603602081101561068857600080fd5b5035611cc7565b600b544210156106e6576040805162461bcd60e51b815260206004820152601760248201527f4974206973206e6f742074696d65436c61696d20796574000000000000000000604482015290519081900360640190fd5b60115460055410156108af5733600090815260066020526040902054610753576040805162461bcd60e51b815260206004820152601e60248201527f7075726368617365642043757272656e63792073686f756c6420677420300000604482015290519081900360640190fd5b600554600154604080517f70a0823100000000000000000000000000000000000000000000000000000000815230600482015290516001600160a01b03909216916370a0823191602480820192602092909190829003018186803b1580156107ba57600080fd5b505afa1580156107ce573d6000803e3d6000fd5b505050506040513d60208110156107e457600080fd5b505110156108235760405162461bcd60e51b81526004018080602001828103825260298152602001806123796029913960400191505060405180910390fd5b336000908152600660205260408120805491905560055461084a908263ffffffff611d3a16565b60055560015461086a906001600160a01b0316338363ffffffff611d8516565b600554604080518381526020810192909252805133927f0308c23d95247f0643fa21764a468f2ca3b9ef1ec7377d2370ba3e7c0ac9dcd292908290030190a250610b1c565b3360009081526009602052604090205415806108d85750336000908152600d6020526040902054155b610929576040805162461bcd60e51b815260206004820152600f60248201527f736574746c656420616c72656164790000000000000000000000000000000000604482015290519081900360640190fd5b60008060008061093833610da5565b93509350935093508361097657600780547fffffffffffffffffffffffffffffffffffffffffffffffffffffffffffffff00166001179055600a8190555b336000908152600d6020526040902054610996908463ffffffff611e0516565b336000908152600d6020526040902055600c546109b9908463ffffffff611e0516565b600c556001546001600160a01b03166109ff57604051339084156108fc029085906000818181858888f193505050501580156109f9573d6000803e3d6000fd5b50610a1c565b600154610a1c906001600160a01b0316338563ffffffff611d8516565b6000831180610a2d5750600b544210155b610a685760405162461bcd60e51b81526004018080602001828103825260288152602001806123f16028913960400191505060405180910390fd5b600b544210610ad45733600090815260096020526040902054610a91908363ffffffff611e0516565b33600090815260096020526040902055600854610ab4908363ffffffff611e0516565b600855600254610ad4906001600160a01b0316338463ffffffff611d8516565b6040805184815260208101849052808201839052905133917f45c072aa05b9853b5a993de7a28bc332ee01404a628cec1a23ce0f659f842ef1919081900360600190a2505050505b565b6000546001600160a01b031681565b60115481565b6000546001600160a01b03163314610b4a57600080fd5b600e55565b6000546001600160a01b03163314610b6657600080fd5b6040516001600160a01b038216904780156108fc02916000818181858888f19350505050158015610b9b573d6000803e3d6000fd5b5050565b6000546001600160a01b03163314610bb657600080fd5b600154604080517f70a0823100000000000000000000000000000000000000000000000000000000815230600482015290516000926001600160a01b0316916370a08231916024808301926020929190829003018186803b158015610c1a57600080fd5b505afa158015610c2e573d6000803e3d6000fd5b505050506040513d6020811015610c4457600080fd5b5051600e54909150600090610c7a90670de0b6b3a764000090610c6e90859063ffffffff611e5f16565b9063ffffffff611eb816565b90506000610c8e838363ffffffff611d3a16565b600f54600154919250610cb4916001600160a01b0390811691168363ffffffff611d8516565b601054600154610cd7916001600160a01b0391821691168463ffffffff611d8516565b600f54604080518581526020810184905281516001600160a01b03909316927ff0fa8383bc9412382eb19bc4c20cb3a68b6a8c505d5deb5fcd132e260250f983929181900390910190a2505050565b60135481565b600b5481565b6000546001600160a01b03163314610d4957600080fd5b600b55565b60085481565b6000546001600160a01b03163314610d6b57600080fd5b600f80547fffffffffffffffffffffffff0000000000000000000000000000000000000000166001600160a01b0392909216919091179055565b60075460ff16600080808315610dbe5750600a54610f62565b6001546000906001600160a01b031615610e6757600154604080517f70a0823100000000000000000000000000000000000000000000000000000000815230600482015290516001600160a01b03909216916370a0823191602480820192602092909190829003018186803b158015610e3657600080fd5b505afa158015610e4a573d6000803e3d6000fd5b505050506040513d6020811015610e6057600080fd5b5051610e69565b475b600254604080517f70a0823100000000000000000000000000000000000000000000000000000000815230600482015290519293506000926001600160a01b03909216916370a0823191602480820192602092909190829003018186803b158015610ed357600080fd5b505afa158015610ee7573d6000803e3d6000fd5b505050506040513d6020811015610efd57600080fd5b50519050610f1982670de0b6b3a764000063ffffffff611e5f16565b600354610f2d90839063ffffffff611e5f16565b1015610f5357610f4c82610c6e60035484611e5f90919063ffffffff16565b9250610f5f565b670de0b6b3a764000092505b50505b60006001600160a01b03861615610f91576001600160a01b038616600090815260066020526040902054610f95565b6005545b90506000610fb5670de0b6b3a7640000610c6e848663ffffffff611e5f16565b90506110076001600160a01b03881615610fe7576001600160a01b0388166000908152600d6020526040902054610feb565b600c545b610ffb848463ffffffff611d3a16565b9063ffffffff611d3a16565b945061105c6001600160a01b03881615611039576001600160a01b03881660009081526009602052604090205461103d565b6008545b600354610ffb90610c6e85670de0b6b3a764000063ffffffff611e5f16565b935050509193509193565b600e5481565b60008060008061107d6000610da5565b935093509350935090919293565b6000546001600160a01b031633146110a257600080fd5b601080547fffffffffffffffffffffffff0000000000000000000000000000000000000000166001600160a01b0392909216919091179055565b6000546001600160a01b031633146110f357600080fd5b60115481101561114a576040805162461bcd60e51b815260206004820152601160248201527f6d61782073686f756c64206774206d696e000000000000000000000000000000604482015290519081900360640190fd5b601255565b600754600090819060ff166111695750600090508061137c565b6001546001600160a01b03161561120f57600154604080517f70a0823100000000000000000000000000000000000000000000000000000000815230600482015290516001600160a01b03909216916370a0823191602480820192602092909190829003018186803b1580156111de57600080fd5b505afa1580156111f2573d6000803e3d6000fd5b505050506040513d602081101561120857600080fd5b5051611211565b475b91506112b6611251670de0b6b3a7640000610c6e611242600a54670de0b6b3a7640000611d3a90919063ffffffff16565b6005549063ffffffff611e5f16565b610ffb6112a9670de0b6b3a7640000610c6e611280600a54670de0b6b3a7640000611d3a90919063ffffffff16565b61129d600a54610c6e600354600854611e5f90919063ffffffff16565b9063ffffffff611e5f16565b859063ffffffff611e0516565b91506113796112d8600354610c6e600a54600554611e5f90919063ffffffff16565b600854600254604080517f70a082310000000000000000000000000000000000000000000000000000000081523060048201529051610ffb93926001600160a01b0316916370a08231916024808301926020929190829003018186803b15801561134157600080fd5b505afa158015611355573d6000803e3d6000fd5b505050506040513d602081101561136b57600080fd5b50519063ffffffff611e0516565b90505b9091565b6000546001600160a01b0316331461139757600080fd5b604080517f70a0823100000000000000000000000000000000000000000000000000000000815230600482015290516000916001600160a01b038516916370a0823191602480820192602092909190829003018186803b1580156113fa57600080fd5b505afa15801561140e573d6000803e3d6000fd5b505050506040513d602081101561142457600080fd5b505190506114426001600160a01b038416838363ffffffff611d8516565b505050565b600f546001600160a01b031681565b6002546001600160a01b031681565b6001546001600160a01b03166114c2576040805162461bcd60e51b815260206004820152601e60248201527f73686f756c642063616c6c206f66666572457468282920696e73746561640000604482015290519081900360640190fd5b600454421015611519576040805162461bcd60e51b815260206004820152601160248201527f69742773206e6f742074696d6520796574000000000000000000000000000000604482015290519081900360640190fd5b60145481111561155a5760405162461bcd60e51b81526004018080602001828103825260258152602001806123336025913960400191505060405180910390fd5b60135481101561159b5760405162461bcd60e51b81526004018080602001828103825260258152602001806123cc6025913960400191505060405180910390fd5b600b5442106115f1576040805162461bcd60e51b815260206004820152600760248201527f6578706972656400000000000000000000000000000000000000000000000000604482015290519081900360640190fd5b60008111611646576040805162461bcd60e51b815260206004820152600860248201527f6e6f2071756f7461000000000000000000000000000000000000000000000000604482015290519081900360640190fd5b600154604080517fdd62ed3e000000000000000000000000000000000000000000000000000000008152336004820152306024820152905183926001600160a01b03169163dd62ed3e916044808301926020929190829003018186803b1580156116af57600080fd5b505afa1580156116c3573d6000803e3d6000fd5b505050506040513d60208110156116d957600080fd5b5051101561172e576040805162461bcd60e51b815260206004820152601460248201527f616c6c6f77616e6365206e6f7420656e6f756768000000000000000000000000604482015290519081900360640190fd5b600154604080517f70a08231000000000000000000000000000000000000000000000000000000008152336004820152905183926001600160a01b0316916370a08231916024808301926020929190829003018186803b15801561179157600080fd5b505afa1580156117a5573d6000803e3d6000fd5b505050506040513d60208110156117bb57600080fd5b50511015611810576040805162461bcd60e51b815260206004820152601260248201527f62616c616e6365206e6f7420656e6f7567680000000000000000000000000000604482015290519081900360640190fd5b3360009081526006602052604090205415611872576040805162461bcd60e51b815260206004820152600f60248201527f6f66666572656420616c72656164790000000000000000000000000000000000604482015290519081900360640190fd5b601254600554611888908363ffffffff611e0516565b11156118db576040805162461bcd60e51b815260206004820152601e60248201527f73686f756c64206773206d617855736474546f74616c4f666665726564730000604482015290519081900360640190fd5b6001546118f9906001600160a01b031633308463ffffffff611efa16565b33600090815260066020526040902054611919908263ffffffff611e0516565b3360009081526006602052604090205560055461193c908263ffffffff611e0516565b6005819055604080518381526020810192909252805133927f4a68fde121386ffcfc9555407bfb38625033a0d0d3726b00f56b4ab304b5544792908290030190a250565b60045481565b6000546001600160a01b0316331461199d57600080fd5b600080546040516001600160a01b03909116907fc7c0c772add429241571afb3805861fb3cfa2af374534088b76cdb4325a87e9a908390a3600080547fffffffffffffffffffffffff0000000000000000000000000000000000000000169055565b60055481565b6000546001600160a01b03163314611a1c57600080fd5b600254611a32906001600160a01b031682611380565b50565b6000546001600160a01b03163314611a4c57600080fd5b600455565b60075460ff1681565b60125481565b60035481565b6000546001600160a01b03163314611a7d57600080fd5b60405133904780156108fc02916000818181858888f19350505050158015611a32573d6000803e3d6000fd5b60145481565b60066020526000908152604090205481565b6000546001600160a01b03163314611ad857600080fd5b60075460ff16611b2f576040805162461bcd60e51b815260206004820152600b60248201527f756e636f6d706c65746564000000000000000000000000000000000000000000604482015290519081900360640190fd5b600080611b3a61114f565b91509150611b488483611f88565b9350611b548382611f88565b6001549093506001600160a01b0316611ba3576040516001600160a01b0386169085156108fc029086906000818181858888f19350505050158015611b9d573d6000803e3d6000fd5b50611bc0565b600154611bc0906001600160a01b0316868663ffffffff611d8516565b600254611bdd906001600160a01b0316868563ffffffff611d8516565b604080516001600160a01b03871681526020810186905280820185905290517f92ccf450a286a957af52509bc1c9939d1a6a481783e142e41e2499f0bb66ebc69181900360600190a15050505050565b6000546001600160a01b03163314611c4457600080fd5b611a3281611f9e565b60096020526000908152604090205481565b6010546001600160a01b031681565b600a5481565b6000546001600160a01b03163314611c8b57600080fd5b600254610b1c906001600160a01b031633611380565b600281565b6001546001600160a01b031681565b600d6020526000908152604090205481565b6000546001600160a01b03163314611cde57600080fd5b806012541015611d35576040805162461bcd60e51b815260206004820152601160248201527f6d61782073686f756c64206774206d696e000000000000000000000000000000604482015290519081900360640190fd5b601155565b6000611d7c83836040518060400160405280601e81526020017f536166654d6174683a207375627472616374696f6e206f766572666c6f770000815250612024565b90505b92915050565b604080516001600160a01b038416602482015260448082018490528251808303909101815260649091019091526020810180517bffffffffffffffffffffffffffffffffffffffffffffffffffffffff167fa9059cbb000000000000000000000000000000000000000000000000000000001790526114429084906120bb565b600082820183811015611d7c576040805162461bcd60e51b815260206004820152601b60248201527f536166654d6174683a206164646974696f6e206f766572666c6f770000000000604482015290519081900360640190fd5b600082611e6e57506000611d7f565b82820282848281611e7b57fe5b0414611d7c5760405162461bcd60e51b81526004018080602001828103825260218152602001806123586021913960400191505060405180910390fd5b6000611d7c83836040518060400160405280601a81526020017f536166654d6174683a206469766973696f6e206279207a65726f000000000000815250612291565b604080516001600160a01b0380861660248301528416604482015260648082018490528251808303909101815260849091019091526020810180517bffffffffffffffffffffffffffffffffffffffffffffffffffffffff167f23b872dd00000000000000000000000000000000000000000000000000000000179052611f829085906120bb565b50505050565b6000818310611f975781611d7c565b5090919050565b6001600160a01b038116611fb157600080fd5b600080546040516001600160a01b03808516939216917fc7c0c772add429241571afb3805861fb3cfa2af374534088b76cdb4325a87e9a91a3600080547fffffffffffffffffffffffff0000000000000000000000000000000000000000166001600160a01b0392909216919091179055565b600081848411156120b35760405162461bcd60e51b81526004018080602001828103825283818151815260200191508051906020019080838360005b83811015612078578181015183820152602001612060565b50505050905090810190601f1680156120a55780820380516001836020036101000a031916815260200191505b509250505060405180910390fd5b505050900390565b6120cd826001600160a01b03166122f6565b61211e576040805162461bcd60e51b815260206004820152601f60248201527f5361666545524332303a2063616c6c20746f206e6f6e2d636f6e747261637400604482015290519081900360640190fd5b60006060836001600160a01b0316836040518082805190602001908083835b6020831061217a57805182527fffffffffffffffffffffffffffffffffffffffffffffffffffffffffffffffe0909201916020918201910161213d565b6001836020036101000a0380198251168184511680821785525050505050509050019150506000604051808303816000865af19150503d80600081146121dc576040519150601f19603f3d011682016040523d82523d6000602084013e6121e1565b606091505b509150915081612238576040805162461bcd60e51b815260206004820181905260248201527f5361666545524332303a206c6f772d6c6576656c2063616c6c206661696c6564604482015290519081900360640190fd5b805115611f825780806020019051602081101561225457600080fd5b5051611f825760405162461bcd60e51b815260040180806020018281038252602a8152602001806123a2602a913960400191505060405180910390fd5b600081836122e05760405162461bcd60e51b8152602060048201818152835160248401528351909283926044909101919085019080838360008315612078578181015183820152602001612060565b5060008385816122ec57fe5b0495945050505050565b6000813f7fc5d2460186f7233c927e7db2dcc703c0e500b653ca82273b7bfad8045d85a47081811480159061232a57508115155b94935050505056fe616d6f756e742073686f756c64206774206d617855736474506572736f6e4f666665726564536166654d6174683a206d756c7469706c69636174696f6e206f766572666c6f772050757263686173652055736474206e756d6265722073686f756c642067742062616c616e616365215361666545524332303a204552433230206f7065726174696f6e20646964206e6f742073756363656564616d6f756e742073686f756c64207374206d696e55736474506572736f6e4f6666657265644974206973206e6f742074696d65436c61696d20746f20736574746c6520756e6465726c79696e67a2646970667358221220a97aa8c4160d8ce9554008259ea5263e54a51e03159218a0b9c83e4a9e65f88e64736f6c63430006020033",
  "linkReferences": {},
  "deployedLinkReferences": {}
}