{
  "_format": "hh-sol-artifact-1",
  "contractName": "PublicSale",
  "sourceName": "contracts/PublicSale.sol",
  "abi": [
    {
      "inputs": [
        {
          "internalType": "address",
          "name": "governor_",
          "type": "address"
        },
        {
          "internalType": "address",
          "name": "currency_",
          "type": "address"
        },
        {
          "internalType": "address",
          "name": "underlying_",
          "type": "address"
        },
        {
          "internalType": "uint256",
          "name": "price_",
          "type": "uint256"
        },
        {
          "internalType": "uint256",
          "name": "timeOffer_",
          "type": "uint256"
        },
        {
          "internalType": "uint256",
          "name": "timeClaim_",
          "type": "uint256"
        },
        {
          "internalType": "address payable",
          "name": "recipient_",
          "type": "address"
        },
        {
          "internalType": "address payable",
          "name": "feeOwner_",
          "type": "address"
        },
        {
          "internalType": "uint256",
          "name": "feeRatio_",
          "type": "uint256"
        },
        {
          "internalType": "uint256",
          "name": "minUsdtTotalOffered_",
          "type": "uint256"
        },
        {
          "internalType": "uint256",
          "name": "maxUsdtTotalOffered_",
          "type": "uint256"
        }
      ],
      "stateMutability": "nonpayable",
      "type": "constructor"
    },
    {
      "anonymous": false,
      "inputs": [
        {
          "indexed": true,
          "internalType": "address",
          "name": "acct",
          "type": "address"
        },
        {
          "indexed": false,
          "internalType": "uint256",
          "name": "amount",
          "type": "uint256"
        },
        {
          "indexed": false,
          "internalType": "uint256",
          "name": "volume",
          "type": "uint256"
        },
        {
          "indexed": false,
          "internalType": "uint256",
          "name": "rate",
          "type": "uint256"
        }
      ],
      "name": "Claim",
      "type": "event"
    },
    {
      "anonymous": false,
      "inputs": [
        {
          "indexed": true,
          "internalType": "address",
          "name": "previousGovernor",
          "type": "address"
        },
        {
          "indexed": true,
          "internalType": "address",
          "name": "newGovernor",
          "type": "address"
        }
      ],
      "name": "GovernorshipTransferred",
      "type": "event"
    },
    {
      "anonymous": false,
      "inputs": [
        {
          "indexed": true,
          "internalType": "address",
          "name": "acct",
          "type": "address"
        },
        {
          "indexed": false,
          "internalType": "uint256",
          "name": "amount",
          "type": "uint256"
        },
        {
          "indexed": false,
          "internalType": "uint256",
          "name": "totalCurrency",
          "type": "uint256"
        }
      ],
      "name": "Offer",
      "type": "event"
    },
    {
      "anonymous": false,
      "inputs": [
        {
          "indexed": true,
          "internalType": "address",
          "name": "addr",
          "type": "address"
        },
        {
          "indexed": false,
          "internalType": "uint256",
          "name": "volumeUsdt",
          "type": "uint256"
        },
        {
          "indexed": false,
          "internalType": "uint256",
          "name": "total",
          "type": "uint256"
        }
      ],
      "name": "Revert",
      "type": "event"
    },
    {
      "anonymous": false,
      "inputs": [
        {
          "indexed": false,
          "internalType": "address",
          "name": "to",
          "type": "address"
        },
        {
          "indexed": false,
          "internalType": "uint256",
          "name": "amount",
          "type": "uint256"
        },
        {
          "indexed": false,
          "internalType": "uint256",
          "name": "volume",
          "type": "uint256"
        }
      ],
      "name": "Withdrawn",
      "type": "event"
    },
    {
      "stateMutability": "nonpayable",
      "type": "fallback"
    },
    {
      "inputs": [
        {
          "internalType": "address",
          "name": "governor_",
          "type": "address"
        }
      ],
      "name": "__Governable_init_unchained",
      "outputs": [],
      "stateMutability": "nonpayable",
      "type": "function"
    },
    {
      "inputs": [],
      "name": "claim",
      "outputs": [],
      "stateMutability": "nonpayable",
      "type": "function"
    },
    {
      "inputs": [
        {
          "internalType": "address",
          "name": "acct",
          "type": "address"
        }
      ],
      "name": "claimable",
      "outputs": [
        {
          "internalType": "bool",
          "name": "completed_",
          "type": "bool"
        },
        {
          "internalType": "uint256",
          "name": "amount",
          "type": "uint256"
        },
        {
          "internalType": "uint256",
          "name": "volume",
          "type": "uint256"
        },
        {
          "internalType": "uint256",
          "name": "rate",
          "type": "uint256"
        }
      ],
      "stateMutability": "view",
      "type": "function"
    },
    {
      "inputs": [],
      "name": "completed",
      "outputs": [
        {
          "internalType": "bool",
          "name": "",
          "type": "bool"
        }
      ],
      "stateMutability": "view",
      "type": "function"
    },
    {
      "inputs": [],
      "name": "currency",
      "outputs": [
        {
          "internalType": "address",
          "name": "",
          "type": "address"
        }
      ],
      "stateMutability": "view",
      "type": "function"
    },
    {
      "inputs": [],
      "name": "feeOwner",
      "outputs": [
        {
          "internalType": "address payable",
          "name": "",
          "type": "address"
        }
      ],
      "stateMutability": "view",
      "type": "function"
    },
    {
      "inputs": [],
      "name": "feeRatio",
      "outputs": [
        {
          "internalType": "uint256",
          "name": "",
          "type": "uint256"
        }
      ],
      "stateMutability": "view",
      "type": "function"
    },
    {
      "inputs": [],
      "name": "governor",
      "outputs": [
        {
          "internalType": "address",
          "name": "",
          "type": "address"
        }
      ],
      "stateMutability": "view",
      "type": "function"
    },
    {
      "inputs": [],
      "name": "maxUsdtTotalOffered",
      "outputs": [
        {
          "internalType": "uint256",
          "name": "",
          "type": "uint256"
        }
      ],
      "stateMutability": "view",
      "type": "function"
    },
    {
      "inputs": [],
      "name": "minUsdtTotalOffered",
      "outputs": [
        {
          "internalType": "uint256",
          "name": "",
          "type": "uint256"
        }
      ],
      "stateMutability": "view",
      "type": "function"
    },
    {
      "inputs": [
        {
          "internalType": "uint256",
          "name": "amount",
          "type": "uint256"
        }
      ],
      "name": "offer",
      "outputs": [],
      "stateMutability": "nonpayable",
      "type": "function"
    },
    {
      "inputs": [],
      "name": "price",
      "outputs": [
        {
          "internalType": "uint256",
          "name": "",
          "type": "uint256"
        }
      ],
      "stateMutability": "view",
      "type": "function"
    },
    {
      "inputs": [
        {
          "internalType": "address",
          "name": "",
          "type": "address"
        }
      ],
      "name": "purchasedCurrencyOf",
      "outputs": [
        {
          "internalType": "uint256",
          "name": "",
          "type": "uint256"
        }
      ],
      "stateMutability": "view",
      "type": "function"
    },
    {
      "inputs": [],
      "name": "recipient",
      "outputs": [
        {
          "internalType": "address payable",
          "name": "",
          "type": "address"
        }
      ],
      "stateMutability": "view",
      "type": "function"
    },
    {
      "inputs": [],
      "name": "renounceGovernorship",
      "outputs": [],
      "stateMutability": "nonpayable",
      "type": "function"
    },
    {
      "inputs": [
        {
          "internalType": "address",
          "name": "_token",
          "type": "address"
        },
        {
          "internalType": "address",
          "name": "_dst",
          "type": "address"
        }
      ],
      "name": "rescueTokens",
      "outputs": [],
      "stateMutability": "nonpayable",
      "type": "function"
    },
    {
      "inputs": [
        {
          "internalType": "address payable",
          "name": "feeOwner_",
          "type": "address"
        }
      ],
      "name": "setFeeOwner",
      "outputs": [],
      "stateMutability": "nonpayable",
      "type": "function"
    },
    {
      "inputs": [
        {
          "internalType": "uint256",
          "name": "feeRatio_",
          "type": "uint256"
        }
      ],
      "name": "setFeeRatio",
      "outputs": [],
      "stateMutability": "nonpayable",
      "type": "function"
    },
    {
      "inputs": [
        {
          "internalType": "uint256",
          "name": "maxUsdtTotalOffered_",
          "type": "uint256"
        }
      ],
      "name": "setMaxUsdtTotalOffered",
      "outputs": [],
      "stateMutability": "nonpayable",
      "type": "function"
    },
    {
      "inputs": [
        {
          "internalType": "uint256",
          "name": "minUsdtTotalOffered_",
          "type": "uint256"
        }
      ],
      "name": "setMinUsdtTotalOffered",
      "outputs": [],
      "stateMutability": "nonpayable",
      "type": "function"
    },
    {
      "inputs": [
        {
          "internalType": "address payable",
          "name": "recipient_",
          "type": "address"
        }
      ],
      "name": "setRecipient",
      "outputs": [],
      "stateMutability": "nonpayable",
      "type": "function"
    },
    {
      "inputs": [
        {
          "internalType": "uint256",
          "name": "timeClaim_",
          "type": "uint256"
        }
      ],
      "name": "setTimeClaim",
      "outputs": [],
      "stateMutability": "nonpayable",
      "type": "function"
    },
    {
      "inputs": [
        {
          "internalType": "uint256",
          "name": "timeOffer_",
          "type": "uint256"
        }
      ],
      "name": "setTimeOffer",
      "outputs": [],
      "stateMutability": "nonpayable",
      "type": "function"
    },
    {
      "inputs": [],
      "name": "settleRate",
      "outputs": [
        {
          "internalType": "uint256",
          "name": "",
          "type": "uint256"
        }
      ],
      "stateMutability": "view",
      "type": "function"
    },
    {
      "inputs": [
        {
          "internalType": "address",
          "name": "",
          "type": "address"
        }
      ],
      "name": "settledCurrencyOf",
      "outputs": [
        {
          "internalType": "uint256",
          "name": "",
          "type": "uint256"
        }
      ],
      "stateMutability": "view",
      "type": "function"
    },
    {
      "inputs": [
        {
          "internalType": "address",
          "name": "",
          "type": "address"
        }
      ],
      "name": "settledUnderlyingOf",
      "outputs": [
        {
          "internalType": "uint256",
          "name": "",
          "type": "uint256"
        }
      ],
      "stateMutability": "view",
      "type": "function"
    },
    {
      "inputs": [],
      "name": "timeClaim",
      "outputs": [
        {
          "internalType": "uint256",
          "name": "",
          "type": "uint256"
        }
      ],
      "stateMutability": "view",
      "type": "function"
    },
    {
      "inputs": [],
      "name": "timeOffer",
      "outputs": [
        {
          "internalType": "uint256",
          "name": "",
          "type": "uint256"
        }
      ],
      "stateMutability": "view",
      "type": "function"
    },
    {
      "inputs": [],
      "name": "totalClaimable",
      "outputs": [
        {
          "internalType": "bool",
          "name": "completed_",
          "type": "bool"
        },
        {
          "internalType": "uint256",
          "name": "amount",
          "type": "uint256"
        },
        {
          "internalType": "uint256",
          "name": "volume",
          "type": "uint256"
        },
        {
          "internalType": "uint256",
          "name": "rate",
          "type": "uint256"
        }
      ],
      "stateMutability": "view",
      "type": "function"
    },
    {
      "inputs": [],
      "name": "totalPurchasedCurrency",
      "outputs": [
        {
          "internalType": "uint256",
          "name": "",
          "type": "uint256"
        }
      ],
      "stateMutability": "view",
      "type": "function"
    },
    {
      "inputs": [],
      "name": "totalSettledUnderlying",
      "outputs": [
        {
          "internalType": "uint256",
          "name": "",
          "type": "uint256"
        }
      ],
      "stateMutability": "view",
      "type": "function"
    },
    {
      "inputs": [
        {
          "internalType": "address",
          "name": "newGovernor",
          "type": "address"
        }
      ],
      "name": "transferGovernorship",
      "outputs": [],
      "stateMutability": "nonpayable",
      "type": "function"
    },
    {
      "inputs": [],
      "name": "underlying",
      "outputs": [
        {
          "internalType": "address",
          "name": "",
          "type": "address"
        }
      ],
      "stateMutability": "view",
      "type": "function"
    },
    {
      "inputs": [
        {
          "internalType": "address payable",
          "name": "to",
          "type": "address"
        },
        {
          "internalType": "uint256",
          "name": "amount",
          "type": "uint256"
        },
        {
          "internalType": "uint256",
          "name": "volume",
          "type": "uint256"
        }
      ],
      "name": "withdraw",
      "outputs": [],
      "stateMutability": "nonpayable",
      "type": "function"
    },
    {
      "inputs": [
        {
          "internalType": "address payable",
          "name": "_dst",
          "type": "address"
        }
      ],
      "name": "withdrawEth",
      "outputs": [],
      "stateMutability": "nonpayable",
      "type": "function"
    },
    {
      "inputs": [],
      "name": "withdrawEth",
      "outputs": [],
      "stateMutability": "nonpayable",
      "type": "function"
    },
    {
      "inputs": [
        {
          "internalType": "address",
          "name": "_dst",
          "type": "address"
        }
      ],
      "name": "withdrawToken",
      "outputs": [],
      "stateMutability": "nonpayable",
      "type": "function"
    },
    {
      "inputs": [],
      "name": "withdrawToken",
      "outputs": [],
      "stateMutability": "nonpayable",
      "type": "function"
    },
    {
      "inputs": [],
      "name": "withdrawable",
      "outputs": [
        {
          "internalType": "uint256",
          "name": "amt",
          "type": "uint256"
        },
        {
          "internalType": "uint256",
          "name": "vol",
          "type": "uint256"
        }
      ],
      "stateMutability": "view",
      "type": "function"
    }
  ],
  "bytecode": "0x608060405234801561001057600080fd5b506040516200221e3803806200221e833981810160405261016081101561003657600080fd5b508051602082015160408301516060840151608085015160a086015160c087015160e08801516101008901516101208a0151610140909a015198999798969795969495939492939192909190818110156100cb576040805162461bcd60e51b815260206004820152601160248201527036b0bc1039b437bab6321033ba1036b4b760791b604482015290519081900360640190fd5b6100dd8b6001600160e01b036101b916565b600180546001600160a01b03808d166001600160a01b03199283161790925560028054928c169290911691909117905560038890556004879055600b86905586861015610171576040805162461bcd60e51b815260206004820152601f60248201527f74696d65436c61696d5f2073686f756c64203e3d2074696d654f666665725f00604482015290519081900360640190fd5b600f80546001600160a01b03199081166001600160a01b0397881617909155600e93909355601080549093169390941692909217905560115560125550610208945050505050565b600080546001600160a01b0319166001600160a01b0383811691909117808355604051911691907fc7c0c772add429241571afb3805861fb3cfa2af374534088b76cdb4325a87e9a908290a350565b61200680620002186000396000f3fe608060405234801561001057600080fd5b50600436106102ad5760003560e01c806378c8e65f1161017b578063b5c5f672116100d8578063ca628c781161008c578063e5a6b10f11610071578063e5a6b10f14610619578063ef14517814610621578063f27cf06314610647576102ad565b8063ca628c78146105eb578063df69e016146105f3576102ad565b8063b81d51d6116100bd578063b81d51d6146105b5578063b9818be1146105db578063c59504cc146105e3576102ad565b8063b5c5f6721461055d578063b6aa515b1461058f576102ad565b80639d9a7fe91161012f578063a035b1fe11610114578063a035b1fe14610527578063a0ef91df1461052f578063b3a60f9614610537576102ad565b80639d9a7fe9146105035780639da612981461051f576102ad565b806384ca93a71161016057806384ca93a7146104b857806389476069146104c05780638d52fcef146104e6576102ad565b806378c8e65f146104a857806381c0c263146104b0576102ad565b806341744dd41161022957806350188301116101dd57806366d003ac116101c257806366d003ac1461047b5780636f307dc314610483578063761610fc1461048b576102ad565b8063501883011461042c5780635431c94e1461044d576102ad565b80634b104eff1161020e5780634b104eff146103e95780634b34f9311461040f5780634e71d92d146102ad576102ad565b806341744dd4146103d95780634838ed19146103e1576102ad565b8063356130bc1161028057806336cb07631161026557806336cb07631461035d5780633bbed4a014610365578063402914f51461038b576102ad565b8063356130bc14610338578063368e9d6a14610340576102ad565b80630c340a24146102b757806316d95c1e146102db57806319f4ff2f146102f557806325e1606314610312575b6102b5610664565b005b6102bf610af3565b604080516001600160a01b039092168252519081900360200190f35b6102e3610b02565b60408051918252519081900360200190f35b6102b56004803603602081101561030b57600080fd5b5035610b08565b6102b56004803603602081101561032857600080fd5b50356001600160a01b0316610b24565b6102e3610b74565b6102b56004803603602081101561035657600080fd5b5035610b7a565b6102e3610b96565b6102b56004803603602081101561037b57600080fd5b50356001600160a01b0316610b9c565b6103b1600480360360208110156103a157600080fd5b50356001600160a01b0316610bed565b6040805194151585526020850193909352838301919091526060830152519081900360800190f35b6102e3610ebb565b6103b1610ec1565b6102b5600480360360208110156103ff57600080fd5b50356001600160a01b0316610edf565b6102b56004803603602081101561042557600080fd5b5035610f30565b610434610fa3565b6040805192835260208301919091528051918290030190f35b6102b56004803603604081101561046357600080fd5b506001600160a01b03813581169160200135166111d4565b6102bf61129b565b6102bf6112aa565b6102b5600480360360208110156104a157600080fd5b50356112b9565b6102e3611526565b6102b561152c565b6102e36115a5565b6102b5600480360360208110156104d657600080fd5b50356001600160a01b03166115ab565b6102b5600480360360208110156104fc57600080fd5b50356115db565b61050b6115f7565b604080519115158252519081900360200190f35b6102e3611600565b6102e3611606565b6102b561160c565b6102e36004803603602081101561054d57600080fd5b50356001600160a01b031661164f565b6102b56004803603606081101561057357600080fd5b506001600160a01b038135169060208101359060400135611661565b6102b5600480360360208110156105a557600080fd5b50356001600160a01b03166117cd565b6102e3600480360360208110156105cb57600080fd5b50356001600160a01b03166117ed565b6102bf6117ff565b6102e361180e565b6102b5611814565b6102b56004803603602081101561060957600080fd5b50356001600160a01b0316611841565b6102bf6118a8565b6102e36004803603602081101561063757600080fd5b50356001600160a01b03166118b7565b6102b56004803603602081101561065d57600080fd5b50356118c9565b600b544210156106bb576040805162461bcd60e51b815260206004820152601760248201527f4974206973206e6f742074696d65436c61696d20796574000000000000000000604482015290519081900360640190fd5b60115460055410156108845733600090815260066020526040902054610728576040805162461bcd60e51b815260206004820152601e60248201527f7075726368617365642043757272656e63792073686f756c6420677420300000604482015290519081900360640190fd5b600554600154604080517f70a0823100000000000000000000000000000000000000000000000000000000815230600482015290516001600160a01b03909216916370a0823191602480820192602092909190829003018186803b15801561078f57600080fd5b505afa1580156107a3573d6000803e3d6000fd5b505050506040513d60208110156107b957600080fd5b505110156107f85760405162461bcd60e51b8152600401808060200182810382526029815260200180611f566029913960400191505060405180910390fd5b336000908152600660205260408120805491905560055461081f908263ffffffff61193c16565b60055560015461083f906001600160a01b0316338363ffffffff61198716565b600554604080518381526020810192909252805133927f0308c23d95247f0643fa21764a468f2ca3b9ef1ec7377d2370ba3e7c0ac9dcd292908290030190a250610af1565b3360009081526009602052604090205415806108ad5750336000908152600d6020526040902054155b6108fe576040805162461bcd60e51b815260206004820152600f60248201527f736574746c656420616c72656164790000000000000000000000000000000000604482015290519081900360640190fd5b60008060008061090d33610bed565b93509350935093508361094b57600780547fffffffffffffffffffffffffffffffffffffffffffffffffffffffffffffff00166001179055600a8190555b336000908152600d602052604090205461096b908463ffffffff611a0716565b336000908152600d6020526040902055600c5461098e908463ffffffff611a0716565b600c556001546001600160a01b03166109d457604051339084156108fc029085906000818181858888f193505050501580156109ce573d6000803e3d6000fd5b506109f1565b6001546109f1906001600160a01b0316338563ffffffff61198716565b6000831180610a025750600b544210155b610a3d5760405162461bcd60e51b8152600401808060200182810382526028815260200180611fa96028913960400191505060405180910390fd5b600b544210610aa95733600090815260096020526040902054610a66908363ffffffff611a0716565b33600090815260096020526040902055600854610a89908363ffffffff611a0716565b600855600254610aa9906001600160a01b0316338463ffffffff61198716565b6040805184815260208101849052808201839052905133917f45c072aa05b9853b5a993de7a28bc332ee01404a628cec1a23ce0f659f842ef1919081900360600190a2505050505b565b6000546001600160a01b031681565b60115481565b6000546001600160a01b03163314610b1f57600080fd5b600e55565b6000546001600160a01b03163314610b3b57600080fd5b6040516001600160a01b038216904780156108fc02916000818181858888f19350505050158015610b70573d6000803e3d6000fd5b5050565b600b5481565b6000546001600160a01b03163314610b9157600080fd5b600b55565b60085481565b6000546001600160a01b03163314610bb357600080fd5b600f80547fffffffffffffffffffffffff0000000000000000000000000000000000000000166001600160a01b0392909216919091179055565b60075460ff16600080808315610c065750600a54610db6565b6001546000906001600160a01b031615610caf57600154604080517f70a0823100000000000000000000000000000000000000000000000000000000815230600482015290516001600160a01b03909216916370a0823191602480820192602092909190829003018186803b158015610c7e57600080fd5b505afa158015610c92573d6000803e3d6000fd5b505050506040513d6020811015610ca857600080fd5b5051610cb1565b475b600254604080517f70a0823100000000000000000000000000000000000000000000000000000000815230600482015290519293506000926001600160a01b03909216916370a0823191602480820192602092909190829003018186803b158015610d1b57600080fd5b505afa158015610d2f573d6000803e3d6000fd5b505050506040513d6020811015610d4557600080fd5b50519050610d6182670de0b6b3a764000063ffffffff611a6116565b600354610d7590839063ffffffff611a6116565b1015610da757610da082610d9460035484611a6190919063ffffffff16565b9063ffffffff611aba16565b9250610db3565b670de0b6b3a764000092505b50505b60006001600160a01b03861615610de5576001600160a01b038616600090815260066020526040902054610de9565b6005545b90506000610e09670de0b6b3a7640000610d94848663ffffffff611a6116565b9050610e5b6001600160a01b03881615610e3b576001600160a01b0388166000908152600d6020526040902054610e3f565b600c545b610e4f848463ffffffff61193c16565b9063ffffffff61193c16565b9450610eb06001600160a01b03881615610e8d576001600160a01b038816600090815260096020526040902054610e91565b6008545b600354610e4f90610d9485670de0b6b3a764000063ffffffff611a6116565b935050509193509193565b600e5481565b600080600080610ed16000610bed565b935093509350935090919293565b6000546001600160a01b03163314610ef657600080fd5b601080547fffffffffffffffffffffffff0000000000000000000000000000000000000000166001600160a01b0392909216919091179055565b6000546001600160a01b03163314610f4757600080fd5b601154811015610f9e576040805162461bcd60e51b815260206004820152601160248201527f6d61782073686f756c64206774206d696e000000000000000000000000000000604482015290519081900360640190fd5b601255565b600754600090819060ff16610fbd575060009050806111d0565b6001546001600160a01b03161561106357600154604080517f70a0823100000000000000000000000000000000000000000000000000000000815230600482015290516001600160a01b03909216916370a0823191602480820192602092909190829003018186803b15801561103257600080fd5b505afa158015611046573d6000803e3d6000fd5b505050506040513d602081101561105c57600080fd5b5051611065565b475b915061110a6110a5670de0b6b3a7640000610d94611096600a54670de0b6b3a764000061193c90919063ffffffff16565b6005549063ffffffff611a6116565b610e4f6110fd670de0b6b3a7640000610d946110d4600a54670de0b6b3a764000061193c90919063ffffffff16565b6110f1600a54610d94600354600854611a6190919063ffffffff16565b9063ffffffff611a6116565b859063ffffffff611a0716565b91506111cd61112c600354610d94600a54600554611a6190919063ffffffff16565b600854600254604080517f70a082310000000000000000000000000000000000000000000000000000000081523060048201529051610e4f93926001600160a01b0316916370a08231916024808301926020929190829003018186803b15801561119557600080fd5b505afa1580156111a9573d6000803e3d6000fd5b505050506040513d60208110156111bf57600080fd5b50519063ffffffff611a0716565b90505b9091565b6000546001600160a01b031633146111eb57600080fd5b604080517f70a0823100000000000000000000000000000000000000000000000000000000815230600482015290516000916001600160a01b038516916370a0823191602480820192602092909190829003018186803b15801561124e57600080fd5b505afa158015611262573d6000803e3d6000fd5b505050506040513d602081101561127857600080fd5b505190506112966001600160a01b038416838363ffffffff61198716565b505050565b600f546001600160a01b031681565b6002546001600160a01b031681565b6001546001600160a01b0316611316576040805162461bcd60e51b815260206004820152601e60248201527f73686f756c642063616c6c206f66666572457468282920696e73746561640000604482015290519081900360640190fd5b60045442101561136d576040805162461bcd60e51b815260206004820152601160248201527f69742773206e6f742074696d6520796574000000000000000000000000000000604482015290519081900360640190fd5b600081116113c2576040805162461bcd60e51b815260206004820152601260248201527f616d6f756e742073686f756c6420677420300000000000000000000000000000604482015290519081900360640190fd5b600b544210611418576040805162461bcd60e51b815260206004820152600760248201527f6578706972656400000000000000000000000000000000000000000000000000604482015290519081900360640190fd5b60125460055461142e908363ffffffff611a0716565b1115611481576040805162461bcd60e51b815260206004820152601e60248201527f73686f756c64206773206d617855736474546f74616c4f666665726564730000604482015290519081900360640190fd5b60015461149f906001600160a01b031633308463ffffffff611afc16565b336000908152600660205260409020546114bf908263ffffffff611a0716565b336000908152600660205260409020556005546114e2908263ffffffff611a0716565b6005819055604080518381526020810192909252805133927f4a68fde121386ffcfc9555407bfb38625033a0d0d3726b00f56b4ab304b5544792908290030190a250565b60045481565b6000546001600160a01b0316331461154357600080fd5b600080546040516001600160a01b03909116907fc7c0c772add429241571afb3805861fb3cfa2af374534088b76cdb4325a87e9a908390a3600080547fffffffffffffffffffffffff0000000000000000000000000000000000000000169055565b60055481565b6000546001600160a01b031633146115c257600080fd5b6002546115d8906001600160a01b0316826111d4565b50565b6000546001600160a01b031633146115f257600080fd5b600455565b60075460ff1681565b60125481565b60035481565b6000546001600160a01b0316331461162357600080fd5b60405133904780156108fc02916000818181858888f193505050501580156115d8573d6000803e3d6000fd5b60066020526000908152604090205481565b6000546001600160a01b0316331461167857600080fd5b60075460ff166116cf576040805162461bcd60e51b815260206004820152600b60248201527f756e636f6d706c65746564000000000000000000000000000000000000000000604482015290519081900360640190fd5b6000806116da610fa3565b915091506116e88483611b8a565b93506116f48382611b8a565b6001549093506001600160a01b0316611743576040516001600160a01b0386169085156108fc029086906000818181858888f1935050505015801561173d573d6000803e3d6000fd5b50611760565b600154611760906001600160a01b0316868663ffffffff61198716565b60025461177d906001600160a01b0316868563ffffffff61198716565b604080516001600160a01b03871681526020810186905280820185905290517f92ccf450a286a957af52509bc1c9939d1a6a481783e142e41e2499f0bb66ebc69181900360600190a15050505050565b6000546001600160a01b031633146117e457600080fd5b6115d881611ba0565b60096020526000908152604090205481565b6010546001600160a01b031681565b600a5481565b6000546001600160a01b0316331461182b57600080fd5b600254610af1906001600160a01b0316336111d4565b600080547fffffffffffffffffffffffff0000000000000000000000000000000000000000166001600160a01b0383811691909117808355604051911691907fc7c0c772add429241571afb3805861fb3cfa2af374534088b76cdb4325a87e9a908290a350565b6001546001600160a01b031681565b600d6020526000908152604090205481565b6000546001600160a01b031633146118e057600080fd5b806012541015611937576040805162461bcd60e51b815260206004820152601160248201527f6d61782073686f756c64206774206d696e000000000000000000000000000000604482015290519081900360640190fd5b601155565b600061197e83836040518060400160405280601e81526020017f536166654d6174683a207375627472616374696f6e206f766572666c6f770000815250611c26565b90505b92915050565b604080516001600160a01b038416602482015260448082018490528251808303909101815260649091019091526020810180517bffffffffffffffffffffffffffffffffffffffffffffffffffffffff167fa9059cbb00000000000000000000000000000000000000000000000000000000179052611296908490611cbd565b60008282018381101561197e576040805162461bcd60e51b815260206004820152601b60248201527f536166654d6174683a206164646974696f6e206f766572666c6f770000000000604482015290519081900360640190fd5b600082611a7057506000611981565b82820282848281611a7d57fe5b041461197e5760405162461bcd60e51b8152600401808060200182810382526021815260200180611f356021913960400191505060405180910390fd5b600061197e83836040518060400160405280601a81526020017f536166654d6174683a206469766973696f6e206279207a65726f000000000000815250611e93565b604080516001600160a01b0380861660248301528416604482015260648082018490528251808303909101815260849091019091526020810180517bffffffffffffffffffffffffffffffffffffffffffffffffffffffff167f23b872dd00000000000000000000000000000000000000000000000000000000179052611b84908590611cbd565b50505050565b6000818310611b99578161197e565b5090919050565b6001600160a01b038116611bb357600080fd5b600080546040516001600160a01b03808516939216917fc7c0c772add429241571afb3805861fb3cfa2af374534088b76cdb4325a87e9a91a3600080547fffffffffffffffffffffffff0000000000000000000000000000000000000000166001600160a01b0392909216919091179055565b60008184841115611cb55760405162461bcd60e51b81526004018080602001828103825283818151815260200191508051906020019080838360005b83811015611c7a578181015183820152602001611c62565b50505050905090810190601f168015611ca75780820380516001836020036101000a031916815260200191505b509250505060405180910390fd5b505050900390565b611ccf826001600160a01b0316611ef8565b611d20576040805162461bcd60e51b815260206004820152601f60248201527f5361666545524332303a2063616c6c20746f206e6f6e2d636f6e747261637400604482015290519081900360640190fd5b60006060836001600160a01b0316836040518082805190602001908083835b60208310611d7c57805182527fffffffffffffffffffffffffffffffffffffffffffffffffffffffffffffffe09092019160209182019101611d3f565b6001836020036101000a0380198251168184511680821785525050505050509050019150506000604051808303816000865af19150503d8060008114611dde576040519150601f19603f3d011682016040523d82523d6000602084013e611de3565b606091505b509150915081611e3a576040805162461bcd60e51b815260206004820181905260248201527f5361666545524332303a206c6f772d6c6576656c2063616c6c206661696c6564604482015290519081900360640190fd5b805115611b8457808060200190516020811015611e5657600080fd5b5051611b845760405162461bcd60e51b815260040180806020018281038252602a815260200180611f7f602a913960400191505060405180910390fd5b60008183611ee25760405162461bcd60e51b8152602060048201818152835160248401528351909283926044909101919085019080838360008315611c7a578181015183820152602001611c62565b506000838581611eee57fe5b0495945050505050565b6000813f7fc5d2460186f7233c927e7db2dcc703c0e500b653ca82273b7bfad8045d85a470818114801590611f2c57508115155b94935050505056fe536166654d6174683a206d756c7469706c69636174696f6e206f766572666c6f772050757263686173652055736474206e756d6265722073686f756c642067742062616c616e616365215361666545524332303a204552433230206f7065726174696f6e20646964206e6f7420737563636565644974206973206e6f742074696d65436c61696d20746f20736574746c6520756e6465726c79696e67a26469706673582212202d3c4959f281aee1948ee0615f1cc76fd1537303ac39727090fe8aeecd534af364736f6c63430006020033",
  "linkReferences": {},
  "deployedLinkReferences": {}
}