{
  "_format": "hh-sol-artifact-1",
  "contractName": "PublicSale",
  "sourceName": "contracts/PublicSale.sol",
  "abi": [
    {
      "inputs": [
        {
          "internalType": "address",
          "name": "governor_",
          "type": "address"
        },
        {
          "internalType": "address",
          "name": "currency_",
          "type": "address"
        },
        {
          "internalType": "address",
          "name": "underlying_",
          "type": "address"
        },
        {
          "internalType": "uint256",
          "name": "price_",
          "type": "uint256"
        },
        {
          "internalType": "uint256",
          "name": "timeOffer_",
          "type": "uint256"
        },
        {
          "internalType": "uint256",
          "name": "timeClaim_",
          "type": "uint256"
        },
        {
          "internalType": "address payable",
          "name": "recipient_",
          "type": "address"
        },
        {
          "internalType": "address payable",
          "name": "feeOwner_",
          "type": "address"
        },
        {
          "internalType": "uint256",
          "name": "feeRatio_",
          "type": "uint256"
        },
        {
          "internalType": "uint256",
          "name": "minUsdtTotalOffered_",
          "type": "uint256"
        },
        {
          "internalType": "uint256",
          "name": "maxUsdtTotalOffered_",
          "type": "uint256"
        }
      ],
      "stateMutability": "nonpayable",
      "type": "constructor"
    },
    {
      "anonymous": false,
      "inputs": [
        {
          "indexed": true,
          "internalType": "address",
          "name": "acct",
          "type": "address"
        },
        {
          "indexed": false,
          "internalType": "uint256",
          "name": "amount",
          "type": "uint256"
        },
        {
          "indexed": false,
          "internalType": "uint256",
          "name": "volume",
          "type": "uint256"
        },
        {
          "indexed": false,
          "internalType": "uint256",
          "name": "rate",
          "type": "uint256"
        }
      ],
      "name": "Claim",
      "type": "event"
    },
    {
      "anonymous": false,
      "inputs": [
        {
          "indexed": true,
          "internalType": "address",
          "name": "previousGovernor",
          "type": "address"
        },
        {
          "indexed": true,
          "internalType": "address",
          "name": "newGovernor",
          "type": "address"
        }
      ],
      "name": "GovernorshipTransferred",
      "type": "event"
    },
    {
      "anonymous": false,
      "inputs": [
        {
          "indexed": true,
          "internalType": "address",
          "name": "acct",
          "type": "address"
        },
        {
          "indexed": false,
          "internalType": "uint256",
          "name": "amount",
          "type": "uint256"
        },
        {
          "indexed": false,
          "internalType": "uint256",
          "name": "totalCurrency",
          "type": "uint256"
        }
      ],
      "name": "Offer",
      "type": "event"
    },
    {
      "anonymous": false,
      "inputs": [
        {
          "indexed": true,
          "internalType": "address",
          "name": "addr",
          "type": "address"
        },
        {
          "indexed": false,
          "internalType": "uint256",
          "name": "volumeUsdt",
          "type": "uint256"
        },
        {
          "indexed": false,
          "internalType": "uint256",
          "name": "total",
          "type": "uint256"
        }
      ],
      "name": "Revert",
      "type": "event"
    },
    {
      "anonymous": false,
      "inputs": [
        {
          "indexed": true,
          "internalType": "address",
          "name": "addr",
          "type": "address"
        },
        {
          "indexed": false,
          "internalType": "uint256",
          "name": "balance",
          "type": "uint256"
        },
        {
          "indexed": false,
          "internalType": "uint256",
          "name": "recipientBalance",
          "type": "uint256"
        }
      ],
      "name": "WithdrawCurrency",
      "type": "event"
    },
    {
      "anonymous": false,
      "inputs": [
        {
          "indexed": false,
          "internalType": "address",
          "name": "to",
          "type": "address"
        },
        {
          "indexed": false,
          "internalType": "uint256",
          "name": "amount",
          "type": "uint256"
        },
        {
          "indexed": false,
          "internalType": "uint256",
          "name": "volume",
          "type": "uint256"
        }
      ],
      "name": "Withdrawn",
      "type": "event"
    },
    {
      "stateMutability": "nonpayable",
      "type": "fallback"
    },
    {
      "inputs": [],
      "name": "claim",
      "outputs": [],
      "stateMutability": "nonpayable",
      "type": "function"
    },
    {
      "inputs": [
        {
          "internalType": "address",
          "name": "acct",
          "type": "address"
        }
      ],
      "name": "claimable",
      "outputs": [
        {
          "internalType": "bool",
          "name": "completed_",
          "type": "bool"
        },
        {
          "internalType": "uint256",
          "name": "amount",
          "type": "uint256"
        },
        {
          "internalType": "uint256",
          "name": "volume",
          "type": "uint256"
        },
        {
          "internalType": "uint256",
          "name": "rate",
          "type": "uint256"
        }
      ],
      "stateMutability": "view",
      "type": "function"
    },
    {
      "inputs": [],
      "name": "completed",
      "outputs": [
        {
          "internalType": "bool",
          "name": "",
          "type": "bool"
        }
      ],
      "stateMutability": "view",
      "type": "function"
    },
    {
      "inputs": [],
      "name": "contractType",
      "outputs": [
        {
          "internalType": "uint256",
          "name": "",
          "type": "uint256"
        }
      ],
      "stateMutability": "view",
      "type": "function"
    },
    {
      "inputs": [],
      "name": "currency",
      "outputs": [
        {
          "internalType": "address",
          "name": "",
          "type": "address"
        }
      ],
      "stateMutability": "view",
      "type": "function"
    },
    {
      "inputs": [],
      "name": "feeOwner",
      "outputs": [
        {
          "internalType": "address payable",
          "name": "",
          "type": "address"
        }
      ],
      "stateMutability": "view",
      "type": "function"
    },
    {
      "inputs": [],
      "name": "feeRatio",
      "outputs": [
        {
          "internalType": "uint256",
          "name": "",
          "type": "uint256"
        }
      ],
      "stateMutability": "view",
      "type": "function"
    },
    {
      "inputs": [],
      "name": "governor",
      "outputs": [
        {
          "internalType": "address",
          "name": "",
          "type": "address"
        }
      ],
      "stateMutability": "view",
      "type": "function"
    },
    {
      "inputs": [],
      "name": "maxUsdtTotalOffered",
      "outputs": [
        {
          "internalType": "uint256",
          "name": "",
          "type": "uint256"
        }
      ],
      "stateMutability": "view",
      "type": "function"
    },
    {
      "inputs": [],
      "name": "minUsdtTotalOffered",
      "outputs": [
        {
          "internalType": "uint256",
          "name": "",
          "type": "uint256"
        }
      ],
      "stateMutability": "view",
      "type": "function"
    },
    {
      "inputs": [
        {
          "internalType": "uint256",
          "name": "amount",
          "type": "uint256"
        }
      ],
      "name": "offer",
      "outputs": [],
      "stateMutability": "nonpayable",
      "type": "function"
    },
    {
      "inputs": [],
      "name": "price",
      "outputs": [
        {
          "internalType": "uint256",
          "name": "",
          "type": "uint256"
        }
      ],
      "stateMutability": "view",
      "type": "function"
    },
    {
      "inputs": [
        {
          "internalType": "address",
          "name": "",
          "type": "address"
        }
      ],
      "name": "purchasedCurrencyOf",
      "outputs": [
        {
          "internalType": "uint256",
          "name": "",
          "type": "uint256"
        }
      ],
      "stateMutability": "view",
      "type": "function"
    },
    {
      "inputs": [],
      "name": "recipient",
      "outputs": [
        {
          "internalType": "address payable",
          "name": "",
          "type": "address"
        }
      ],
      "stateMutability": "view",
      "type": "function"
    },
    {
      "inputs": [],
      "name": "renounceGovernorship",
      "outputs": [],
      "stateMutability": "nonpayable",
      "type": "function"
    },
    {
      "inputs": [
        {
          "internalType": "address",
          "name": "_token",
          "type": "address"
        },
        {
          "internalType": "address",
          "name": "_dst",
          "type": "address"
        }
      ],
      "name": "rescueTokens",
      "outputs": [],
      "stateMutability": "nonpayable",
      "type": "function"
    },
    {
      "inputs": [
        {
          "internalType": "address payable",
          "name": "feeOwner_",
          "type": "address"
        }
      ],
      "name": "setFeeOwner",
      "outputs": [],
      "stateMutability": "nonpayable",
      "type": "function"
    },
    {
      "inputs": [
        {
          "internalType": "uint256",
          "name": "feeRatio_",
          "type": "uint256"
        }
      ],
      "name": "setFeeRatio",
      "outputs": [],
      "stateMutability": "nonpayable",
      "type": "function"
    },
    {
      "inputs": [
        {
          "internalType": "uint256",
          "name": "maxUsdtTotalOffered_",
          "type": "uint256"
        }
      ],
      "name": "setMaxUsdtTotalOffered",
      "outputs": [],
      "stateMutability": "nonpayable",
      "type": "function"
    },
    {
      "inputs": [
        {
          "internalType": "uint256",
          "name": "minUsdtTotalOffered_",
          "type": "uint256"
        }
      ],
      "name": "setMinUsdtTotalOffered",
      "outputs": [],
      "stateMutability": "nonpayable",
      "type": "function"
    },
    {
      "inputs": [
        {
          "internalType": "address payable",
          "name": "recipient_",
          "type": "address"
        }
      ],
      "name": "setRecipient",
      "outputs": [],
      "stateMutability": "nonpayable",
      "type": "function"
    },
    {
      "inputs": [
        {
          "internalType": "uint256",
          "name": "timeClaim_",
          "type": "uint256"
        }
      ],
      "name": "setTimeClaim",
      "outputs": [],
      "stateMutability": "nonpayable",
      "type": "function"
    },
    {
      "inputs": [
        {
          "internalType": "uint256",
          "name": "timeOffer_",
          "type": "uint256"
        }
      ],
      "name": "setTimeOffer",
      "outputs": [],
      "stateMutability": "nonpayable",
      "type": "function"
    },
    {
      "inputs": [],
      "name": "settleRate",
      "outputs": [
        {
          "internalType": "uint256",
          "name": "",
          "type": "uint256"
        }
      ],
      "stateMutability": "view",
      "type": "function"
    },
    {
      "inputs": [
        {
          "internalType": "address",
          "name": "",
          "type": "address"
        }
      ],
      "name": "settledCurrencyOf",
      "outputs": [
        {
          "internalType": "uint256",
          "name": "",
          "type": "uint256"
        }
      ],
      "stateMutability": "view",
      "type": "function"
    },
    {
      "inputs": [
        {
          "internalType": "address",
          "name": "",
          "type": "address"
        }
      ],
      "name": "settledUnderlyingOf",
      "outputs": [
        {
          "internalType": "uint256",
          "name": "",
          "type": "uint256"
        }
      ],
      "stateMutability": "view",
      "type": "function"
    },
    {
      "inputs": [],
      "name": "timeClaim",
      "outputs": [
        {
          "internalType": "uint256",
          "name": "",
          "type": "uint256"
        }
      ],
      "stateMutability": "view",
      "type": "function"
    },
    {
      "inputs": [],
      "name": "timeOffer",
      "outputs": [
        {
          "internalType": "uint256",
          "name": "",
          "type": "uint256"
        }
      ],
      "stateMutability": "view",
      "type": "function"
    },
    {
      "inputs": [],
      "name": "totalClaimable",
      "outputs": [
        {
          "internalType": "bool",
          "name": "completed_",
          "type": "bool"
        },
        {
          "internalType": "uint256",
          "name": "amount",
          "type": "uint256"
        },
        {
          "internalType": "uint256",
          "name": "volume",
          "type": "uint256"
        },
        {
          "internalType": "uint256",
          "name": "rate",
          "type": "uint256"
        }
      ],
      "stateMutability": "view",
      "type": "function"
    },
    {
      "inputs": [],
      "name": "totalPurchasedCurrency",
      "outputs": [
        {
          "internalType": "uint256",
          "name": "",
          "type": "uint256"
        }
      ],
      "stateMutability": "view",
      "type": "function"
    },
    {
      "inputs": [],
      "name": "totalSettledUnderlying",
      "outputs": [
        {
          "internalType": "uint256",
          "name": "",
          "type": "uint256"
        }
      ],
      "stateMutability": "view",
      "type": "function"
    },
    {
      "inputs": [
        {
          "internalType": "address",
          "name": "newGovernor",
          "type": "address"
        }
      ],
      "name": "transferGovernorship",
      "outputs": [],
      "stateMutability": "nonpayable",
      "type": "function"
    },
    {
      "inputs": [],
      "name": "underlying",
      "outputs": [
        {
          "internalType": "address",
          "name": "",
          "type": "address"
        }
      ],
      "stateMutability": "view",
      "type": "function"
    },
    {
      "inputs": [
        {
          "internalType": "address payable",
          "name": "to",
          "type": "address"
        },
        {
          "internalType": "uint256",
          "name": "amount",
          "type": "uint256"
        },
        {
          "internalType": "uint256",
          "name": "volume",
          "type": "uint256"
        }
      ],
      "name": "withdraw",
      "outputs": [],
      "stateMutability": "nonpayable",
      "type": "function"
    },
    {
      "inputs": [],
      "name": "withdrawCurrencyToken",
      "outputs": [],
      "stateMutability": "nonpayable",
      "type": "function"
    },
    {
      "inputs": [
        {
          "internalType": "address payable",
          "name": "_dst",
          "type": "address"
        }
      ],
      "name": "withdrawEth",
      "outputs": [],
      "stateMutability": "nonpayable",
      "type": "function"
    },
    {
      "inputs": [],
      "name": "withdrawEth",
      "outputs": [],
      "stateMutability": "nonpayable",
      "type": "function"
    },
    {
      "inputs": [
        {
          "internalType": "address",
          "name": "_dst",
          "type": "address"
        }
      ],
      "name": "withdrawToken",
      "outputs": [],
      "stateMutability": "nonpayable",
      "type": "function"
    },
    {
      "inputs": [],
      "name": "withdrawToken",
      "outputs": [],
      "stateMutability": "nonpayable",
      "type": "function"
    },
    {
      "inputs": [],
      "name": "withdrawable",
      "outputs": [
        {
          "internalType": "uint256",
          "name": "amt",
          "type": "uint256"
        },
        {
          "internalType": "uint256",
          "name": "vol",
          "type": "uint256"
        }
      ],
      "stateMutability": "view",
      "type": "function"
    }
  ],
  "bytecode": "0x60806040523480156200001157600080fd5b50604051620025e4380380620025e483398181016040526101608110156200003857600080fd5b508051602082015160408301516060840151608085015160a086015160c087015160e08801516101008901516101208a0151610140909a01519899979896979596949593949293919290919081811015620000ce576040805162461bcd60e51b815260206004820152601160248201527036b0bc1039b437bab6321033ba1036b4b760791b604482015290519081900360640190fd5b620000e28b6001600160e01b03620001c016565b600180546001600160a01b03808d166001600160a01b03199283161790925560028054928c169290911691909117905560038890556004879055600b8690558686101562000177576040805162461bcd60e51b815260206004820152601f60248201527f74696d65436c61696d5f2073686f756c64203e3d2074696d654f666665725f00604482015290519081900360640190fd5b600f80546001600160a01b03199081166001600160a01b0397881617909155600e939093556010805490931693909416929092179055601155601255506200022f945050505050565b6001600160a01b038116620001d457600080fd5b600080546040516001600160a01b03808516939216917fc7c0c772add429241571afb3805861fb3cfa2af374534088b76cdb4325a87e9a91a3600080546001600160a01b0319166001600160a01b0392909216919091179055565b6123a5806200023f6000396000f3fe608060405234801561001057600080fd5b50600436106102c85760003560e01c806378c8e65f1161017b578063b5c5f672116100d8578063ca628c781161008c578063e5a6b10f11610071578063e5a6b10f1461061e578063ef14517814610626578063f27cf0631461064c576102c8565b8063ca628c781461060e578063cb2ef6f714610616576102c8565b8063b81d51d6116100bd578063b81d51d6146105d8578063b9818be1146105fe578063c59504cc14610606576102c8565b8063b5c5f67214610580578063b6aa515b146105b2576102c8565b80639d9a7fe91161012f578063a035b1fe11610114578063a035b1fe1461054a578063a0ef91df14610552578063b3a60f961461055a576102c8565b80639d9a7fe9146105265780639da6129814610542576102c8565b806384ca93a71161016057806384ca93a7146104db57806389476069146104e35780638d52fcef14610509576102c8565b806378c8e65f146104cb57806381c0c263146104d3576102c8565b806341744dd41161022957806350188301116101dd57806366d003ac116101c257806366d003ac1461049e5780636f307dc3146104a6578063761610fc146104ae576102c8565b8063501883011461044f5780635431c94e14610470576102c8565b80634b104eff1161020e5780634b104eff1461040c5780634b34f931146104325780634e71d92d146102c8576102c8565b806341744dd4146103fc5780634838ed1914610404576102c8565b8063356130bc1161028057806336cb07631161026557806336cb0763146103805780633bbed4a014610388578063402914f5146103ae576102c8565b8063356130bc1461035b578063368e9d6a14610363576102c8565b806319f4ff2f116102b157806319f4ff2f1461031057806325e160631461032d57806326d7d2c314610353576102c8565b80630c340a24146102d257806316d95c1e146102f6575b6102d0610669565b005b6102da610af8565b604080516001600160a01b039092168252519081900360200190f35b6102fe610b07565b60408051918252519081900360200190f35b6102d06004803603602081101561032657600080fd5b5035610b0d565b6102d06004803603602081101561034357600080fd5b50356001600160a01b0316610b29565b6102d0610b79565b6102fe610d00565b6102d06004803603602081101561037957600080fd5b5035610d06565b6102fe610d22565b6102d06004803603602081101561039e57600080fd5b50356001600160a01b0316610d28565b6103d4600480360360208110156103c457600080fd5b50356001600160a01b0316610d79565b6040805194151585526020850193909352838301919091526060830152519081900360800190f35b6102fe61103b565b6103d4611041565b6102d06004803603602081101561042257600080fd5b50356001600160a01b031661105f565b6102d06004803603602081101561044857600080fd5b50356110b0565b610457611123565b6040805192835260208301919091528051918290030190f35b6102d06004803603604081101561048657600080fd5b506001600160a01b0381358116916020013516611354565b6102da61141b565b6102da61142a565b6102d0600480360360208110156104c457600080fd5b5035611439565b6102fe611927565b6102d061192d565b6102fe6119a6565b6102d0600480360360208110156104f957600080fd5b50356001600160a01b03166119ac565b6102d06004803603602081101561051f57600080fd5b50356119dc565b61052e6119f8565b604080519115158252519081900360200190f35b6102fe611a01565b6102fe611a07565b6102d0611a0d565b6102fe6004803603602081101561057057600080fd5b50356001600160a01b0316611a50565b6102d06004803603606081101561059657600080fd5b506001600160a01b038135169060208101359060400135611a62565b6102d0600480360360208110156105c857600080fd5b50356001600160a01b0316611bce565b6102fe600480360360208110156105ee57600080fd5b50356001600160a01b0316611bee565b6102da611c00565b6102fe611c0f565b6102d0611c15565b6102fe611c42565b6102da611c47565b6102fe6004803603602081101561063c57600080fd5b50356001600160a01b0316611c56565b6102d06004803603602081101561066257600080fd5b5035611c68565b600b544210156106c0576040805162461bcd60e51b815260206004820152601760248201527f4974206973206e6f742074696d65436c61696d20796574000000000000000000604482015290519081900360640190fd5b6011546005541015610889573360009081526006602052604090205461072d576040805162461bcd60e51b815260206004820152601e60248201527f7075726368617365642043757272656e63792073686f756c6420677420300000604482015290519081900360640190fd5b600554600154604080517f70a0823100000000000000000000000000000000000000000000000000000000815230600482015290516001600160a01b03909216916370a0823191602480820192602092909190829003018186803b15801561079457600080fd5b505afa1580156107a8573d6000803e3d6000fd5b505050506040513d60208110156107be57600080fd5b505110156107fd5760405162461bcd60e51b81526004018080602001828103825260298152602001806122f56029913960400191505060405180910390fd5b3360009081526006602052604081208054919055600554610824908263ffffffff611cdb16565b600555600154610844906001600160a01b0316338363ffffffff611d2616565b600554604080518381526020810192909252805133927f0308c23d95247f0643fa21764a468f2ca3b9ef1ec7377d2370ba3e7c0ac9dcd292908290030190a250610af6565b3360009081526009602052604090205415806108b25750336000908152600d6020526040902054155b610903576040805162461bcd60e51b815260206004820152600f60248201527f736574746c656420616c72656164790000000000000000000000000000000000604482015290519081900360640190fd5b60008060008061091233610d79565b93509350935093508361095057600780547fffffffffffffffffffffffffffffffffffffffffffffffffffffffffffffff00166001179055600a8190555b336000908152600d6020526040902054610970908463ffffffff611da616565b336000908152600d6020526040902055600c54610993908463ffffffff611da616565b600c556001546001600160a01b03166109d957604051339084156108fc029085906000818181858888f193505050501580156109d3573d6000803e3d6000fd5b506109f6565b6001546109f6906001600160a01b0316338563ffffffff611d2616565b6000831180610a075750600b544210155b610a425760405162461bcd60e51b81526004018080602001828103825260288152602001806123486028913960400191505060405180910390fd5b600b544210610aae5733600090815260096020526040902054610a6b908363ffffffff611da616565b33600090815260096020526040902055600854610a8e908363ffffffff611da616565b600855600254610aae906001600160a01b0316338463ffffffff611d2616565b6040805184815260208101849052808201839052905133917f45c072aa05b9853b5a993de7a28bc332ee01404a628cec1a23ce0f659f842ef1919081900360600190a2505050505b565b6000546001600160a01b031681565b60115481565b6000546001600160a01b03163314610b2457600080fd5b600e55565b6000546001600160a01b03163314610b4057600080fd5b6040516001600160a01b038216904780156108fc02916000818181858888f19350505050158015610b75573d6000803e3d6000fd5b5050565b6000546001600160a01b03163314610b9057600080fd5b600154604080517f70a0823100000000000000000000000000000000000000000000000000000000815230600482015290516000926001600160a01b0316916370a08231916024808301926020929190829003018186803b158015610bf457600080fd5b505afa158015610c08573d6000803e3d6000fd5b505050506040513d6020811015610c1e57600080fd5b5051600e54909150600090610c5490670de0b6b3a764000090610c4890859063ffffffff611e0016565b9063ffffffff611e5916565b90506000610c68838363ffffffff611cdb16565b600f54600154919250610c8e916001600160a01b0390811691168363ffffffff611d2616565b601054600154610cb1916001600160a01b0391821691168463ffffffff611d2616565b600f54604080518581526020810184905281516001600160a01b03909316927ff0fa8383bc9412382eb19bc4c20cb3a68b6a8c505d5deb5fcd132e260250f983929181900390910190a2505050565b600b5481565b6000546001600160a01b03163314610d1d57600080fd5b600b55565b60085481565b6000546001600160a01b03163314610d3f57600080fd5b600f80547fffffffffffffffffffffffff0000000000000000000000000000000000000000166001600160a01b0392909216919091179055565b60075460ff16600080808315610d925750600a54610f36565b6001546000906001600160a01b031615610e3b57600154604080517f70a0823100000000000000000000000000000000000000000000000000000000815230600482015290516001600160a01b03909216916370a0823191602480820192602092909190829003018186803b158015610e0a57600080fd5b505afa158015610e1e573d6000803e3d6000fd5b505050506040513d6020811015610e3457600080fd5b5051610e3d565b475b600254604080517f70a0823100000000000000000000000000000000000000000000000000000000815230600482015290519293506000926001600160a01b03909216916370a0823191602480820192602092909190829003018186803b158015610ea757600080fd5b505afa158015610ebb573d6000803e3d6000fd5b505050506040513d6020811015610ed157600080fd5b50519050610eed82670de0b6b3a764000063ffffffff611e0016565b600354610f0190839063ffffffff611e0016565b1015610f2757610f2082610c4860035484611e0090919063ffffffff16565b9250610f33565b670de0b6b3a764000092505b50505b60006001600160a01b03861615610f65576001600160a01b038616600090815260066020526040902054610f69565b6005545b90506000610f89670de0b6b3a7640000610c48848663ffffffff611e0016565b9050610fdb6001600160a01b03881615610fbb576001600160a01b0388166000908152600d6020526040902054610fbf565b600c545b610fcf848463ffffffff611cdb16565b9063ffffffff611cdb16565b94506110306001600160a01b0388161561100d576001600160a01b038816600090815260096020526040902054611011565b6008545b600354610fcf90610c4885670de0b6b3a764000063ffffffff611e0016565b935050509193509193565b600e5481565b6000806000806110516000610d79565b935093509350935090919293565b6000546001600160a01b0316331461107657600080fd5b601080547fffffffffffffffffffffffff0000000000000000000000000000000000000000166001600160a01b0392909216919091179055565b6000546001600160a01b031633146110c757600080fd5b60115481101561111e576040805162461bcd60e51b815260206004820152601160248201527f6d61782073686f756c64206774206d696e000000000000000000000000000000604482015290519081900360640190fd5b601255565b600754600090819060ff1661113d57506000905080611350565b6001546001600160a01b0316156111e357600154604080517f70a0823100000000000000000000000000000000000000000000000000000000815230600482015290516001600160a01b03909216916370a0823191602480820192602092909190829003018186803b1580156111b257600080fd5b505afa1580156111c6573d6000803e3d6000fd5b505050506040513d60208110156111dc57600080fd5b50516111e5565b475b915061128a611225670de0b6b3a7640000610c48611216600a54670de0b6b3a7640000611cdb90919063ffffffff16565b6005549063ffffffff611e0016565b610fcf61127d670de0b6b3a7640000610c48611254600a54670de0b6b3a7640000611cdb90919063ffffffff16565b611271600a54610c48600354600854611e0090919063ffffffff16565b9063ffffffff611e0016565b859063ffffffff611da616565b915061134d6112ac600354610c48600a54600554611e0090919063ffffffff16565b600854600254604080517f70a082310000000000000000000000000000000000000000000000000000000081523060048201529051610fcf93926001600160a01b0316916370a08231916024808301926020929190829003018186803b15801561131557600080fd5b505afa158015611329573d6000803e3d6000fd5b505050506040513d602081101561133f57600080fd5b50519063ffffffff611da616565b90505b9091565b6000546001600160a01b0316331461136b57600080fd5b604080517f70a0823100000000000000000000000000000000000000000000000000000000815230600482015290516000916001600160a01b038516916370a0823191602480820192602092909190829003018186803b1580156113ce57600080fd5b505afa1580156113e2573d6000803e3d6000fd5b505050506040513d60208110156113f857600080fd5b505190506114166001600160a01b038416838363ffffffff611d2616565b505050565b600f546001600160a01b031681565b6002546001600160a01b031681565b6001546001600160a01b0316611496576040805162461bcd60e51b815260206004820152601e60248201527f73686f756c642063616c6c206f66666572457468282920696e73746561640000604482015290519081900360640190fd5b6004544210156114ed576040805162461bcd60e51b815260206004820152601160248201527f69742773206e6f742074696d6520796574000000000000000000000000000000604482015290519081900360640190fd5b60008111611542576040805162461bcd60e51b815260206004820152601260248201527f616d6f756e742073686f756c6420677420300000000000000000000000000000604482015290519081900360640190fd5b600b544210611598576040805162461bcd60e51b815260206004820152600760248201527f6578706972656400000000000000000000000000000000000000000000000000604482015290519081900360640190fd5b600081116115ed576040805162461bcd60e51b815260206004820152600860248201527f6e6f2071756f7461000000000000000000000000000000000000000000000000604482015290519081900360640190fd5b600154604080517fdd62ed3e000000000000000000000000000000000000000000000000000000008152336004820152306024820152905183926001600160a01b03169163dd62ed3e916044808301926020929190829003018186803b15801561165657600080fd5b505afa15801561166a573d6000803e3d6000fd5b505050506040513d602081101561168057600080fd5b505110156116d5576040805162461bcd60e51b815260206004820152601460248201527f616c6c6f77616e6365206e6f7420656e6f756768000000000000000000000000604482015290519081900360640190fd5b600154604080517f70a08231000000000000000000000000000000000000000000000000000000008152336004820152905183926001600160a01b0316916370a08231916024808301926020929190829003018186803b15801561173857600080fd5b505afa15801561174c573d6000803e3d6000fd5b505050506040513d602081101561176257600080fd5b505110156117b7576040805162461bcd60e51b815260206004820152601260248201527f62616c616e6365206e6f7420656e6f7567680000000000000000000000000000604482015290519081900360640190fd5b3360009081526006602052604090205415611819576040805162461bcd60e51b815260206004820152600f60248201527f6f66666572656420616c72656164790000000000000000000000000000000000604482015290519081900360640190fd5b60125460055461182f908363ffffffff611da616565b1115611882576040805162461bcd60e51b815260206004820152601e60248201527f73686f756c64206773206d617855736474546f74616c4f666665726564730000604482015290519081900360640190fd5b6001546118a0906001600160a01b031633308463ffffffff611e9b16565b336000908152600660205260409020546118c0908263ffffffff611da616565b336000908152600660205260409020556005546118e3908263ffffffff611da616565b6005819055604080518381526020810192909252805133927f4a68fde121386ffcfc9555407bfb38625033a0d0d3726b00f56b4ab304b5544792908290030190a250565b60045481565b6000546001600160a01b0316331461194457600080fd5b600080546040516001600160a01b03909116907fc7c0c772add429241571afb3805861fb3cfa2af374534088b76cdb4325a87e9a908390a3600080547fffffffffffffffffffffffff0000000000000000000000000000000000000000169055565b60055481565b6000546001600160a01b031633146119c357600080fd5b6002546119d9906001600160a01b031682611354565b50565b6000546001600160a01b031633146119f357600080fd5b600455565b60075460ff1681565b60125481565b60035481565b6000546001600160a01b03163314611a2457600080fd5b60405133904780156108fc02916000818181858888f193505050501580156119d9573d6000803e3d6000fd5b60066020526000908152604090205481565b6000546001600160a01b03163314611a7957600080fd5b60075460ff16611ad0576040805162461bcd60e51b815260206004820152600b60248201527f756e636f6d706c65746564000000000000000000000000000000000000000000604482015290519081900360640190fd5b600080611adb611123565b91509150611ae98483611f29565b9350611af58382611f29565b6001549093506001600160a01b0316611b44576040516001600160a01b0386169085156108fc029086906000818181858888f19350505050158015611b3e573d6000803e3d6000fd5b50611b61565b600154611b61906001600160a01b0316868663ffffffff611d2616565b600254611b7e906001600160a01b0316868563ffffffff611d2616565b604080516001600160a01b03871681526020810186905280820185905290517f92ccf450a286a957af52509bc1c9939d1a6a481783e142e41e2499f0bb66ebc69181900360600190a15050505050565b6000546001600160a01b03163314611be557600080fd5b6119d981611f3f565b60096020526000908152604090205481565b6010546001600160a01b031681565b600a5481565b6000546001600160a01b03163314611c2c57600080fd5b600254610af6906001600160a01b031633611354565b600281565b6001546001600160a01b031681565b600d6020526000908152604090205481565b6000546001600160a01b03163314611c7f57600080fd5b806012541015611cd6576040805162461bcd60e51b815260206004820152601160248201527f6d61782073686f756c64206774206d696e000000000000000000000000000000604482015290519081900360640190fd5b601155565b6000611d1d83836040518060400160405280601e81526020017f536166654d6174683a207375627472616374696f6e206f766572666c6f770000815250611fc5565b90505b92915050565b604080516001600160a01b038416602482015260448082018490528251808303909101815260649091019091526020810180517bffffffffffffffffffffffffffffffffffffffffffffffffffffffff167fa9059cbb0000000000000000000000000000000000000000000000000000000017905261141690849061205c565b600082820183811015611d1d576040805162461bcd60e51b815260206004820152601b60248201527f536166654d6174683a206164646974696f6e206f766572666c6f770000000000604482015290519081900360640190fd5b600082611e0f57506000611d20565b82820282848281611e1c57fe5b0414611d1d5760405162461bcd60e51b81526004018080602001828103825260218152602001806122d46021913960400191505060405180910390fd5b6000611d1d83836040518060400160405280601a81526020017f536166654d6174683a206469766973696f6e206279207a65726f000000000000815250612232565b604080516001600160a01b0380861660248301528416604482015260648082018490528251808303909101815260849091019091526020810180517bffffffffffffffffffffffffffffffffffffffffffffffffffffffff167f23b872dd00000000000000000000000000000000000000000000000000000000179052611f2390859061205c565b50505050565b6000818310611f385781611d1d565b5090919050565b6001600160a01b038116611f5257600080fd5b600080546040516001600160a01b03808516939216917fc7c0c772add429241571afb3805861fb3cfa2af374534088b76cdb4325a87e9a91a3600080547fffffffffffffffffffffffff0000000000000000000000000000000000000000166001600160a01b0392909216919091179055565b600081848411156120545760405162461bcd60e51b81526004018080602001828103825283818151815260200191508051906020019080838360005b83811015612019578181015183820152602001612001565b50505050905090810190601f1680156120465780820380516001836020036101000a031916815260200191505b509250505060405180910390fd5b505050900390565b61206e826001600160a01b0316612297565b6120bf576040805162461bcd60e51b815260206004820152601f60248201527f5361666545524332303a2063616c6c20746f206e6f6e2d636f6e747261637400604482015290519081900360640190fd5b60006060836001600160a01b0316836040518082805190602001908083835b6020831061211b57805182527fffffffffffffffffffffffffffffffffffffffffffffffffffffffffffffffe090920191602091820191016120de565b6001836020036101000a0380198251168184511680821785525050505050509050019150506000604051808303816000865af19150503d806000811461217d576040519150601f19603f3d011682016040523d82523d6000602084013e612182565b606091505b5091509150816121d9576040805162461bcd60e51b815260206004820181905260248201527f5361666545524332303a206c6f772d6c6576656c2063616c6c206661696c6564604482015290519081900360640190fd5b805115611f23578080602001905160208110156121f557600080fd5b5051611f235760405162461bcd60e51b815260040180806020018281038252602a81526020018061231e602a913960400191505060405180910390fd5b600081836122815760405162461bcd60e51b8152602060048201818152835160248401528351909283926044909101919085019080838360008315612019578181015183820152602001612001565b50600083858161228d57fe5b0495945050505050565b6000813f7fc5d2460186f7233c927e7db2dcc703c0e500b653ca82273b7bfad8045d85a4708181148015906122cb57508115155b94935050505056fe536166654d6174683a206d756c7469706c69636174696f6e206f766572666c6f772050757263686173652055736474206e756d6265722073686f756c642067742062616c616e616365215361666545524332303a204552433230206f7065726174696f6e20646964206e6f7420737563636565644974206973206e6f742074696d65436c61696d20746f20736574746c6520756e6465726c79696e67a264697066735822122034e90df46310924b7b75cdf7e4a4b9fb9622f910480f61c7e425fc2fb680fa0664736f6c63430006020033",
  "linkReferences": {},
  "deployedLinkReferences": {}
}