{
  "_format": "hh-sol-artifact-1",
  "contractName": "PublicSale",
  "sourceName": "contracts/PublicSale.sol",
  "abi": [
    {
      "inputs": [
        {
          "internalType": "address",
          "name": "governor_",
          "type": "address"
        },
        {
          "internalType": "address",
          "name": "currency_",
          "type": "address"
        },
        {
          "internalType": "address",
          "name": "underlying_",
          "type": "address"
        },
        {
          "internalType": "uint256",
          "name": "price_",
          "type": "uint256"
        },
        {
          "internalType": "uint256",
          "name": "timeOffer_",
          "type": "uint256"
        },
        {
          "internalType": "uint256",
          "name": "timeClaim_",
          "type": "uint256"
        },
        {
          "internalType": "address payable",
          "name": "recipient_",
          "type": "address"
        },
        {
          "internalType": "address payable",
          "name": "feeOwner_",
          "type": "address"
        },
        {
          "internalType": "uint256",
          "name": "feeRatio_",
          "type": "uint256"
        },
        {
          "internalType": "uint256",
          "name": "minUsdtTotalOffered_",
          "type": "uint256"
        },
        {
          "internalType": "uint256",
          "name": "maxUsdtTotalOffered_",
          "type": "uint256"
        },
        {
          "internalType": "uint256",
          "name": "minUsdtPersonOffered_",
          "type": "uint256"
        },
        {
          "internalType": "uint256",
          "name": "maxUsdtPersonOffered_",
          "type": "uint256"
        }
      ],
      "stateMutability": "nonpayable",
      "type": "constructor"
    },
    {
      "anonymous": false,
      "inputs": [
        {
          "indexed": true,
          "internalType": "address",
          "name": "acct",
          "type": "address"
        },
        {
          "indexed": false,
          "internalType": "uint256",
          "name": "amount",
          "type": "uint256"
        },
        {
          "indexed": false,
          "internalType": "uint256",
          "name": "volume",
          "type": "uint256"
        },
        {
          "indexed": false,
          "internalType": "uint256",
          "name": "rate",
          "type": "uint256"
        }
      ],
      "name": "Claim",
      "type": "event"
    },
    {
      "anonymous": false,
      "inputs": [
        {
          "indexed": true,
          "internalType": "address",
          "name": "previousGovernor",
          "type": "address"
        },
        {
          "indexed": true,
          "internalType": "address",
          "name": "newGovernor",
          "type": "address"
        }
      ],
      "name": "GovernorshipTransferred",
      "type": "event"
    },
    {
      "anonymous": false,
      "inputs": [
        {
          "indexed": true,
          "internalType": "address",
          "name": "acct",
          "type": "address"
        },
        {
          "indexed": false,
          "internalType": "uint256",
          "name": "amount",
          "type": "uint256"
        },
        {
          "indexed": false,
          "internalType": "uint256",
          "name": "totalCurrency",
          "type": "uint256"
        }
      ],
      "name": "Offer",
      "type": "event"
    },
    {
      "anonymous": false,
      "inputs": [
        {
          "indexed": true,
          "internalType": "address",
          "name": "addr",
          "type": "address"
        },
        {
          "indexed": false,
          "internalType": "uint256",
          "name": "volumeUsdt",
          "type": "uint256"
        },
        {
          "indexed": false,
          "internalType": "uint256",
          "name": "total",
          "type": "uint256"
        }
      ],
      "name": "Revert",
      "type": "event"
    },
    {
      "anonymous": false,
      "inputs": [
        {
          "indexed": true,
          "internalType": "address",
          "name": "acct",
          "type": "address"
        },
        {
          "indexed": false,
          "internalType": "address",
          "name": "add",
          "type": "address"
        }
      ],
      "name": "SetFeeOwner",
      "type": "event"
    },
    {
      "anonymous": false,
      "inputs": [
        {
          "indexed": true,
          "internalType": "address",
          "name": "acct",
          "type": "address"
        },
        {
          "indexed": false,
          "internalType": "uint256",
          "name": "amount",
          "type": "uint256"
        }
      ],
      "name": "SetFeeRatio",
      "type": "event"
    },
    {
      "anonymous": false,
      "inputs": [
        {
          "indexed": true,
          "internalType": "address",
          "name": "acct",
          "type": "address"
        },
        {
          "indexed": false,
          "internalType": "uint256",
          "name": "amount",
          "type": "uint256"
        }
      ],
      "name": "SetMaxUsdtTotalOffered",
      "type": "event"
    },
    {
      "anonymous": false,
      "inputs": [
        {
          "indexed": true,
          "internalType": "address",
          "name": "acct",
          "type": "address"
        },
        {
          "indexed": false,
          "internalType": "uint256",
          "name": "amount",
          "type": "uint256"
        }
      ],
      "name": "SetMinUsdtTotalOffered",
      "type": "event"
    },
    {
      "anonymous": false,
      "inputs": [
        {
          "indexed": true,
          "internalType": "address",
          "name": "acct",
          "type": "address"
        },
        {
          "indexed": false,
          "internalType": "address",
          "name": "add",
          "type": "address"
        }
      ],
      "name": "SetRecipient",
      "type": "event"
    },
    {
      "anonymous": false,
      "inputs": [
        {
          "indexed": true,
          "internalType": "address",
          "name": "acct",
          "type": "address"
        },
        {
          "indexed": false,
          "internalType": "uint256",
          "name": "amount",
          "type": "uint256"
        }
      ],
      "name": "SetTimeClaim",
      "type": "event"
    },
    {
      "anonymous": false,
      "inputs": [
        {
          "indexed": true,
          "internalType": "address",
          "name": "acct",
          "type": "address"
        },
        {
          "indexed": false,
          "internalType": "uint256",
          "name": "amount",
          "type": "uint256"
        }
      ],
      "name": "SetTimeOffer",
      "type": "event"
    },
    {
      "anonymous": false,
      "inputs": [
        {
          "indexed": true,
          "internalType": "address",
          "name": "addr",
          "type": "address"
        },
        {
          "indexed": false,
          "internalType": "uint256",
          "name": "balance",
          "type": "uint256"
        },
        {
          "indexed": false,
          "internalType": "uint256",
          "name": "recipientBalance",
          "type": "uint256"
        }
      ],
      "name": "WithdrawCurrency",
      "type": "event"
    },
    {
      "anonymous": false,
      "inputs": [
        {
          "indexed": false,
          "internalType": "address",
          "name": "to",
          "type": "address"
        },
        {
          "indexed": false,
          "internalType": "uint256",
          "name": "amount",
          "type": "uint256"
        },
        {
          "indexed": false,
          "internalType": "uint256",
          "name": "volume",
          "type": "uint256"
        }
      ],
      "name": "Withdrawn",
      "type": "event"
    },
    {
      "stateMutability": "nonpayable",
      "type": "fallback"
    },
    {
      "inputs": [],
      "name": "claim",
      "outputs": [],
      "stateMutability": "nonpayable",
      "type": "function"
    },
    {
      "inputs": [
        {
          "internalType": "address",
          "name": "acct",
          "type": "address"
        }
      ],
      "name": "claimable",
      "outputs": [
        {
          "internalType": "bool",
          "name": "completed_",
          "type": "bool"
        },
        {
          "internalType": "uint256",
          "name": "amount",
          "type": "uint256"
        },
        {
          "internalType": "uint256",
          "name": "volume",
          "type": "uint256"
        },
        {
          "internalType": "uint256",
          "name": "rate",
          "type": "uint256"
        }
      ],
      "stateMutability": "view",
      "type": "function"
    },
    {
      "inputs": [],
      "name": "completed",
      "outputs": [
        {
          "internalType": "bool",
          "name": "",
          "type": "bool"
        }
      ],
      "stateMutability": "view",
      "type": "function"
    },
    {
      "inputs": [],
      "name": "contractType",
      "outputs": [
        {
          "internalType": "uint256",
          "name": "",
          "type": "uint256"
        }
      ],
      "stateMutability": "view",
      "type": "function"
    },
    {
      "inputs": [],
      "name": "currency",
      "outputs": [
        {
          "internalType": "address",
          "name": "",
          "type": "address"
        }
      ],
      "stateMutability": "view",
      "type": "function"
    },
    {
      "inputs": [],
      "name": "feeOwner",
      "outputs": [
        {
          "internalType": "address payable",
          "name": "",
          "type": "address"
        }
      ],
      "stateMutability": "view",
      "type": "function"
    },
    {
      "inputs": [],
      "name": "feeRatio",
      "outputs": [
        {
          "internalType": "uint256",
          "name": "",
          "type": "uint256"
        }
      ],
      "stateMutability": "view",
      "type": "function"
    },
    {
      "inputs": [],
      "name": "governor",
      "outputs": [
        {
          "internalType": "address",
          "name": "",
          "type": "address"
        }
      ],
      "stateMutability": "view",
      "type": "function"
    },
    {
      "inputs": [],
      "name": "maxUsdtPersonOffered",
      "outputs": [
        {
          "internalType": "uint256",
          "name": "",
          "type": "uint256"
        }
      ],
      "stateMutability": "view",
      "type": "function"
    },
    {
      "inputs": [],
      "name": "maxUsdtTotalOffered",
      "outputs": [
        {
          "internalType": "uint256",
          "name": "",
          "type": "uint256"
        }
      ],
      "stateMutability": "view",
      "type": "function"
    },
    {
      "inputs": [],
      "name": "minUsdtPersonOffered",
      "outputs": [
        {
          "internalType": "uint256",
          "name": "",
          "type": "uint256"
        }
      ],
      "stateMutability": "view",
      "type": "function"
    },
    {
      "inputs": [],
      "name": "minUsdtTotalOffered",
      "outputs": [
        {
          "internalType": "uint256",
          "name": "",
          "type": "uint256"
        }
      ],
      "stateMutability": "view",
      "type": "function"
    },
    {
      "inputs": [
        {
          "internalType": "uint256",
          "name": "amount",
          "type": "uint256"
        }
      ],
      "name": "offer",
      "outputs": [],
      "stateMutability": "payable",
      "type": "function"
    },
    {
      "inputs": [],
      "name": "price",
      "outputs": [
        {
          "internalType": "uint256",
          "name": "",
          "type": "uint256"
        }
      ],
      "stateMutability": "view",
      "type": "function"
    },
    {
      "inputs": [
        {
          "internalType": "address",
          "name": "",
          "type": "address"
        }
      ],
      "name": "purchasedCurrencyOf",
      "outputs": [
        {
          "internalType": "uint256",
          "name": "",
          "type": "uint256"
        }
      ],
      "stateMutability": "view",
      "type": "function"
    },
    {
      "inputs": [],
      "name": "recipient",
      "outputs": [
        {
          "internalType": "address payable",
          "name": "",
          "type": "address"
        }
      ],
      "stateMutability": "view",
      "type": "function"
    },
    {
      "inputs": [],
      "name": "renounceGovernorship",
      "outputs": [],
      "stateMutability": "nonpayable",
      "type": "function"
    },
    {
      "inputs": [
        {
          "internalType": "address",
          "name": "_token",
          "type": "address"
        },
        {
          "internalType": "address",
          "name": "_dst",
          "type": "address"
        }
      ],
      "name": "rescueTokens",
      "outputs": [],
      "stateMutability": "nonpayable",
      "type": "function"
    },
    {
      "inputs": [
        {
          "internalType": "address payable",
          "name": "feeOwner_",
          "type": "address"
        }
      ],
      "name": "setFeeOwner",
      "outputs": [],
      "stateMutability": "nonpayable",
      "type": "function"
    },
    {
      "inputs": [
        {
          "internalType": "uint256",
          "name": "feeRatio_",
          "type": "uint256"
        }
      ],
      "name": "setFeeRatio",
      "outputs": [],
      "stateMutability": "nonpayable",
      "type": "function"
    },
    {
      "inputs": [
        {
          "internalType": "uint256",
          "name": "maxUsdtTotalOffered_",
          "type": "uint256"
        }
      ],
      "name": "setMaxUsdtTotalOffered",
      "outputs": [],
      "stateMutability": "nonpayable",
      "type": "function"
    },
    {
      "inputs": [
        {
          "internalType": "uint256",
          "name": "minUsdtTotalOffered_",
          "type": "uint256"
        }
      ],
      "name": "setMinUsdtTotalOffered",
      "outputs": [],
      "stateMutability": "nonpayable",
      "type": "function"
    },
    {
      "inputs": [
        {
          "internalType": "address payable",
          "name": "recipient_",
          "type": "address"
        }
      ],
      "name": "setRecipient",
      "outputs": [],
      "stateMutability": "nonpayable",
      "type": "function"
    },
    {
      "inputs": [
        {
          "internalType": "uint256",
          "name": "timeClaim_",
          "type": "uint256"
        }
      ],
      "name": "setTimeClaim",
      "outputs": [],
      "stateMutability": "nonpayable",
      "type": "function"
    },
    {
      "inputs": [
        {
          "internalType": "uint256",
          "name": "timeOffer_",
          "type": "uint256"
        }
      ],
      "name": "setTimeOffer",
      "outputs": [],
      "stateMutability": "nonpayable",
      "type": "function"
    },
    {
      "inputs": [],
      "name": "settleRate",
      "outputs": [
        {
          "internalType": "uint256",
          "name": "",
          "type": "uint256"
        }
      ],
      "stateMutability": "view",
      "type": "function"
    },
    {
      "inputs": [
        {
          "internalType": "address",
          "name": "",
          "type": "address"
        }
      ],
      "name": "settledCurrencyOf",
      "outputs": [
        {
          "internalType": "uint256",
          "name": "",
          "type": "uint256"
        }
      ],
      "stateMutability": "view",
      "type": "function"
    },
    {
      "inputs": [
        {
          "internalType": "address",
          "name": "",
          "type": "address"
        }
      ],
      "name": "settledUnderlyingOf",
      "outputs": [
        {
          "internalType": "uint256",
          "name": "",
          "type": "uint256"
        }
      ],
      "stateMutability": "view",
      "type": "function"
    },
    {
      "inputs": [],
      "name": "timeClaim",
      "outputs": [
        {
          "internalType": "uint256",
          "name": "",
          "type": "uint256"
        }
      ],
      "stateMutability": "view",
      "type": "function"
    },
    {
      "inputs": [],
      "name": "timeOffer",
      "outputs": [
        {
          "internalType": "uint256",
          "name": "",
          "type": "uint256"
        }
      ],
      "stateMutability": "view",
      "type": "function"
    },
    {
      "inputs": [],
      "name": "totalClaimable",
      "outputs": [
        {
          "internalType": "bool",
          "name": "completed_",
          "type": "bool"
        },
        {
          "internalType": "uint256",
          "name": "amount",
          "type": "uint256"
        },
        {
          "internalType": "uint256",
          "name": "volume",
          "type": "uint256"
        },
        {
          "internalType": "uint256",
          "name": "rate",
          "type": "uint256"
        }
      ],
      "stateMutability": "view",
      "type": "function"
    },
    {
      "inputs": [],
      "name": "totalPurchasedCurrency",
      "outputs": [
        {
          "internalType": "uint256",
          "name": "",
          "type": "uint256"
        }
      ],
      "stateMutability": "view",
      "type": "function"
    },
    {
      "inputs": [],
      "name": "totalSettledUnderlying",
      "outputs": [
        {
          "internalType": "uint256",
          "name": "",
          "type": "uint256"
        }
      ],
      "stateMutability": "view",
      "type": "function"
    },
    {
      "inputs": [
        {
          "internalType": "address",
          "name": "newGovernor",
          "type": "address"
        }
      ],
      "name": "transferGovernorship",
      "outputs": [],
      "stateMutability": "nonpayable",
      "type": "function"
    },
    {
      "inputs": [],
      "name": "underlying",
      "outputs": [
        {
          "internalType": "address",
          "name": "",
          "type": "address"
        }
      ],
      "stateMutability": "view",
      "type": "function"
    },
    {
      "inputs": [
        {
          "internalType": "address payable",
          "name": "to",
          "type": "address"
        },
        {
          "internalType": "uint256",
          "name": "amount",
          "type": "uint256"
        },
        {
          "internalType": "uint256",
          "name": "volume",
          "type": "uint256"
        }
      ],
      "name": "withdraw",
      "outputs": [],
      "stateMutability": "nonpayable",
      "type": "function"
    },
    {
      "inputs": [],
      "name": "withdrawCurrencyToken",
      "outputs": [],
      "stateMutability": "nonpayable",
      "type": "function"
    },
    {
      "inputs": [
        {
          "internalType": "address",
          "name": "_dst",
          "type": "address"
        }
      ],
      "name": "withdrawToken",
      "outputs": [],
      "stateMutability": "nonpayable",
      "type": "function"
    },
    {
      "inputs": [],
      "name": "withdrawToken",
      "outputs": [],
      "stateMutability": "nonpayable",
      "type": "function"
    },
    {
      "inputs": [],
      "name": "withdrawable",
      "outputs": [
        {
          "internalType": "uint256",
          "name": "amt",
          "type": "uint256"
        },
        {
          "internalType": "uint256",
          "name": "vol",
          "type": "uint256"
        }
      ],
      "stateMutability": "view",
      "type": "function"
    }
  ],
  "bytecode": "0x60806040523480156200001157600080fd5b506040516200335d3803806200335d83398181016040526101a08110156200003857600080fd5b508051602082015160408301516060840151608085015160a086015160c087015160e08801516101008901516101208a01516101408b01516101608c0151610180909c01516000805460ff60a01b1916600160a01b1790559a9b999a9899979896979596949593949293919290919083831015620000f1576040805162461bcd60e51b815260206004820152601160248201527036b0bc1039b437bab6321033ba1036b4b760791b604482015290519081900360640190fd5b6001600160a01b038d166200014d576040805162461bcd60e51b815260206004820152601660248201527f676f7665726e6f725f207a65726f206164647265737300000000000000000000604482015290519081900360640190fd5b6001600160a01b038b16620001a9576040805162461bcd60e51b815260206004820152601860248201527f756e6465726c79696e675f207a65726f20616464726573730000000000000000604482015290519081900360640190fd5b6001600160a01b03861662000205576040805162461bcd60e51b815260206004820152601660248201527f6665654f776e65725f207a65726f206164647265737300000000000000000000604482015290519081900360640190fd5b6001600160a01b03871662000261576040805162461bcd60e51b815260206004820152601760248201527f726563697069656e745f207a65726f2061646472657373000000000000000000604482015290519081900360640190fd5b620002758d6001600160e01b03620003ae16565b600180546001600160a01b03808f166001600160a01b03199283161790925560028054928e169290911691909117905560038a90556004899055600b88905588881162000309576040805162461bcd60e51b815260206004820152601f60248201527f74696d65436c61696d5f2073686f756c64203e3d2074696d654f666665725f00604482015290519081900360640190fd5b600f80546001600160a01b03808a166001600160a01b031992831617909255600e8790556010805492891692909116919091179055601184905560128390558181101562000393576040805162461bcd60e51b81526020600482015260126024820152716d61782073686f756c64206774206d696e2160701b604482015290519081900360640190fd5b601391909155601455506200041d9950505050505050505050565b6001600160a01b038116620003c257600080fd5b600080546040516001600160a01b03808516939216917fc7c0c772add429241571afb3805861fb3cfa2af374534088b76cdb4325a87e9a91a3600080546001600160a01b0319166001600160a01b0392909216919091179055565b612f30806200042d6000396000f3fe6080604052600436106102bb5760003560e01c806378c8e65f1161016e578063b5c5f672116100cb578063ca628c781161007f578063e5a6b10f11610064578063e5a6b10f146107c7578063ef145178146107dc578063f27cf0631461080f576102bb565b8063ca628c781461079d578063cb2ef6f7146107b2576102bb565b8063b81d51d6116100b0578063b81d51d614610740578063b9818be114610773578063c59504cc14610788576102bb565b8063b5c5f672146106ce578063b6aa515b1461070d576102bb565b80639d9a7fe911610122578063a035b1fe11610107578063a035b1fe14610671578063a75a2a5414610686578063b3a60f961461069b576102bb565b80639d9a7fe9146106335780639da612981461065c576102bb565b806384ca93a71161015357806384ca93a7146105c157806389476069146105d65780638d52fcef14610609576102bb565b806378c8e65f1461059757806381c0c263146105ac576102bb565b806341744dd41161021c57806350188301116101d057806366d003ac116101b557806366d003ac146105505780636f307dc314610565578063761610fc1461057a576102bb565b806350188301146104e75780635431c94e14610515576102bb565b80634b104eff116102015780634b104eff1461048a5780634b34f931146104bd5780634e71d92d146102bb576102bb565b806341744dd4146104605780634838ed1914610475576102bb565b8063356130bc1161027357806336cb07631161025857806336cb0763146103bd5780633bbed4a0146103d2578063402914f514610405576102bb565b8063356130bc1461037e578063368e9d6a14610393576102bb565b806319f4ff2f116102a457806319f4ff2f1461032a57806326d7d2c31461035457806331fe2b3a14610369576102bb565b80630c340a24146102d257806316d95c1e14610303575b3480156102c757600080fd5b506102d0610839565b005b3480156102de57600080fd5b506102e7610e04565b604080516001600160a01b039092168252519081900360200190f35b34801561030f57600080fd5b50610318610e13565b60408051918252519081900360200190f35b34801561033657600080fd5b506102d06004803603602081101561034d57600080fd5b5035610e19565b34801561036057600080fd5b506102d0610e6e565b34801561037557600080fd5b50610318611256565b34801561038a57600080fd5b5061031861125c565b34801561039f57600080fd5b506102d0600480360360208110156103b657600080fd5b5035611262565b3480156103c957600080fd5b5061031861130d565b3480156103de57600080fd5b506102d0600480360360208110156103f557600080fd5b50356001600160a01b0316611313565b34801561041157600080fd5b506104386004803603602081101561042857600080fd5b50356001600160a01b03166113f4565b6040805194151585526020850193909352838301919091526060830152519081900360800190f35b34801561046c57600080fd5b5061031861175d565b34801561048157600080fd5b50610438611763565b34801561049657600080fd5b506102d0600480360360208110156104ad57600080fd5b50356001600160a01b0316611781565b3480156104c957600080fd5b506102d0600480360360208110156104e057600080fd5b5035611862565b3480156104f357600080fd5b506104fc61190e565b6040805192835260208301919091528051918290030190f35b34801561052157600080fd5b506102d06004803603604081101561053857600080fd5b506001600160a01b0381358116916020013516611b3f565b34801561055c57600080fd5b506102e7611cbc565b34801561057157600080fd5b506102e7611ccb565b6102d06004803603602081101561059057600080fd5b5035611cda565b3480156105a357600080fd5b506103186122d7565b3480156105b857600080fd5b506102d06122dd565b3480156105cd57600080fd5b50610318612356565b3480156105e257600080fd5b506102d0600480360360208110156105f957600080fd5b50356001600160a01b031661235c565b34801561061557600080fd5b506102d06004803603602081101561062c57600080fd5b50356123e7565b34801561063f57600080fd5b50610648612492565b604080519115158252519081900360200190f35b34801561066857600080fd5b5061031861249b565b34801561067d57600080fd5b506103186124a1565b34801561069257600080fd5b506103186124a7565b3480156106a757600080fd5b50610318600480360360208110156106be57600080fd5b50356001600160a01b03166124ad565b3480156106da57600080fd5b506102d0600480360360608110156106f157600080fd5b506001600160a01b0381351690602081013590604001356124bf565b34801561071957600080fd5b506102d06004803603602081101561073057600080fd5b50356001600160a01b03166126a0565b34801561074c57600080fd5b506103186004803603602081101561076357600080fd5b50356001600160a01b03166126c0565b34801561077f57600080fd5b506102e76126d2565b34801561079457600080fd5b506103186126e1565b3480156107a957600080fd5b506102d06126e7565b3480156107be57600080fd5b50610318612716565b3480156107d357600080fd5b506102e761271b565b3480156107e857600080fd5b50610318600480360360208110156107ff57600080fd5b50356001600160a01b031661272a565b34801561081b57600080fd5b506102d06004803603602081101561083257600080fd5b503561273c565b60005474010000000000000000000000000000000000000000900460ff166108a8576040805162461bcd60e51b815260206004820152601f60248201527f5265656e7472616e637947756172643a207265656e7472616e742063616c6c00604482015290519081900360640190fd5b600080547fffffffffffffffffffffff00ffffffffffffffffffffffffffffffffffffffff169055600b54421015610927576040805162461bcd60e51b815260206004820152601760248201527f4974206973206e6f742074696d65436c61696d20796574000000000000000000604482015290519081900360640190fd5b6011546005541015610b335733600090815260066020526040902054610994576040805162461bcd60e51b815260206004820152601e60248201527f7075726368617365642043757272656e63792073686f756c6420677420300000604482015290519081900360640190fd5b600554600154604080517f70a0823100000000000000000000000000000000000000000000000000000000815230600482015290516001600160a01b03909216916370a0823191602480820192602092909190829003018186803b1580156109fb57600080fd5b505afa158015610a0f573d6000803e3d6000fd5b505050506040513d6020811015610a2557600080fd5b50511015610a645760405162461bcd60e51b815260040180806020018281038252602d815260200180612de1602d913960400191505060405180910390fd5b3360009081526006602052604081208054919055600554610a8b908263ffffffff6127e816565b6005556001546001600160a01b0316610ad157604051339082156108fc029083906000818181858888f19350505050158015610acb573d6000803e3d6000fd5b50610aee565b600154610aee906001600160a01b0316338363ffffffff61283316565b600554604080518381526020810192909252805133927f0308c23d95247f0643fa21764a468f2ca3b9ef1ec7377d2370ba3e7c0ac9dcd292908290030190a250610dc3565b336000908152600960205260409020541580610b5c5750336000908152600d6020526040902054155b610bad576040805162461bcd60e51b815260206004820152600f60248201527f736574746c656420616c72656164790000000000000000000000000000000000604482015290519081900360640190fd5b600080600080610bbc336113f4565b935093509350935083610bfa57600780547fffffffffffffffffffffffffffffffffffffffffffffffffffffffffffffff00166001179055600a8190555b8215610cc057336000908152600d6020526040902054610c20908463ffffffff6128b316565b336000908152600d6020526040902055600c54610c43908463ffffffff6128b316565b600c556001546001600160a01b0316610ca35760405133908490600081818185875af1925050503d8060008114610c96576040519150601f19603f3d011682016040523d82523d6000602084013e610c9b565b606091505b505050610cc0565b600154610cc0906001600160a01b0316338563ffffffff61283316565b600b54421015610d015760405162461bcd60e51b8152600401808060200182810382526028815260200180612e9d6028913960400191505060405180910390fd5b600b544210158015610d135750600082115b15610d7b5733600090815260096020526040902054610d38908363ffffffff6128b316565b33600090815260096020526040902055600854610d5b908363ffffffff6128b316565b600855600254610d7b906001600160a01b0316338463ffffffff61283316565b6040805184815260208101849052808201839052905133917f45c072aa05b9853b5a993de7a28bc332ee01404a628cec1a23ce0f659f842ef1919081900360600190a2505050505b600080547fffffffffffffffffffffff00ffffffffffffffffffffffffffffffffffffffff1674010000000000000000000000000000000000000000179055565b6000546001600160a01b031681565b60115481565b6000546001600160a01b03163314610e3057600080fd5b600e81905560408051828152905133917f2f407797e17e05867e2657ee390ad55cf8dbf1a504056f7b965c645c4821cffd919081900360200190a250565b6000546001600160a01b03163314610e8557600080fd5b600b54421015610edc576040805162461bcd60e51b815260206004820152601760248201527f4974206973206e6f742074696d65436c61696d20796574000000000000000000604482015290519081900360640190fd5b6011546005541015610f35576040805162461bcd60e51b815260206004820152600e60248201527f6c657373206d696e20546f74616c000000000000000000000000000000000000604482015290519081900360640190fd5b6000610f3f61190e565b5060015490915060009081906001600160a01b03166110f757479250610f88670de0b6b3a7640000610f7c600e548661290d90919063ffffffff16565b9063ffffffff61296616565b9150610f9a838363ffffffff6127e816565b600f546040519192506000916001600160a01b039091169083908381818185875af1925050503d8060008114610fec576040519150601f19603f3d011682016040523d82523d6000602084013e610ff1565b606091505b5050905080611047576040805162461bcd60e51b815260206004820152600e60248201527f726563697069656e74206661696c000000000000000000000000000000000000604482015290519081900360640190fd5b6010546040516001600160a01b03909116908490600081818185875af1925050503d8060008114611094576040519150601f19603f3d011682016040523d82523d6000602084013e611099565b606091505b505080915050806110f1576040805162461bcd60e51b815260206004820152600860248201527f666565206661696c000000000000000000000000000000000000000000000000604482015290519081900360640190fd5b50611207565b600154604080517f70a0823100000000000000000000000000000000000000000000000000000000815230600482015290516001600160a01b03909216916370a0823191602480820192602092909190829003018186803b15801561115b57600080fd5b505afa15801561116f573d6000803e3d6000fd5b505050506040513d602081101561118557600080fd5b5051600e549093506111ac90670de0b6b3a764000090610f7c90869063ffffffff61290d16565b91506111be838363ffffffff6127e816565b600f546001549192506111e4916001600160a01b0390811691168363ffffffff61283316565b601054600154611207916001600160a01b0391821691168463ffffffff61283316565b600f54604080518581526020810184905281516001600160a01b03909316927ff0fa8383bc9412382eb19bc4c20cb3a68b6a8c505d5deb5fcd132e260250f983929181900390910190a2505050565b60135481565b600b5481565b6000546001600160a01b0316331461127957600080fd5b60045481116112cf576040805162461bcd60e51b815260206004820152601f60248201527f74696d65436c61696d5f2073686f756c64203e3d2074696d654f666665725f00604482015290519081900360640190fd5b600b81905560408051828152905133917fd9e91945b832e3dfbe747cbe4eda3f287b36b5cef70f8805896fefed5f348219919081900360200190a250565b60085481565b6000546001600160a01b0316331461132a57600080fd5b6001600160a01b038116611385576040805162461bcd60e51b815260206004820152601760248201527f726563697069656e745f207a65726f2061646472657373000000000000000000604482015290519081900360640190fd5b600f80546001600160a01b0383167fffffffffffffffffffffffff00000000000000000000000000000000000000009091168117909155604080519182525133917ff5aa4a25cf0723515ed5e2f2313756dd44c78ee369f3ab7497a27ed89c2c1f64919081900360200190a250565b60075460ff1660008080831561140d5750600a54611658565b6001546000906001600160a01b0316156114b657600154604080517f70a0823100000000000000000000000000000000000000000000000000000000815230600482015290516001600160a01b03909216916370a0823191602480820192602092909190829003018186803b15801561148557600080fd5b505afa158015611499573d6000803e3d6000fd5b505050506040513d60208110156114af57600080fd5b50516114b8565b475b600254604080517f70a0823100000000000000000000000000000000000000000000000000000000815230600482015290519293506000926001600160a01b03909216916370a0823191602480820192602092909190829003018186803b15801561152257600080fd5b505afa158015611536573d6000803e3d6000fd5b505050506040513d602081101561154c57600080fd5b50519050806115a2576040805162461bcd60e51b815260206004820152600e60248201527f7a65726f20746f6b656e2062616c000000000000000000000000000000000000604482015290519081900360640190fd5b600082116115f7576040805162461bcd60e51b815260206004820152600d60248201527f7a65726f20637572722062616c00000000000000000000000000000000000000604482015290519081900360640190fd5b61160f82670de0b6b3a764000063ffffffff61290d16565b60035461162390839063ffffffff61290d16565b10156116495761164282610f7c6003548461290d90919063ffffffff16565b9250611655565b670de0b6b3a764000092505b50505b60006001600160a01b03861615611687576001600160a01b03861660009081526006602052604090205461168b565b6005545b905060006116ab670de0b6b3a7640000610f7c848663ffffffff61290d16565b90506116fd6001600160a01b038816156116dd576001600160a01b0388166000908152600d60205260409020546116e1565b600c545b6116f1848463ffffffff6127e816565b9063ffffffff6127e816565b94506117526001600160a01b0388161561172f576001600160a01b038816600090815260096020526040902054611733565b6008545b6003546116f190610f7c85670de0b6b3a764000063ffffffff61290d16565b935050509193509193565b600e5481565b60008060008061177360006113f4565b935093509350935090919293565b6000546001600160a01b0316331461179857600080fd5b6001600160a01b0381166117f3576040805162461bcd60e51b815260206004820152601660248201527f6665654f776e65725f207a65726f206164647265737300000000000000000000604482015290519081900360640190fd5b601080546001600160a01b0383167fffffffffffffffffffffffff00000000000000000000000000000000000000009091168117909155604080519182525133917fe0bbf1a07376101b84e5aff236bc710878c9a975168510f821b4a735c0d35e51919081900360200190a250565b6000546001600160a01b0316331461187957600080fd5b6011548110156118d0576040805162461bcd60e51b815260206004820152601160248201527f6d61782073686f756c64206774206d696e000000000000000000000000000000604482015290519081900360640190fd5b601281905560408051828152905133917f6a1dde4e7360faddc528c5eddc375c301b03a6ae0fa8c9749b5d14691fad51fa919081900360200190a250565b600754600090819060ff1661192857506000905080611b3b565b6001546001600160a01b0316156119ce57600154604080517f70a0823100000000000000000000000000000000000000000000000000000000815230600482015290516001600160a01b03909216916370a0823191602480820192602092909190829003018186803b15801561199d57600080fd5b505afa1580156119b1573d6000803e3d6000fd5b505050506040513d60208110156119c757600080fd5b50516119d0565b475b9150611a75611a10670de0b6b3a7640000610f7c611a01600a54670de0b6b3a76400006127e890919063ffffffff16565b6005549063ffffffff61290d16565b6116f1611a68670de0b6b3a7640000610f7c611a3f600a54670de0b6b3a76400006127e890919063ffffffff16565b611a5c600a54610f7c60035460085461290d90919063ffffffff16565b9063ffffffff61290d16565b859063ffffffff6128b316565b9150611b38611a97600354610f7c600a5460055461290d90919063ffffffff16565b600854600254604080517f70a0823100000000000000000000000000000000000000000000000000000000815230600482015290516116f193926001600160a01b0316916370a08231916024808301926020929190829003018186803b158015611b0057600080fd5b505afa158015611b14573d6000803e3d6000fd5b505050506040513d6020811015611b2a57600080fd5b50519063ffffffff6128b316565b90505b9091565b6000546001600160a01b03163314611b5657600080fd5b6001600160a01b038116611bb1576040805162461bcd60e51b815260206004820152601160248201527f5f647374207a65726f2061646472657373000000000000000000000000000000604482015290519081900360640190fd5b6001600160a01b038216611c0c576040805162461bcd60e51b815260206004820152601360248201527f5f746f6b656e207a65726f206164647265737300000000000000000000000000604482015290519081900360640190fd5b604080517f70a0823100000000000000000000000000000000000000000000000000000000815230600482015290516000916001600160a01b038516916370a0823191602480820192602092909190829003018186803b158015611c6f57600080fd5b505afa158015611c83573d6000803e3d6000fd5b505050506040513d6020811015611c9957600080fd5b50519050611cb76001600160a01b038416838363ffffffff61283316565b505050565b600f546001600160a01b031681565b6002546001600160a01b031681565b60005474010000000000000000000000000000000000000000900460ff16611d49576040805162461bcd60e51b815260206004820152601f60248201527f5265656e7472616e637947756172643a207265656e7472616e742063616c6c00604482015290519081900360640190fd5b600080547fffffffffffffffffffffff00ffffffffffffffffffffffffffffffffffffffff169055323314611dc5576040805162461bcd60e51b815260206004820152600c60248201527f6f6e6c79206163636f756e740000000000000000000000000000000000000000604482015290519081900360640190fd5b3360009081526006602052604090205415611e27576040805162461bcd60e51b815260206004820152600f60248201527f6f66666572656420616c72656164790000000000000000000000000000000000604482015290519081900360640190fd5b600b544210611e7d576040805162461bcd60e51b815260206004820152600760248201527f6578706972656400000000000000000000000000000000000000000000000000604482015290519081900360640190fd5b600454421015611ed4576040805162461bcd60e51b815260206004820152601160248201527f69742773206e6f742074696d6520796574000000000000000000000000000000604482015290519081900360640190fd5b6001546001600160a01b0316156120b457600154604080517fdd62ed3e000000000000000000000000000000000000000000000000000000008152336004820152306024820152905183926001600160a01b03169163dd62ed3e916044808301926020929190829003018186803b158015611f4e57600080fd5b505afa158015611f62573d6000803e3d6000fd5b505050506040513d6020811015611f7857600080fd5b50511015611fcd576040805162461bcd60e51b815260206004820152601460248201527f616c6c6f77616e6365206e6f7420656e6f756768000000000000000000000000604482015290519081900360640190fd5b600154604080517f70a08231000000000000000000000000000000000000000000000000000000008152336004820152905183926001600160a01b0316916370a08231916024808301926020929190829003018186803b15801561203057600080fd5b505afa158015612044573d6000803e3d6000fd5b505050506040513d602081101561205a57600080fd5b505110156120af576040805162461bcd60e51b815260206004820152601260248201527f62616c616e6365206e6f7420656e6f7567680000000000000000000000000000604482015290519081900360640190fd5b6120b7565b50345b6014548111156120f85760405162461bcd60e51b8152600401808060200182810382526022815260200180612e516022913960400191505060405180910390fd5b6013548110156121395760405162461bcd60e51b8152600401808060200182810382526022815260200180612e2f6022913960400191505060405180910390fd5b6000811161218e576040805162461bcd60e51b815260206004820152600860248201527f6e6f2071756f7461000000000000000000000000000000000000000000000000604482015290519081900360640190fd5b6012546005546121a4908363ffffffff6128b316565b11156121e15760405162461bcd60e51b8152600401808060200182810382526036815260200180612ec56036913960400191505060405180910390fd5b33600090815260066020526040902054612201908263ffffffff6128b316565b33600090815260066020526040902055600554612224908263ffffffff6128b316565b6005556001546001600160a01b03161561225657600154612256906001600160a01b031633308463ffffffff6129a816565b600554604080518381526020810192909252805133927f4a68fde121386ffcfc9555407bfb38625033a0d0d3726b00f56b4ab304b5544792908290030190a250600080547fffffffffffffffffffffff00ffffffffffffffffffffffffffffffffffffffff1674010000000000000000000000000000000000000000179055565b60045481565b6000546001600160a01b031633146122f457600080fd5b600080546040516001600160a01b03909116907fc7c0c772add429241571afb3805861fb3cfa2af374534088b76cdb4325a87e9a908390a3600080547fffffffffffffffffffffffff0000000000000000000000000000000000000000169055565b60055481565b6000546001600160a01b0316331461237357600080fd5b6001600160a01b0381166123ce576040805162461bcd60e51b815260206004820152601160248201527f5f647374207a65726f2061646472657373000000000000000000000000000000604482015290519081900360640190fd5b6002546123e4906001600160a01b031682611b3f565b50565b6000546001600160a01b031633146123fe57600080fd5b80600b5411612454576040805162461bcd60e51b815260206004820152601f60248201527f74696d65436c61696d5f2073686f756c64203e3d2074696d654f666665725f00604482015290519081900360640190fd5b600481905560408051828152905133917fe01f1ed196da69f2c09d482f348d816c49ed08a119d239a06d95798a0692239d919081900360200190a250565b60075460ff1681565b60125481565b60035481565b60145481565b60066020526000908152604090205481565b6000546001600160a01b031633146124d657600080fd5b6001600160a01b038316612531576040805162461bcd60e51b815260206004820152600f60248201527f746f207a65726f20616464726573730000000000000000000000000000000000604482015290519081900360640190fd5b60075460ff16612588576040805162461bcd60e51b815260206004820152600b60248201527f756e636f6d706c65746564000000000000000000000000000000000000000000604482015290519081900360640190fd5b60008061259361190e565b915091506125a18483612a36565b93506125ad8382612a36565b6001549093506001600160a01b0316612616576040516001600160a01b038616908590600081818185875af1925050503d8060008114612609576040519150601f19603f3d011682016040523d82523d6000602084013e61260e565b606091505b505050612633565b600154612633906001600160a01b0316868663ffffffff61283316565b600254612650906001600160a01b0316868563ffffffff61283316565b604080516001600160a01b03871681526020810186905280820185905290517f92ccf450a286a957af52509bc1c9939d1a6a481783e142e41e2499f0bb66ebc69181900360600190a15050505050565b6000546001600160a01b031633146126b757600080fd5b6123e481612a4c565b60096020526000908152604090205481565b6010546001600160a01b031681565b600a5481565b6000546001600160a01b031633146126fe57600080fd5b600254612714906001600160a01b031633611b3f565b565b600281565b6001546001600160a01b031681565b600d6020526000908152604090205481565b6000546001600160a01b0316331461275357600080fd5b8060125410156127aa576040805162461bcd60e51b815260206004820152601160248201527f6d61782073686f756c64206774206d696e000000000000000000000000000000604482015290519081900360640190fd5b601181905560408051828152905133917f4ab6e4a9f209d1fe509cfa6eb3c2037dbf5874b2dd1cbd60b50a1f2e8d6898d7919081900360200190a250565b600061282a83836040518060400160405280601e81526020017f536166654d6174683a207375627472616374696f6e206f766572666c6f770000815250612ad2565b90505b92915050565b604080516001600160a01b038416602482015260448082018490528251808303909101815260649091019091526020810180517bffffffffffffffffffffffffffffffffffffffffffffffffffffffff167fa9059cbb00000000000000000000000000000000000000000000000000000000179052611cb7908490612b69565b60008282018381101561282a576040805162461bcd60e51b815260206004820152601b60248201527f536166654d6174683a206164646974696f6e206f766572666c6f770000000000604482015290519081900360640190fd5b60008261291c5750600061282d565b8282028284828161292957fe5b041461282a5760405162461bcd60e51b8152600401808060200182810382526021815260200180612e0e6021913960400191505060405180910390fd5b600061282a83836040518060400160405280601a81526020017f536166654d6174683a206469766973696f6e206279207a65726f000000000000815250612d3f565b604080516001600160a01b0380861660248301528416604482015260648082018490528251808303909101815260849091019091526020810180517bffffffffffffffffffffffffffffffffffffffffffffffffffffffff167f23b872dd00000000000000000000000000000000000000000000000000000000179052612a30908590612b69565b50505050565b6000818310612a45578161282a565b5090919050565b6001600160a01b038116612a5f57600080fd5b600080546040516001600160a01b03808516939216917fc7c0c772add429241571afb3805861fb3cfa2af374534088b76cdb4325a87e9a91a3600080547fffffffffffffffffffffffff0000000000000000000000000000000000000000166001600160a01b0392909216919091179055565b60008184841115612b615760405162461bcd60e51b81526004018080602001828103825283818151815260200191508051906020019080838360005b83811015612b26578181015183820152602001612b0e565b50505050905090810190601f168015612b535780820380516001836020036101000a031916815260200191505b509250505060405180910390fd5b505050900390565b612b7b826001600160a01b0316612da4565b612bcc576040805162461bcd60e51b815260206004820152601f60248201527f5361666545524332303a2063616c6c20746f206e6f6e2d636f6e747261637400604482015290519081900360640190fd5b60006060836001600160a01b0316836040518082805190602001908083835b60208310612c2857805182527fffffffffffffffffffffffffffffffffffffffffffffffffffffffffffffffe09092019160209182019101612beb565b6001836020036101000a0380198251168184511680821785525050505050509050019150506000604051808303816000865af19150503d8060008114612c8a576040519150601f19603f3d011682016040523d82523d6000602084013e612c8f565b606091505b509150915081612ce6576040805162461bcd60e51b815260206004820181905260248201527f5361666545524332303a206c6f772d6c6576656c2063616c6c206661696c6564604482015290519081900360640190fd5b805115612a3057808060200190516020811015612d0257600080fd5b5051612a305760405162461bcd60e51b815260040180806020018281038252602a815260200180612e73602a913960400191505060405180910390fd5b60008183612d8e5760405162461bcd60e51b8152602060048201818152835160248401528351909283926044909101919085019080838360008315612b26578181015183820152602001612b0e565b506000838581612d9a57fe5b0495945050505050565b6000813f7fc5d2460186f7233c927e7db2dcc703c0e500b653ca82273b7bfad8045d85a470818114801590612dd857508115155b94935050505056fe2050757263686173652055736474206e756d6265722073686f756c64206e6f742067742062616c616e61636521536166654d6174683a206d756c7469706c69636174696f6e206f766572666c6f77616d6f756e742073686f756c64206774206d696e20506572736f6e4f666665726564616d6f756e742073686f756c64206c74206d617820506572736f6e4f6666657265645361666545524332303a204552433230206f7065726174696f6e20646964206e6f7420737563636565644974206973206e6f742074696d65436c61696d20746f20736574746c6520756e6465726c79696e67746f74616c50757263686173656443757272656e63792073686f756c64206e6f74206774206d617820546f74616c4f66666572656473a2646970667358221220a76426312ea11b2ce7e9a26ab14f9f5f3310401a2354f97bea2cd42624d9585964736f6c63430006020033",
  "linkReferences": {},
  "deployedLinkReferences": {}
}