{
  "_format": "hh-sol-artifact-1",
  "contractName": "PublicSale",
  "sourceName": "contracts/PublicSale.sol",
  "abi": [
    {
      "inputs": [
        {
          "internalType": "address",
          "name": "governor_",
          "type": "address"
        },
        {
          "internalType": "address",
          "name": "currency_",
          "type": "address"
        },
        {
          "internalType": "address",
          "name": "underlying_",
          "type": "address"
        },
        {
          "internalType": "uint256",
          "name": "price_",
          "type": "uint256"
        },
        {
          "internalType": "uint256",
          "name": "timeOffer_",
          "type": "uint256"
        },
        {
          "internalType": "uint256",
          "name": "timeClaim_",
          "type": "uint256"
        },
        {
          "internalType": "address payable",
          "name": "recipient_",
          "type": "address"
        },
        {
          "internalType": "address payable",
          "name": "feeOwner_",
          "type": "address"
        },
        {
          "internalType": "uint256",
          "name": "feeRatio_",
          "type": "uint256"
        },
        {
          "internalType": "uint256",
          "name": "minUsdtTotalOffered_",
          "type": "uint256"
        },
        {
          "internalType": "uint256",
          "name": "maxUsdtTotalOffered_",
          "type": "uint256"
        },
        {
          "internalType": "uint256",
          "name": "minUsdtPersonOffered_",
          "type": "uint256"
        },
        {
          "internalType": "uint256",
          "name": "maxUsdtPersonOffered_",
          "type": "uint256"
        }
      ],
      "stateMutability": "nonpayable",
      "type": "constructor"
    },
    {
      "anonymous": false,
      "inputs": [
        {
          "indexed": true,
          "internalType": "address",
          "name": "acct",
          "type": "address"
        },
        {
          "indexed": false,
          "internalType": "uint256",
          "name": "amount",
          "type": "uint256"
        },
        {
          "indexed": false,
          "internalType": "uint256",
          "name": "volume",
          "type": "uint256"
        },
        {
          "indexed": false,
          "internalType": "uint256",
          "name": "rate",
          "type": "uint256"
        }
      ],
      "name": "Claim",
      "type": "event"
    },
    {
      "anonymous": false,
      "inputs": [
        {
          "indexed": true,
          "internalType": "address",
          "name": "previousGovernor",
          "type": "address"
        },
        {
          "indexed": true,
          "internalType": "address",
          "name": "newGovernor",
          "type": "address"
        }
      ],
      "name": "GovernorshipTransferred",
      "type": "event"
    },
    {
      "anonymous": false,
      "inputs": [
        {
          "indexed": true,
          "internalType": "address",
          "name": "acct",
          "type": "address"
        },
        {
          "indexed": false,
          "internalType": "uint256",
          "name": "amount",
          "type": "uint256"
        },
        {
          "indexed": false,
          "internalType": "uint256",
          "name": "totalCurrency",
          "type": "uint256"
        }
      ],
      "name": "Offer",
      "type": "event"
    },
    {
      "anonymous": false,
      "inputs": [
        {
          "indexed": true,
          "internalType": "address",
          "name": "addr",
          "type": "address"
        },
        {
          "indexed": false,
          "internalType": "uint256",
          "name": "volumeUsdt",
          "type": "uint256"
        },
        {
          "indexed": false,
          "internalType": "uint256",
          "name": "total",
          "type": "uint256"
        }
      ],
      "name": "Revert",
      "type": "event"
    },
    {
      "anonymous": false,
      "inputs": [
        {
          "indexed": true,
          "internalType": "address",
          "name": "acct",
          "type": "address"
        },
        {
          "indexed": false,
          "internalType": "address",
          "name": "add",
          "type": "address"
        }
      ],
      "name": "SetFeeOwner",
      "type": "event"
    },
    {
      "anonymous": false,
      "inputs": [
        {
          "indexed": true,
          "internalType": "address",
          "name": "acct",
          "type": "address"
        },
        {
          "indexed": false,
          "internalType": "uint256",
          "name": "amount",
          "type": "uint256"
        }
      ],
      "name": "SetFeeRatio",
      "type": "event"
    },
    {
      "anonymous": false,
      "inputs": [
        {
          "indexed": true,
          "internalType": "address",
          "name": "acct",
          "type": "address"
        },
        {
          "indexed": false,
          "internalType": "uint256",
          "name": "amount",
          "type": "uint256"
        }
      ],
      "name": "SetMaxUsdtTotalOffered",
      "type": "event"
    },
    {
      "anonymous": false,
      "inputs": [
        {
          "indexed": true,
          "internalType": "address",
          "name": "acct",
          "type": "address"
        },
        {
          "indexed": false,
          "internalType": "uint256",
          "name": "amount",
          "type": "uint256"
        }
      ],
      "name": "SetMinUsdtTotalOffered",
      "type": "event"
    },
    {
      "anonymous": false,
      "inputs": [
        {
          "indexed": true,
          "internalType": "address",
          "name": "acct",
          "type": "address"
        },
        {
          "indexed": false,
          "internalType": "address",
          "name": "add",
          "type": "address"
        }
      ],
      "name": "SetRecipient",
      "type": "event"
    },
    {
      "anonymous": false,
      "inputs": [
        {
          "indexed": true,
          "internalType": "address",
          "name": "acct",
          "type": "address"
        },
        {
          "indexed": false,
          "internalType": "uint256",
          "name": "amount",
          "type": "uint256"
        }
      ],
      "name": "SetTimeClaim",
      "type": "event"
    },
    {
      "anonymous": false,
      "inputs": [
        {
          "indexed": true,
          "internalType": "address",
          "name": "acct",
          "type": "address"
        },
        {
          "indexed": false,
          "internalType": "uint256",
          "name": "amount",
          "type": "uint256"
        }
      ],
      "name": "SetTimeOffer",
      "type": "event"
    },
    {
      "anonymous": false,
      "inputs": [
        {
          "indexed": true,
          "internalType": "address",
          "name": "addr",
          "type": "address"
        },
        {
          "indexed": false,
          "internalType": "uint256",
          "name": "balance",
          "type": "uint256"
        },
        {
          "indexed": false,
          "internalType": "uint256",
          "name": "recipientBalance",
          "type": "uint256"
        }
      ],
      "name": "WithdrawCurrency",
      "type": "event"
    },
    {
      "anonymous": false,
      "inputs": [
        {
          "indexed": false,
          "internalType": "address",
          "name": "to",
          "type": "address"
        },
        {
          "indexed": false,
          "internalType": "uint256",
          "name": "amount",
          "type": "uint256"
        },
        {
          "indexed": false,
          "internalType": "uint256",
          "name": "volume",
          "type": "uint256"
        }
      ],
      "name": "Withdrawn",
      "type": "event"
    },
    {
      "stateMutability": "nonpayable",
      "type": "fallback"
    },
    {
      "inputs": [],
      "name": "claim",
      "outputs": [],
      "stateMutability": "nonpayable",
      "type": "function"
    },
    {
      "inputs": [
        {
          "internalType": "address",
          "name": "acct",
          "type": "address"
        }
      ],
      "name": "claimable",
      "outputs": [
        {
          "internalType": "bool",
          "name": "completed_",
          "type": "bool"
        },
        {
          "internalType": "uint256",
          "name": "amount",
          "type": "uint256"
        },
        {
          "internalType": "uint256",
          "name": "volume",
          "type": "uint256"
        },
        {
          "internalType": "uint256",
          "name": "rate",
          "type": "uint256"
        }
      ],
      "stateMutability": "view",
      "type": "function"
    },
    {
      "inputs": [],
      "name": "completed",
      "outputs": [
        {
          "internalType": "bool",
          "name": "",
          "type": "bool"
        }
      ],
      "stateMutability": "view",
      "type": "function"
    },
    {
      "inputs": [],
      "name": "contractType",
      "outputs": [
        {
          "internalType": "uint256",
          "name": "",
          "type": "uint256"
        }
      ],
      "stateMutability": "view",
      "type": "function"
    },
    {
      "inputs": [],
      "name": "currency",
      "outputs": [
        {
          "internalType": "address",
          "name": "",
          "type": "address"
        }
      ],
      "stateMutability": "view",
      "type": "function"
    },
    {
      "inputs": [],
      "name": "feeOwner",
      "outputs": [
        {
          "internalType": "address payable",
          "name": "",
          "type": "address"
        }
      ],
      "stateMutability": "view",
      "type": "function"
    },
    {
      "inputs": [],
      "name": "feeRatio",
      "outputs": [
        {
          "internalType": "uint256",
          "name": "",
          "type": "uint256"
        }
      ],
      "stateMutability": "view",
      "type": "function"
    },
    {
      "inputs": [],
      "name": "governor",
      "outputs": [
        {
          "internalType": "address",
          "name": "",
          "type": "address"
        }
      ],
      "stateMutability": "view",
      "type": "function"
    },
    {
      "inputs": [],
      "name": "maxUsdtPersonOffered",
      "outputs": [
        {
          "internalType": "uint256",
          "name": "",
          "type": "uint256"
        }
      ],
      "stateMutability": "view",
      "type": "function"
    },
    {
      "inputs": [],
      "name": "maxUsdtTotalOffered",
      "outputs": [
        {
          "internalType": "uint256",
          "name": "",
          "type": "uint256"
        }
      ],
      "stateMutability": "view",
      "type": "function"
    },
    {
      "inputs": [],
      "name": "minUsdtPersonOffered",
      "outputs": [
        {
          "internalType": "uint256",
          "name": "",
          "type": "uint256"
        }
      ],
      "stateMutability": "view",
      "type": "function"
    },
    {
      "inputs": [],
      "name": "minUsdtTotalOffered",
      "outputs": [
        {
          "internalType": "uint256",
          "name": "",
          "type": "uint256"
        }
      ],
      "stateMutability": "view",
      "type": "function"
    },
    {
      "inputs": [
        {
          "internalType": "uint256",
          "name": "amount",
          "type": "uint256"
        }
      ],
      "name": "offer",
      "outputs": [],
      "stateMutability": "nonpayable",
      "type": "function"
    },
    {
      "inputs": [],
      "name": "price",
      "outputs": [
        {
          "internalType": "uint256",
          "name": "",
          "type": "uint256"
        }
      ],
      "stateMutability": "view",
      "type": "function"
    },
    {
      "inputs": [
        {
          "internalType": "address",
          "name": "",
          "type": "address"
        }
      ],
      "name": "purchasedCurrencyOf",
      "outputs": [
        {
          "internalType": "uint256",
          "name": "",
          "type": "uint256"
        }
      ],
      "stateMutability": "view",
      "type": "function"
    },
    {
      "inputs": [],
      "name": "recipient",
      "outputs": [
        {
          "internalType": "address payable",
          "name": "",
          "type": "address"
        }
      ],
      "stateMutability": "view",
      "type": "function"
    },
    {
      "inputs": [],
      "name": "renounceGovernorship",
      "outputs": [],
      "stateMutability": "nonpayable",
      "type": "function"
    },
    {
      "inputs": [
        {
          "internalType": "address",
          "name": "_token",
          "type": "address"
        },
        {
          "internalType": "address",
          "name": "_dst",
          "type": "address"
        }
      ],
      "name": "rescueTokens",
      "outputs": [],
      "stateMutability": "nonpayable",
      "type": "function"
    },
    {
      "inputs": [
        {
          "internalType": "address payable",
          "name": "feeOwner_",
          "type": "address"
        }
      ],
      "name": "setFeeOwner",
      "outputs": [],
      "stateMutability": "nonpayable",
      "type": "function"
    },
    {
      "inputs": [
        {
          "internalType": "uint256",
          "name": "feeRatio_",
          "type": "uint256"
        }
      ],
      "name": "setFeeRatio",
      "outputs": [],
      "stateMutability": "nonpayable",
      "type": "function"
    },
    {
      "inputs": [
        {
          "internalType": "uint256",
          "name": "maxUsdtTotalOffered_",
          "type": "uint256"
        }
      ],
      "name": "setMaxUsdtTotalOffered",
      "outputs": [],
      "stateMutability": "nonpayable",
      "type": "function"
    },
    {
      "inputs": [
        {
          "internalType": "uint256",
          "name": "minUsdtTotalOffered_",
          "type": "uint256"
        }
      ],
      "name": "setMinUsdtTotalOffered",
      "outputs": [],
      "stateMutability": "nonpayable",
      "type": "function"
    },
    {
      "inputs": [
        {
          "internalType": "address payable",
          "name": "recipient_",
          "type": "address"
        }
      ],
      "name": "setRecipient",
      "outputs": [],
      "stateMutability": "nonpayable",
      "type": "function"
    },
    {
      "inputs": [
        {
          "internalType": "uint256",
          "name": "timeClaim_",
          "type": "uint256"
        }
      ],
      "name": "setTimeClaim",
      "outputs": [],
      "stateMutability": "nonpayable",
      "type": "function"
    },
    {
      "inputs": [
        {
          "internalType": "uint256",
          "name": "timeOffer_",
          "type": "uint256"
        }
      ],
      "name": "setTimeOffer",
      "outputs": [],
      "stateMutability": "nonpayable",
      "type": "function"
    },
    {
      "inputs": [],
      "name": "settleRate",
      "outputs": [
        {
          "internalType": "uint256",
          "name": "",
          "type": "uint256"
        }
      ],
      "stateMutability": "view",
      "type": "function"
    },
    {
      "inputs": [
        {
          "internalType": "address",
          "name": "",
          "type": "address"
        }
      ],
      "name": "settledCurrencyOf",
      "outputs": [
        {
          "internalType": "uint256",
          "name": "",
          "type": "uint256"
        }
      ],
      "stateMutability": "view",
      "type": "function"
    },
    {
      "inputs": [
        {
          "internalType": "address",
          "name": "",
          "type": "address"
        }
      ],
      "name": "settledUnderlyingOf",
      "outputs": [
        {
          "internalType": "uint256",
          "name": "",
          "type": "uint256"
        }
      ],
      "stateMutability": "view",
      "type": "function"
    },
    {
      "inputs": [],
      "name": "timeClaim",
      "outputs": [
        {
          "internalType": "uint256",
          "name": "",
          "type": "uint256"
        }
      ],
      "stateMutability": "view",
      "type": "function"
    },
    {
      "inputs": [],
      "name": "timeOffer",
      "outputs": [
        {
          "internalType": "uint256",
          "name": "",
          "type": "uint256"
        }
      ],
      "stateMutability": "view",
      "type": "function"
    },
    {
      "inputs": [],
      "name": "totalClaimable",
      "outputs": [
        {
          "internalType": "bool",
          "name": "completed_",
          "type": "bool"
        },
        {
          "internalType": "uint256",
          "name": "amount",
          "type": "uint256"
        },
        {
          "internalType": "uint256",
          "name": "volume",
          "type": "uint256"
        },
        {
          "internalType": "uint256",
          "name": "rate",
          "type": "uint256"
        }
      ],
      "stateMutability": "view",
      "type": "function"
    },
    {
      "inputs": [],
      "name": "totalPurchasedCurrency",
      "outputs": [
        {
          "internalType": "uint256",
          "name": "",
          "type": "uint256"
        }
      ],
      "stateMutability": "view",
      "type": "function"
    },
    {
      "inputs": [],
      "name": "totalSettledUnderlying",
      "outputs": [
        {
          "internalType": "uint256",
          "name": "",
          "type": "uint256"
        }
      ],
      "stateMutability": "view",
      "type": "function"
    },
    {
      "inputs": [
        {
          "internalType": "address",
          "name": "newGovernor",
          "type": "address"
        }
      ],
      "name": "transferGovernorship",
      "outputs": [],
      "stateMutability": "nonpayable",
      "type": "function"
    },
    {
      "inputs": [],
      "name": "underlying",
      "outputs": [
        {
          "internalType": "address",
          "name": "",
          "type": "address"
        }
      ],
      "stateMutability": "view",
      "type": "function"
    },
    {
      "inputs": [
        {
          "internalType": "address payable",
          "name": "to",
          "type": "address"
        },
        {
          "internalType": "uint256",
          "name": "amount",
          "type": "uint256"
        },
        {
          "internalType": "uint256",
          "name": "volume",
          "type": "uint256"
        }
      ],
      "name": "withdraw",
      "outputs": [],
      "stateMutability": "nonpayable",
      "type": "function"
    },
    {
      "inputs": [],
      "name": "withdrawCurrencyToken",
      "outputs": [],
      "stateMutability": "nonpayable",
      "type": "function"
    },
    {
      "inputs": [
        {
          "internalType": "address payable",
          "name": "_dst",
          "type": "address"
        }
      ],
      "name": "withdrawEth",
      "outputs": [],
      "stateMutability": "nonpayable",
      "type": "function"
    },
    {
      "inputs": [],
      "name": "withdrawEth",
      "outputs": [],
      "stateMutability": "nonpayable",
      "type": "function"
    },
    {
      "inputs": [
        {
          "internalType": "address",
          "name": "_dst",
          "type": "address"
        }
      ],
      "name": "withdrawToken",
      "outputs": [],
      "stateMutability": "nonpayable",
      "type": "function"
    },
    {
      "inputs": [],
      "name": "withdrawToken",
      "outputs": [],
      "stateMutability": "nonpayable",
      "type": "function"
    },
    {
      "inputs": [],
      "name": "withdrawable",
      "outputs": [
        {
          "internalType": "uint256",
          "name": "amt",
          "type": "uint256"
        },
        {
          "internalType": "uint256",
          "name": "vol",
          "type": "uint256"
        }
      ],
      "stateMutability": "view",
      "type": "function"
    }
  ],
  "bytecode": "0x60806040523480156200001157600080fd5b5060405162002df938038062002df983398181016040526101a08110156200003857600080fd5b508051602082015160408301516060840151608085015160a086015160c087015160e08801516101008901516101208a01516101408b01516101608c0151610180909c01519a9b999a9899979896979596949593949293919290919083831015620000de576040805162461bcd60e51b815260206004820152601160248201527036b0bc1039b437bab6321033ba1036b4b760791b604482015290519081900360640190fd5b6001600160a01b038d166200013a576040805162461bcd60e51b815260206004820152601660248201527f676f7665726e6f725f207a65726f206164647265737300000000000000000000604482015290519081900360640190fd5b6001600160a01b038c1662000196576040805162461bcd60e51b815260206004820152601660248201527f63757272656e63795f207a65726f206164647265737300000000000000000000604482015290519081900360640190fd5b6001600160a01b038b16620001f2576040805162461bcd60e51b815260206004820152601860248201527f756e6465726c79696e675f207a65726f20616464726573730000000000000000604482015290519081900360640190fd5b6001600160a01b0386166200024e576040805162461bcd60e51b815260206004820152601660248201527f6665654f776e65725f207a65726f206164647265737300000000000000000000604482015290519081900360640190fd5b6001600160a01b038716620002aa576040805162461bcd60e51b815260206004820152601760248201527f726563697069656e745f207a65726f2061646472657373000000000000000000604482015290519081900360640190fd5b620002be8d6001600160e01b03620003f716565b600180546001600160a01b03808f166001600160a01b03199283161790925560028054928e169290911691909117905560038a90556004899055600b88905588881162000352576040805162461bcd60e51b815260206004820152601f60248201527f74696d65436c61696d5f2073686f756c64203e3d2074696d654f666665725f00604482015290519081900360640190fd5b600f80546001600160a01b03808a166001600160a01b031992831617909255600e87905560108054928916929091169190911790556011849055601283905581811015620003dc576040805162461bcd60e51b81526020600482015260126024820152716d61782073686f756c64206774206d696e2160701b604482015290519081900360640190fd5b60139190915560145550620004669950505050505050505050565b6001600160a01b0381166200040b57600080fd5b600080546040516001600160a01b03808516939216917fc7c0c772add429241571afb3805861fb3cfa2af374534088b76cdb4325a87e9a91a3600080546001600160a01b0319166001600160a01b0392909216919091179055565b61298380620004766000396000f3fe608060405234801561001057600080fd5b50600436106102de5760003560e01c806378c8e65f11610186578063b3a60f96116100e3578063c59504cc11610097578063e5a6b10f11610071578063e5a6b10f14610644578063ef1451781461064c578063f27cf06314610672576102de565b8063c59504cc1461062c578063ca628c7814610634578063cb2ef6f71461063c576102de565b8063b6aa515b116100c8578063b6aa515b146105d8578063b81d51d6146105fe578063b9818be114610624576102de565b8063b3a60f9614610580578063b5c5f672146105a6576102de565b80639d9a7fe91161013a578063a035b1fe1161011f578063a035b1fe14610568578063a0ef91df14610570578063a75a2a5414610578576102de565b80639d9a7fe9146105445780639da6129814610560576102de565b806384ca93a71161016b57806384ca93a7146104f957806389476069146105015780638d52fcef14610527576102de565b806378c8e65f146104e957806381c0c263146104f1576102de565b8063402914f51161023f5780634e71d92d116101f357806366d003ac116101cd57806366d003ac146104bc5780636f307dc3146104c4578063761610fc146104cc576102de565b80634e71d92d146102de578063501883011461046d5780635431c94e1461048e576102de565b80634838ed19116102245780634838ed19146104225780634b104eff1461042a5780634b34f93114610450576102de565b8063402914f5146103cc57806341744dd41461041a576102de565b806331fe2b3a11610296578063368e9d6a1161027b578063368e9d6a1461038157806336cb07631461039e5780633bbed4a0146103a6576102de565b806331fe2b3a14610371578063356130bc14610379576102de565b806319f4ff2f116102c757806319f4ff2f1461032657806325e160631461034357806326d7d2c314610369576102de565b80630c340a24146102e857806316d95c1e1461030c575b6102e661068f565b005b6102f0610b13565b604080516001600160a01b039092168252519081900360200190f35b610314610b22565b60408051918252519081900360200190f35b6102e66004803603602081101561033c57600080fd5b5035610b28565b6102e66004803603602081101561035957600080fd5b50356001600160a01b0316610b7d565b6102e6610c28565b610314610e17565b610314610e1d565b6102e66004803603602081101561039757600080fd5b5035610e23565b610314610ece565b6102e6600480360360208110156103bc57600080fd5b50356001600160a01b0316610ed4565b6103f2600480360360208110156103e257600080fd5b50356001600160a01b0316610fb5565b6040805194151585526020850193909352838301919091526060830152519081900360800190f35b610314611277565b6103f261127d565b6102e66004803603602081101561044057600080fd5b50356001600160a01b031661129b565b6102e66004803603602081101561046657600080fd5b503561137c565b610475611428565b6040805192835260208301919091528051918290030190f35b6102e6600480360360408110156104a457600080fd5b506001600160a01b0381358116916020013516611659565b6102f06117d6565b6102f06117e5565b6102e6600480360360208110156104e257600080fd5b50356117f4565b610314611cfa565b6102e6611d00565b610314611d79565b6102e66004803603602081101561051757600080fd5b50356001600160a01b0316611d7f565b6102e66004803603602081101561053d57600080fd5b5035611e0a565b61054c611eb5565b604080519115158252519081900360200190f35b610314611ebe565b610314611ec4565b6102e6611eca565b610314611f0d565b6103146004803603602081101561059657600080fd5b50356001600160a01b0316611f13565b6102e6600480360360608110156105bc57600080fd5b506001600160a01b038135169060208101359060400135611f25565b6102e6600480360360208110156105ee57600080fd5b50356001600160a01b03166120ec565b6103146004803603602081101561061457600080fd5b50356001600160a01b031661210c565b6102f061211e565b61031461212d565b6102e6612133565b610314612160565b6102f0612165565b6103146004803603602081101561066257600080fd5b50356001600160a01b0316612174565b6102e66004803603602081101561068857600080fd5b5035612186565b600b544210156106e6576040805162461bcd60e51b815260206004820152601760248201527f4974206973206e6f742074696d65436c61696d20796574000000000000000000604482015290519081900360640190fd5b60115460055410156108af5733600090815260066020526040902054610753576040805162461bcd60e51b815260206004820152601e60248201527f7075726368617365642043757272656e63792073686f756c6420677420300000604482015290519081900360640190fd5b600554600154604080517f70a0823100000000000000000000000000000000000000000000000000000000815230600482015290516001600160a01b03909216916370a0823191602480820192602092909190829003018186803b1580156107ba57600080fd5b505afa1580156107ce573d6000803e3d6000fd5b505050506040513d60208110156107e457600080fd5b505110156108235760405162461bcd60e51b815260040180806020018281038252602d81526020018061282b602d913960400191505060405180910390fd5b336000908152600660205260408120805491905560055461084a908263ffffffff61223216565b60055560015461086a906001600160a01b0316338363ffffffff61227d16565b600554604080518381526020810192909252805133927f0308c23d95247f0643fa21764a468f2ca3b9ef1ec7377d2370ba3e7c0ac9dcd292908290030190a250610b11565b3360009081526009602052604090205415806108d85750336000908152600d6020526040902054155b610929576040805162461bcd60e51b815260206004820152600f60248201527f736574746c656420616c72656164790000000000000000000000000000000000604482015290519081900360640190fd5b60008060008061093833610fb5565b93509350935093508361097657600780547fffffffffffffffffffffffffffffffffffffffffffffffffffffffffffffff00166001179055600a8190555b336000908152600d6020526040902054610996908463ffffffff6122fd16565b336000908152600d6020526040902055600c546109b9908463ffffffff6122fd16565b600c556001546001600160a01b03166109ff57604051339084156108fc029085906000818181858888f193505050501580156109f9573d6000803e3d6000fd5b50610a1c565b600154610a1c906001600160a01b0316338563ffffffff61227d16565b600b54421015610a5d5760405162461bcd60e51b81526004018080602001828103825260288152602001806129266028913960400191505060405180910390fd5b600b544210610ac95733600090815260096020526040902054610a86908363ffffffff6122fd16565b33600090815260096020526040902055600854610aa9908363ffffffff6122fd16565b600855600254610ac9906001600160a01b0316338463ffffffff61227d16565b6040805184815260208101849052808201839052905133917f45c072aa05b9853b5a993de7a28bc332ee01404a628cec1a23ce0f659f842ef1919081900360600190a2505050505b565b6000546001600160a01b031681565b60115481565b6000546001600160a01b03163314610b3f57600080fd5b600e81905560408051828152905133917f2f407797e17e05867e2657ee390ad55cf8dbf1a504056f7b965c645c4821cffd919081900360200190a250565b6000546001600160a01b03163314610b9457600080fd5b6001600160a01b038116610bef576040805162461bcd60e51b815260206004820152601160248201527f5f647374207a65726f2061646472657373000000000000000000000000000000604482015290519081900360640190fd5b6040516001600160a01b038216904780156108fc02916000818181858888f19350505050158015610c24573d6000803e3d6000fd5b5050565b6000546001600160a01b03163314610c3f57600080fd5b600b54421015610c96576040805162461bcd60e51b815260206004820152601760248201527f4974206973206e6f742074696d65436c61696d20796574000000000000000000604482015290519081900360640190fd5b6011546005541015610ca757600080fd5b600154604080517f70a0823100000000000000000000000000000000000000000000000000000000815230600482015290516000926001600160a01b0316916370a08231916024808301926020929190829003018186803b158015610d0b57600080fd5b505afa158015610d1f573d6000803e3d6000fd5b505050506040513d6020811015610d3557600080fd5b5051600e54909150600090610d6b90670de0b6b3a764000090610d5f90859063ffffffff61235716565b9063ffffffff6123b016565b90506000610d7f838363ffffffff61223216565b600f54600154919250610da5916001600160a01b0390811691168363ffffffff61227d16565b601054600154610dc8916001600160a01b0391821691168463ffffffff61227d16565b600f54604080518581526020810184905281516001600160a01b03909316927ff0fa8383bc9412382eb19bc4c20cb3a68b6a8c505d5deb5fcd132e260250f983929181900390910190a2505050565b60135481565b600b5481565b6000546001600160a01b03163314610e3a57600080fd5b6004548111610e90576040805162461bcd60e51b815260206004820152601f60248201527f74696d65436c61696d5f2073686f756c64203e3d2074696d654f666665725f00604482015290519081900360640190fd5b600b81905560408051828152905133917fd9e91945b832e3dfbe747cbe4eda3f287b36b5cef70f8805896fefed5f348219919081900360200190a250565b60085481565b6000546001600160a01b03163314610eeb57600080fd5b6001600160a01b038116610f46576040805162461bcd60e51b815260206004820152601760248201527f726563697069656e745f207a65726f2061646472657373000000000000000000604482015290519081900360640190fd5b600f80546001600160a01b0383167fffffffffffffffffffffffff00000000000000000000000000000000000000009091168117909155604080519182525133917ff5aa4a25cf0723515ed5e2f2313756dd44c78ee369f3ab7497a27ed89c2c1f64919081900360200190a250565b60075460ff16600080808315610fce5750600a54611172565b6001546000906001600160a01b03161561107757600154604080517f70a0823100000000000000000000000000000000000000000000000000000000815230600482015290516001600160a01b03909216916370a0823191602480820192602092909190829003018186803b15801561104657600080fd5b505afa15801561105a573d6000803e3d6000fd5b505050506040513d602081101561107057600080fd5b5051611079565b475b600254604080517f70a0823100000000000000000000000000000000000000000000000000000000815230600482015290519293506000926001600160a01b03909216916370a0823191602480820192602092909190829003018186803b1580156110e357600080fd5b505afa1580156110f7573d6000803e3d6000fd5b505050506040513d602081101561110d57600080fd5b5051905061112982670de0b6b3a764000063ffffffff61235716565b60035461113d90839063ffffffff61235716565b10156111635761115c82610d5f6003548461235790919063ffffffff16565b925061116f565b670de0b6b3a764000092505b50505b60006001600160a01b038616156111a1576001600160a01b0386166000908152600660205260409020546111a5565b6005545b905060006111c5670de0b6b3a7640000610d5f848663ffffffff61235716565b90506112176001600160a01b038816156111f7576001600160a01b0388166000908152600d60205260409020546111fb565b600c545b61120b848463ffffffff61223216565b9063ffffffff61223216565b945061126c6001600160a01b03881615611249576001600160a01b03881660009081526009602052604090205461124d565b6008545b60035461120b90610d5f85670de0b6b3a764000063ffffffff61235716565b935050509193509193565b600e5481565b60008060008061128d6000610fb5565b935093509350935090919293565b6000546001600160a01b031633146112b257600080fd5b6001600160a01b03811661130d576040805162461bcd60e51b815260206004820152601660248201527f6665654f776e65725f207a65726f206164647265737300000000000000000000604482015290519081900360640190fd5b601080546001600160a01b0383167fffffffffffffffffffffffff00000000000000000000000000000000000000009091168117909155604080519182525133917fe0bbf1a07376101b84e5aff236bc710878c9a975168510f821b4a735c0d35e51919081900360200190a250565b6000546001600160a01b0316331461139357600080fd5b6011548110156113ea576040805162461bcd60e51b815260206004820152601160248201527f6d61782073686f756c64206774206d696e000000000000000000000000000000604482015290519081900360640190fd5b601281905560408051828152905133917f6a1dde4e7360faddc528c5eddc375c301b03a6ae0fa8c9749b5d14691fad51fa919081900360200190a250565b600754600090819060ff1661144257506000905080611655565b6001546001600160a01b0316156114e857600154604080517f70a0823100000000000000000000000000000000000000000000000000000000815230600482015290516001600160a01b03909216916370a0823191602480820192602092909190829003018186803b1580156114b757600080fd5b505afa1580156114cb573d6000803e3d6000fd5b505050506040513d60208110156114e157600080fd5b50516114ea565b475b915061158f61152a670de0b6b3a7640000610d5f61151b600a54670de0b6b3a764000061223290919063ffffffff16565b6005549063ffffffff61235716565b61120b611582670de0b6b3a7640000610d5f611559600a54670de0b6b3a764000061223290919063ffffffff16565b611576600a54610d5f60035460085461235790919063ffffffff16565b9063ffffffff61235716565b859063ffffffff6122fd16565b91506116526115b1600354610d5f600a5460055461235790919063ffffffff16565b600854600254604080517f70a08231000000000000000000000000000000000000000000000000000000008152306004820152905161120b93926001600160a01b0316916370a08231916024808301926020929190829003018186803b15801561161a57600080fd5b505afa15801561162e573d6000803e3d6000fd5b505050506040513d602081101561164457600080fd5b50519063ffffffff6122fd16565b90505b9091565b6000546001600160a01b0316331461167057600080fd5b6001600160a01b0381166116cb576040805162461bcd60e51b815260206004820152601160248201527f5f647374207a65726f2061646472657373000000000000000000000000000000604482015290519081900360640190fd5b6001600160a01b038216611726576040805162461bcd60e51b815260206004820152601360248201527f5f746f6b656e207a65726f206164647265737300000000000000000000000000604482015290519081900360640190fd5b604080517f70a0823100000000000000000000000000000000000000000000000000000000815230600482015290516000916001600160a01b038516916370a0823191602480820192602092909190829003018186803b15801561178957600080fd5b505afa15801561179d573d6000803e3d6000fd5b505050506040513d60208110156117b357600080fd5b505190506117d16001600160a01b038416838363ffffffff61227d16565b505050565b600f546001600160a01b031681565b6002546001600160a01b031681565b6001546001600160a01b0316611851576040805162461bcd60e51b815260206004820152601e60248201527f73686f756c642063616c6c206f66666572457468282920696e73746561640000604482015290519081900360640190fd5b6004544210156118a8576040805162461bcd60e51b815260206004820152601160248201527f69742773206e6f742074696d6520796574000000000000000000000000000000604482015290519081900360640190fd5b6014548111156118e95760405162461bcd60e51b81526004018080602001828103825260258152602001806128b26025913960400191505060405180910390fd5b60135481101561192a5760405162461bcd60e51b81526004018080602001828103825260258152602001806128d76025913960400191505060405180910390fd5b600b544210611980576040805162461bcd60e51b815260206004820152600760248201527f6578706972656400000000000000000000000000000000000000000000000000604482015290519081900360640190fd5b600081116119d5576040805162461bcd60e51b815260206004820152600860248201527f6e6f2071756f7461000000000000000000000000000000000000000000000000604482015290519081900360640190fd5b600154604080517fdd62ed3e000000000000000000000000000000000000000000000000000000008152336004820152306024820152905183926001600160a01b03169163dd62ed3e916044808301926020929190829003018186803b158015611a3e57600080fd5b505afa158015611a52573d6000803e3d6000fd5b505050506040513d6020811015611a6857600080fd5b50511015611abd576040805162461bcd60e51b815260206004820152601460248201527f616c6c6f77616e6365206e6f7420656e6f756768000000000000000000000000604482015290519081900360640190fd5b600154604080517f70a08231000000000000000000000000000000000000000000000000000000008152336004820152905183926001600160a01b0316916370a08231916024808301926020929190829003018186803b158015611b2057600080fd5b505afa158015611b34573d6000803e3d6000fd5b505050506040513d6020811015611b4a57600080fd5b50511015611b9f576040805162461bcd60e51b815260206004820152601260248201527f62616c616e6365206e6f7420656e6f7567680000000000000000000000000000604482015290519081900360640190fd5b3360009081526006602052604090205415611c01576040805162461bcd60e51b815260206004820152600f60248201527f6f66666572656420616c72656164790000000000000000000000000000000000604482015290519081900360640190fd5b601254600554611c17908363ffffffff6122fd16565b1115611c545760405162461bcd60e51b81526004018080602001828103825260398152602001806128586039913960400191505060405180910390fd5b33600090815260066020526040902054611c74908263ffffffff6122fd16565b33600090815260066020526040902055600554611c97908263ffffffff6122fd16565b600555600154611cb8906001600160a01b031633308463ffffffff6123f216565b600554604080518381526020810192909252805133927f4a68fde121386ffcfc9555407bfb38625033a0d0d3726b00f56b4ab304b5544792908290030190a250565b60045481565b6000546001600160a01b03163314611d1757600080fd5b600080546040516001600160a01b03909116907fc7c0c772add429241571afb3805861fb3cfa2af374534088b76cdb4325a87e9a908390a3600080547fffffffffffffffffffffffff0000000000000000000000000000000000000000169055565b60055481565b6000546001600160a01b03163314611d9657600080fd5b6001600160a01b038116611df1576040805162461bcd60e51b815260206004820152601160248201527f5f647374207a65726f2061646472657373000000000000000000000000000000604482015290519081900360640190fd5b600254611e07906001600160a01b031682611659565b50565b6000546001600160a01b03163314611e2157600080fd5b80600b5411611e77576040805162461bcd60e51b815260206004820152601f60248201527f74696d65436c61696d5f2073686f756c64203e3d2074696d654f666665725f00604482015290519081900360640190fd5b600481905560408051828152905133917fe01f1ed196da69f2c09d482f348d816c49ed08a119d239a06d95798a0692239d919081900360200190a250565b60075460ff1681565b60125481565b60035481565b6000546001600160a01b03163314611ee157600080fd5b60405133904780156108fc02916000818181858888f19350505050158015611e07573d6000803e3d6000fd5b60145481565b60066020526000908152604090205481565b6000546001600160a01b03163314611f3c57600080fd5b6001600160a01b038316611f97576040805162461bcd60e51b815260206004820152600f60248201527f746f207a65726f20616464726573730000000000000000000000000000000000604482015290519081900360640190fd5b60075460ff16611fee576040805162461bcd60e51b815260206004820152600b60248201527f756e636f6d706c65746564000000000000000000000000000000000000000000604482015290519081900360640190fd5b600080611ff9611428565b915091506120078483612480565b93506120138382612480565b6001549093506001600160a01b0316612062576040516001600160a01b0386169085156108fc029086906000818181858888f1935050505015801561205c573d6000803e3d6000fd5b5061207f565b60015461207f906001600160a01b0316868663ffffffff61227d16565b60025461209c906001600160a01b0316868563ffffffff61227d16565b604080516001600160a01b03871681526020810186905280820185905290517f92ccf450a286a957af52509bc1c9939d1a6a481783e142e41e2499f0bb66ebc69181900360600190a15050505050565b6000546001600160a01b0316331461210357600080fd5b611e0781612496565b60096020526000908152604090205481565b6010546001600160a01b031681565b600a5481565b6000546001600160a01b0316331461214a57600080fd5b600254610b11906001600160a01b031633611659565b600281565b6001546001600160a01b031681565b600d6020526000908152604090205481565b6000546001600160a01b0316331461219d57600080fd5b8060125410156121f4576040805162461bcd60e51b815260206004820152601160248201527f6d61782073686f756c64206774206d696e000000000000000000000000000000604482015290519081900360640190fd5b601181905560408051828152905133917f4ab6e4a9f209d1fe509cfa6eb3c2037dbf5874b2dd1cbd60b50a1f2e8d6898d7919081900360200190a250565b600061227483836040518060400160405280601e81526020017f536166654d6174683a207375627472616374696f6e206f766572666c6f77000081525061251c565b90505b92915050565b604080516001600160a01b038416602482015260448082018490528251808303909101815260649091019091526020810180517bffffffffffffffffffffffffffffffffffffffffffffffffffffffff167fa9059cbb000000000000000000000000000000000000000000000000000000001790526117d19084906125b3565b600082820183811015612274576040805162461bcd60e51b815260206004820152601b60248201527f536166654d6174683a206164646974696f6e206f766572666c6f770000000000604482015290519081900360640190fd5b60008261236657506000612277565b8282028284828161237357fe5b04146122745760405162461bcd60e51b81526004018080602001828103825260218152602001806128916021913960400191505060405180910390fd5b600061227483836040518060400160405280601a81526020017f536166654d6174683a206469766973696f6e206279207a65726f000000000000815250612789565b604080516001600160a01b0380861660248301528416604482015260648082018490528251808303909101815260849091019091526020810180517bffffffffffffffffffffffffffffffffffffffffffffffffffffffff167f23b872dd0000000000000000000000000000000000000000000000000000000017905261247a9085906125b3565b50505050565b600081831061248f5781612274565b5090919050565b6001600160a01b0381166124a957600080fd5b600080546040516001600160a01b03808516939216917fc7c0c772add429241571afb3805861fb3cfa2af374534088b76cdb4325a87e9a91a3600080547fffffffffffffffffffffffff0000000000000000000000000000000000000000166001600160a01b0392909216919091179055565b600081848411156125ab5760405162461bcd60e51b81526004018080602001828103825283818151815260200191508051906020019080838360005b83811015612570578181015183820152602001612558565b50505050905090810190601f16801561259d5780820380516001836020036101000a031916815260200191505b509250505060405180910390fd5b505050900390565b6125c5826001600160a01b03166127ee565b612616576040805162461bcd60e51b815260206004820152601f60248201527f5361666545524332303a2063616c6c20746f206e6f6e2d636f6e747261637400604482015290519081900360640190fd5b60006060836001600160a01b0316836040518082805190602001908083835b6020831061267257805182527fffffffffffffffffffffffffffffffffffffffffffffffffffffffffffffffe09092019160209182019101612635565b6001836020036101000a0380198251168184511680821785525050505050509050019150506000604051808303816000865af19150503d80600081146126d4576040519150601f19603f3d011682016040523d82523d6000602084013e6126d9565b606091505b509150915081612730576040805162461bcd60e51b815260206004820181905260248201527f5361666545524332303a206c6f772d6c6576656c2063616c6c206661696c6564604482015290519081900360640190fd5b80511561247a5780806020019051602081101561274c57600080fd5b505161247a5760405162461bcd60e51b815260040180806020018281038252602a8152602001806128fc602a913960400191505060405180910390fd5b600081836127d85760405162461bcd60e51b8152602060048201818152835160248401528351909283926044909101919085019080838360008315612570578181015183820152602001612558565b5060008385816127e457fe5b0495945050505050565b6000813f7fc5d2460186f7233c927e7db2dcc703c0e500b653ca82273b7bfad8045d85a47081811480159061282257508115155b94935050505056fe2050757263686173652055736474206e756d6265722073686f756c64206e6f742067742062616c616e61636521746f74616c50757263686173656443757272656e63792073686f756c64206e6f74206774206d617855736474546f74616c4f66666572656473536166654d6174683a206d756c7469706c69636174696f6e206f766572666c6f77616d6f756e742073686f756c64206c74206d617855736474506572736f6e4f666665726564616d6f756e742073686f756c64206774206d696e55736474506572736f6e4f6666657265645361666545524332303a204552433230206f7065726174696f6e20646964206e6f7420737563636565644974206973206e6f742074696d65436c61696d20746f20736574746c6520756e6465726c79696e67a2646970667358221220c22f0a562b4df7fbe8c025b00039ae0472356fc4882f96cb5a5433087434ac0f64736f6c63430006020033",
  "linkReferences": {},
  "deployedLinkReferences": {}
}