{
  "_format": "hh-sol-artifact-1",
  "contractName": "PublicSale",
  "sourceName": "contracts/PublicSale.sol",
  "abi": [
    {
      "inputs": [
        {
          "internalType": "address",
          "name": "governor_",
          "type": "address"
        },
        {
          "internalType": "address",
          "name": "currency_",
          "type": "address"
        },
        {
          "internalType": "address",
          "name": "underlying_",
          "type": "address"
        },
        {
          "internalType": "uint256",
          "name": "price_",
          "type": "uint256"
        },
        {
          "internalType": "uint256",
          "name": "timeOffer_",
          "type": "uint256"
        },
        {
          "internalType": "uint256",
          "name": "timeClaim_",
          "type": "uint256"
        },
        {
          "internalType": "address payable",
          "name": "recipient_",
          "type": "address"
        },
        {
          "internalType": "address payable",
          "name": "feeOwner_",
          "type": "address"
        },
        {
          "internalType": "uint256",
          "name": "feeRatio_",
          "type": "uint256"
        },
        {
          "internalType": "uint256",
          "name": "minUsdtTotalOffered_",
          "type": "uint256"
        },
        {
          "internalType": "uint256",
          "name": "maxUsdtTotalOffered_",
          "type": "uint256"
        }
      ],
      "stateMutability": "nonpayable",
      "type": "constructor"
    },
    {
      "anonymous": false,
      "inputs": [
        {
          "indexed": true,
          "internalType": "address",
          "name": "acct",
          "type": "address"
        },
        {
          "indexed": false,
          "internalType": "uint256",
          "name": "amount",
          "type": "uint256"
        },
        {
          "indexed": false,
          "internalType": "uint256",
          "name": "volume",
          "type": "uint256"
        },
        {
          "indexed": false,
          "internalType": "uint256",
          "name": "rate",
          "type": "uint256"
        }
      ],
      "name": "Claim",
      "type": "event"
    },
    {
      "anonymous": false,
      "inputs": [
        {
          "indexed": true,
          "internalType": "address",
          "name": "previousGovernor",
          "type": "address"
        },
        {
          "indexed": true,
          "internalType": "address",
          "name": "newGovernor",
          "type": "address"
        }
      ],
      "name": "GovernorshipTransferred",
      "type": "event"
    },
    {
      "anonymous": false,
      "inputs": [
        {
          "indexed": true,
          "internalType": "address",
          "name": "acct",
          "type": "address"
        },
        {
          "indexed": false,
          "internalType": "uint256",
          "name": "amount",
          "type": "uint256"
        },
        {
          "indexed": false,
          "internalType": "uint256",
          "name": "totalCurrency",
          "type": "uint256"
        }
      ],
      "name": "Offer",
      "type": "event"
    },
    {
      "anonymous": false,
      "inputs": [
        {
          "indexed": false,
          "internalType": "address",
          "name": "to",
          "type": "address"
        },
        {
          "indexed": false,
          "internalType": "uint256",
          "name": "amount",
          "type": "uint256"
        },
        {
          "indexed": false,
          "internalType": "uint256",
          "name": "volume",
          "type": "uint256"
        }
      ],
      "name": "Withdrawn",
      "type": "event"
    },
    {
      "stateMutability": "nonpayable",
      "type": "fallback"
    },
    {
      "inputs": [
        {
          "internalType": "address",
          "name": "governor_",
          "type": "address"
        }
      ],
      "name": "__Governable_init_unchained",
      "outputs": [],
      "stateMutability": "nonpayable",
      "type": "function"
    },
    {
      "inputs": [],
      "name": "claim",
      "outputs": [],
      "stateMutability": "nonpayable",
      "type": "function"
    },
    {
      "inputs": [
        {
          "internalType": "address",
          "name": "acct",
          "type": "address"
        }
      ],
      "name": "claimable",
      "outputs": [
        {
          "internalType": "bool",
          "name": "completed_",
          "type": "bool"
        },
        {
          "internalType": "uint256",
          "name": "amount",
          "type": "uint256"
        },
        {
          "internalType": "uint256",
          "name": "volume",
          "type": "uint256"
        },
        {
          "internalType": "uint256",
          "name": "rate",
          "type": "uint256"
        }
      ],
      "stateMutability": "view",
      "type": "function"
    },
    {
      "inputs": [],
      "name": "completed",
      "outputs": [
        {
          "internalType": "bool",
          "name": "",
          "type": "bool"
        }
      ],
      "stateMutability": "view",
      "type": "function"
    },
    {
      "inputs": [],
      "name": "currency",
      "outputs": [
        {
          "internalType": "address",
          "name": "",
          "type": "address"
        }
      ],
      "stateMutability": "view",
      "type": "function"
    },
    {
      "inputs": [],
      "name": "feeOwner",
      "outputs": [
        {
          "internalType": "address payable",
          "name": "",
          "type": "address"
        }
      ],
      "stateMutability": "view",
      "type": "function"
    },
    {
      "inputs": [],
      "name": "feeRatio",
      "outputs": [
        {
          "internalType": "uint256",
          "name": "",
          "type": "uint256"
        }
      ],
      "stateMutability": "view",
      "type": "function"
    },
    {
      "inputs": [],
      "name": "governor",
      "outputs": [
        {
          "internalType": "address",
          "name": "",
          "type": "address"
        }
      ],
      "stateMutability": "view",
      "type": "function"
    },
    {
      "inputs": [],
      "name": "maxUsdtTotalOffered",
      "outputs": [
        {
          "internalType": "uint256",
          "name": "",
          "type": "uint256"
        }
      ],
      "stateMutability": "view",
      "type": "function"
    },
    {
      "inputs": [],
      "name": "minUsdtTotalOffered",
      "outputs": [
        {
          "internalType": "uint256",
          "name": "",
          "type": "uint256"
        }
      ],
      "stateMutability": "view",
      "type": "function"
    },
    {
      "inputs": [
        {
          "internalType": "uint256",
          "name": "amount",
          "type": "uint256"
        }
      ],
      "name": "offer",
      "outputs": [],
      "stateMutability": "nonpayable",
      "type": "function"
    },
    {
      "inputs": [],
      "name": "price",
      "outputs": [
        {
          "internalType": "uint256",
          "name": "",
          "type": "uint256"
        }
      ],
      "stateMutability": "view",
      "type": "function"
    },
    {
      "inputs": [
        {
          "internalType": "address",
          "name": "",
          "type": "address"
        }
      ],
      "name": "purchasedCurrencyOf",
      "outputs": [
        {
          "internalType": "uint256",
          "name": "",
          "type": "uint256"
        }
      ],
      "stateMutability": "view",
      "type": "function"
    },
    {
      "inputs": [],
      "name": "recipient",
      "outputs": [
        {
          "internalType": "address payable",
          "name": "",
          "type": "address"
        }
      ],
      "stateMutability": "view",
      "type": "function"
    },
    {
      "inputs": [],
      "name": "renounceGovernorship",
      "outputs": [],
      "stateMutability": "nonpayable",
      "type": "function"
    },
    {
      "inputs": [
        {
          "internalType": "address",
          "name": "_token",
          "type": "address"
        },
        {
          "internalType": "address",
          "name": "_dst",
          "type": "address"
        }
      ],
      "name": "rescueTokens",
      "outputs": [],
      "stateMutability": "nonpayable",
      "type": "function"
    },
    {
      "inputs": [
        {
          "internalType": "address payable",
          "name": "feeOwner_",
          "type": "address"
        }
      ],
      "name": "setFeeOwner",
      "outputs": [],
      "stateMutability": "nonpayable",
      "type": "function"
    },
    {
      "inputs": [
        {
          "internalType": "uint256",
          "name": "feeRatio_",
          "type": "uint256"
        }
      ],
      "name": "setFeeRatio",
      "outputs": [],
      "stateMutability": "nonpayable",
      "type": "function"
    },
    {
      "inputs": [
        {
          "internalType": "uint256",
          "name": "maxUsdtTotalOffered_",
          "type": "uint256"
        }
      ],
      "name": "setMaxUsdtTotalOffered",
      "outputs": [],
      "stateMutability": "nonpayable",
      "type": "function"
    },
    {
      "inputs": [
        {
          "internalType": "uint256",
          "name": "minUsdtTotalOffered_",
          "type": "uint256"
        }
      ],
      "name": "setMinUsdtTotalOffered",
      "outputs": [],
      "stateMutability": "nonpayable",
      "type": "function"
    },
    {
      "inputs": [
        {
          "internalType": "address payable",
          "name": "recipient_",
          "type": "address"
        }
      ],
      "name": "setRecipient",
      "outputs": [],
      "stateMutability": "nonpayable",
      "type": "function"
    },
    {
      "inputs": [
        {
          "internalType": "uint256",
          "name": "timeClaim_",
          "type": "uint256"
        }
      ],
      "name": "setTimeClaim",
      "outputs": [],
      "stateMutability": "nonpayable",
      "type": "function"
    },
    {
      "inputs": [
        {
          "internalType": "uint256",
          "name": "timeOffer_",
          "type": "uint256"
        }
      ],
      "name": "setTimeOffer",
      "outputs": [],
      "stateMutability": "nonpayable",
      "type": "function"
    },
    {
      "inputs": [],
      "name": "settleRate",
      "outputs": [
        {
          "internalType": "uint256",
          "name": "",
          "type": "uint256"
        }
      ],
      "stateMutability": "view",
      "type": "function"
    },
    {
      "inputs": [
        {
          "internalType": "address",
          "name": "",
          "type": "address"
        }
      ],
      "name": "settledCurrencyOf",
      "outputs": [
        {
          "internalType": "uint256",
          "name": "",
          "type": "uint256"
        }
      ],
      "stateMutability": "view",
      "type": "function"
    },
    {
      "inputs": [
        {
          "internalType": "address",
          "name": "",
          "type": "address"
        }
      ],
      "name": "settledUnderlyingOf",
      "outputs": [
        {
          "internalType": "uint256",
          "name": "",
          "type": "uint256"
        }
      ],
      "stateMutability": "view",
      "type": "function"
    },
    {
      "inputs": [],
      "name": "timeClaim",
      "outputs": [
        {
          "internalType": "uint256",
          "name": "",
          "type": "uint256"
        }
      ],
      "stateMutability": "view",
      "type": "function"
    },
    {
      "inputs": [],
      "name": "timeOffer",
      "outputs": [
        {
          "internalType": "uint256",
          "name": "",
          "type": "uint256"
        }
      ],
      "stateMutability": "view",
      "type": "function"
    },
    {
      "inputs": [],
      "name": "totalClaimable",
      "outputs": [
        {
          "internalType": "bool",
          "name": "completed_",
          "type": "bool"
        },
        {
          "internalType": "uint256",
          "name": "amount",
          "type": "uint256"
        },
        {
          "internalType": "uint256",
          "name": "volume",
          "type": "uint256"
        },
        {
          "internalType": "uint256",
          "name": "rate",
          "type": "uint256"
        }
      ],
      "stateMutability": "view",
      "type": "function"
    },
    {
      "inputs": [],
      "name": "totalPurchasedCurrency",
      "outputs": [
        {
          "internalType": "uint256",
          "name": "",
          "type": "uint256"
        }
      ],
      "stateMutability": "view",
      "type": "function"
    },
    {
      "inputs": [],
      "name": "totalSettledUnderlying",
      "outputs": [
        {
          "internalType": "uint256",
          "name": "",
          "type": "uint256"
        }
      ],
      "stateMutability": "view",
      "type": "function"
    },
    {
      "inputs": [
        {
          "internalType": "address",
          "name": "newGovernor",
          "type": "address"
        }
      ],
      "name": "transferGovernorship",
      "outputs": [],
      "stateMutability": "nonpayable",
      "type": "function"
    },
    {
      "inputs": [],
      "name": "underlying",
      "outputs": [
        {
          "internalType": "address",
          "name": "",
          "type": "address"
        }
      ],
      "stateMutability": "view",
      "type": "function"
    },
    {
      "inputs": [
        {
          "internalType": "address payable",
          "name": "to",
          "type": "address"
        },
        {
          "internalType": "uint256",
          "name": "amount",
          "type": "uint256"
        },
        {
          "internalType": "uint256",
          "name": "volume",
          "type": "uint256"
        }
      ],
      "name": "withdraw",
      "outputs": [],
      "stateMutability": "nonpayable",
      "type": "function"
    },
    {
      "inputs": [
        {
          "internalType": "address payable",
          "name": "_dst",
          "type": "address"
        }
      ],
      "name": "withdrawEth",
      "outputs": [],
      "stateMutability": "nonpayable",
      "type": "function"
    },
    {
      "inputs": [],
      "name": "withdrawEth",
      "outputs": [],
      "stateMutability": "nonpayable",
      "type": "function"
    },
    {
      "inputs": [
        {
          "internalType": "address",
          "name": "_dst",
          "type": "address"
        }
      ],
      "name": "withdrawToken",
      "outputs": [],
      "stateMutability": "nonpayable",
      "type": "function"
    },
    {
      "inputs": [],
      "name": "withdrawToken",
      "outputs": [],
      "stateMutability": "nonpayable",
      "type": "function"
    },
    {
      "inputs": [],
      "name": "withdrawable",
      "outputs": [
        {
          "internalType": "uint256",
          "name": "amt",
          "type": "uint256"
        },
        {
          "internalType": "uint256",
          "name": "vol",
          "type": "uint256"
        }
      ],
      "stateMutability": "view",
      "type": "function"
    }
  ],
  "bytecode": "0x608060405234801561001057600080fd5b5060405162001fd638038062001fd6833981810160405261016081101561003657600080fd5b508051602082015160408301516060840151608085015160a086015160c087015160e08801516101008901516101208a0151610140909a015198999798969795969495939492939192909190818110156100cb576040805162461bcd60e51b815260206004820152601160248201527036b0bc1039b437bab6321033ba1036b4b760791b604482015290519081900360640190fd5b6100dd8b6001600160e01b036101b916565b600180546001600160a01b03808d166001600160a01b03199283161790925560028054928c169290911691909117905560038890556004879055600b86905586861015610171576040805162461bcd60e51b815260206004820152601f60248201527f74696d65436c61696d5f2073686f756c64203e3d2074696d654f666665725f00604482015290519081900360640190fd5b600f80546001600160a01b03199081166001600160a01b0397881617909155600e93909355601080549093169390941692909217905560115560125550610208945050505050565b600080546001600160a01b0319166001600160a01b0383811691909117808355604051911691907fc7c0c772add429241571afb3805861fb3cfa2af374534088b76cdb4325a87e9a908290a350565b611dbe80620002186000396000f3fe608060405234801561001057600080fd5b50600436106102ad5760003560e01c806378c8e65f1161017b578063b5c5f672116100d8578063ca628c781161008c578063e5a6b10f11610071578063e5a6b10f14610619578063ef14517814610621578063f27cf06314610647576102ad565b8063ca628c78146105eb578063df69e016146105f3576102ad565b8063b81d51d6116100bd578063b81d51d6146105b5578063b9818be1146105db578063c59504cc146105e3576102ad565b8063b5c5f6721461055d578063b6aa515b1461058f576102ad565b80639d9a7fe91161012f578063a035b1fe11610114578063a035b1fe14610527578063a0ef91df1461052f578063b3a60f9614610537576102ad565b80639d9a7fe9146105035780639da612981461051f576102ad565b806384ca93a71161016057806384ca93a7146104b857806389476069146104c05780638d52fcef146104e6576102ad565b806378c8e65f146104a857806381c0c263146104b0576102ad565b806341744dd41161022957806350188301116101dd57806366d003ac116101c257806366d003ac1461047b5780636f307dc314610483578063761610fc1461048b576102ad565b8063501883011461042c5780635431c94e1461044d576102ad565b80634b104eff1161020e5780634b104eff146103e95780634b34f9311461040f5780634e71d92d146102ad576102ad565b806341744dd4146103d95780634838ed19146103e1576102ad565b8063356130bc1161028057806336cb07631161026557806336cb07631461035d5780633bbed4a014610365578063402914f51461038b576102ad565b8063356130bc14610338578063368e9d6a14610340576102ad565b80630c340a24146102b757806316d95c1e146102db57806319f4ff2f146102f557806325e1606314610312575b6102b5610664565b005b6102bf610929565b604080516001600160a01b039092168252519081900360200190f35b6102e3610938565b60408051918252519081900360200190f35b6102b56004803603602081101561030b57600080fd5b503561093e565b6102b56004803603602081101561032857600080fd5b50356001600160a01b031661095a565b6102e36109aa565b6102b56004803603602081101561035657600080fd5b50356109b0565b6102e36109cc565b6102b56004803603602081101561037b57600080fd5b50356001600160a01b03166109d2565b6103b1600480360360208110156103a157600080fd5b50356001600160a01b0316610a23565b6040805194151585526020850193909352838301919091526060830152519081900360800190f35b6102e3610cf1565b6103b1610cf7565b6102b5600480360360208110156103ff57600080fd5b50356001600160a01b0316610d15565b6102b56004803603602081101561042557600080fd5b5035610d66565b610434610dd9565b6040805192835260208301919091528051918290030190f35b6102b56004803603604081101561046357600080fd5b506001600160a01b038135811691602001351661100a565b6102bf6110d1565b6102bf6110e0565b6102b5600480360360208110156104a157600080fd5b50356110ef565b6102e3611305565b6102b561130b565b6102e3611384565b6102b5600480360360208110156104d657600080fd5b50356001600160a01b031661138a565b6102b5600480360360208110156104fc57600080fd5b50356113ba565b61050b6113d6565b604080519115158252519081900360200190f35b6102e36113df565b6102e36113e5565b6102b56113eb565b6102e36004803603602081101561054d57600080fd5b50356001600160a01b031661142e565b6102b56004803603606081101561057357600080fd5b506001600160a01b038135169060208101359060400135611440565b6102b5600480360360208110156105a557600080fd5b50356001600160a01b03166115ac565b6102e3600480360360208110156105cb57600080fd5b50356001600160a01b03166115cc565b6102bf6115de565b6102e36115ed565b6102b56115f3565b6102b56004803603602081101561060957600080fd5b50356001600160a01b0316611622565b6102bf611689565b6102e36004803603602081101561063757600080fd5b50356001600160a01b0316611698565b6102b56004803603602081101561065d57600080fd5b50356116aa565b6004544210156106bb576040805162461bcd60e51b815260206004820152601760248201527f4974206973206e6f742074696d654f6666657220796574000000000000000000604482015290519081900360640190fd5b3360009081526009602052604090205415806106e45750336000908152600d6020526040902054155b610735576040805162461bcd60e51b815260206004820152600f60248201527f736574746c656420616c72656164790000000000000000000000000000000000604482015290519081900360640190fd5b60008060008061074433610a23565b93509350935093508361078257600780547fffffffffffffffffffffffffffffffffffffffffffffffffffffffffffffff00166001179055600a8190555b336000908152600d60205260409020546107a2908463ffffffff61171d16565b336000908152600d6020526040902055600c546107c5908463ffffffff61171d16565b600c556001546001600160a01b031661080b57604051339084156108fc029085906000818181858888f19350505050158015610805573d6000803e3d6000fd5b50610828565b600154610828906001600160a01b0316338563ffffffff61178016565b60008311806108395750600b544210155b6108745760405162461bcd60e51b8152600401808060200182810382526028815260200180611d376028913960400191505060405180910390fd5b600b5442106108e0573360009081526009602052604090205461089d908363ffffffff61171d16565b336000908152600960205260409020556008546108c0908363ffffffff61171d16565b6008556002546108e0906001600160a01b0316338463ffffffff61178016565b6040805184815260208101849052808201839052905133917f45c072aa05b9853b5a993de7a28bc332ee01404a628cec1a23ce0f659f842ef1919081900360600190a250505050565b6000546001600160a01b031681565b60115481565b6000546001600160a01b0316331461095557600080fd5b600e55565b6000546001600160a01b0316331461097157600080fd5b6040516001600160a01b038216904780156108fc02916000818181858888f193505050501580156109a6573d6000803e3d6000fd5b5050565b600b5481565b6000546001600160a01b031633146109c757600080fd5b600b55565b60085481565b6000546001600160a01b031633146109e957600080fd5b600f80547fffffffffffffffffffffffff0000000000000000000000000000000000000000166001600160a01b0392909216919091179055565b60075460ff16600080808315610a3c5750600a54610bec565b6001546000906001600160a01b031615610ae557600154604080517f70a0823100000000000000000000000000000000000000000000000000000000815230600482015290516001600160a01b03909216916370a0823191602480820192602092909190829003018186803b158015610ab457600080fd5b505afa158015610ac8573d6000803e3d6000fd5b505050506040513d6020811015610ade57600080fd5b5051610ae7565b475b600254604080517f70a0823100000000000000000000000000000000000000000000000000000000815230600482015290519293506000926001600160a01b03909216916370a0823191602480820192602092909190829003018186803b158015610b5157600080fd5b505afa158015610b65573d6000803e3d6000fd5b505050506040513d6020811015610b7b57600080fd5b50519050610b9782670de0b6b3a764000063ffffffff61180016565b600354610bab90839063ffffffff61180016565b1015610bdd57610bd682610bca6003548461180090919063ffffffff16565b9063ffffffff61185916565b9250610be9565b670de0b6b3a764000092505b50505b60006001600160a01b03861615610c1b576001600160a01b038616600090815260066020526040902054610c1f565b6005545b90506000610c3f670de0b6b3a7640000610bca848663ffffffff61180016565b9050610c916001600160a01b03881615610c71576001600160a01b0388166000908152600d6020526040902054610c75565b600c545b610c85848463ffffffff61189b16565b9063ffffffff61189b16565b9450610ce66001600160a01b03881615610cc3576001600160a01b038816600090815260096020526040902054610cc7565b6008545b600354610c8590610bca85670de0b6b3a764000063ffffffff61180016565b935050509193509193565b600e5481565b600080600080610d076000610a23565b935093509350935090919293565b6000546001600160a01b03163314610d2c57600080fd5b601080547fffffffffffffffffffffffff0000000000000000000000000000000000000000166001600160a01b0392909216919091179055565b6000546001600160a01b03163314610d7d57600080fd5b601154811015610dd4576040805162461bcd60e51b815260206004820152601160248201527f6d61782073686f756c64206774206d696e000000000000000000000000000000604482015290519081900360640190fd5b601255565b600754600090819060ff16610df357506000905080611006565b6001546001600160a01b031615610e9957600154604080517f70a0823100000000000000000000000000000000000000000000000000000000815230600482015290516001600160a01b03909216916370a0823191602480820192602092909190829003018186803b158015610e6857600080fd5b505afa158015610e7c573d6000803e3d6000fd5b505050506040513d6020811015610e9257600080fd5b5051610e9b565b475b9150610f40610edb670de0b6b3a7640000610bca610ecc600a54670de0b6b3a764000061189b90919063ffffffff16565b6005549063ffffffff61180016565b610c85610f33670de0b6b3a7640000610bca610f0a600a54670de0b6b3a764000061189b90919063ffffffff16565b610f27600a54610bca60035460085461180090919063ffffffff16565b9063ffffffff61180016565b859063ffffffff61171d16565b9150611003610f62600354610bca600a5460055461180090919063ffffffff16565b600854600254604080517f70a082310000000000000000000000000000000000000000000000000000000081523060048201529051610c8593926001600160a01b0316916370a08231916024808301926020929190829003018186803b158015610fcb57600080fd5b505afa158015610fdf573d6000803e3d6000fd5b505050506040513d6020811015610ff557600080fd5b50519063ffffffff61171d16565b90505b9091565b6000546001600160a01b0316331461102157600080fd5b604080517f70a0823100000000000000000000000000000000000000000000000000000000815230600482015290516000916001600160a01b038516916370a0823191602480820192602092909190829003018186803b15801561108457600080fd5b505afa158015611098573d6000803e3d6000fd5b505050506040513d60208110156110ae57600080fd5b505190506110cc6001600160a01b038416838363ffffffff61178016565b505050565b600f546001600160a01b031681565b6002546001600160a01b031681565b6001546001600160a01b031661114c576040805162461bcd60e51b815260206004820152601e60248201527f73686f756c642063616c6c206f66666572457468282920696e73746561640000604482015290519081900360640190fd5b60045442106111a2576040805162461bcd60e51b815260206004820152600760248201527f6578706972656400000000000000000000000000000000000000000000000000604482015290519081900360640190fd5b600081116111f7576040805162461bcd60e51b815260206004820152600b60248201527f616d6f756e742067742030000000000000000000000000000000000000000000604482015290519081900360640190fd5b60125460055461120d908363ffffffff61171d16565b1115611260576040805162461bcd60e51b815260206004820152601e60248201527f73686f756c64206773206d617855736474546f74616c4f666665726564730000604482015290519081900360640190fd5b60015461127e906001600160a01b031633308463ffffffff6118dd16565b3360009081526006602052604090205461129e908263ffffffff61171d16565b336000908152600660205260409020556005546112c1908263ffffffff61171d16565b6005819055604080518381526020810192909252805133927f4a68fde121386ffcfc9555407bfb38625033a0d0d3726b00f56b4ab304b5544792908290030190a250565b60045481565b6000546001600160a01b0316331461132257600080fd5b600080546040516001600160a01b03909116907fc7c0c772add429241571afb3805861fb3cfa2af374534088b76cdb4325a87e9a908390a3600080547fffffffffffffffffffffffff0000000000000000000000000000000000000000169055565b60055481565b6000546001600160a01b031633146113a157600080fd5b6002546113b7906001600160a01b03168261100a565b50565b6000546001600160a01b031633146113d157600080fd5b600455565b60075460ff1681565b60125481565b60035481565b6000546001600160a01b0316331461140257600080fd5b60405133904780156108fc02916000818181858888f193505050501580156113b7573d6000803e3d6000fd5b60066020526000908152604090205481565b6000546001600160a01b0316331461145757600080fd5b60075460ff166114ae576040805162461bcd60e51b815260206004820152600b60248201527f756e636f6d706c65746564000000000000000000000000000000000000000000604482015290519081900360640190fd5b6000806114b9610dd9565b915091506114c7848361196b565b93506114d3838261196b565b6001549093506001600160a01b0316611522576040516001600160a01b0386169085156108fc029086906000818181858888f1935050505015801561151c573d6000803e3d6000fd5b5061153f565b60015461153f906001600160a01b0316868663ffffffff61178016565b60025461155c906001600160a01b0316868563ffffffff61178016565b604080516001600160a01b03871681526020810186905280820185905290517f92ccf450a286a957af52509bc1c9939d1a6a481783e142e41e2499f0bb66ebc69181900360600190a15050505050565b6000546001600160a01b031633146115c357600080fd5b6113b781611981565b60096020526000908152604090205481565b6010546001600160a01b031681565b600a5481565b6000546001600160a01b0316331461160a57600080fd5b600254611620906001600160a01b03163361100a565b565b600080547fffffffffffffffffffffffff0000000000000000000000000000000000000000166001600160a01b0383811691909117808355604051911691907fc7c0c772add429241571afb3805861fb3cfa2af374534088b76cdb4325a87e9a908290a350565b6001546001600160a01b031681565b600d6020526000908152604090205481565b6000546001600160a01b031633146116c157600080fd5b806012541015611718576040805162461bcd60e51b815260206004820152601160248201527f6d61782073686f756c64206774206d696e000000000000000000000000000000604482015290519081900360640190fd5b601155565b600082820183811015611777576040805162461bcd60e51b815260206004820152601b60248201527f536166654d6174683a206164646974696f6e206f766572666c6f770000000000604482015290519081900360640190fd5b90505b92915050565b604080516001600160a01b038416602482015260448082018490528251808303909101815260649091019091526020810180517bffffffffffffffffffffffffffffffffffffffffffffffffffffffff167fa9059cbb000000000000000000000000000000000000000000000000000000001790526110cc908490611a07565b60008261180f5750600061177a565b8282028284828161181c57fe5b04146117775760405162461bcd60e51b8152600401808060200182810382526021815260200180611d166021913960400191505060405180910390fd5b600061177783836040518060400160405280601a81526020017f536166654d6174683a206469766973696f6e206279207a65726f000000000000815250611bdd565b600061177783836040518060400160405280601e81526020017f536166654d6174683a207375627472616374696f6e206f766572666c6f770000815250611c7f565b604080516001600160a01b0380861660248301528416604482015260648082018490528251808303909101815260849091019091526020810180517bffffffffffffffffffffffffffffffffffffffffffffffffffffffff167f23b872dd00000000000000000000000000000000000000000000000000000000179052611965908590611a07565b50505050565b600081831061197a5781611777565b5090919050565b6001600160a01b03811661199457600080fd5b600080546040516001600160a01b03808516939216917fc7c0c772add429241571afb3805861fb3cfa2af374534088b76cdb4325a87e9a91a3600080547fffffffffffffffffffffffff0000000000000000000000000000000000000000166001600160a01b0392909216919091179055565b611a19826001600160a01b0316611cd9565b611a6a576040805162461bcd60e51b815260206004820152601f60248201527f5361666545524332303a2063616c6c20746f206e6f6e2d636f6e747261637400604482015290519081900360640190fd5b60006060836001600160a01b0316836040518082805190602001908083835b60208310611ac657805182527fffffffffffffffffffffffffffffffffffffffffffffffffffffffffffffffe09092019160209182019101611a89565b6001836020036101000a0380198251168184511680821785525050505050509050019150506000604051808303816000865af19150503d8060008114611b28576040519150601f19603f3d011682016040523d82523d6000602084013e611b2d565b606091505b509150915081611b84576040805162461bcd60e51b815260206004820181905260248201527f5361666545524332303a206c6f772d6c6576656c2063616c6c206661696c6564604482015290519081900360640190fd5b80511561196557808060200190516020811015611ba057600080fd5b50516119655760405162461bcd60e51b815260040180806020018281038252602a815260200180611d5f602a913960400191505060405180910390fd5b60008183611c695760405162461bcd60e51b81526004018080602001828103825283818151815260200191508051906020019080838360005b83811015611c2e578181015183820152602001611c16565b50505050905090810190601f168015611c5b5780820380516001836020036101000a031916815260200191505b509250505060405180910390fd5b506000838581611c7557fe5b0495945050505050565b60008184841115611cd15760405162461bcd60e51b8152602060048201818152835160248401528351909283926044909101919085019080838360008315611c2e578181015183820152602001611c16565b505050900390565b6000813f7fc5d2460186f7233c927e7db2dcc703c0e500b653ca82273b7bfad8045d85a470818114801590611d0d57508115155b94935050505056fe536166654d6174683a206d756c7469706c69636174696f6e206f766572666c6f774974206973206e6f742074696d654f6666657220746f20736574746c6520756e6465726c79696e675361666545524332303a204552433230206f7065726174696f6e20646964206e6f742073756363656564a264697066735822122070a0b0c160b25e9cb36343d1c47059cabe1971c8290a74a1e3a3fb75e106a52064736f6c63430006020033",
  "linkReferences": {},
  "deployedLinkReferences": {}
}