{
  "_format": "hh-sol-artifact-1",
  "contractName": "PublicSale",
  "sourceName": "contracts/PublicSale.sol",
  "abi": [
    {
      "inputs": [
        {
          "internalType": "address",
          "name": "governor_",
          "type": "address"
        },
        {
          "internalType": "address",
          "name": "currency_",
          "type": "address"
        },
        {
          "internalType": "address",
          "name": "underlying_",
          "type": "address"
        },
        {
          "internalType": "uint256",
          "name": "price_",
          "type": "uint256"
        },
        {
          "internalType": "uint256",
          "name": "timeOffer_",
          "type": "uint256"
        },
        {
          "internalType": "uint256",
          "name": "timeClaim_",
          "type": "uint256"
        },
        {
          "internalType": "address payable",
          "name": "recipient_",
          "type": "address"
        },
        {
          "internalType": "address payable",
          "name": "feeOwner_",
          "type": "address"
        },
        {
          "internalType": "uint256",
          "name": "feeRatio_",
          "type": "uint256"
        },
        {
          "internalType": "uint256",
          "name": "minUsdtTotalOffered_",
          "type": "uint256"
        },
        {
          "internalType": "uint256",
          "name": "maxUsdtTotalOffered_",
          "type": "uint256"
        }
      ],
      "stateMutability": "nonpayable",
      "type": "constructor"
    },
    {
      "anonymous": false,
      "inputs": [
        {
          "indexed": true,
          "internalType": "address",
          "name": "acct",
          "type": "address"
        },
        {
          "indexed": false,
          "internalType": "uint256",
          "name": "amount",
          "type": "uint256"
        },
        {
          "indexed": false,
          "internalType": "uint256",
          "name": "volume",
          "type": "uint256"
        },
        {
          "indexed": false,
          "internalType": "uint256",
          "name": "rate",
          "type": "uint256"
        }
      ],
      "name": "Claim",
      "type": "event"
    },
    {
      "anonymous": false,
      "inputs": [
        {
          "indexed": true,
          "internalType": "address",
          "name": "previousGovernor",
          "type": "address"
        },
        {
          "indexed": true,
          "internalType": "address",
          "name": "newGovernor",
          "type": "address"
        }
      ],
      "name": "GovernorshipTransferred",
      "type": "event"
    },
    {
      "anonymous": false,
      "inputs": [
        {
          "indexed": true,
          "internalType": "address",
          "name": "acct",
          "type": "address"
        },
        {
          "indexed": false,
          "internalType": "uint256",
          "name": "amount",
          "type": "uint256"
        },
        {
          "indexed": false,
          "internalType": "uint256",
          "name": "totalCurrency",
          "type": "uint256"
        }
      ],
      "name": "Offer",
      "type": "event"
    },
    {
      "anonymous": false,
      "inputs": [
        {
          "indexed": true,
          "internalType": "address",
          "name": "addr",
          "type": "address"
        },
        {
          "indexed": false,
          "internalType": "uint256",
          "name": "volumeUsdt",
          "type": "uint256"
        },
        {
          "indexed": false,
          "internalType": "uint256",
          "name": "total",
          "type": "uint256"
        }
      ],
      "name": "Revert",
      "type": "event"
    },
    {
      "anonymous": false,
      "inputs": [
        {
          "indexed": true,
          "internalType": "address",
          "name": "addr",
          "type": "address"
        },
        {
          "indexed": false,
          "internalType": "uint256",
          "name": "balance",
          "type": "uint256"
        },
        {
          "indexed": false,
          "internalType": "uint256",
          "name": "recipientBalance",
          "type": "uint256"
        }
      ],
      "name": "WithdrawCurrency",
      "type": "event"
    },
    {
      "anonymous": false,
      "inputs": [
        {
          "indexed": false,
          "internalType": "address",
          "name": "to",
          "type": "address"
        },
        {
          "indexed": false,
          "internalType": "uint256",
          "name": "amount",
          "type": "uint256"
        },
        {
          "indexed": false,
          "internalType": "uint256",
          "name": "volume",
          "type": "uint256"
        }
      ],
      "name": "Withdrawn",
      "type": "event"
    },
    {
      "stateMutability": "nonpayable",
      "type": "fallback"
    },
    {
      "inputs": [],
      "name": "claim",
      "outputs": [],
      "stateMutability": "nonpayable",
      "type": "function"
    },
    {
      "inputs": [
        {
          "internalType": "address",
          "name": "acct",
          "type": "address"
        }
      ],
      "name": "claimable",
      "outputs": [
        {
          "internalType": "bool",
          "name": "completed_",
          "type": "bool"
        },
        {
          "internalType": "uint256",
          "name": "amount",
          "type": "uint256"
        },
        {
          "internalType": "uint256",
          "name": "volume",
          "type": "uint256"
        },
        {
          "internalType": "uint256",
          "name": "rate",
          "type": "uint256"
        }
      ],
      "stateMutability": "view",
      "type": "function"
    },
    {
      "inputs": [],
      "name": "completed",
      "outputs": [
        {
          "internalType": "bool",
          "name": "",
          "type": "bool"
        }
      ],
      "stateMutability": "view",
      "type": "function"
    },
    {
      "inputs": [],
      "name": "currency",
      "outputs": [
        {
          "internalType": "address",
          "name": "",
          "type": "address"
        }
      ],
      "stateMutability": "view",
      "type": "function"
    },
    {
      "inputs": [],
      "name": "feeOwner",
      "outputs": [
        {
          "internalType": "address payable",
          "name": "",
          "type": "address"
        }
      ],
      "stateMutability": "view",
      "type": "function"
    },
    {
      "inputs": [],
      "name": "feeRatio",
      "outputs": [
        {
          "internalType": "uint256",
          "name": "",
          "type": "uint256"
        }
      ],
      "stateMutability": "view",
      "type": "function"
    },
    {
      "inputs": [],
      "name": "governor",
      "outputs": [
        {
          "internalType": "address",
          "name": "",
          "type": "address"
        }
      ],
      "stateMutability": "view",
      "type": "function"
    },
    {
      "inputs": [],
      "name": "maxUsdtTotalOffered",
      "outputs": [
        {
          "internalType": "uint256",
          "name": "",
          "type": "uint256"
        }
      ],
      "stateMutability": "view",
      "type": "function"
    },
    {
      "inputs": [],
      "name": "minUsdtTotalOffered",
      "outputs": [
        {
          "internalType": "uint256",
          "name": "",
          "type": "uint256"
        }
      ],
      "stateMutability": "view",
      "type": "function"
    },
    {
      "inputs": [
        {
          "internalType": "uint256",
          "name": "amount",
          "type": "uint256"
        }
      ],
      "name": "offer",
      "outputs": [],
      "stateMutability": "nonpayable",
      "type": "function"
    },
    {
      "inputs": [],
      "name": "price",
      "outputs": [
        {
          "internalType": "uint256",
          "name": "",
          "type": "uint256"
        }
      ],
      "stateMutability": "view",
      "type": "function"
    },
    {
      "inputs": [
        {
          "internalType": "address",
          "name": "",
          "type": "address"
        }
      ],
      "name": "purchasedCurrencyOf",
      "outputs": [
        {
          "internalType": "uint256",
          "name": "",
          "type": "uint256"
        }
      ],
      "stateMutability": "view",
      "type": "function"
    },
    {
      "inputs": [],
      "name": "recipient",
      "outputs": [
        {
          "internalType": "address payable",
          "name": "",
          "type": "address"
        }
      ],
      "stateMutability": "view",
      "type": "function"
    },
    {
      "inputs": [],
      "name": "renounceGovernorship",
      "outputs": [],
      "stateMutability": "nonpayable",
      "type": "function"
    },
    {
      "inputs": [
        {
          "internalType": "address",
          "name": "_token",
          "type": "address"
        },
        {
          "internalType": "address",
          "name": "_dst",
          "type": "address"
        }
      ],
      "name": "rescueTokens",
      "outputs": [],
      "stateMutability": "nonpayable",
      "type": "function"
    },
    {
      "inputs": [
        {
          "internalType": "address payable",
          "name": "feeOwner_",
          "type": "address"
        }
      ],
      "name": "setFeeOwner",
      "outputs": [],
      "stateMutability": "nonpayable",
      "type": "function"
    },
    {
      "inputs": [
        {
          "internalType": "uint256",
          "name": "feeRatio_",
          "type": "uint256"
        }
      ],
      "name": "setFeeRatio",
      "outputs": [],
      "stateMutability": "nonpayable",
      "type": "function"
    },
    {
      "inputs": [
        {
          "internalType": "uint256",
          "name": "maxUsdtTotalOffered_",
          "type": "uint256"
        }
      ],
      "name": "setMaxUsdtTotalOffered",
      "outputs": [],
      "stateMutability": "nonpayable",
      "type": "function"
    },
    {
      "inputs": [
        {
          "internalType": "uint256",
          "name": "minUsdtTotalOffered_",
          "type": "uint256"
        }
      ],
      "name": "setMinUsdtTotalOffered",
      "outputs": [],
      "stateMutability": "nonpayable",
      "type": "function"
    },
    {
      "inputs": [
        {
          "internalType": "address payable",
          "name": "recipient_",
          "type": "address"
        }
      ],
      "name": "setRecipient",
      "outputs": [],
      "stateMutability": "nonpayable",
      "type": "function"
    },
    {
      "inputs": [
        {
          "internalType": "uint256",
          "name": "timeClaim_",
          "type": "uint256"
        }
      ],
      "name": "setTimeClaim",
      "outputs": [],
      "stateMutability": "nonpayable",
      "type": "function"
    },
    {
      "inputs": [
        {
          "internalType": "uint256",
          "name": "timeOffer_",
          "type": "uint256"
        }
      ],
      "name": "setTimeOffer",
      "outputs": [],
      "stateMutability": "nonpayable",
      "type": "function"
    },
    {
      "inputs": [],
      "name": "settleRate",
      "outputs": [
        {
          "internalType": "uint256",
          "name": "",
          "type": "uint256"
        }
      ],
      "stateMutability": "view",
      "type": "function"
    },
    {
      "inputs": [
        {
          "internalType": "address",
          "name": "",
          "type": "address"
        }
      ],
      "name": "settledCurrencyOf",
      "outputs": [
        {
          "internalType": "uint256",
          "name": "",
          "type": "uint256"
        }
      ],
      "stateMutability": "view",
      "type": "function"
    },
    {
      "inputs": [
        {
          "internalType": "address",
          "name": "",
          "type": "address"
        }
      ],
      "name": "settledUnderlyingOf",
      "outputs": [
        {
          "internalType": "uint256",
          "name": "",
          "type": "uint256"
        }
      ],
      "stateMutability": "view",
      "type": "function"
    },
    {
      "inputs": [],
      "name": "timeClaim",
      "outputs": [
        {
          "internalType": "uint256",
          "name": "",
          "type": "uint256"
        }
      ],
      "stateMutability": "view",
      "type": "function"
    },
    {
      "inputs": [],
      "name": "timeOffer",
      "outputs": [
        {
          "internalType": "uint256",
          "name": "",
          "type": "uint256"
        }
      ],
      "stateMutability": "view",
      "type": "function"
    },
    {
      "inputs": [],
      "name": "totalClaimable",
      "outputs": [
        {
          "internalType": "bool",
          "name": "completed_",
          "type": "bool"
        },
        {
          "internalType": "uint256",
          "name": "amount",
          "type": "uint256"
        },
        {
          "internalType": "uint256",
          "name": "volume",
          "type": "uint256"
        },
        {
          "internalType": "uint256",
          "name": "rate",
          "type": "uint256"
        }
      ],
      "stateMutability": "view",
      "type": "function"
    },
    {
      "inputs": [],
      "name": "totalPurchasedCurrency",
      "outputs": [
        {
          "internalType": "uint256",
          "name": "",
          "type": "uint256"
        }
      ],
      "stateMutability": "view",
      "type": "function"
    },
    {
      "inputs": [],
      "name": "totalSettledUnderlying",
      "outputs": [
        {
          "internalType": "uint256",
          "name": "",
          "type": "uint256"
        }
      ],
      "stateMutability": "view",
      "type": "function"
    },
    {
      "inputs": [
        {
          "internalType": "address",
          "name": "newGovernor",
          "type": "address"
        }
      ],
      "name": "transferGovernorship",
      "outputs": [],
      "stateMutability": "nonpayable",
      "type": "function"
    },
    {
      "inputs": [],
      "name": "underlying",
      "outputs": [
        {
          "internalType": "address",
          "name": "",
          "type": "address"
        }
      ],
      "stateMutability": "view",
      "type": "function"
    },
    {
      "inputs": [
        {
          "internalType": "address payable",
          "name": "to",
          "type": "address"
        },
        {
          "internalType": "uint256",
          "name": "amount",
          "type": "uint256"
        },
        {
          "internalType": "uint256",
          "name": "volume",
          "type": "uint256"
        }
      ],
      "name": "withdraw",
      "outputs": [],
      "stateMutability": "nonpayable",
      "type": "function"
    },
    {
      "inputs": [],
      "name": "withdrawCurrencyToken",
      "outputs": [],
      "stateMutability": "nonpayable",
      "type": "function"
    },
    {
      "inputs": [
        {
          "internalType": "address payable",
          "name": "_dst",
          "type": "address"
        }
      ],
      "name": "withdrawEth",
      "outputs": [],
      "stateMutability": "nonpayable",
      "type": "function"
    },
    {
      "inputs": [],
      "name": "withdrawEth",
      "outputs": [],
      "stateMutability": "nonpayable",
      "type": "function"
    },
    {
      "inputs": [
        {
          "internalType": "address",
          "name": "_dst",
          "type": "address"
        }
      ],
      "name": "withdrawToken",
      "outputs": [],
      "stateMutability": "nonpayable",
      "type": "function"
    },
    {
      "inputs": [],
      "name": "withdrawToken",
      "outputs": [],
      "stateMutability": "nonpayable",
      "type": "function"
    },
    {
      "inputs": [],
      "name": "withdrawable",
      "outputs": [
        {
          "internalType": "uint256",
          "name": "amt",
          "type": "uint256"
        },
        {
          "internalType": "uint256",
          "name": "vol",
          "type": "uint256"
        }
      ],
      "stateMutability": "view",
      "type": "function"
    }
  ],
  "bytecode": "0x60806040523480156200001157600080fd5b50604051620025bc380380620025bc83398181016040526101608110156200003857600080fd5b508051602082015160408301516060840151608085015160a086015160c087015160e08801516101008901516101208a0151610140909a01519899979896979596949593949293919290919081811015620000ce576040805162461bcd60e51b815260206004820152601160248201527036b0bc1039b437bab6321033ba1036b4b760791b604482015290519081900360640190fd5b620000e28b6001600160e01b03620001c016565b600180546001600160a01b03808d166001600160a01b03199283161790925560028054928c169290911691909117905560038890556004879055600b8690558686101562000177576040805162461bcd60e51b815260206004820152601f60248201527f74696d65436c61696d5f2073686f756c64203e3d2074696d654f666665725f00604482015290519081900360640190fd5b600f80546001600160a01b03199081166001600160a01b0397881617909155600e939093556010805490931693909416929092179055601155601255506200022f945050505050565b6001600160a01b038116620001d457600080fd5b600080546040516001600160a01b03808516939216917fc7c0c772add429241571afb3805861fb3cfa2af374534088b76cdb4325a87e9a91a3600080546001600160a01b0319166001600160a01b0392909216919091179055565b61237d806200023f6000396000f3fe608060405234801561001057600080fd5b50600436106102ad5760003560e01c8063761610fc1161017b578063b3a60f96116100d8578063c59504cc1161008c578063e5a6b10f11610071578063e5a6b10f146105fb578063ef14517814610603578063f27cf06314610629576102ad565b8063c59504cc146105eb578063ca628c78146105f3576102ad565b8063b6aa515b116100bd578063b6aa515b14610597578063b81d51d6146105bd578063b9818be1146105e3576102ad565b8063b3a60f961461053f578063b5c5f67214610565576102ad565b80638d52fcef1161012f5780639da61298116101145780639da6129814610527578063a035b1fe1461052f578063a0ef91df14610537576102ad565b80638d52fcef146104ee5780639d9a7fe91461050b576102ad565b806381c0c2631161016057806381c0c263146104b857806384ca93a7146104c057806389476069146104c8576102ad565b8063761610fc1461049357806378c8e65f146104b0576102ad565b8063402914f5116102295780634e71d92d116101dd5780635431c94e116101c25780635431c94e1461045557806366d003ac146104835780636f307dc31461048b576102ad565b80634e71d92d146102ad5780635018830114610434576102ad565b80634838ed191161020e5780634838ed19146103e95780634b104eff146103f15780634b34f93114610417576102ad565b8063402914f51461039357806341744dd4146103e1576102ad565b806326d7d2c311610280578063368e9d6a11610265578063368e9d6a1461034857806336cb0763146103655780633bbed4a01461036d576102ad565b806326d7d2c314610338578063356130bc14610340576102ad565b80630c340a24146102b757806316d95c1e146102db57806319f4ff2f146102f557806325e1606314610312575b6102b5610646565b005b6102bf610ad5565b604080516001600160a01b039092168252519081900360200190f35b6102e3610ae4565b60408051918252519081900360200190f35b6102b56004803603602081101561030b57600080fd5b5035610aea565b6102b56004803603602081101561032857600080fd5b50356001600160a01b0316610b06565b6102b5610b56565b6102e3610cdd565b6102b56004803603602081101561035e57600080fd5b5035610ce3565b6102e3610cff565b6102b56004803603602081101561038357600080fd5b50356001600160a01b0316610d05565b6103b9600480360360208110156103a957600080fd5b50356001600160a01b0316610d56565b6040805194151585526020850193909352838301919091526060830152519081900360800190f35b6102e3611018565b6103b961101e565b6102b56004803603602081101561040757600080fd5b50356001600160a01b031661103c565b6102b56004803603602081101561042d57600080fd5b503561108d565b61043c611100565b6040805192835260208301919091528051918290030190f35b6102b56004803603604081101561046b57600080fd5b506001600160a01b0381358116916020013516611331565b6102bf6113f8565b6102bf611407565b6102b5600480360360208110156104a957600080fd5b5035611416565b6102e3611904565b6102b561190a565b6102e3611983565b6102b5600480360360208110156104de57600080fd5b50356001600160a01b0316611989565b6102b56004803603602081101561050457600080fd5b50356119b9565b6105136119d5565b604080519115158252519081900360200190f35b6102e36119de565b6102e36119e4565b6102b56119ea565b6102e36004803603602081101561055557600080fd5b50356001600160a01b0316611a2d565b6102b56004803603606081101561057b57600080fd5b506001600160a01b038135169060208101359060400135611a3f565b6102b5600480360360208110156105ad57600080fd5b50356001600160a01b0316611bab565b6102e3600480360360208110156105d357600080fd5b50356001600160a01b0316611bcb565b6102bf611bdd565b6102e3611bec565b6102b5611bf2565b6102bf611c1f565b6102e36004803603602081101561061957600080fd5b50356001600160a01b0316611c2e565b6102b56004803603602081101561063f57600080fd5b5035611c40565b600b5442101561069d576040805162461bcd60e51b815260206004820152601760248201527f4974206973206e6f742074696d65436c61696d20796574000000000000000000604482015290519081900360640190fd5b6011546005541015610866573360009081526006602052604090205461070a576040805162461bcd60e51b815260206004820152601e60248201527f7075726368617365642043757272656e63792073686f756c6420677420300000604482015290519081900360640190fd5b600554600154604080517f70a0823100000000000000000000000000000000000000000000000000000000815230600482015290516001600160a01b03909216916370a0823191602480820192602092909190829003018186803b15801561077157600080fd5b505afa158015610785573d6000803e3d6000fd5b505050506040513d602081101561079b57600080fd5b505110156107da5760405162461bcd60e51b81526004018080602001828103825260298152602001806122cd6029913960400191505060405180910390fd5b3360009081526006602052604081208054919055600554610801908263ffffffff611cb316565b600555600154610821906001600160a01b0316338363ffffffff611cfe16565b600554604080518381526020810192909252805133927f0308c23d95247f0643fa21764a468f2ca3b9ef1ec7377d2370ba3e7c0ac9dcd292908290030190a250610ad3565b33600090815260096020526040902054158061088f5750336000908152600d6020526040902054155b6108e0576040805162461bcd60e51b815260206004820152600f60248201527f736574746c656420616c72656164790000000000000000000000000000000000604482015290519081900360640190fd5b6000806000806108ef33610d56565b93509350935093508361092d57600780547fffffffffffffffffffffffffffffffffffffffffffffffffffffffffffffff00166001179055600a8190555b336000908152600d602052604090205461094d908463ffffffff611d7e16565b336000908152600d6020526040902055600c54610970908463ffffffff611d7e16565b600c556001546001600160a01b03166109b657604051339084156108fc029085906000818181858888f193505050501580156109b0573d6000803e3d6000fd5b506109d3565b6001546109d3906001600160a01b0316338563ffffffff611cfe16565b60008311806109e45750600b544210155b610a1f5760405162461bcd60e51b81526004018080602001828103825260288152602001806123206028913960400191505060405180910390fd5b600b544210610a8b5733600090815260096020526040902054610a48908363ffffffff611d7e16565b33600090815260096020526040902055600854610a6b908363ffffffff611d7e16565b600855600254610a8b906001600160a01b0316338463ffffffff611cfe16565b6040805184815260208101849052808201839052905133917f45c072aa05b9853b5a993de7a28bc332ee01404a628cec1a23ce0f659f842ef1919081900360600190a2505050505b565b6000546001600160a01b031681565b60115481565b6000546001600160a01b03163314610b0157600080fd5b600e55565b6000546001600160a01b03163314610b1d57600080fd5b6040516001600160a01b038216904780156108fc02916000818181858888f19350505050158015610b52573d6000803e3d6000fd5b5050565b6000546001600160a01b03163314610b6d57600080fd5b600154604080517f70a0823100000000000000000000000000000000000000000000000000000000815230600482015290516000926001600160a01b0316916370a08231916024808301926020929190829003018186803b158015610bd157600080fd5b505afa158015610be5573d6000803e3d6000fd5b505050506040513d6020811015610bfb57600080fd5b5051600e54909150600090610c3190670de0b6b3a764000090610c2590859063ffffffff611dd816565b9063ffffffff611e3116565b90506000610c45838363ffffffff611cb316565b600f54600154919250610c6b916001600160a01b0390811691168363ffffffff611cfe16565b601054600154610c8e916001600160a01b0391821691168463ffffffff611cfe16565b600f54604080518581526020810184905281516001600160a01b03909316927ff0fa8383bc9412382eb19bc4c20cb3a68b6a8c505d5deb5fcd132e260250f983929181900390910190a2505050565b600b5481565b6000546001600160a01b03163314610cfa57600080fd5b600b55565b60085481565b6000546001600160a01b03163314610d1c57600080fd5b600f80547fffffffffffffffffffffffff0000000000000000000000000000000000000000166001600160a01b0392909216919091179055565b60075460ff16600080808315610d6f5750600a54610f13565b6001546000906001600160a01b031615610e1857600154604080517f70a0823100000000000000000000000000000000000000000000000000000000815230600482015290516001600160a01b03909216916370a0823191602480820192602092909190829003018186803b158015610de757600080fd5b505afa158015610dfb573d6000803e3d6000fd5b505050506040513d6020811015610e1157600080fd5b5051610e1a565b475b600254604080517f70a0823100000000000000000000000000000000000000000000000000000000815230600482015290519293506000926001600160a01b03909216916370a0823191602480820192602092909190829003018186803b158015610e8457600080fd5b505afa158015610e98573d6000803e3d6000fd5b505050506040513d6020811015610eae57600080fd5b50519050610eca82670de0b6b3a764000063ffffffff611dd816565b600354610ede90839063ffffffff611dd816565b1015610f0457610efd82610c2560035484611dd890919063ffffffff16565b9250610f10565b670de0b6b3a764000092505b50505b60006001600160a01b03861615610f42576001600160a01b038616600090815260066020526040902054610f46565b6005545b90506000610f66670de0b6b3a7640000610c25848663ffffffff611dd816565b9050610fb86001600160a01b03881615610f98576001600160a01b0388166000908152600d6020526040902054610f9c565b600c545b610fac848463ffffffff611cb316565b9063ffffffff611cb316565b945061100d6001600160a01b03881615610fea576001600160a01b038816600090815260096020526040902054610fee565b6008545b600354610fac90610c2585670de0b6b3a764000063ffffffff611dd816565b935050509193509193565b600e5481565b60008060008061102e6000610d56565b935093509350935090919293565b6000546001600160a01b0316331461105357600080fd5b601080547fffffffffffffffffffffffff0000000000000000000000000000000000000000166001600160a01b0392909216919091179055565b6000546001600160a01b031633146110a457600080fd5b6011548110156110fb576040805162461bcd60e51b815260206004820152601160248201527f6d61782073686f756c64206774206d696e000000000000000000000000000000604482015290519081900360640190fd5b601255565b600754600090819060ff1661111a5750600090508061132d565b6001546001600160a01b0316156111c057600154604080517f70a0823100000000000000000000000000000000000000000000000000000000815230600482015290516001600160a01b03909216916370a0823191602480820192602092909190829003018186803b15801561118f57600080fd5b505afa1580156111a3573d6000803e3d6000fd5b505050506040513d60208110156111b957600080fd5b50516111c2565b475b9150611267611202670de0b6b3a7640000610c256111f3600a54670de0b6b3a7640000611cb390919063ffffffff16565b6005549063ffffffff611dd816565b610fac61125a670de0b6b3a7640000610c25611231600a54670de0b6b3a7640000611cb390919063ffffffff16565b61124e600a54610c25600354600854611dd890919063ffffffff16565b9063ffffffff611dd816565b859063ffffffff611d7e16565b915061132a611289600354610c25600a54600554611dd890919063ffffffff16565b600854600254604080517f70a082310000000000000000000000000000000000000000000000000000000081523060048201529051610fac93926001600160a01b0316916370a08231916024808301926020929190829003018186803b1580156112f257600080fd5b505afa158015611306573d6000803e3d6000fd5b505050506040513d602081101561131c57600080fd5b50519063ffffffff611d7e16565b90505b9091565b6000546001600160a01b0316331461134857600080fd5b604080517f70a0823100000000000000000000000000000000000000000000000000000000815230600482015290516000916001600160a01b038516916370a0823191602480820192602092909190829003018186803b1580156113ab57600080fd5b505afa1580156113bf573d6000803e3d6000fd5b505050506040513d60208110156113d557600080fd5b505190506113f36001600160a01b038416838363ffffffff611cfe16565b505050565b600f546001600160a01b031681565b6002546001600160a01b031681565b6001546001600160a01b0316611473576040805162461bcd60e51b815260206004820152601e60248201527f73686f756c642063616c6c206f66666572457468282920696e73746561640000604482015290519081900360640190fd5b6004544210156114ca576040805162461bcd60e51b815260206004820152601160248201527f69742773206e6f742074696d6520796574000000000000000000000000000000604482015290519081900360640190fd5b6000811161151f576040805162461bcd60e51b815260206004820152601260248201527f616d6f756e742073686f756c6420677420300000000000000000000000000000604482015290519081900360640190fd5b600b544210611575576040805162461bcd60e51b815260206004820152600760248201527f6578706972656400000000000000000000000000000000000000000000000000604482015290519081900360640190fd5b600081116115ca576040805162461bcd60e51b815260206004820152600860248201527f6e6f2071756f7461000000000000000000000000000000000000000000000000604482015290519081900360640190fd5b600154604080517fdd62ed3e000000000000000000000000000000000000000000000000000000008152336004820152306024820152905183926001600160a01b03169163dd62ed3e916044808301926020929190829003018186803b15801561163357600080fd5b505afa158015611647573d6000803e3d6000fd5b505050506040513d602081101561165d57600080fd5b505110156116b2576040805162461bcd60e51b815260206004820152601460248201527f616c6c6f77616e6365206e6f7420656e6f756768000000000000000000000000604482015290519081900360640190fd5b600154604080517f70a08231000000000000000000000000000000000000000000000000000000008152336004820152905183926001600160a01b0316916370a08231916024808301926020929190829003018186803b15801561171557600080fd5b505afa158015611729573d6000803e3d6000fd5b505050506040513d602081101561173f57600080fd5b50511015611794576040805162461bcd60e51b815260206004820152601260248201527f62616c616e6365206e6f7420656e6f7567680000000000000000000000000000604482015290519081900360640190fd5b33600090815260066020526040902054156117f6576040805162461bcd60e51b815260206004820152600f60248201527f6f66666572656420616c72656164790000000000000000000000000000000000604482015290519081900360640190fd5b60125460055461180c908363ffffffff611d7e16565b111561185f576040805162461bcd60e51b815260206004820152601e60248201527f73686f756c64206773206d617855736474546f74616c4f666665726564730000604482015290519081900360640190fd5b60015461187d906001600160a01b031633308463ffffffff611e7316565b3360009081526006602052604090205461189d908263ffffffff611d7e16565b336000908152600660205260409020556005546118c0908263ffffffff611d7e16565b6005819055604080518381526020810192909252805133927f4a68fde121386ffcfc9555407bfb38625033a0d0d3726b00f56b4ab304b5544792908290030190a250565b60045481565b6000546001600160a01b0316331461192157600080fd5b600080546040516001600160a01b03909116907fc7c0c772add429241571afb3805861fb3cfa2af374534088b76cdb4325a87e9a908390a3600080547fffffffffffffffffffffffff0000000000000000000000000000000000000000169055565b60055481565b6000546001600160a01b031633146119a057600080fd5b6002546119b6906001600160a01b031682611331565b50565b6000546001600160a01b031633146119d057600080fd5b600455565b60075460ff1681565b60125481565b60035481565b6000546001600160a01b03163314611a0157600080fd5b60405133904780156108fc02916000818181858888f193505050501580156119b6573d6000803e3d6000fd5b60066020526000908152604090205481565b6000546001600160a01b03163314611a5657600080fd5b60075460ff16611aad576040805162461bcd60e51b815260206004820152600b60248201527f756e636f6d706c65746564000000000000000000000000000000000000000000604482015290519081900360640190fd5b600080611ab8611100565b91509150611ac68483611f01565b9350611ad28382611f01565b6001549093506001600160a01b0316611b21576040516001600160a01b0386169085156108fc029086906000818181858888f19350505050158015611b1b573d6000803e3d6000fd5b50611b3e565b600154611b3e906001600160a01b0316868663ffffffff611cfe16565b600254611b5b906001600160a01b0316868563ffffffff611cfe16565b604080516001600160a01b03871681526020810186905280820185905290517f92ccf450a286a957af52509bc1c9939d1a6a481783e142e41e2499f0bb66ebc69181900360600190a15050505050565b6000546001600160a01b03163314611bc257600080fd5b6119b681611f17565b60096020526000908152604090205481565b6010546001600160a01b031681565b600a5481565b6000546001600160a01b03163314611c0957600080fd5b600254610ad3906001600160a01b031633611331565b6001546001600160a01b031681565b600d6020526000908152604090205481565b6000546001600160a01b03163314611c5757600080fd5b806012541015611cae576040805162461bcd60e51b815260206004820152601160248201527f6d61782073686f756c64206774206d696e000000000000000000000000000000604482015290519081900360640190fd5b601155565b6000611cf583836040518060400160405280601e81526020017f536166654d6174683a207375627472616374696f6e206f766572666c6f770000815250611f9d565b90505b92915050565b604080516001600160a01b038416602482015260448082018490528251808303909101815260649091019091526020810180517bffffffffffffffffffffffffffffffffffffffffffffffffffffffff167fa9059cbb000000000000000000000000000000000000000000000000000000001790526113f3908490612034565b600082820183811015611cf5576040805162461bcd60e51b815260206004820152601b60248201527f536166654d6174683a206164646974696f6e206f766572666c6f770000000000604482015290519081900360640190fd5b600082611de757506000611cf8565b82820282848281611df457fe5b0414611cf55760405162461bcd60e51b81526004018080602001828103825260218152602001806122ac6021913960400191505060405180910390fd5b6000611cf583836040518060400160405280601a81526020017f536166654d6174683a206469766973696f6e206279207a65726f00000000000081525061220a565b604080516001600160a01b0380861660248301528416604482015260648082018490528251808303909101815260849091019091526020810180517bffffffffffffffffffffffffffffffffffffffffffffffffffffffff167f23b872dd00000000000000000000000000000000000000000000000000000000179052611efb908590612034565b50505050565b6000818310611f105781611cf5565b5090919050565b6001600160a01b038116611f2a57600080fd5b600080546040516001600160a01b03808516939216917fc7c0c772add429241571afb3805861fb3cfa2af374534088b76cdb4325a87e9a91a3600080547fffffffffffffffffffffffff0000000000000000000000000000000000000000166001600160a01b0392909216919091179055565b6000818484111561202c5760405162461bcd60e51b81526004018080602001828103825283818151815260200191508051906020019080838360005b83811015611ff1578181015183820152602001611fd9565b50505050905090810190601f16801561201e5780820380516001836020036101000a031916815260200191505b509250505060405180910390fd5b505050900390565b612046826001600160a01b031661226f565b612097576040805162461bcd60e51b815260206004820152601f60248201527f5361666545524332303a2063616c6c20746f206e6f6e2d636f6e747261637400604482015290519081900360640190fd5b60006060836001600160a01b0316836040518082805190602001908083835b602083106120f357805182527fffffffffffffffffffffffffffffffffffffffffffffffffffffffffffffffe090920191602091820191016120b6565b6001836020036101000a0380198251168184511680821785525050505050509050019150506000604051808303816000865af19150503d8060008114612155576040519150601f19603f3d011682016040523d82523d6000602084013e61215a565b606091505b5091509150816121b1576040805162461bcd60e51b815260206004820181905260248201527f5361666545524332303a206c6f772d6c6576656c2063616c6c206661696c6564604482015290519081900360640190fd5b805115611efb578080602001905160208110156121cd57600080fd5b5051611efb5760405162461bcd60e51b815260040180806020018281038252602a8152602001806122f6602a913960400191505060405180910390fd5b600081836122595760405162461bcd60e51b8152602060048201818152835160248401528351909283926044909101919085019080838360008315611ff1578181015183820152602001611fd9565b50600083858161226557fe5b0495945050505050565b6000813f7fc5d2460186f7233c927e7db2dcc703c0e500b653ca82273b7bfad8045d85a4708181148015906122a357508115155b94935050505056fe536166654d6174683a206d756c7469706c69636174696f6e206f766572666c6f772050757263686173652055736474206e756d6265722073686f756c642067742062616c616e616365215361666545524332303a204552433230206f7065726174696f6e20646964206e6f7420737563636565644974206973206e6f742074696d65436c61696d20746f20736574746c6520756e6465726c79696e67a26469706673582212201c3ae245c6824f605a802a9b475e54dcc3d2833e555ed45641461696aa61e45464736f6c63430006020033",
  "linkReferences": {},
  "deployedLinkReferences": {}
}