{
  "_format": "hh-sol-artifact-1",
  "contractName": "WhiteList",
  "sourceName": "contracts/WhiteList.sol",
  "abi": [
    {
      "inputs": [
        {
          "internalType": "address",
          "name": "governor_",
          "type": "address"
        },
        {
          "internalType": "address",
          "name": "currency_",
          "type": "address"
        },
        {
          "internalType": "address",
          "name": "token_",
          "type": "address"
        },
        {
          "internalType": "uint256",
          "name": "price_",
          "type": "uint256"
        },
        {
          "internalType": "address payable",
          "name": "recipient_",
          "type": "address"
        },
        {
          "internalType": "address payable",
          "name": "feeOwner_",
          "type": "address"
        },
        {
          "internalType": "uint256",
          "name": "feeRatio_",
          "type": "uint256"
        },
        {
          "internalType": "uint256",
          "name": "timeOffer_",
          "type": "uint256"
        },
        {
          "internalType": "uint256",
          "name": "timeClaim_",
          "type": "uint256"
        },
        {
          "internalType": "uint256",
          "name": "minUsdtTotalOffered_",
          "type": "uint256"
        },
        {
          "internalType": "uint256",
          "name": "minUsdtPersonOffered_",
          "type": "uint256"
        }
      ],
      "stateMutability": "nonpayable",
      "type": "constructor"
    },
    {
      "anonymous": false,
      "inputs": [
        {
          "indexed": true,
          "internalType": "address",
          "name": "addr",
          "type": "address"
        },
        {
          "indexed": false,
          "internalType": "uint256",
          "name": "volume",
          "type": "uint256"
        },
        {
          "indexed": false,
          "internalType": "uint256",
          "name": "total",
          "type": "uint256"
        }
      ],
      "name": "Claim",
      "type": "event"
    },
    {
      "anonymous": false,
      "inputs": [
        {
          "indexed": true,
          "internalType": "address",
          "name": "previousGovernor",
          "type": "address"
        },
        {
          "indexed": true,
          "internalType": "address",
          "name": "newGovernor",
          "type": "address"
        }
      ],
      "name": "GovernorshipTransferred",
      "type": "event"
    },
    {
      "anonymous": false,
      "inputs": [
        {
          "indexed": true,
          "internalType": "address",
          "name": "addr",
          "type": "address"
        },
        {
          "indexed": false,
          "internalType": "uint256",
          "name": "amount",
          "type": "uint256"
        }
      ],
      "name": "MinUsdtPersonOffered",
      "type": "event"
    },
    {
      "anonymous": false,
      "inputs": [
        {
          "indexed": true,
          "internalType": "address",
          "name": "addr",
          "type": "address"
        },
        {
          "indexed": false,
          "internalType": "uint256",
          "name": "amount",
          "type": "uint256"
        },
        {
          "indexed": false,
          "internalType": "uint256",
          "name": "volume",
          "type": "uint256"
        },
        {
          "indexed": false,
          "internalType": "uint256",
          "name": "total",
          "type": "uint256"
        }
      ],
      "name": "Offer",
      "type": "event"
    },
    {
      "anonymous": false,
      "inputs": [
        {
          "indexed": true,
          "internalType": "address",
          "name": "addr",
          "type": "address"
        },
        {
          "indexed": false,
          "internalType": "uint256",
          "name": "amount",
          "type": "uint256"
        },
        {
          "indexed": false,
          "internalType": "uint256",
          "name": "total",
          "type": "uint256"
        }
      ],
      "name": "Quota",
      "type": "event"
    },
    {
      "anonymous": false,
      "inputs": [
        {
          "indexed": true,
          "internalType": "address",
          "name": "addr",
          "type": "address"
        },
        {
          "indexed": false,
          "internalType": "uint256",
          "name": "volume",
          "type": "uint256"
        },
        {
          "indexed": false,
          "internalType": "uint256",
          "name": "volumeUsdt",
          "type": "uint256"
        },
        {
          "indexed": false,
          "internalType": "uint256",
          "name": "total",
          "type": "uint256"
        }
      ],
      "name": "Revert",
      "type": "event"
    },
    {
      "anonymous": false,
      "inputs": [
        {
          "indexed": true,
          "internalType": "address",
          "name": "acct",
          "type": "address"
        },
        {
          "indexed": false,
          "internalType": "address",
          "name": "add",
          "type": "address"
        }
      ],
      "name": "SetFeeOwner",
      "type": "event"
    },
    {
      "anonymous": false,
      "inputs": [
        {
          "indexed": true,
          "internalType": "address",
          "name": "acct",
          "type": "address"
        },
        {
          "indexed": false,
          "internalType": "uint256",
          "name": "amount",
          "type": "uint256"
        }
      ],
      "name": "SetFeeRatio",
      "type": "event"
    },
    {
      "anonymous": false,
      "inputs": [
        {
          "indexed": true,
          "internalType": "address",
          "name": "acct",
          "type": "address"
        },
        {
          "indexed": false,
          "internalType": "uint256",
          "name": "amount",
          "type": "uint256"
        }
      ],
      "name": "SetMinUsdtTotalOffered",
      "type": "event"
    },
    {
      "anonymous": false,
      "inputs": [
        {
          "indexed": true,
          "internalType": "address",
          "name": "acct",
          "type": "address"
        },
        {
          "indexed": false,
          "internalType": "address",
          "name": "add",
          "type": "address"
        }
      ],
      "name": "SetRecipient",
      "type": "event"
    },
    {
      "anonymous": false,
      "inputs": [
        {
          "indexed": true,
          "internalType": "address",
          "name": "acct",
          "type": "address"
        },
        {
          "indexed": false,
          "internalType": "uint256",
          "name": "amount",
          "type": "uint256"
        }
      ],
      "name": "SetTimeClaim",
      "type": "event"
    },
    {
      "anonymous": false,
      "inputs": [
        {
          "indexed": true,
          "internalType": "address",
          "name": "acct",
          "type": "address"
        },
        {
          "indexed": false,
          "internalType": "uint256",
          "name": "amount",
          "type": "uint256"
        }
      ],
      "name": "SetTimeOffer",
      "type": "event"
    },
    {
      "anonymous": false,
      "inputs": [
        {
          "indexed": true,
          "internalType": "address",
          "name": "addr",
          "type": "address"
        },
        {
          "indexed": false,
          "internalType": "uint256",
          "name": "balance",
          "type": "uint256"
        },
        {
          "indexed": false,
          "internalType": "uint256",
          "name": "recipientBalance",
          "type": "uint256"
        }
      ],
      "name": "WithdrawCurrency",
      "type": "event"
    },
    {
      "stateMutability": "nonpayable",
      "type": "fallback"
    },
    {
      "inputs": [],
      "name": "claim",
      "outputs": [],
      "stateMutability": "nonpayable",
      "type": "function"
    },
    {
      "inputs": [
        {
          "internalType": "address",
          "name": "",
          "type": "address"
        }
      ],
      "name": "claimedOf",
      "outputs": [
        {
          "internalType": "uint256",
          "name": "",
          "type": "uint256"
        }
      ],
      "stateMutability": "view",
      "type": "function"
    },
    {
      "inputs": [],
      "name": "contractType",
      "outputs": [
        {
          "internalType": "uint256",
          "name": "",
          "type": "uint256"
        }
      ],
      "stateMutability": "view",
      "type": "function"
    },
    {
      "inputs": [],
      "name": "currency",
      "outputs": [
        {
          "internalType": "contract IERC20",
          "name": "",
          "type": "address"
        }
      ],
      "stateMutability": "view",
      "type": "function"
    },
    {
      "inputs": [],
      "name": "feeOwner",
      "outputs": [
        {
          "internalType": "address payable",
          "name": "",
          "type": "address"
        }
      ],
      "stateMutability": "view",
      "type": "function"
    },
    {
      "inputs": [],
      "name": "feeRatio",
      "outputs": [
        {
          "internalType": "uint256",
          "name": "",
          "type": "uint256"
        }
      ],
      "stateMutability": "view",
      "type": "function"
    },
    {
      "inputs": [
        {
          "internalType": "address",
          "name": "addr",
          "type": "address"
        }
      ],
      "name": "getMinUsdtPersonOf",
      "outputs": [
        {
          "internalType": "uint256",
          "name": "amount",
          "type": "uint256"
        }
      ],
      "stateMutability": "view",
      "type": "function"
    },
    {
      "inputs": [],
      "name": "governor",
      "outputs": [
        {
          "internalType": "address",
          "name": "",
          "type": "address"
        }
      ],
      "stateMutability": "view",
      "type": "function"
    },
    {
      "inputs": [
        {
          "internalType": "address",
          "name": "",
          "type": "address"
        }
      ],
      "name": "minUsdtPersonOf",
      "outputs": [
        {
          "internalType": "uint256",
          "name": "",
          "type": "uint256"
        }
      ],
      "stateMutability": "view",
      "type": "function"
    },
    {
      "inputs": [],
      "name": "minUsdtPersonOffered",
      "outputs": [
        {
          "internalType": "uint256",
          "name": "",
          "type": "uint256"
        }
      ],
      "stateMutability": "view",
      "type": "function"
    },
    {
      "inputs": [],
      "name": "minUsdtTotalOffered",
      "outputs": [
        {
          "internalType": "uint256",
          "name": "",
          "type": "uint256"
        }
      ],
      "stateMutability": "view",
      "type": "function"
    },
    {
      "inputs": [
        {
          "internalType": "uint256",
          "name": "amount",
          "type": "uint256"
        }
      ],
      "name": "offer",
      "outputs": [],
      "stateMutability": "payable",
      "type": "function"
    },
    {
      "inputs": [
        {
          "internalType": "address",
          "name": "",
          "type": "address"
        }
      ],
      "name": "offeredOf",
      "outputs": [
        {
          "internalType": "uint256",
          "name": "",
          "type": "uint256"
        }
      ],
      "stateMutability": "view",
      "type": "function"
    },
    {
      "inputs": [
        {
          "internalType": "address",
          "name": "",
          "type": "address"
        }
      ],
      "name": "offeredUsdtOf",
      "outputs": [
        {
          "internalType": "uint256",
          "name": "",
          "type": "uint256"
        }
      ],
      "stateMutability": "view",
      "type": "function"
    },
    {
      "inputs": [],
      "name": "price",
      "outputs": [
        {
          "internalType": "uint256",
          "name": "",
          "type": "uint256"
        }
      ],
      "stateMutability": "view",
      "type": "function"
    },
    {
      "inputs": [
        {
          "internalType": "address",
          "name": "",
          "type": "address"
        }
      ],
      "name": "quotaUsdtOf",
      "outputs": [
        {
          "internalType": "uint256",
          "name": "",
          "type": "uint256"
        }
      ],
      "stateMutability": "view",
      "type": "function"
    },
    {
      "inputs": [],
      "name": "recipient",
      "outputs": [
        {
          "internalType": "address payable",
          "name": "",
          "type": "address"
        }
      ],
      "stateMutability": "view",
      "type": "function"
    },
    {
      "inputs": [],
      "name": "renounceGovernorship",
      "outputs": [],
      "stateMutability": "nonpayable",
      "type": "function"
    },
    {
      "inputs": [
        {
          "internalType": "address",
          "name": "_token",
          "type": "address"
        },
        {
          "internalType": "address",
          "name": "_dst",
          "type": "address"
        }
      ],
      "name": "rescueTokens",
      "outputs": [],
      "stateMutability": "nonpayable",
      "type": "function"
    },
    {
      "inputs": [
        {
          "internalType": "address payable",
          "name": "feeOwner_",
          "type": "address"
        }
      ],
      "name": "setFeeOwner",
      "outputs": [],
      "stateMutability": "nonpayable",
      "type": "function"
    },
    {
      "inputs": [
        {
          "internalType": "uint256",
          "name": "feeRatio_",
          "type": "uint256"
        }
      ],
      "name": "setFeeRatio",
      "outputs": [],
      "stateMutability": "nonpayable",
      "type": "function"
    },
    {
      "inputs": [
        {
          "internalType": "address",
          "name": "addr",
          "type": "address"
        },
        {
          "internalType": "uint256",
          "name": "amount",
          "type": "uint256"
        }
      ],
      "name": "setMinUsdtPersonOffered",
      "outputs": [],
      "stateMutability": "nonpayable",
      "type": "function"
    },
    {
      "inputs": [
        {
          "internalType": "address[]",
          "name": "addrs",
          "type": "address[]"
        },
        {
          "internalType": "uint256",
          "name": "amount",
          "type": "uint256"
        }
      ],
      "name": "setMinUsdtPersonOffereds",
      "outputs": [],
      "stateMutability": "nonpayable",
      "type": "function"
    },
    {
      "inputs": [
        {
          "internalType": "address[]",
          "name": "addrs",
          "type": "address[]"
        },
        {
          "internalType": "uint256[]",
          "name": "amounts",
          "type": "uint256[]"
        }
      ],
      "name": "setMinUsdtPersonOffereds",
      "outputs": [],
      "stateMutability": "nonpayable",
      "type": "function"
    },
    {
      "inputs": [
        {
          "internalType": "uint256",
          "name": "minUsdtTotalOffered_",
          "type": "uint256"
        }
      ],
      "name": "setMinUsdtTotalOffered",
      "outputs": [],
      "stateMutability": "nonpayable",
      "type": "function"
    },
    {
      "inputs": [
        {
          "internalType": "address",
          "name": "addr",
          "type": "address"
        },
        {
          "internalType": "uint256",
          "name": "amount",
          "type": "uint256"
        }
      ],
      "name": "setQuota",
      "outputs": [],
      "stateMutability": "nonpayable",
      "type": "function"
    },
    {
      "inputs": [
        {
          "internalType": "address[]",
          "name": "addrs",
          "type": "address[]"
        },
        {
          "internalType": "uint256[]",
          "name": "amounts",
          "type": "uint256[]"
        }
      ],
      "name": "setQuotas",
      "outputs": [],
      "stateMutability": "nonpayable",
      "type": "function"
    },
    {
      "inputs": [
        {
          "internalType": "address[]",
          "name": "addrs",
          "type": "address[]"
        },
        {
          "internalType": "uint256",
          "name": "amount",
          "type": "uint256"
        }
      ],
      "name": "setQuotas",
      "outputs": [],
      "stateMutability": "nonpayable",
      "type": "function"
    },
    {
      "inputs": [
        {
          "internalType": "address payable",
          "name": "recipient_",
          "type": "address"
        }
      ],
      "name": "setRecipient",
      "outputs": [],
      "stateMutability": "nonpayable",
      "type": "function"
    },
    {
      "inputs": [
        {
          "internalType": "uint256",
          "name": "timeClaim_",
          "type": "uint256"
        }
      ],
      "name": "setTimeClaim",
      "outputs": [],
      "stateMutability": "nonpayable",
      "type": "function"
    },
    {
      "inputs": [
        {
          "internalType": "uint256",
          "name": "timeOffer_",
          "type": "uint256"
        }
      ],
      "name": "setTimeOffer",
      "outputs": [],
      "stateMutability": "nonpayable",
      "type": "function"
    },
    {
      "inputs": [],
      "name": "timeClaim",
      "outputs": [
        {
          "internalType": "uint256",
          "name": "",
          "type": "uint256"
        }
      ],
      "stateMutability": "view",
      "type": "function"
    },
    {
      "inputs": [],
      "name": "timeOffer",
      "outputs": [
        {
          "internalType": "uint256",
          "name": "",
          "type": "uint256"
        }
      ],
      "stateMutability": "view",
      "type": "function"
    },
    {
      "inputs": [],
      "name": "token",
      "outputs": [
        {
          "internalType": "contract IERC20",
          "name": "",
          "type": "address"
        }
      ],
      "stateMutability": "view",
      "type": "function"
    },
    {
      "inputs": [],
      "name": "totalClaimed",
      "outputs": [
        {
          "internalType": "uint256",
          "name": "",
          "type": "uint256"
        }
      ],
      "stateMutability": "view",
      "type": "function"
    },
    {
      "inputs": [],
      "name": "totalOffered",
      "outputs": [
        {
          "internalType": "uint256",
          "name": "",
          "type": "uint256"
        }
      ],
      "stateMutability": "view",
      "type": "function"
    },
    {
      "inputs": [],
      "name": "totalUsdtQuota",
      "outputs": [
        {
          "internalType": "uint256",
          "name": "",
          "type": "uint256"
        }
      ],
      "stateMutability": "view",
      "type": "function"
    },
    {
      "inputs": [],
      "name": "totalUsdtTotalOffered",
      "outputs": [
        {
          "internalType": "uint256",
          "name": "",
          "type": "uint256"
        }
      ],
      "stateMutability": "view",
      "type": "function"
    },
    {
      "inputs": [
        {
          "internalType": "address",
          "name": "newGovernor",
          "type": "address"
        }
      ],
      "name": "transferGovernorship",
      "outputs": [],
      "stateMutability": "nonpayable",
      "type": "function"
    },
    {
      "inputs": [],
      "name": "withdrawCurrencyToken",
      "outputs": [],
      "stateMutability": "nonpayable",
      "type": "function"
    },
    {
      "inputs": [
        {
          "internalType": "address",
          "name": "_dst",
          "type": "address"
        }
      ],
      "name": "withdrawToken",
      "outputs": [],
      "stateMutability": "nonpayable",
      "type": "function"
    },
    {
      "inputs": [],
      "name": "withdrawToken",
      "outputs": [],
      "stateMutability": "nonpayable",
      "type": "function"
    }
  ],
  "bytecode": "0x60806040523480156200001157600080fd5b5060405162002eca38038062002eca83398181016040526101608110156200003857600080fd5b508051602082015160408301516060840151608085015160a086015160c087015160e08801516101008901516101208a0151610140909a01516000805460ff60a01b1916600160a01b17905598999798969795969495939492939192909190838311620000ec576040805162461bcd60e51b815260206004820152601f60248201527f74696d65436c61696d5f2073686f756c64203e3d2074696d654f666665725f00604482015290519081900360640190fd5b6000881162000136576040805162461bcd60e51b8152602060048201526011602482015270070726963652073686f756c64206774203607c1b604482015290519081900360640190fd5b6001600160a01b038b1662000192576040805162461bcd60e51b815260206004820152601660248201527f676f7665726e6f725f207a65726f206164647265737300000000000000000000604482015290519081900360640190fd5b6001600160a01b038916620001ee576040805162461bcd60e51b815260206004820152601360248201527f746f6b656e5f207a65726f206164647265737300000000000000000000000000604482015290519081900360640190fd5b6001600160a01b0386166200024a576040805162461bcd60e51b815260206004820152601660248201527f6665654f776e65725f207a65726f206164647265737300000000000000000000604482015290519081900360640190fd5b6001600160a01b038716620002a6576040805162461bcd60e51b815260206004820152601760248201527f726563697069656e745f207a65726f2061646472657373000000000000000000604482015290519081900360640190fd5b620002ba8b6001600160e01b036200032b16565b600180546001600160a01b039b8c166001600160a01b031991821617909155600280549a8c169a82169a909a1790995560039790975560058054968a16968916969096179095556007919091556008556004556006805491909516931692909217909255600c55600e55506200039a565b6001600160a01b0381166200033f57600080fd5b600080546040516001600160a01b03808516939216917fc7c0c772add429241571afb3805861fb3cfa2af374534088b76cdb4325a87e9a91a3600080546001600160a01b0319166001600160a01b0392909216919091179055565b612b2080620003aa6000396000f3fe6080604052600436106102d15760003560e01c8063a035b1fe11610179578063d54ad2a1116100d6578063eef5436b1161008a578063f808891111610064578063f8088911146109b4578063fc0c546a14610a83578063fd4d803214610a98576102d1565b8063eef5436b14610960578063f080945514610975578063f27cf0631461098a576102d1565b8063e4df9f05116100bb578063e4df9f05146108e5578063e5a6b10f14610918578063e8b4aadb1461092d576102d1565b8063d54ad2a114610897578063e1772b9d146108ac576102d1565b8063bac02d871161012d578063c773533811610112578063c7735338146107f0578063ca628c781461086d578063cb2ef6f714610882576102d1565b8063bac02d871461078a578063c1570322146107bd576102d1565b8063b6aa515b1161015e578063b6aa515b1461070f578063b9818be114610742578063baa3f7ee14610757576102d1565b8063a035b1fe146106c7578063b0e491a5146106dc576102d1565b806341744dd41161023257806366d003ac116101e657806381c0c263116101c057806381c0c26314610655578063894760691461066a5780638d52fcef1461069d576102d1565b806366d003ac1461060e578063761610fc1461062357806378c8e65f14610640576102d1565b80634b104eff116102175780634b104eff146105a05780634e71d92d146102d15780635431c94e146105d3576102d1565b806341744dd41461050e5780634a2b887214610523576102d1565b806326d7d2c311610289578063356130bc1161026e578063356130bc1461049c578063368e9d6a146104b15780633bbed4a0146104db576102d1565b806326d7d2c31461047257806331fe2b3a14610487576102d1565b806316d95c1e116102ba57806316d95c1e146103525780631942999c1461037957806319f4ff2f14610448576102d1565b806303ce3355146102e85780630c340a2414610321575b3480156102dd57600080fd5b506102e6610aad565b005b3480156102f457600080fd5b506102e66004803603604081101561030b57600080fd5b506001600160a01b038135169060200135611040565b34801561032d57600080fd5b50610336611153565b604080516001600160a01b039092168252519081900360200190f35b34801561035e57600080fd5b50610367611162565b60408051918252519081900360200190f35b34801561038557600080fd5b506102e66004803603604081101561039c57600080fd5b8101906020810181356401000000008111156103b757600080fd5b8201836020820111156103c957600080fd5b803590602001918460208302840111640100000000831117156103eb57600080fd5b91939092909160208101903564010000000081111561040957600080fd5b82018360208201111561041b57600080fd5b8035906020019184602083028401116401000000008311171561043d57600080fd5b509092509050611168565b34801561045457600080fd5b506102e66004803603602081101561046b57600080fd5b50356111c5565b34801561047e57600080fd5b506102e661121a565b34801561049357600080fd5b506103676115ae565b3480156104a857600080fd5b506103676115b4565b3480156104bd57600080fd5b506102e6600480360360208110156104d457600080fd5b50356115ba565b3480156104e757600080fd5b506102e6600480360360208110156104fe57600080fd5b50356001600160a01b0316611665565b34801561051a57600080fd5b50610367611746565b34801561052f57600080fd5b506102e66004803603604081101561054657600080fd5b81019060208101813564010000000081111561056157600080fd5b82018360208201111561057357600080fd5b8035906020019184602083028401116401000000008311171561059557600080fd5b91935091503561174c565b3480156105ac57600080fd5b506102e6600480360360208110156105c357600080fd5b50356001600160a01b031661178a565b3480156105df57600080fd5b506102e6600480360360408110156105f657600080fd5b506001600160a01b038135811691602001351661186b565b34801561061a57600080fd5b50610336611932565b6102e66004803603602081101561063957600080fd5b5035611941565b34801561064c57600080fd5b50610367612043565b34801561066157600080fd5b506102e6612049565b34801561067657600080fd5b506102e66004803603602081101561068d57600080fd5b50356001600160a01b03166120c2565b3480156106a957600080fd5b506102e6600480360360208110156106c057600080fd5b50356120f2565b3480156106d357600080fd5b5061036761219d565b3480156106e857600080fd5b50610367600480360360208110156106ff57600080fd5b50356001600160a01b03166121a3565b34801561071b57600080fd5b506102e66004803603602081101561073257600080fd5b50356001600160a01b03166121b5565b34801561074e57600080fd5b506103366121d5565b34801561076357600080fd5b506103676004803603602081101561077a57600080fd5b50356001600160a01b03166121e4565b34801561079657600080fd5b50610367600480360360208110156107ad57600080fd5b50356001600160a01b03166121f6565b3480156107c957600080fd5b50610367600480360360208110156107e057600080fd5b50356001600160a01b0316612227565b3480156107fc57600080fd5b506102e66004803603604081101561081357600080fd5b81019060208101813564010000000081111561082e57600080fd5b82018360208201111561084057600080fd5b8035906020019184602083028401116401000000008311171561086257600080fd5b919350915035612239565b34801561087957600080fd5b506102e6612271565b34801561088e57600080fd5b506103676122a0565b3480156108a357600080fd5b506103676122a5565b3480156108b857600080fd5b506102e6600480360360408110156108cf57600080fd5b506001600160a01b0381351690602001356122ab565b3480156108f157600080fd5b506103676004803603602081101561090857600080fd5b50356001600160a01b0316612316565b34801561092457600080fd5b50610336612328565b34801561093957600080fd5b506103676004803603602081101561095057600080fd5b50356001600160a01b0316612337565b34801561096c57600080fd5b50610367612349565b34801561098157600080fd5b5061036761234f565b34801561099657600080fd5b506102e6600480360360208110156109ad57600080fd5b5035612355565b3480156109c057600080fd5b506102e6600480360360408110156109d757600080fd5b8101906020810181356401000000008111156109f257600080fd5b820183602082011115610a0457600080fd5b80359060200191846020830284011164010000000083111715610a2657600080fd5b919390929091602081019035640100000000811115610a4457600080fd5b820183602082011115610a5657600080fd5b80359060200191846020830284011164010000000083111715610a7857600080fd5b5090925090506123ff565b348015610a8f57600080fd5b50610336612455565b348015610aa457600080fd5b50610367612464565b60005474010000000000000000000000000000000000000000900460ff16610b1c576040805162461bcd60e51b815260206004820152601f60248201527f5265656e7472616e637947756172643a207265656e7472616e742063616c6c00604482015290519081900360640190fd5b600080547fffffffffffffffffffffff00ffffffffffffffffffffffffffffffffffffffff169055600854421015610b9b576040805162461bcd60e51b815260206004820152601660248201527f69742773206e6f742074696d65436c61696d2079657400000000000000000000604482015290519081900360640190fd5b3360009081526013602052604090205415610bfd576040805162461bcd60e51b815260206004820152600f60248201527f636c61696d656420616c72656164790000000000000000000000000000000000604482015290519081900360640190fd5b33600090815260126020526040902054610c5e576040805162461bcd60e51b815260206004820152601860248201527f6f66666572656420557364742073686f756c6420677420300000000000000000604482015290519081900360640190fd5b600d54600c5411610de157600b54600a54610c7e9163ffffffff61246a16565b600254604080517f70a0823100000000000000000000000000000000000000000000000000000000815230600482015290516001600160a01b03909216916370a0823191602480820192602092909190829003018186803b158015610ce257600080fd5b505afa158015610cf6573d6000803e3d6000fd5b505050506040513d6020811015610d0c57600080fd5b50511015610d4b5760405162461bcd60e51b815260040180806020018281038252602d815260200180612a47602d913960400191505060405180910390fd5b336000908152601160209081526040808320546013909252909120819055600b54610d7c908263ffffffff6124b516565b600b55600254610d9c906001600160a01b0316338363ffffffff61250f16565b600b54604080518381526020810192909252805133927f34fcbac0073d7c3d388e51312faf357774904998eeb8fca628b9e6f65ee1cbf792908290030190a250610fff565b6001546001600160a01b0316610ec657600d54600154604080517f70a0823100000000000000000000000000000000000000000000000000000000815230600482015290516001600160a01b03909216916370a0823191602480820192602092909190829003018186803b158015610e5857600080fd5b505afa158015610e6c573d6000803e3d6000fd5b505050506040513d6020811015610e8257600080fd5b50511015610ec15760405162461bcd60e51b815260040180806020018281038252602c815260200180612a95602c913960400191505060405180910390fd5b610f07565b600d54471015610f075760405162461bcd60e51b815260040180806020018281038252602c815260200180612a95602c913960400191505060405180910390fd5b3360009081526012602090815260408083208054601190935290832080549184905592909255600a54909190610f3d908261246a565b600a55600d54610f53908363ffffffff61246a16565b600d556001546001600160a01b0316610f9957604051339083156108fc029084906000818181858888f19350505050158015610f93573d6000803e3d6000fd5b50610fb6565b600154610fb6906001600160a01b0316338463ffffffff61250f16565b600a546040805183815260208101859052808201929092525133917fa6a8fafa560fa0bfebe22fe134882b7fdd192e35c561a5aa62ec47d373fb2f23919081900360600190a250505b600080547fffffffffffffffffffffff00ffffffffffffffffffffffffffffffffffffffff1674010000000000000000000000000000000000000000179055565b6000546001600160a01b0316331461105757600080fd5b611060826121f6565b8110156110b4576040805162461bcd60e51b815260206004820152601360248201527f51756f74612073686f756c64206774206d696e00000000000000000000000000604482015290519081900360640190fd5b6001600160a01b0382166000908152601060205260409020546009546110f191906110e5908463ffffffff6124b516565b9063ffffffff61246a16565b60099081556001600160a01b0383166000818152601060209081526040918290208590559254815185815293840152805191927f0664880d26185ba05b5e4846543c1793cf0d7969835ebc5b5838f66a64a42ed0929081900390910190a25050565b6000546001600160a01b031681565b600c5481565b82811461117457600080fd5b60005b838110156111be576111b685858381811061118e57fe5b905060200201356001600160a01b03168484848181106111aa57fe5b90506020020135611040565b600101611177565b5050505050565b6000546001600160a01b031633146111dc57600080fd5b600481905560408051828152905133917f2f407797e17e05867e2657ee390ad55cf8dbf1a504056f7b965c645c4821cffd919081900360200190a250565b6000546001600160a01b0316331461123157600080fd5b600854421015611288576040805162461bcd60e51b815260206004820152601760248201527f4974206973206e6f742074696d65436c61696d20796574000000000000000000604482015290519081900360640190fd5b600c54600d54101561129957600080fd5b600154600090819081906001600160a01b031661144f574792506112e0670de0b6b3a76400006112d46004548661258f90919063ffffffff16565b9063ffffffff6125e816565b91506112f2838363ffffffff61246a16565b6005546040519192506000916001600160a01b039091169083908381818185875af1925050503d8060008114611344576040519150601f19603f3d011682016040523d82523d6000602084013e611349565b606091505b505090508061139f576040805162461bcd60e51b815260206004820152600e60248201527f726563697069656e74206661696c000000000000000000000000000000000000604482015290519081900360640190fd5b6006546040516001600160a01b03909116908490600081818185875af1925050503d80600081146113ec576040519150601f19603f3d011682016040523d82523d6000602084013e6113f1565b606091505b50508091505080611449576040805162461bcd60e51b815260206004820152600860248201527f666565206661696c000000000000000000000000000000000000000000000000604482015290519081900360640190fd5b5061155f565b600154604080517f70a0823100000000000000000000000000000000000000000000000000000000815230600482015290516001600160a01b03909216916370a0823191602480820192602092909190829003018186803b1580156114b357600080fd5b505afa1580156114c7573d6000803e3d6000fd5b505050506040513d60208110156114dd57600080fd5b505160045490935061150490670de0b6b3a7640000906112d490869063ffffffff61258f16565b9150611516838363ffffffff61246a16565b60055460015491925061153c916001600160a01b0390811691168363ffffffff61250f16565b60065460015461155f916001600160a01b0391821691168463ffffffff61250f16565b600554604080518581526020810184905281516001600160a01b03909316927ff0fa8383bc9412382eb19bc4c20cb3a68b6a8c505d5deb5fcd132e260250f983929181900390910190a2505050565b600e5481565b60085481565b6000546001600160a01b031633146115d157600080fd5b6007548111611627576040805162461bcd60e51b815260206004820152601f60248201527f74696d65436c61696d5f2073686f756c64203e3d2074696d654f666665725f00604482015290519081900360640190fd5b600881905560408051828152905133917fd9e91945b832e3dfbe747cbe4eda3f287b36b5cef70f8805896fefed5f348219919081900360200190a250565b6000546001600160a01b0316331461167c57600080fd5b6001600160a01b0381166116d7576040805162461bcd60e51b815260206004820152601760248201527f726563697069656e745f207a65726f2061646472657373000000000000000000604482015290519081900360640190fd5b600580546001600160a01b0383167fffffffffffffffffffffffff00000000000000000000000000000000000000009091168117909155604080519182525133917ff5aa4a25cf0723515ed5e2f2313756dd44c78ee369f3ab7497a27ed89c2c1f64919081900360200190a250565b60045481565b60005b828110156117845761177c84848381811061176657fe5b905060200201356001600160a01b0316836122ab565b60010161174f565b50505050565b6000546001600160a01b031633146117a157600080fd5b6001600160a01b0381166117fc576040805162461bcd60e51b815260206004820152601660248201527f6665654f776e65725f207a65726f206164647265737300000000000000000000604482015290519081900360640190fd5b600680546001600160a01b0383167fffffffffffffffffffffffff00000000000000000000000000000000000000009091168117909155604080519182525133917fe0bbf1a07376101b84e5aff236bc710878c9a975168510f821b4a735c0d35e51919081900360200190a250565b6000546001600160a01b0316331461188257600080fd5b604080517f70a0823100000000000000000000000000000000000000000000000000000000815230600482015290516000916001600160a01b038516916370a0823191602480820192602092909190829003018186803b1580156118e557600080fd5b505afa1580156118f9573d6000803e3d6000fd5b505050506040513d602081101561190f57600080fd5b5051905061192d6001600160a01b038416838363ffffffff61250f16565b505050565b6005546001600160a01b031681565b60005474010000000000000000000000000000000000000000900460ff166119b0576040805162461bcd60e51b815260206004820152601f60248201527f5265656e7472616e637947756172643a207265656e7472616e742063616c6c00604482015290519081900360640190fd5b600080547fffffffffffffffffffffff00ffffffffffffffffffffffffffffffffffffffff169055323314611a2c576040805162461bcd60e51b815260206004820152600c60248201527f6f6e6c79206163636f756e740000000000000000000000000000000000000000604482015290519081900360640190fd5b600754421015611a83576040805162461bcd60e51b815260206004820152601160248201527f69742773206e6f742074696d6520796574000000000000000000000000000000604482015290519081900360640190fd5b6008544210611ad9576040805162461bcd60e51b815260206004820152600760248201527f6578706972656400000000000000000000000000000000000000000000000000604482015290519081900360640190fd5b3360009081526011602052604090205415611b3b576040805162461bcd60e51b815260206004820152600f60248201527f6f66666572656420616c72656164790000000000000000000000000000000000604482015290519081900360640190fd5b6001546001600160a01b031615611d1b57600154604080517fdd62ed3e000000000000000000000000000000000000000000000000000000008152336004820152306024820152905183926001600160a01b03169163dd62ed3e916044808301926020929190829003018186803b158015611bb557600080fd5b505afa158015611bc9573d6000803e3d6000fd5b505050506040513d6020811015611bdf57600080fd5b50511015611c34576040805162461bcd60e51b815260206004820152601460248201527f616c6c6f77616e6365206e6f7420656e6f756768000000000000000000000000604482015290519081900360640190fd5b600154604080517f70a08231000000000000000000000000000000000000000000000000000000008152336004820152905183926001600160a01b0316916370a08231916024808301926020929190829003018186803b158015611c9757600080fd5b505afa158015611cab573d6000803e3d6000fd5b505050506040513d6020811015611cc157600080fd5b50511015611d16576040805162461bcd60e51b815260206004820152601260248201527f62616c616e6365206e6f7420656e6f7567680000000000000000000000000000604482015290519081900360640190fd5b611d1e565b50345b611d27336121f6565b8111611d7a576040805162461bcd60e51b815260206004820181905260248201527f616d6f756e742073686f756c64206774204d696e55736474506572736f6e4f66604482015290519081900360640190fd5b33600090815260106020526040902054811115611dde576040805162461bcd60e51b815260206004820152600f60248201527f73686f756c642067742071756f74610000000000000000000000000000000000604482015290519081900360640190fd5b60008111611e33576040805162461bcd60e51b815260206004820152600860248201527f6e6f2071756f7461000000000000000000000000000000000000000000000000604482015290519081900360640190fd5b336000908152601260205260408120829055600354611e64906112d484670de0b6b3a764000063ffffffff61258f16565b336000908152601160205260409020819055600d54909150611e8c908363ffffffff6124b516565b600d55600a54611ea2908263ffffffff6124b516565b600a55600254604080517f70a0823100000000000000000000000000000000000000000000000000000000815230600482015290516001600160a01b03909216916370a0823191602480820192602092909190829003018186803b158015611f0957600080fd5b505afa158015611f1d573d6000803e3d6000fd5b505050506040513d6020811015611f3357600080fd5b5051600a541115611f8b576040805162461bcd60e51b815260206004820152600d60248201527f51756f74612069732066756c6c00000000000000000000000000000000000000604482015290519081900360640190fd5b6001546001600160a01b031615611fba57600154611fba906001600160a01b031633308563ffffffff61262a16565b600a546040805184815260208101849052808201929092525133917f6651ad68b77f61e7600bc16c3c7108ec45225340ce47a77729663f01b5fcc0b1919081900360600190a25050600080547fffffffffffffffffffffff00ffffffffffffffffffffffffffffffffffffffff1674010000000000000000000000000000000000000000179055565b60075481565b6000546001600160a01b0316331461206057600080fd5b600080546040516001600160a01b03909116907fc7c0c772add429241571afb3805861fb3cfa2af374534088b76cdb4325a87e9a908390a3600080547fffffffffffffffffffffffff0000000000000000000000000000000000000000169055565b6000546001600160a01b031633146120d957600080fd5b6002546120ef906001600160a01b03168261186b565b50565b6000546001600160a01b0316331461210957600080fd5b806008541161215f576040805162461bcd60e51b815260206004820152601f60248201527f74696d65436c61696d5f2073686f756c64203e3d2074696d654f666665725f00604482015290519081900360640190fd5b600781905560408051828152905133917fe01f1ed196da69f2c09d482f348d816c49ed08a119d239a06d95798a0692239d919081900360200190a250565b60035481565b600f6020526000908152604090205481565b6000546001600160a01b031633146121cc57600080fd5b6120ef816126b2565b6006546001600160a01b031681565b60136020526000908152604090205481565b6001600160a01b0381166000908152600f6020526040812054801561221c579050612222565b5050600e545b919050565b60116020526000908152604090205481565b60005b828110156117845761226984848381811061225357fe5b905060200201356001600160a01b031683611040565b60010161223c565b6000546001600160a01b0316331461228857600080fd5b60025461229e906001600160a01b03163361186b565b565b600181565b600b5481565b6000546001600160a01b031633146122c257600080fd5b6001600160a01b0382166000818152600f6020908152604091829020849055815184815291517fe1a9ef0acbd509b99e9e7183d721a347ffe210cf889b27511fbf09814abbe5de9281900390910190a25050565b60106020526000908152604090205481565b6001546001600160a01b031681565b60126020526000908152604090205481565b60095481565b600a5481565b6000546001600160a01b0316331461236c57600080fd5b600081116123c1576040805162461bcd60e51b815260206004820181905260248201527f6d696e55736474546f74616c4f6666657265645f2073686f756c642067742030604482015290519081900360640190fd5b600c81905560408051828152905133917f4ab6e4a9f209d1fe509cfa6eb3c2037dbf5874b2dd1cbd60b50a1f2e8d6898d7919081900360200190a250565b82811461240b57600080fd5b60005b838110156111be5761244d85858381811061242557fe5b905060200201356001600160a01b031684848481811061244157fe5b905060200201356122ab565b60010161240e565b6002546001600160a01b031681565b600d5481565b60006124ac83836040518060400160405280601e81526020017f536166654d6174683a207375627472616374696f6e206f766572666c6f770000815250612738565b90505b92915050565b6000828201838110156124ac576040805162461bcd60e51b815260206004820152601b60248201527f536166654d6174683a206164646974696f6e206f766572666c6f770000000000604482015290519081900360640190fd5b604080516001600160a01b038416602482015260448082018490528251808303909101815260649091019091526020810180517bffffffffffffffffffffffffffffffffffffffffffffffffffffffff167fa9059cbb0000000000000000000000000000000000000000000000000000000017905261192d9084906127cf565b60008261259e575060006124af565b828202828482816125ab57fe5b04146124ac5760405162461bcd60e51b8152600401808060200182810382526021815260200180612a746021913960400191505060405180910390fd5b60006124ac83836040518060400160405280601a81526020017f536166654d6174683a206469766973696f6e206279207a65726f0000000000008152506129a5565b604080516001600160a01b0380861660248301528416604482015260648082018490528251808303909101815260849091019091526020810180517bffffffffffffffffffffffffffffffffffffffffffffffffffffffff167f23b872dd000000000000000000000000000000000000000000000000000000001790526117849085906127cf565b6001600160a01b0381166126c557600080fd5b600080546040516001600160a01b03808516939216917fc7c0c772add429241571afb3805861fb3cfa2af374534088b76cdb4325a87e9a91a3600080547fffffffffffffffffffffffff0000000000000000000000000000000000000000166001600160a01b0392909216919091179055565b600081848411156127c75760405162461bcd60e51b81526004018080602001828103825283818151815260200191508051906020019080838360005b8381101561278c578181015183820152602001612774565b50505050905090810190601f1680156127b95780820380516001836020036101000a031916815260200191505b509250505060405180910390fd5b505050900390565b6127e1826001600160a01b0316612a0a565b612832576040805162461bcd60e51b815260206004820152601f60248201527f5361666545524332303a2063616c6c20746f206e6f6e2d636f6e747261637400604482015290519081900360640190fd5b60006060836001600160a01b0316836040518082805190602001908083835b6020831061288e57805182527fffffffffffffffffffffffffffffffffffffffffffffffffffffffffffffffe09092019160209182019101612851565b6001836020036101000a0380198251168184511680821785525050505050509050019150506000604051808303816000865af19150503d80600081146128f0576040519150601f19603f3d011682016040523d82523d6000602084013e6128f5565b606091505b50915091508161294c576040805162461bcd60e51b815260206004820181905260248201527f5361666545524332303a206c6f772d6c6576656c2063616c6c206661696c6564604482015290519081900360640190fd5b8051156117845780806020019051602081101561296857600080fd5b50516117845760405162461bcd60e51b815260040180806020018281038252602a815260200180612ac1602a913960400191505060405180910390fd5b600081836129f45760405162461bcd60e51b815260206004820181815283516024840152835190928392604490910191908501908083836000831561278c578181015183820152602001612774565b506000838581612a0057fe5b0495945050505050565b6000813f7fc5d2460186f7233c927e7db2dcc703c0e500b653ca82273b7bfad8045d85a470818114801590612a3e57508115155b94935050505056fe206f66666572656420746f6b656e206e756d6265722073686f756c64206e6f742067742062616c616e61636521536166654d6174683a206d756c7469706c69636174696f6e206f766572666c6f77206f6666657265642055736474206e756d6265722073686f756c64206e6f742067742062616c616e616365215361666545524332303a204552433230206f7065726174696f6e20646964206e6f742073756363656564a26469706673582212206ff04b05c8e6bf6cf445b6641fb629e10f44b6a18e0849d85227efc00c00e3e764736f6c63430006020033",
  "linkReferences": {},
  "deployedLinkReferences": {}
}