{
  "_format": "hh-sol-artifact-1",
  "contractName": "WhiteList",
  "sourceName": "contracts/WhiteList.sol",
  "abi": [
    {
      "inputs": [
        {
          "internalType": "address",
          "name": "governor_",
          "type": "address"
        },
        {
          "internalType": "address",
          "name": "currency_",
          "type": "address"
        },
        {
          "internalType": "address",
          "name": "token_",
          "type": "address"
        },
        {
          "internalType": "uint256",
          "name": "price_",
          "type": "uint256"
        },
        {
          "internalType": "address payable",
          "name": "recipient_",
          "type": "address"
        },
        {
          "internalType": "address payable",
          "name": "feeOwner_",
          "type": "address"
        },
        {
          "internalType": "uint256",
          "name": "feeRatio_",
          "type": "uint256"
        },
        {
          "internalType": "uint256",
          "name": "timeOffer_",
          "type": "uint256"
        },
        {
          "internalType": "uint256",
          "name": "timeClaim_",
          "type": "uint256"
        },
        {
          "internalType": "uint256",
          "name": "minUsdtTotalOffered_",
          "type": "uint256"
        },
        {
          "internalType": "uint256",
          "name": "minUsdtPersonOffered_",
          "type": "uint256"
        }
      ],
      "stateMutability": "nonpayable",
      "type": "constructor"
    },
    {
      "anonymous": false,
      "inputs": [
        {
          "indexed": true,
          "internalType": "address",
          "name": "addr",
          "type": "address"
        },
        {
          "indexed": false,
          "internalType": "uint256",
          "name": "volume",
          "type": "uint256"
        },
        {
          "indexed": false,
          "internalType": "uint256",
          "name": "total",
          "type": "uint256"
        }
      ],
      "name": "Claim",
      "type": "event"
    },
    {
      "anonymous": false,
      "inputs": [
        {
          "indexed": true,
          "internalType": "address",
          "name": "previousGovernor",
          "type": "address"
        },
        {
          "indexed": true,
          "internalType": "address",
          "name": "newGovernor",
          "type": "address"
        }
      ],
      "name": "GovernorshipTransferred",
      "type": "event"
    },
    {
      "anonymous": false,
      "inputs": [
        {
          "indexed": true,
          "internalType": "address",
          "name": "addr",
          "type": "address"
        },
        {
          "indexed": false,
          "internalType": "uint256",
          "name": "amount",
          "type": "uint256"
        }
      ],
      "name": "MinUsdtPersonOffered",
      "type": "event"
    },
    {
      "anonymous": false,
      "inputs": [
        {
          "indexed": true,
          "internalType": "address",
          "name": "addr",
          "type": "address"
        },
        {
          "indexed": false,
          "internalType": "uint256",
          "name": "amount",
          "type": "uint256"
        },
        {
          "indexed": false,
          "internalType": "uint256",
          "name": "volume",
          "type": "uint256"
        },
        {
          "indexed": false,
          "internalType": "uint256",
          "name": "total",
          "type": "uint256"
        }
      ],
      "name": "Offer",
      "type": "event"
    },
    {
      "anonymous": false,
      "inputs": [
        {
          "indexed": true,
          "internalType": "address",
          "name": "addr",
          "type": "address"
        },
        {
          "indexed": false,
          "internalType": "uint256",
          "name": "amount",
          "type": "uint256"
        },
        {
          "indexed": false,
          "internalType": "uint256",
          "name": "total",
          "type": "uint256"
        }
      ],
      "name": "Quota",
      "type": "event"
    },
    {
      "anonymous": false,
      "inputs": [
        {
          "indexed": true,
          "internalType": "address",
          "name": "addr",
          "type": "address"
        },
        {
          "indexed": false,
          "internalType": "uint256",
          "name": "volume",
          "type": "uint256"
        },
        {
          "indexed": false,
          "internalType": "uint256",
          "name": "volumeUsdt",
          "type": "uint256"
        },
        {
          "indexed": false,
          "internalType": "uint256",
          "name": "total",
          "type": "uint256"
        }
      ],
      "name": "Revert",
      "type": "event"
    },
    {
      "anonymous": false,
      "inputs": [
        {
          "indexed": true,
          "internalType": "address",
          "name": "addr",
          "type": "address"
        },
        {
          "indexed": false,
          "internalType": "uint256",
          "name": "balance",
          "type": "uint256"
        },
        {
          "indexed": false,
          "internalType": "uint256",
          "name": "recipientBalance",
          "type": "uint256"
        }
      ],
      "name": "WithdrawCurrency",
      "type": "event"
    },
    {
      "stateMutability": "nonpayable",
      "type": "fallback"
    },
    {
      "inputs": [],
      "name": "claim",
      "outputs": [],
      "stateMutability": "nonpayable",
      "type": "function"
    },
    {
      "inputs": [
        {
          "internalType": "address",
          "name": "",
          "type": "address"
        }
      ],
      "name": "claimedOf",
      "outputs": [
        {
          "internalType": "uint256",
          "name": "",
          "type": "uint256"
        }
      ],
      "stateMutability": "view",
      "type": "function"
    },
    {
      "inputs": [],
      "name": "contractType",
      "outputs": [
        {
          "internalType": "uint256",
          "name": "",
          "type": "uint256"
        }
      ],
      "stateMutability": "view",
      "type": "function"
    },
    {
      "inputs": [],
      "name": "currency",
      "outputs": [
        {
          "internalType": "contract IERC20",
          "name": "",
          "type": "address"
        }
      ],
      "stateMutability": "view",
      "type": "function"
    },
    {
      "inputs": [],
      "name": "feeOwner",
      "outputs": [
        {
          "internalType": "address payable",
          "name": "",
          "type": "address"
        }
      ],
      "stateMutability": "view",
      "type": "function"
    },
    {
      "inputs": [],
      "name": "feeRatio",
      "outputs": [
        {
          "internalType": "uint256",
          "name": "",
          "type": "uint256"
        }
      ],
      "stateMutability": "view",
      "type": "function"
    },
    {
      "inputs": [
        {
          "internalType": "address",
          "name": "addr",
          "type": "address"
        }
      ],
      "name": "getMinUsdtPersonOf",
      "outputs": [
        {
          "internalType": "uint256",
          "name": "amount",
          "type": "uint256"
        }
      ],
      "stateMutability": "view",
      "type": "function"
    },
    {
      "inputs": [],
      "name": "governor",
      "outputs": [
        {
          "internalType": "address",
          "name": "",
          "type": "address"
        }
      ],
      "stateMutability": "view",
      "type": "function"
    },
    {
      "inputs": [
        {
          "internalType": "address",
          "name": "",
          "type": "address"
        }
      ],
      "name": "minUsdtPersonOf",
      "outputs": [
        {
          "internalType": "uint256",
          "name": "",
          "type": "uint256"
        }
      ],
      "stateMutability": "view",
      "type": "function"
    },
    {
      "inputs": [],
      "name": "minUsdtPersonOffered",
      "outputs": [
        {
          "internalType": "uint256",
          "name": "",
          "type": "uint256"
        }
      ],
      "stateMutability": "view",
      "type": "function"
    },
    {
      "inputs": [],
      "name": "minUsdtTotalOffered",
      "outputs": [
        {
          "internalType": "uint256",
          "name": "",
          "type": "uint256"
        }
      ],
      "stateMutability": "view",
      "type": "function"
    },
    {
      "inputs": [
        {
          "internalType": "uint256",
          "name": "amount",
          "type": "uint256"
        }
      ],
      "name": "offer",
      "outputs": [],
      "stateMutability": "nonpayable",
      "type": "function"
    },
    {
      "inputs": [
        {
          "internalType": "address",
          "name": "",
          "type": "address"
        }
      ],
      "name": "offeredOf",
      "outputs": [
        {
          "internalType": "uint256",
          "name": "",
          "type": "uint256"
        }
      ],
      "stateMutability": "view",
      "type": "function"
    },
    {
      "inputs": [
        {
          "internalType": "address",
          "name": "",
          "type": "address"
        }
      ],
      "name": "offeredUsdtOf",
      "outputs": [
        {
          "internalType": "uint256",
          "name": "",
          "type": "uint256"
        }
      ],
      "stateMutability": "view",
      "type": "function"
    },
    {
      "inputs": [],
      "name": "price",
      "outputs": [
        {
          "internalType": "uint256",
          "name": "",
          "type": "uint256"
        }
      ],
      "stateMutability": "view",
      "type": "function"
    },
    {
      "inputs": [
        {
          "internalType": "address",
          "name": "",
          "type": "address"
        }
      ],
      "name": "quotaUsdtOf",
      "outputs": [
        {
          "internalType": "uint256",
          "name": "",
          "type": "uint256"
        }
      ],
      "stateMutability": "view",
      "type": "function"
    },
    {
      "inputs": [],
      "name": "recipient",
      "outputs": [
        {
          "internalType": "address payable",
          "name": "",
          "type": "address"
        }
      ],
      "stateMutability": "view",
      "type": "function"
    },
    {
      "inputs": [],
      "name": "renounceGovernorship",
      "outputs": [],
      "stateMutability": "nonpayable",
      "type": "function"
    },
    {
      "inputs": [
        {
          "internalType": "address",
          "name": "_token",
          "type": "address"
        },
        {
          "internalType": "address",
          "name": "_dst",
          "type": "address"
        }
      ],
      "name": "rescueTokens",
      "outputs": [],
      "stateMutability": "nonpayable",
      "type": "function"
    },
    {
      "inputs": [
        {
          "internalType": "address payable",
          "name": "feeOwner_",
          "type": "address"
        }
      ],
      "name": "setFeeOwner",
      "outputs": [],
      "stateMutability": "nonpayable",
      "type": "function"
    },
    {
      "inputs": [
        {
          "internalType": "uint256",
          "name": "feeRatio_",
          "type": "uint256"
        }
      ],
      "name": "setFeeRatio",
      "outputs": [],
      "stateMutability": "nonpayable",
      "type": "function"
    },
    {
      "inputs": [
        {
          "internalType": "address",
          "name": "addr",
          "type": "address"
        },
        {
          "internalType": "uint256",
          "name": "amount",
          "type": "uint256"
        }
      ],
      "name": "setMinUsdtPersonOffered",
      "outputs": [],
      "stateMutability": "nonpayable",
      "type": "function"
    },
    {
      "inputs": [
        {
          "internalType": "address[]",
          "name": "addrs",
          "type": "address[]"
        },
        {
          "internalType": "uint256",
          "name": "amount",
          "type": "uint256"
        }
      ],
      "name": "setMinUsdtPersonOffereds",
      "outputs": [],
      "stateMutability": "nonpayable",
      "type": "function"
    },
    {
      "inputs": [
        {
          "internalType": "address[]",
          "name": "addrs",
          "type": "address[]"
        },
        {
          "internalType": "uint256[]",
          "name": "amounts",
          "type": "uint256[]"
        }
      ],
      "name": "setMinUsdtPersonOffereds",
      "outputs": [],
      "stateMutability": "nonpayable",
      "type": "function"
    },
    {
      "inputs": [
        {
          "internalType": "uint256",
          "name": "minUsdtTotalOffered_",
          "type": "uint256"
        }
      ],
      "name": "setMinUsdtTotalOffered",
      "outputs": [],
      "stateMutability": "nonpayable",
      "type": "function"
    },
    {
      "inputs": [
        {
          "internalType": "address",
          "name": "addr",
          "type": "address"
        },
        {
          "internalType": "uint256",
          "name": "amount",
          "type": "uint256"
        }
      ],
      "name": "setQuota",
      "outputs": [],
      "stateMutability": "nonpayable",
      "type": "function"
    },
    {
      "inputs": [
        {
          "internalType": "address[]",
          "name": "addrs",
          "type": "address[]"
        },
        {
          "internalType": "uint256[]",
          "name": "amounts",
          "type": "uint256[]"
        }
      ],
      "name": "setQuotas",
      "outputs": [],
      "stateMutability": "nonpayable",
      "type": "function"
    },
    {
      "inputs": [
        {
          "internalType": "address[]",
          "name": "addrs",
          "type": "address[]"
        },
        {
          "internalType": "uint256",
          "name": "amount",
          "type": "uint256"
        }
      ],
      "name": "setQuotas",
      "outputs": [],
      "stateMutability": "nonpayable",
      "type": "function"
    },
    {
      "inputs": [
        {
          "internalType": "address payable",
          "name": "recipient_",
          "type": "address"
        }
      ],
      "name": "setRecipient",
      "outputs": [],
      "stateMutability": "nonpayable",
      "type": "function"
    },
    {
      "inputs": [
        {
          "internalType": "uint256",
          "name": "timeClaim_",
          "type": "uint256"
        }
      ],
      "name": "setTimeClaim",
      "outputs": [],
      "stateMutability": "nonpayable",
      "type": "function"
    },
    {
      "inputs": [
        {
          "internalType": "uint256",
          "name": "timeOffer_",
          "type": "uint256"
        }
      ],
      "name": "setTimeOffer",
      "outputs": [],
      "stateMutability": "nonpayable",
      "type": "function"
    },
    {
      "inputs": [],
      "name": "timeClaim",
      "outputs": [
        {
          "internalType": "uint256",
          "name": "",
          "type": "uint256"
        }
      ],
      "stateMutability": "view",
      "type": "function"
    },
    {
      "inputs": [],
      "name": "timeOffer",
      "outputs": [
        {
          "internalType": "uint256",
          "name": "",
          "type": "uint256"
        }
      ],
      "stateMutability": "view",
      "type": "function"
    },
    {
      "inputs": [],
      "name": "token",
      "outputs": [
        {
          "internalType": "contract IERC20",
          "name": "",
          "type": "address"
        }
      ],
      "stateMutability": "view",
      "type": "function"
    },
    {
      "inputs": [],
      "name": "totalClaimed",
      "outputs": [
        {
          "internalType": "uint256",
          "name": "",
          "type": "uint256"
        }
      ],
      "stateMutability": "view",
      "type": "function"
    },
    {
      "inputs": [],
      "name": "totalOffered",
      "outputs": [
        {
          "internalType": "uint256",
          "name": "",
          "type": "uint256"
        }
      ],
      "stateMutability": "view",
      "type": "function"
    },
    {
      "inputs": [],
      "name": "totalUsdtQuota",
      "outputs": [
        {
          "internalType": "uint256",
          "name": "",
          "type": "uint256"
        }
      ],
      "stateMutability": "view",
      "type": "function"
    },
    {
      "inputs": [],
      "name": "totalUsdtTotalOffered",
      "outputs": [
        {
          "internalType": "uint256",
          "name": "",
          "type": "uint256"
        }
      ],
      "stateMutability": "view",
      "type": "function"
    },
    {
      "inputs": [
        {
          "internalType": "address",
          "name": "newGovernor",
          "type": "address"
        }
      ],
      "name": "transferGovernorship",
      "outputs": [],
      "stateMutability": "nonpayable",
      "type": "function"
    },
    {
      "inputs": [],
      "name": "withdrawCurrencyToken",
      "outputs": [],
      "stateMutability": "nonpayable",
      "type": "function"
    },
    {
      "inputs": [
        {
          "internalType": "address payable",
          "name": "_dst",
          "type": "address"
        }
      ],
      "name": "withdrawEth",
      "outputs": [],
      "stateMutability": "nonpayable",
      "type": "function"
    },
    {
      "inputs": [],
      "name": "withdrawEth",
      "outputs": [],
      "stateMutability": "nonpayable",
      "type": "function"
    },
    {
      "inputs": [
        {
          "internalType": "address",
          "name": "_dst",
          "type": "address"
        }
      ],
      "name": "withdrawToken",
      "outputs": [],
      "stateMutability": "nonpayable",
      "type": "function"
    },
    {
      "inputs": [],
      "name": "withdrawToken",
      "outputs": [],
      "stateMutability": "nonpayable",
      "type": "function"
    }
  ],
  "bytecode": "0x60806040523480156200001157600080fd5b506040516200245b3803806200245b83398181016040526101608110156200003857600080fd5b508051602082015160408301516060840151608085015160a086015160c087015160e08801516101008901516101208a0151610140909a01519899979896979596949593949293919290919083831015620000da576040805162461bcd60e51b815260206004820152601f60248201527f74696d65436c61696d5f2073686f756c64203e3d2074696d654f666665725f00604482015290519081900360640190fd5b6000881162000124576040805162461bcd60e51b8152602060048201526011602482015270070726963652073686f756c64206774203607c1b604482015290519081900360640190fd5b620001388b6001600160e01b03620001a916565b600180546001600160a01b039b8c166001600160a01b031991821617909155600280549a8c169a82169a909a1790995560039790975560058054968a16968916969096179095556007919091556008556004556006805491909516931692909217909255600c55600e555062000218565b6001600160a01b038116620001bd57600080fd5b600080546040516001600160a01b03808516939216917fc7c0c772add429241571afb3805861fb3cfa2af374534088b76cdb4325a87e9a91a3600080546001600160a01b0319166001600160a01b0392909216919091179055565b61223380620002286000396000f3fe608060405234801561001057600080fd5b50600436106102f45760003560e01c8063a035b1fe11610191578063d54ad2a1116100e3578063eef5436b11610097578063f808891111610071578063f808891114610817578063fc0c546a146108d9578063fd4d8032146108e1576102f4565b8063eef5436b146107ea578063f0809455146107f2578063f27cf063146107fa576102f4565b8063e4df9f05116100c8578063e4df9f0514610796578063e5a6b10f146107bc578063e8b4aadb146107c4576102f4565b8063d54ad2a114610762578063e1772b9d1461076a576102f4565b8063baa3f7ee11610145578063c77353381161011f578063c7735338146106e2578063ca628c7814610752578063cb2ef6f71461075a576102f4565b8063baa3f7ee14610670578063bac02d8714610696578063c1570322146106bc576102f4565b8063b0e491a511610176578063b0e491a51461061c578063b6aa515b14610642578063b9818be114610668576102f4565b8063a035b1fe1461060c578063a0ef91df14610614576102f4565b806341744dd41161024a57806366d003ac116101fe57806381c0c263116101d857806381c0c263146105c157806389476069146105c95780638d52fcef146105ef576102f4565b806366d003ac14610594578063761610fc1461059c57806378c8e65f146105b9576102f4565b80634b104eff1161022f5780634b104eff146105405780634e71d92d146102f45780635431c94e14610566576102f4565b806341744dd4146104c85780634a2b8872146104d0576102f4565b806325e16063116102ac578063356130bc11610286578063356130bc1461047d578063368e9d6a146104855780633bbed4a0146104a2576102f4565b806325e160631461044757806326d7d2c31461046d57806331fe2b3a14610475576102f4565b806316d95c1e116102dd57806316d95c1e1461034e5780631942999c1461036857806319f4ff2f1461042a576102f4565b806303ce3355146102fe5780630c340a241461032a575b6102fc6108e9565b005b6102fc6004803603604081101561031457600080fd5b506001600160a01b038135169060200135610d0d565b610332610e20565b604080516001600160a01b039092168252519081900360200190f35b610356610e2f565b60408051918252519081900360200190f35b6102fc6004803603604081101561037e57600080fd5b81019060208101813564010000000081111561039957600080fd5b8201836020820111156103ab57600080fd5b803590602001918460208302840111640100000000831117156103cd57600080fd5b9193909290916020810190356401000000008111156103eb57600080fd5b8201836020820111156103fd57600080fd5b8035906020019184602083028401116401000000008311171561041f57600080fd5b509092509050610e35565b6102fc6004803603602081101561044057600080fd5b5035610e86565b6102fc6004803603602081101561045d57600080fd5b50356001600160a01b0316610ea2565b6102fc610ef2565b610356611079565b61035661107f565b6102fc6004803603602081101561049b57600080fd5b5035611085565b6102fc600480360360208110156104b857600080fd5b50356001600160a01b03166110a1565b6103566110f2565b6102fc600480360360408110156104e657600080fd5b81019060208101813564010000000081111561050157600080fd5b82018360208201111561051357600080fd5b8035906020019184602083028401116401000000008311171561053557600080fd5b9193509150356110f8565b6102fc6004803603602081101561055657600080fd5b50356001600160a01b0316611136565b6102fc6004803603604081101561057c57600080fd5b506001600160a01b0381358116916020013516611187565b61033261124e565b6102fc600480360360208110156105b257600080fd5b503561125d565b610356611830565b6102fc611836565b6102fc600480360360208110156105df57600080fd5b50356001600160a01b03166118af565b6102fc6004803603602081101561060557600080fd5b50356118df565b6103566118fb565b6102fc611901565b6103566004803603602081101561063257600080fd5b50356001600160a01b0316611944565b6102fc6004803603602081101561065857600080fd5b50356001600160a01b0316611956565b610332611976565b6103566004803603602081101561068657600080fd5b50356001600160a01b0316611985565b610356600480360360208110156106ac57600080fd5b50356001600160a01b0316611997565b610356600480360360208110156106d257600080fd5b50356001600160a01b03166119c8565b6102fc600480360360408110156106f857600080fd5b81019060208101813564010000000081111561071357600080fd5b82018360208201111561072557600080fd5b8035906020019184602083028401116401000000008311171561074757600080fd5b9193509150356119da565b6102fc611a12565b610356611a3f565b610356611a44565b6102fc6004803603604081101561078057600080fd5b506001600160a01b038135169060200135611a4a565b610356600480360360208110156107ac57600080fd5b50356001600160a01b0316611ab5565b610332611ac7565b610356600480360360208110156107da57600080fd5b50356001600160a01b0316611ad6565b610356611ae8565b610356611aee565b6102fc6004803603602081101561081057600080fd5b5035611af4565b6102fc6004803603604081101561082d57600080fd5b81019060208101813564010000000081111561084857600080fd5b82018360208201111561085a57600080fd5b8035906020019184602083028401116401000000008311171561087c57600080fd5b91939092909160208101903564010000000081111561089a57600080fd5b8201836020820111156108ac57600080fd5b803590602001918460208302840111640100000000831117156108ce57600080fd5b509092509050611b10565b610332611b5a565b610356611b69565b600854421015610940576040805162461bcd60e51b815260206004820152601160248201527f69742773206e6f742074696d6520796574000000000000000000000000000000604482015290519081900360640190fd5b33600090815260136020526040902054156109a2576040805162461bcd60e51b815260206004820152600f60248201527f636c61696d656420616c72656164790000000000000000000000000000000000604482015290519081900360640190fd5b33600090815260126020526040902054610a03576040805162461bcd60e51b815260206004820152601860248201527f6f66666572656420557364742073686f756c6420677420300000000000000000604482015290519081900360640190fd5b600d54600c5411610b8657600b54600a54610a239163ffffffff611b6f16565b600254604080517f70a0823100000000000000000000000000000000000000000000000000000000815230600482015290516001600160a01b03909216916370a0823191602480820192602092909190829003018186803b158015610a8757600080fd5b505afa158015610a9b573d6000803e3d6000fd5b505050506040513d6020811015610ab157600080fd5b50511015610af05760405162461bcd60e51b81526004018080602001828103825260298152602001806121626029913960400191505060405180910390fd5b336000908152601160209081526040808320546013909252909120819055600b54610b21908263ffffffff611bba16565b600b55600254610b41906001600160a01b0316338363ffffffff611c1416565b600b54604080518381526020810192909252805133927f34fcbac0073d7c3d388e51312faf357774904998eeb8fca628b9e6f65ee1cbf792908290030190a250610d0b565b600d54600154604080517f70a0823100000000000000000000000000000000000000000000000000000000815230600482015290516001600160a01b03909216916370a0823191602480820192602092909190829003018186803b158015610bed57600080fd5b505afa158015610c01573d6000803e3d6000fd5b505050506040513d6020811015610c1757600080fd5b50511015610c565760405162461bcd60e51b815260040180806020018281038252602881526020018061218b6028913960400191505060405180910390fd5b3360009081526012602090815260408083208054601190935290832080549184905592909255600a54909190610c8c9082611b6f565b600a55600d54610ca2908363ffffffff611b6f16565b600d55600154610cc2906001600160a01b0316338463ffffffff611c1416565b600a546040805183815260208101859052808201929092525133917fa6a8fafa560fa0bfebe22fe134882b7fdd192e35c561a5aa62ec47d373fb2f23919081900360600190a250505b565b6000546001600160a01b03163314610d2457600080fd5b610d2d82611997565b811015610d81576040805162461bcd60e51b815260206004820152601360248201527f51756f74612073686f756c64206774206d696e00000000000000000000000000604482015290519081900360640190fd5b6001600160a01b038216600090815260106020526040902054600954610dbe9190610db2908463ffffffff611bba16565b9063ffffffff611b6f16565b60099081556001600160a01b0383166000818152601060209081526040918290208590559254815185815293840152805191927f0664880d26185ba05b5e4846543c1793cf0d7969835ebc5b5838f66a64a42ed0929081900390910190a25050565b6000546001600160a01b031681565b600c5481565b60005b83811015610e7f57610e77858583818110610e4f57fe5b905060200201356001600160a01b0316848484818110610e6b57fe5b90506020020135610d0d565b600101610e38565b5050505050565b6000546001600160a01b03163314610e9d57600080fd5b600455565b6000546001600160a01b03163314610eb957600080fd5b6040516001600160a01b038216904780156108fc02916000818181858888f19350505050158015610eee573d6000803e3d6000fd5b5050565b6000546001600160a01b03163314610f0957600080fd5b600154604080517f70a0823100000000000000000000000000000000000000000000000000000000815230600482015290516000926001600160a01b0316916370a08231916024808301926020929190829003018186803b158015610f6d57600080fd5b505afa158015610f81573d6000803e3d6000fd5b505050506040513d6020811015610f9757600080fd5b5051600454909150600090610fcd90670de0b6b3a764000090610fc190859063ffffffff611c9416565b9063ffffffff611ced16565b90506000610fe1838363ffffffff611b6f16565b600554600154919250611007916001600160a01b0390811691168363ffffffff611c1416565b60065460015461102a916001600160a01b0391821691168463ffffffff611c1416565b600554604080518581526020810184905281516001600160a01b03909316927ff0fa8383bc9412382eb19bc4c20cb3a68b6a8c505d5deb5fcd132e260250f983929181900390910190a2505050565b600e5481565b60085481565b6000546001600160a01b0316331461109c57600080fd5b600855565b6000546001600160a01b031633146110b857600080fd5b600580547fffffffffffffffffffffffff0000000000000000000000000000000000000000166001600160a01b0392909216919091179055565b60045481565b60005b828110156111305761112884848381811061111257fe5b905060200201356001600160a01b031683611a4a565b6001016110fb565b50505050565b6000546001600160a01b0316331461114d57600080fd5b600680547fffffffffffffffffffffffff0000000000000000000000000000000000000000166001600160a01b0392909216919091179055565b6000546001600160a01b0316331461119e57600080fd5b604080517f70a0823100000000000000000000000000000000000000000000000000000000815230600482015290516000916001600160a01b038516916370a0823191602480820192602092909190829003018186803b15801561120157600080fd5b505afa158015611215573d6000803e3d6000fd5b505050506040513d602081101561122b57600080fd5b505190506112496001600160a01b038416838363ffffffff611c1416565b505050565b6005546001600160a01b031681565b6001546001600160a01b03166112ba576040805162461bcd60e51b815260206004820152601e60248201527f73686f756c642063616c6c206f66666572457468282920696e73746561640000604482015290519081900360640190fd5b600754421015611311576040805162461bcd60e51b815260206004820152601160248201527f69742773206e6f742074696d6520796574000000000000000000000000000000604482015290519081900360640190fd5b61131a33611997565b811161136d576040805162461bcd60e51b815260206004820181905260248201527f616d6f756e742073686f756c64206774204d696e55736474506572736f6e4f66604482015290519081900360640190fd5b60085442106113c3576040805162461bcd60e51b815260206004820152600760248201527f6578706972656400000000000000000000000000000000000000000000000000604482015290519081900360640190fd5b336000908152601060205260409020546113de908290611d2f565b905060008111611435576040805162461bcd60e51b815260206004820152600860248201527f6e6f2071756f7461000000000000000000000000000000000000000000000000604482015290519081900360640190fd5b600154604080517fdd62ed3e000000000000000000000000000000000000000000000000000000008152336004820152306024820152905183926001600160a01b03169163dd62ed3e916044808301926020929190829003018186803b15801561149e57600080fd5b505afa1580156114b2573d6000803e3d6000fd5b505050506040513d60208110156114c857600080fd5b5051101561151d576040805162461bcd60e51b815260206004820152601460248201527f616c6c6f77616e6365206e6f7420656e6f756768000000000000000000000000604482015290519081900360640190fd5b600154604080517f70a08231000000000000000000000000000000000000000000000000000000008152336004820152905183926001600160a01b0316916370a08231916024808301926020929190829003018186803b15801561158057600080fd5b505afa158015611594573d6000803e3d6000fd5b505050506040513d60208110156115aa57600080fd5b505110156115ff576040805162461bcd60e51b815260206004820152601260248201527f62616c616e6365206e6f7420656e6f7567680000000000000000000000000000604482015290519081900360640190fd5b3360009081526011602052604090205415611661576040805162461bcd60e51b815260206004820152600f60248201527f6f66666572656420616c72656164790000000000000000000000000000000000604482015290519081900360640190fd5b60015461167f906001600160a01b031633308463ffffffff611d4516565b3360009081526012602052604081208290556003546116bf90670de0b6b3a7640000906116b390859063ffffffff611ced16565b9063ffffffff611c9416565b336000908152601160205260409020819055600d549091506116e7908363ffffffff611bba16565b600d55600a546116fd908263ffffffff611bba16565b600a55600254604080517f70a0823100000000000000000000000000000000000000000000000000000000815230600482015290516001600160a01b03909216916370a0823191602480820192602092909190829003018186803b15801561176457600080fd5b505afa158015611778573d6000803e3d6000fd5b505050506040513d602081101561178e57600080fd5b5051600a5411156117e6576040805162461bcd60e51b815260206004820152600d60248201527f51756f74612069732066756c6c00000000000000000000000000000000000000604482015290519081900360640190fd5b600a546040805184815260208101849052808201929092525133917f6651ad68b77f61e7600bc16c3c7108ec45225340ce47a77729663f01b5fcc0b1919081900360600190a25050565b60075481565b6000546001600160a01b0316331461184d57600080fd5b600080546040516001600160a01b03909116907fc7c0c772add429241571afb3805861fb3cfa2af374534088b76cdb4325a87e9a908390a3600080547fffffffffffffffffffffffff0000000000000000000000000000000000000000169055565b6000546001600160a01b031633146118c657600080fd5b6002546118dc906001600160a01b031682611187565b50565b6000546001600160a01b031633146118f657600080fd5b600755565b60035481565b6000546001600160a01b0316331461191857600080fd5b60405133904780156108fc02916000818181858888f193505050501580156118dc573d6000803e3d6000fd5b600f6020526000908152604090205481565b6000546001600160a01b0316331461196d57600080fd5b6118dc81611dcd565b6006546001600160a01b031681565b60136020526000908152604090205481565b6001600160a01b0381166000908152600f602052604081205480156119bd5790506119c3565b5050600e545b919050565b60116020526000908152604090205481565b60005b8281101561113057611a0a8484838181106119f457fe5b905060200201356001600160a01b031683610d0d565b6001016119dd565b6000546001600160a01b03163314611a2957600080fd5b600254610d0b906001600160a01b031633611187565b600181565b600b5481565b6000546001600160a01b03163314611a6157600080fd5b6001600160a01b0382166000818152600f6020908152604091829020849055815184815291517fe1a9ef0acbd509b99e9e7183d721a347ffe210cf889b27511fbf09814abbe5de9281900390910190a25050565b60106020526000908152604090205481565b6001546001600160a01b031681565b60126020526000908152604090205481565b60095481565b600a5481565b6000546001600160a01b03163314611b0b57600080fd5b600c55565b60005b83811015610e7f57611b52858583818110611b2a57fe5b905060200201356001600160a01b0316848484818110611b4657fe5b90506020020135611a4a565b600101611b13565b6002546001600160a01b031681565b600d5481565b6000611bb183836040518060400160405280601e81526020017f536166654d6174683a207375627472616374696f6e206f766572666c6f770000815250611e53565b90505b92915050565b600082820183811015611bb1576040805162461bcd60e51b815260206004820152601b60248201527f536166654d6174683a206164646974696f6e206f766572666c6f770000000000604482015290519081900360640190fd5b604080516001600160a01b038416602482015260448082018490528251808303909101815260649091019091526020810180517bffffffffffffffffffffffffffffffffffffffffffffffffffffffff167fa9059cbb00000000000000000000000000000000000000000000000000000000179052611249908490611eea565b600082611ca357506000611bb4565b82820282848281611cb057fe5b0414611bb15760405162461bcd60e51b81526004018080602001828103825260218152602001806121b36021913960400191505060405180910390fd5b6000611bb183836040518060400160405280601a81526020017f536166654d6174683a206469766973696f6e206279207a65726f0000000000008152506120c0565b6000818310611d3e5781611bb1565b5090919050565b604080516001600160a01b0380861660248301528416604482015260648082018490528251808303909101815260849091019091526020810180517bffffffffffffffffffffffffffffffffffffffffffffffffffffffff167f23b872dd00000000000000000000000000000000000000000000000000000000179052611130908590611eea565b6001600160a01b038116611de057600080fd5b600080546040516001600160a01b03808516939216917fc7c0c772add429241571afb3805861fb3cfa2af374534088b76cdb4325a87e9a91a3600080547fffffffffffffffffffffffff0000000000000000000000000000000000000000166001600160a01b0392909216919091179055565b60008184841115611ee25760405162461bcd60e51b81526004018080602001828103825283818151815260200191508051906020019080838360005b83811015611ea7578181015183820152602001611e8f565b50505050905090810190601f168015611ed45780820380516001836020036101000a031916815260200191505b509250505060405180910390fd5b505050900390565b611efc826001600160a01b0316612125565b611f4d576040805162461bcd60e51b815260206004820152601f60248201527f5361666545524332303a2063616c6c20746f206e6f6e2d636f6e747261637400604482015290519081900360640190fd5b60006060836001600160a01b0316836040518082805190602001908083835b60208310611fa957805182527fffffffffffffffffffffffffffffffffffffffffffffffffffffffffffffffe09092019160209182019101611f6c565b6001836020036101000a0380198251168184511680821785525050505050509050019150506000604051808303816000865af19150503d806000811461200b576040519150601f19603f3d011682016040523d82523d6000602084013e612010565b606091505b509150915081612067576040805162461bcd60e51b815260206004820181905260248201527f5361666545524332303a206c6f772d6c6576656c2063616c6c206661696c6564604482015290519081900360640190fd5b8051156111305780806020019051602081101561208357600080fd5b50516111305760405162461bcd60e51b815260040180806020018281038252602a8152602001806121d4602a913960400191505060405180910390fd5b6000818361210f5760405162461bcd60e51b8152602060048201818152835160248401528351909283926044909101919085019080838360008315611ea7578181015183820152602001611e8f565b50600083858161211b57fe5b0495945050505050565b6000813f7fc5d2460186f7233c927e7db2dcc703c0e500b653ca82273b7bfad8045d85a47081811480159061215957508115155b94935050505056fe206f66666572656420746f6b656e206e756d6265722073686f756c642067742062616c616e61636521206f6666657265642055736474206e756d6265722073686f756c642067742062616c616e61636521536166654d6174683a206d756c7469706c69636174696f6e206f766572666c6f775361666545524332303a204552433230206f7065726174696f6e20646964206e6f742073756363656564a264697066735822122020faaa414a9acac1ee52070f207bce70e32d9e07201695d4e8686072571ba75564736f6c63430006020033",
  "linkReferences": {},
  "deployedLinkReferences": {}
}